:020000040000FA
:060000000212A402080731
:03002B000228D0D8
:0300330002103B7D
:030043000210C1E7
:03004B00020F7928
:0300530002075948
:03005B00020F8809
:03006300020F94F5
:03006B000210215F
:100083000207A3010101010503010F10FEFF030095
:100093000300030003000300030003000300030045
:1000A30005000A00140028004F009E000000491AB2
:1000B300491A491A491A0519FF18491A65290000EE
:1000C3000000292A000000000C0000000C000100C1
:1000D30000AB1B000000000000471C0000000000F4
:1000E300008D1BD304FF010200181100000016123B
:1000F30064000202000800000501071E02051E023B
:100103000A03B80B803E01FFFF020206060606063D
:100113000014141414140006FF0600080014561AE1
:1001230000000079267F2685268B2600000000002C
:1001330000000000000000000000000000000000BC
:1001430000102020202020202020202020202020DC
:100153002020010D0401010100056F84011C85307D
:10016300313233343536373839414243444546001A
:10017300286E756C6C20706F696E7465722900301F
:10018300313233343536373839616263646566003A
:100193003F3F3F000000803FF9021550B743BA517B
:1001A3000000204100E7DB2E0000A040100000000B
:1001B300080000001212C360461212F0603DE968A5
:1001C3007008F618F618F618F622748067F712010D
:1001D300EB090909748067F7221212F0601D1212ED
:1001E300C37005191919801A12112E701F12115894
:1001F300C37003E667331919194007181818220842
:10020300080874FFF618F618F618F622121158604B
:1002130017121317702192F012132170195017201F
:10022300F014080808090909E7F61819E7F6181978
:10023300E7F61819E7F62212132160E6E869701F42
:100243000808E62480F608E436F618547FB47F0CD9
:10025300E654806007F6E418F618F622181822E927
:10026300C6CC08C6CD08C6CE08C6CFC0E0E8C0E0FD
:10027300EAC0E0EBC0E009E9F809E7FA09E7FBE6C1
:10028300F918E6F8C3EC98ED99EE9AEBC2E7F5F0AE
:10029300EFC2E795F0500E600CEBCFFBEACEFAE924
:1002A300CDF9E8CCF8EAA2E7D2E7FAEB33FB13F592
:1002B300F0EEA2E7D2E7FEEF33FFC5F013A2E7307B
:1002C300E601B313C5F0C3C0E0C0F07F00C39BFBDE
:1002D300605B9418600C401AD0E023F9D0E0F80278
:1002E30003BA8AF0E9486003D2F0E4AFF0FAF9F810
:1002F300803BEB30E40D89F0EA6003D2F0E4AFF029
:10030300F9CAF8EB30E30D88F0EF6002D2F0AFF0FA
:10031300E4CAC9F8EB54076014FBC3EA13FAE91300
:10032300F9E813F8EF135002D2E0FFDBEDD0E0C0A1
:10033300E030E739C3E49FFFF5F0EC98FC42F0EDC1
:1003430099FD42F0EE9AFE42F0D0E0F9D0E0F8E5F4
:10035300F0607AE923F9EE20E742D8028067C3EF21
:1003630033FFEC33FCED33FDEE33FE80EAEC28FC87
:10037300ED39FDEE3AFED0E023F9D0E0F8400280FB
:100383001BC3EE13FEED13FDEC13FCEF135002D26F
:10039300E0FF08B800067F7F74FF802EEF3350170D
:1003A3008CF020F00260100CBC000C0DBD00080E98
:1003B300BE000408E860DFE933E813FFEE2313FE11
:1003C3004F4D4C8008E95480FFE4FEFDFCEE33EF13
:1003D30033F47004FCFD7E80D0E0FBD0E0FAD0E083
:1003E300F8D0E0CFC618CEC618CDC618CCC6F922B1
:1003F3001212F07004181818221212C3700D74FF31
:10040300F61819F61819F61819F622E7548066F645
:10041300121321700F12131770F014F608F608F672
:1004230008F680D1121317700CF608F608768008C8
:10043300E6447F80EC12115B700C12113160BFE651
:100443005480F6E480BB121131700519191980A587
:10045300E869700C763F18768018F618F6E8F922EA
:10046300E6CDC0E018ECC0E0E633CD33CDD313F6D0
:10047300E719FCE7191933CC33C3947F400ECD9DA4
:10048300502408E65480F6E418F6800FF4043D1473
:10049300501408E6447FF6187680E418F618F6D070
:1004A300E0FCD0E0FD22CCD313CCFD18E4C6CBC0D6
:1004B300E018E4C6CAC0E00808ED08C633E613F640
:1004C30018E433C675F003C3CA97CA09CB97CB198F
:1004D3009C40047D08802EBD000302059C16B6FFD8
:1004E300050606081618C3CA33CACB33CB33CA274B
:1004F300CA09CB37CB193CC37D08803E187D082041
:10050300E75CC633C6CA33CACB33CB33DDF1D5F090
:10051300EB30E77BCA97CA09CB974ACB199C406F4C
:100523004B7025E620E0218066187D08C3CA97CA70
:1005330009CB97CB199CD3C633C6CA33CACB33CBAB
:100543003350C9DDE7D5F0E1D3E4C636C608C63675
:10055300C608C636C608C636C61818188031C3CAB8
:1005630097CA09CB97CB199CB34097C633C6CA33F6
:10057300CACB33CB33DD34D5F02EC6A2E0C640C898
:10058300CA27CA09CB37194A70BECB3CB480B90815
:1005930008E63308E633601F181818D0E0FAD0E0F5
:1005A300FBD0E0FCD0E0FD22187D08CA27CA09CBA6
:1005B30037CB193CD3808013F618E4B67F11F618B5
:1005C300B6FF0EF618C60470D20808768080CAF605
:1005D30018F618F680C5001212F0604F1212C360AD
:1005E30012E7548066F612112E7011121317703B26
:1005F300090909F4F618F618F618F62212115870BC
:100603001512132108080860EAE6447FF61876807D
:1006130018E4F618F622121321601612131770123B
:10062300E4F608F608F608E65480F60909091818EE
:100633001822EAC0E0EBC0E0ECC0E0EDC0E0E687E2
:10064300F0A4FBACF008E687F0A42CFCE435F0FA48
:100653001809E687F0A42C4B60027401CA35F0FC3C
:10066300E433FB09E687F0D2F7A42CCB35F0FC1971
:1006730008E687F0A42BCC35F0FBE433FD0819E63C
:1006830087F0D2E7A42C4ACB35F0CD3400FC09E641
:1006930087F0D2E7A42DCC35F0FDE433FA0918E650
:1006A30087F0D2F7A42CCD35F0CA3400FC08E687D6
:1006B300F0D2E7D2F7A42ACC35F07A7E20E70B0AF2
:1006C300CB33CBCD33CDCC33CC33CB3350147004BD
:1006D300ED30E00ED2F1E4CD3DCDCC3CCC3B50052A
:1006E300DA05C2F1EB547FC63308E63392F0FBE739
:1006F3003309E733C39A502D2B70190C0D4C4D70F1
:10070300151806E608C333700D20F10AA2F013F69C
:10071300E418800B4024E4F630F002768018F618D3
:10072300F618F68024D33B14501074FFA2F013F68E
:10073300187680E418F618F6800FA2F013F618E680
:100743003303F618ECF618EDF6D0E0FDD0E0FCD05C
:10075300E0FBD0E0FA22C0E074F2120B1AE5A7FA2C
:10076300E5A1FBEA5B5410600812234353A1EF8019
:100773002AEAA2E0C0D0EBA2E092F01211CE1581DA
:1007830082F05017906198E0FA901530E0C39AA276
:10079300D265D0335002EAF053A1FE7F01020C2848
:1007A300C0E074F2120B1A9061A4E0FA759B00E5A5
:1007B300915A540860087591F7122385802AE591B0
:1007C3005A541060087591EF12238B801BEAA2E044
:1007D300C0D0E591A2E092F01211CE158182F050C3
:1007E30007E0C2E0F01224B19061A3E0FAE5E95A10
:1007F3005404600E12248775E9FB906193E0A2E62E
:1008030040F28097C0E074F2120B1A9061A5E0FAEF
:10081300E5BF5A5404600653BFFB1224C902079E66
:10082300C3E498F8E499F91208648026C3E49AFAB9
:10083300E49BFBE920E7E9120864E498F8E499F9FA
:1008430022C3E498F8E499F9120864E498F8E49967
:10085300F9C3E49AFAE49BFB22EB20E7CFE920E714
:10086300E0B90010BB0008E88AF084F8AAF022E49B
:10087300FBC8FA22EB70227B10C833C8C933C933D3
:100883005007C39AC3DBF280069A50012ADBEAC8F9
:1008930033F4C8C933F4C9FA2275F008E4C833C87D
:1008A300C933C933C99AC99B5004C92AC93BD5F076
:1008B300ECFBC833F4C8E4C9FA221208FD20F01493
:1008C30030E72B74FFFCFBFA747F8022E4FCFBFA15
:1008D3007480801AB48008BC00F2BB00EF800F5014
:1008E300EBF9E4C39AFAE49BFBE49CFCE499C6CCE1
:1008F30018C6CB18C6CA18C6F922E4C9C608CAC6A0
:1009030008CBC6D3330308CCC63392F0C3947F40DD
:100913002E94184019C9B90704CACBCC225025C359
:1009230009CA33CACB33CBCC33CC33D9F422F460EA
:100933000DC9CCC313CB13CBCA13CAD9F6CC22E44B
:10094300FCFBFA2214FCFBFA22080808EAC0E0EBDD
:10095300C0E086F0E7A4FA180986F0E7A42AFA189B
:100963000986F0E7A42AFA180986F0E7A42AFA19F7
:1009730086F0E7A4FBE5F02AFA190886F0E7A42B32
:10098300FBE5F03AFA190886F0E7A42BFBE5F03A09
:10099300FA18180986F0E7A4C5F02BFBE43AFA1914
:1009A30008E7C5F0C6A426F6E5F03BFBE43AFA18DF
:1009B30086F0E7A4F6E5F00826F6E43B08F6E43A09
:1009C30008F6D0E0FBD0E0FA22080808E630E71189
:1009D30012116D1209E4080808C64480C6181818D5
:1009E30022181818E9799EC608CAC608CBC608CCCF
:1009F300C6C370207996CACBCC7019798ECBCC70D4
:100A0300137986CC700EF9802ACA33CACB33CBCC88
:100A130033CC331930E7F2CCCBCA3350147004EA29
:100A230030E00DE4CA3ACACB3BCBCC3CCC500209F4
:100A3300C3E913C6CC182313C6CB18C6CA18C6F904
:100A430022E4CFC0E0E4CEC0E0E4CDC0E0E4CCC01B
:100A5300E075F020C3E633F608E633F608E633F62E
:100A630008E633F6181818EC33FCED33FDEE33FECD
:100A7300EF33FFC3EC9709ED9709EE9709EF971949
:100A83001919400FFFEC97FC09ED97FD09EE97FE4E
:100A9300191906D5F0BEECF709EDF709EEF709EFE2
:100AA300F7191919D0E0FCD0E0FDD0E0FED0E0FF4B
:100AB300222518C582C0E0E51934FFC583C0E0E5EF
:100AC30018C3958224F8F8E4C5A88583198582188C
:100AD300C5A8E8CEF0A3E520F0A37808E608F0A3C4
:100AE300DEFAEFF0A3E58124FAF8E608F0A3E608BE
:100AF300F0A3E608F0A30808E608F0A3E608F0A3CD
:100B030015811581D0E0FED0E0F81581158115819E
:100B1300E8C0E0EEC0E022C0D02518C582C0E0E501
:100B23001934FFC583C0E0E518C3958224F310AFE1
:100B3300088583198582188008858319858218D2D0
:100B4300AFC8F0A3E9F0A3EAF0A3EBF0A37908E7B9
:100B530009F0A3D8FAECF0A3EDF0A3EEF0A3EFF0C5
:100B6300A3D0E0F0A3D0E0F0A3D0E0F0A3E520F021
:100B7300A3E5F0F0A32212130CB90003020BBBE4AC
:100B8300900301784E79198002F0A3D8FCD9FA902A
:100B93001B4EAA82AB83900086783279028015E4DB
:100BA30093A3AC82AD838A828B83F0A3AA82AB83A7
:100BB3008C828D83D8E9D9E77582A97583EF740395
:100BC300120DA57582CB7583287400120DA5121121
:100BD30070181818120A44121253191919221212F2
:100BE30053191919080808E618181820E7E0120A1B
:100BF3004412117018181822090909E71919192044
:100C0300E7DC080808E618181820E703020A44126C
:100C13001170181818120A441211701818181212A9
:100C23005319191922851983851882E0C0E0A3E0BE
:100C3300F9A3E0FAA3E0FBA37808E0F608A3DFFA40
:100C4300E0FCA3E0FDA3E0FEA3E0FFA3E0C0E0A37C
:100C5300E0C0E0A3E0F5D0A3E0F520A3E0A3F5F026
:100C6300E4C5A8858319858218C5A8D082D083D00E
:100C7300E0F8D0E0321212F0601C1212C3601712B7
:100C8300132170071213177001D322C0D012131748
:100C93007006D0D0B322C32233D0D0501430E0F644
:100CA300C3E7960809E7960809E7960809E796B3A4
:100CB3002220E0D5E6970809E6970809E697080990
:100CC300E697B322D083D082ECC0E0EDC0E0E4939A
:100CD300A3FCE493A3FDED4C600D120DE7EC24FFA0
:100CE300FCED34FFFD80EFE493A3FCE493A3FDED5F
:100CF3004C600D120F24EC24FFFCED34FFFD80EF5C
:100D0300D0E0FDD0E0FCE493A3C0E0E493C0E02294
:100D13001212F0601B1212C3601612132170071215
:100D23001317600CB322C0D01213177005D0D02252
:100D3300C32233D0D0501330E0EBC3E7960809E762
:100D4300960809E7960809E7962220E0E4E6970863
:100D530009E6970809E6970809E69722D083D08227
:100D6300E9C0E0E493A3C386F0C5F095F0F908E485
:100D730093A386F0C5F095F0700BE493A3C3994059
:100D830005E9048002A3E475F002A42582F582E557
:100D9300F03583F583D0E0F9E493A3C0E0E493C096
:100DA300E022F5F0E59F5407C0E0E59F54F845F0D5
:100DB300F59FE473859FF053F0F8D0E045F0F59F7D
:100DC30022D083D082E59F5407C0E0E493C0E0744F
:100DD3000193C0E07402935407F5F0E59F54F8457E
:100DE300F0F59F22C0E0C3E493960874019396182C
:100DF300400FE493667008087401936618700070DE
:100E030019A3A3C3E49396087401939618A3A3406C
:100E13000DD0E0D0E0D0E0020D03A3A3A3A3A3A3CE
:100E2300D0E022851983851882E0A3FEE0A3F52094
:100E33007808E0A3F608DFFAE0A3FFE0A3C0E0E050
:100E4300A3C0E0E0A3C0E0E0A3C0E0E0A3C0E0E40F
:100E5300C5A8858218858319C5A8D083D082020DC1
:100E6300B7D083D082C5F0E493A3C5F0C395F0F562
:100E7300F0E493A3C395F04005E5F0048001E47525
:100E8300F002A42582F582E5F03583F583E493A38C
:100E9300C0E0E493C0E0227404800474028000CCB8
:100EA300C0E0EDC0E0E518C39CCCAD1950011D10A6
:100EB300AF068C188D1980068C188D19D2AF120FBE
:100EC300C2D0E0FDD0E0FC2274028000CCC0E0ED93
:100ED300C0E0E518C39CCCAD1950011D10AF068CC2
:100EE300188D1980068C188D19D2AF120FA0D0E07F
:100EF300FDD0E0FC221212F060251212C360201212
:100F030013217003021317080808E76670101819F5
:100F1300E766700A1819E76670041819E76622F481
:100F230022C0E0C0F088F0E493667008087401936F
:100F330066187000A8F0A3A3700BD0F0D0E0D0E047
:100F4300D0E0020D03A3A3D0F0D0E022D083D0825F
:100F5300CCC0E0E493A36006120FE31470FAE493A9
:100F6300A360061210EE1470FAD0E0FCE493A3C061
:100F7300E0E493C0E022C0E074F2120B1A12227173
:100F83007F01020C28C0E074F2120B1A1222778040
:100F9300EFC0E074F2120B1A12227D80E3CAC0E0A4
:100FA300E493A3C582CCC582C583CDC583F0A3C515
:100FB30082CCC582C583CDC583DAE5D0E0CA22CA17
:100FC300C0E0E0A3C582CCC582C583CDC583F0A3B1
:100FD300C582CCC582C583CDC583DAE6D0E0CA22FB
:100FE300C0E0E493A3D39C5010E493A3C39C400AB2
:100FF300D0E0D0E0D0E0020F6CA3A3A3D0E0227036
:1010030009080808226016181818C6C333C608C68C
:1010130033C608C633C608C633C6D5E0EA22C0E0E5
:1010230074F2120B1AE589A2E150031221AB758900
:1010330000C2C57F01020C28C2E8322518F58210D0
:10104300AF08F518400215198008F5184002151964
:10105300D2AF851983227404800A74038006740254
:1010630080027401C0E0F40412103ED0E01212FFBB
:1010730022C0D0251810AF08F518500205198008B2
:10108300F51850020519D2AFD0D022BB0102E722D6
:10109300C082C08389828A83BB0003E08002E49319
:1010A300D083D082226016080808C6C313C618C6A8
:1010B30013C618C613C618C613C6D5E0EA22C0E085
:1010C30074F2120B1AC2C0E5D1A2E450031222B388
:1010D3007F01020C28251810AF08F51840021519D6
:1010E3008008F51840021519D2AF22C0E0E493A39B
:1010F3006C7009D0E0D0E0D0E0020F6CA3A3D0E085
:1011030022C3E09608A3E09608A3E09608A3E0961E
:10111300A2D265D03322E066701008A3E066700A9D
:1011230008A3E066700408A3E06622181818E6080E
:101133004608700AE608C3337005E633F422082232
:10114300C3E7960809E7960809E7960809E796A210
:10115300D265D03322191919E7094709700AE7093B
:10116300C3337005E733F4220922181818E4C39631
:10117300F608E496F608E496F608E496F622C3E049
:1011830096F008A3E096F008A3E096F008A3E09693
:10119300F022E627F60809E637F60809E637F608E7
:1011A30009E637F622E026F608A3E036F608A3E0C0
:1011B30036F608A3E036F622E026F008A3E036F080
:1011C30008A3E036F008A3E036F022C0E0E8C0E070
:1011D300E58124FCF8E6A2E7D0E0F8D0E022E0566F
:1011E300F608A3E056F608A3E056F608A3E056F681
:1011F30022E657F60809E657F60809E657F60809FE
:10120300E657F622E647F60809E647F60809E647F1
:10121300F60809E647F622E056F008A3E056F00880
:10122300A3E056F008A3E056F022E046F008A3E05E
:1012330046F008A3E046F008A3E046F0227004223B
:10124300600D18C6C333C608C633C6D5E0F41822EA
:10125300E4C397F709E497F709E497F709E497F7E5
:1012630022600D08C6A2E713C618C613C6D5E0F35D
:1012730022C6F4C608C6F4C608C6F4C608C6F4C631
:1012830022C3E7960809E7960809E7960809E7964F
:1012930022C3E09608A3E09608A3E09608A3E0968D
:1012A3002275D00075814075180175190300020B72
:1012B30079600C08C6C313C618C613C6D5E0F4225A
:1012C300E7094709C3134709336002E733F422E60A
:1012D300F008A3E6F008A3E6F008A3E6F022E0F6A0
:1012E30008A3E0F608A3E0F608A3E0F622E6084622
:1012F30008C3134608336002E633F422CAC0E0E6AB
:10130300F0A308DAFAD0E0FA2274F855C74401F5DD
:10131300C7790122E7C33319471947194722E6C39F
:1013230033184618461846222518F582E43519F570
:101333008322120DC4B08C01120DC4DE8D01120D77
:10134300C40B8E01120DC41D8E01120DC4278E0114
:10135300120DC4AB8E01120DC41A8F01120DC4C33A
:101363008F01120DC4CB8F01120DC4B79001120D62
:10137300C42E9101120DC46B9101120DC4D29101BF
:10138300120DC41F9301120DC43B9301120DC4949B
:101393009301120DC4319401120DC4819401120DF5
:1013A300C41C9501120DC4C99501120DC407960101
:1013B300120DC4779601120DC4C29601120DC4FB1F
:1013C3009601120DC4299801120DC4639901120DDF
:1013D300C4C49901120DC40D9A01120DC4359A01AA
:1013E300120DC4B89A01120DC4389B01120DC4AB7F
:1013F3009B01120DC4D09B01120DC4469C01120D1A
:10140300C4EA9C01120DC4709D01120DC4979D0185
:10141300120DC4BC9E01120DC4CF9E01120DC461F6
:101423009F01120DC48A9F01120DC42AA001120D3F
:10143300C469A001120DC4ABA001120DC497A10190
:10144300120DC49AA301120DC4A4A301120DC4AEBC
:10145300A301120DC4B8A301120DC4C2A301120D3E
:10146300C4DCA301120DC4E6A301120DC4F0A30151
:10147300120DC4FAA301120DC41BA401120DC469F9
:10148300A401120DC477A401120DC49BA401120D73
:10149300C4BFA401120DC41EA501120DC469A50188
:1014A300120DC487A501120DC4F7A501120DC43492
:1014B300A601120DC47BA601120DC4E3A601120DF1
:1014C300C455A701120DC489A801120DC4ACA8010B
:1014D300120DC46FA901120DC44FAA01120DC4B09D
:1014E300AC01120DC417AE01120DC4DAAF01120D17
:1014F300C42CB001120DC40FB101120DC454B101BB
:10150300120DC40CB201120DC49AB201120DC4C261
:10151300B201120DC484B301120DC48DB501120DB5
:10152300C4B2B501120DC403B601120DC404B70150
:10153300120DC43CB701120DC47CB701120DC4DFF8
:10154300B701120DC4F8B801120DC458B901120D38
:10155300C43EBA01120DC444BC01120DC460BC01E7
:10156300120DC405BE01120DC44BBE01120DC429D8
:10157300BF01120DC483BF01120DC4B8BF01120D08
:10158300C4E3BF01120DC4CEC001120DC40AC101D0
:10159300120DC446C101120DC4D4C101120DC4D72A
:1015A300C101120DC443C201120DC4AF2D00120DAF
:1015B300C4012E00120DC4383000120DC484300053
:1015C300120DC4463100120DC4B53100120DC4DD35
:1015D3003200120DC41A3500120DC4B13500120DBC
:1015E300C4513C00120DC4D73C00120DC4543F003B
:1015F300120DC4384000120DC4E44000120DC4158E
:101603004200120DC4084300120DC4394600120DE6
:10161300C4FC4700120DC45C4800120DC4124900FB
:10162300120DC43D4900120DC4CA4900120DC4B7BE
:101633004A00120DC48B4B00120DC41F4C00120D37
:10164300C44C4C00120DC46E4C00120DC4674E0006
:10165300120DC4424F00120DC48F4F00120DC4F07F
:101663004F00120DC4B25000120DC4E75000120D0A
:10167300C4355100120DC4655100120DC4A35100AD
:10168300120DC4FB5100120DC4005200120DC45BB5
:101693005200120DC4835200120DC4A25300120D46
:1016A300C40E5400120DC4785400120DC401550029
:1016B300120DC4205700120DC4FE5700120DC46D45
:1016C3005900120DC4FF5A00120DC48F5B00120D96
:1016D300C4965C00120DC41F5D00120DC4665D004C
:1016E300120DC4DD5E00120DC4F15E00120DC40BB9
:1016F3005F00120DC4265F00120DC4325F00120D8D
:10170300C4505F00120DC45A6100120DC44D620033
:10171300120DC4916200120DC4146300120DC4189B
:101723006400120DC4D46400120DC44F6600120D80
:10173300C4296700120DC4C06700120DC4526800AB
:10174300120DC4696800120DC48D6800120DC49790
:101753006800120DC4A36800120DC4C16800120D05
:10176300C4056900120DC4566900120DC4B769009F
:10177300120DC4196A00120DC4926A00120DC4A39B
:101783006B00120DC44F6C00120DC43C6D00120DA2
:10179300C4A06D00120DC4376E00120DC4076F0094
:1017A300120DC4366F00120DC4956F00120DC443A1
:1017B3007000120DC4697000120DC4697100120D1E
:1017C300C4887100120DC4F77100120DC471720048
:1017D300120DC4977200120DC4C37200120DC40E11
:1017E3007300120DC4A87300120DC4D17300120D3F
:1017F300C4377400120DC4917400120DC4B6740082
:10180300120DC4FC7400120DC4197500120DC4C36B
:101813007500120DC4409704120DC48B9704120D6A
:10182300C402C301120DC436C301120DC40CC4019A
:10183300120DC4E0C401120DC40BC601120DC48FF6
:10184300C701120DC40DC801120DC4D4C801120D75
:10185300C4F5C901120DC467CA01120DC4C9CA0176
:10186300120DC417CB01120DC421CB01120DC45F9D
:10187300CB01120DC4C8CB01120DC467CC01120DEC
:10188300C4E5CC01120DC49ACD01120DC40CCE01D6
:10189300120DC432CE01120DC462CE01120DC48FDB
:1018A300CE01120DC435CF01120DC445CF01120D67
:1018B300C498CF01120DC4A4CF01120DC4B0CF013F
:1018C300120DC4B9CF01120DC41AD001120DC47A7E
:1018D300D001120DC4CBD001120DC4E6D001120DFC
:1018E300C416D101120DC437D101120DC443D10165
:1018F300120DC484D201120DC4A2D201120DC40B65
:10190300D301120DC41ED301120DC435D301120D20
:10191300C4C8D301120DC4C7D401120DC4C3D50169
:10192300120DC445D601120DC44FD601120DC4B217
:10193300D601120DC4C3D601120DC406D701120D70
:10194300C44DD701120DC483D701120DC4B9D701F9
:10195300120DC4D7D701120DC4FBD701120DC43C1D
:10196300D801120DC42FD901120DC475D901120D5E
:10197300C4B0D901120DC40FDA01120DC437DA0154
:10198300120DC470DA01120DC47EDA01120DC4DF28
:10199300DA01120DC41CDB01120DC45EDB01120D52
:1019A300C48FDB01120DC4C3DB01120DC4CEDB01F6
:1019B300120DC4ECDB01120DC4B4DC01120DC4BE64
:1019C300DC01120DC403DD01120DC46DDD01120D26
:1019D300C481DD01120DC479DE01120DC48CDE0158
:1019E300120DC4A1DE01120DC441DF01120DC4A505
:1019F300DF01120DC468E001120DC473E001120D82
:101A0300C492E101120DC4AEE101120DC406E2015C
:101A1300120DC43DE201120DC457E201120DC4CBF5
:101A2300E201120DC45CE301120DC4A4E301120D23
:101A3300C4BFE501120DC429E601120DC494E601E9
:101A4300120DC4EDE801120DC4FDE801120DC4002E
:101A5300E901120DC40CE901120DC420E901120DB4
:101A6300C428E901120DC45DE901120DC40BEA019A
:101A7300120DC47BEA01120DC4DFEA01120DC47812
:101A8300EB01120DC412EC01120DC440EC01120D56
:101A9300C4D6EC01120DC405ED01120DC427ED01EE
:101AA300120DC44EED01120DC4B4ED01120DC41E8E
:101AB300EF01120DC421EF01120DC498EF01120DB5
:101AC300C484F001120DC45CF101120DC4E6F101EE
:101AD300120DC41BF301120DC4CDF301120DC40684
:101AE300F401120DC437F401120DC440F401120DB8
:101AF300C42CF501120DC4A8F501120DC438F6016A
:101B0300120DC402F701120DC486F701120DC4BCF5
:101B1300F701120DC405F801120DC48AA803120DB2
:101B2300C49CA803120DC40FA903120DC445A90335
:101B3300120DC49CA903120DC456AB03120DC43776
:101B4300AD03120DC435B003120DC472B003120DF0
:101B5300C48CB003120DC4EEB003120DC42AB1033A
:101B6300120DC466B103120DC4A0B103120DC4EA71
:101B73008A04120DC4098B04120DC4548B04120D74
:101B8300C49E8B04120DC4418C04120DC4558C04E5
:101B9300120DC4818C04120DC47D8D04120DC44F2B
:101BA3008904120DC48D8A04120DC4B0C703120D2B
:101BB300C437C803120DC441C803120DC468C80357
:101BC300120DC47CC803120DC4D4C803120DC4047F
:101BD300C903120DC4F9C903120DC4BECA03120D01
:101BE300C410CB03120DC45ACB03120DC497CB03FD
:101BF300120DC4FACB03120DC43DCC03120DC4B4B1
:101C0300CC03120DC40ECD03120DC417FE01120D29
:101C1300C430FE01120DC4CBFE01120DC47AFF01C4
:101C2300120DC4A7FF01120DC4FBF203120DC483EE
:101C3300F303120DC48EF303120DC4B3F303120D99
:101C4300C4009F03120DC4039F03120DC4C69F0358
:101C5300120DC4F49F03120DC436A003120DC45B0E
:101C6300A003120DC47BA003120DC4B1A003120D77
:101C7300C4FBA003120DC413A203120DC442A2039A
:101C8300120DC463A203120DC4BBA203120DC472CE
:101C9300A303120DC4B6A303120DC4F8A403120DBB
:101CA300C48EA503120DC4A2A603120DC4F1A6038C
:101CB300120DC41AA703120DC4E1A703120DC40C1D
:101CC300A803120DC43EA803120DC4149003120DF1
:101CD300C41E9003120DC46A9003120DC4DA90035C
:101CE300120DC4F79003120DC4B99103120DC46E03
:101CF3009403120DC4779403120DC4CD9403120DF3
:101D0300C4F89403120DC45D9503120DC4F9950331
:101D1300120DC4369603120DC4879603120DC4E147
:101D23009603120DC4119703120DC41C8801120DE2
:101D3300C4E09703120DC4129803120DC44798030D
:101D4300120DC4579803120DC4679803120DC4866D
:101D53009803120DC4539903120DC48C9903120DE9
:101D6300C4979204120DC45B8204120DC4BF820493
:101D7300120DC4E68204120DC4EC8304120DC4E1F7
:101D8300EC02120DC4C6ED02120DC401EE02120DD7
:101D9300C4B0EF02120DC4F4EF02120DC4ACF10291
:101DA300120DC4F3F102120DC48B8C01120DC45930
:101DB300F302120DC4E5F302120DC43DF402120D39
:101DC300C480F402120DC415F602120DC487F70283
:101DD300120DC4AFF902120DC4B9F902120DC416E3
:101DE300FA02120DC46AFA02120DC45FFD02120D4B
:101DF300C4E07F00120DC4F67F00120DC4D4E403C7
:101E0300120DC4ECE403120DC494E503120DC4D502
:101E1300E503120DC4F2E503120DC418E603120D17
:101E2300C45FE603120DC498E603120DC4CCE603A7
:101E3300120DC45EE803120DC4959704120DC4B4C9
:101E43008704120DC4218804120DC4388804120DAE
:101E5300C47D8804120DC4948804120DC42B890414
:101E6300120DC4358904120DC4FD7500120DC44B47
:101E73007600120DC4387700120DC4CD7700120D11
:101E8300C4177800120DC4657800120DC4C278001F
:101E9300120DC4D67800120DC40F7900120DC41CA4
:101EA3007A00120DC4887A00120DC4A37A00120DB1
:101EB300C4E47A00120DC4177B00120DC4707B00BA
:101EC300120DC48F7B00120DC4F37B00120DC4727C
:101ED3007D00120DC4A27D00120DC4D67D00120D2B
:101EE300C4067E00120DC40B7E00120DC4677E0073
:101EF300120DC4087F00120DC42A7F00120DC434D2
:101F03007F00120DC4377F00120DC4997F00120D9C
:101F1300C4B67F00120DC4D37F00120DC4D67F0058
:101F2300120DC4E59604120DC4FD9604120DC40CE3
:101F3300BA03120DC45DBA03120DC420BC03120D03
:101F4300C4EEBD03120DC438BE03120DC471BF032A
:101F5300120DC4C0C003120DC4DEC003120DC4327F
:101F6300C103120DC4BAC103120DC458BF02120D2E
:101F7300C482BF02120DC407C002120DC490C00276
:101F8300120DC40EC102120DC474C102120DC4B6E7
:101F9300C102120DC42DC202120DC4C2C202120D1F
:101FA300C446C302120DC482C302120DC466C70223
:101FB300120DC411C902120DC437C902120DC40592
:101FC300CA02120DC408CA02120DC4C7CA02120DF6
:101FD300C4EFCB02120DC47FCC02120DC446CF0254
:101FE300120DC4DCCF02120DC4F7D002120DC4438C
:101FF300D402120DC453D402120DC4B6D502120D6D
:10200300C431D602120DC45FD702120DC492D80296
:10201300120DC407D902120DC4AED902120DC46A3F
:10202300DA02120DC4E4DA02120DC4FCDA02120D54
:10203300C498DB02120DC4DBDB02120DC4D7DC0231
:10204300120DC403DD02120DC46EDD02120DC4C0F5
:10205300DD02120DC41DDE02120DC4F0E002120DEA
:10206300C492E102120DC40EE202120DC483E30214
:10207300120DC430E402120DC4D7E402120DC42CB5
:10208300E502120DC4A2E502120DC4CCE602120D44
:10209300C474E802120DC493E902120DC430EA02BB
:1020A300120DC4A0EA02120DC4A5EB02120DC4C0A6
:1020B3009903120DC4309A03120DC4899A03120DA9
:1020C300C4E79A03120DC4239B03120DC4B29B03EE
:1020D300120DC4429C03120DC47C9C03120DC496C2
:1020E3009C03120DC4F29C03120DC41B9D03120D1D
:1020F300C4A49D03120DC4A99D03120DC4199E030C
:10210300120DC4008004120DC44D8004120DC4FCD2
:102113008004120DC4628104120DC4D38104120D14
:10212300C494F003120DC4F1F003120DC462F20360
:10213300120DC4F18E04120DC42B8F04120DC4F1C1
:102143008F04120DC4188604120DC4268604120DC2
:10215300C4F7FF01120DC4E4FF01120DC4989404E7
:10216300120DC4A89404120DC4CC9404120DC434EB
:102173009504120DC4679104120DC48E9104120DBF
:10218300C4179204120DC47E9204120DC4DD9E0383
:10219300120DC4339004120DC44F9004120DC4B435
:1021A3009004120DC4E49004120DC4489104120D5E
:1021B300C4FBFA03120DC41BFB03120DC43CFB0347
:1021C300120DC45BFB03120DC463FB03120DC48920
:1021D300FB03120DC4C6FB03120DC4EFFB03120D68
:1021E300C43CFC03120DC484FC03120DC44BF80160
:1021F300120DC465F801120DC46EF901120DC4AFBE
:10220300F901120DC4C9F901120DC44DFA01120DE1
:10221300C448FB01120DC4B2FB01120DC4BEFB0185
:10222300120DC4E5FB01120DC411FC01120DC439DA
:10223300FC01120DC451FC01120DC4A2FC01120DCC
:10224300C460FD01120DC4FFD503120DC40DD603E6
:10225300120DC48BD603120DC45FD703120DC493A2
:10226300D903120DC4688404120DC4A08404120D92
:10227300C4C48404120DC4228504120DC4848504CD
:10228300120DC4C38504120DC4F18504120DC4EEEE
:10229300C103120DC46DC203120DC41DC303120D7D
:1022A300C48EC303120DC494C403120DC439C603F0
:1022B300120DC499C603120DC4EBC603120DC4F468
:1022C300C603120DC40AC703120DC41CC703120DA3
:1022D300C42EC703120DC493C703120DC49DC703B5
:1022E300120DC425CD03120DC478CD03120DC48C79
:1022F300CF03120DC4C4CF03120DC4E9CF03120DD3
:10230300C402D003120DC41BD003120DC410D10399
:10231300120DC49ED103120DC4A8FD02120DC4EB0D
:10232300FD02120DC4FCFD02120DC42FFE02120D9C
:10233300C467FE02120DC49FFE02120DC407FF0202
:10234300120DC43AFF02120DC4BEF503120DC4E907
:10235300F503120DC430F603120DC442F603120D39
:10236300C45EF603120DC4C6F603120DC4CFF60302
:10237300120DC430F703120DC454F703120DC41E1B
:10238300F803120DC42BF803120DC43CF803120D0D
:10239300C4799604120DC4C69604120DC485DD03D8
:1023A300120DC498DD03120DC4F6DE03120DC4032F
:1023B300DF03120DC41CDF03120DC42FDF03120D44
:1023C300C449DF03120DC468DF03120DC4E7DF0342
:1023D300120DC4B3E003120DC410E103120DC420A7
:1023E300E103120DC4DE9504120DC4039604120D0D
:1023F300C42C9604120DC4549604120DC474FD0328
:10240300120DC48DFD03120DC499FD03120DC4A258
:10241300FD03120DC4C6FD03120DC4D2FD03120D3C
:10242300C4E1FD03120DC4FFFD03120DC451FE03ED
:10243300120DC48BFE03120DC4C0FE03120DC40F94
:10244300FF03120DC45BFF03120DC473FF03120DD0
:10245300C47DFF03120DC48EFF03120DC4D2FF030C
:10246300120DC4B4FF02120DC4DEB103120DC40A6F
:10247300B203120DC426B203120DC439B203120DF6
:10248300C44FB203120DC4BBB203120DC4F5B203A1
:10249300120DC463B603120DC482B703120DC4B385
:1024A300B703120DC415B803120DC4F0B803120D0F
:1024B300C418B903120DC42DB903120DC43DB903D9
:1024C300120DC47EB903120DC4D3B903120DC4E3B4
:1024D300B903120DC4AE8D04120DC4C98D04120DBF
:1024E300C4F38D04120DC4108E04120DC4388E046F
:1024F300120DC45A8E04120DC4738E04120DC4A29D
:102503008E04120DC4BD8E04120DC42C9804120D3A
:10251300C417EC03120DC41EEC03120DC42BED0300
:10252300120DC45DED03120DC483ED03120DC4B689
:10253300ED03120DC4C8ED03120DC403EE03120D17
:10254300C473EE03120DC4B0EE03120DC4FDEE030B
:10255300120DC42BEF03120DC44BEF03120DC46A0B
:10256300F803120DC4A6F803120DC4ADF903120D3E
:10257300C4989304120DC4F69304120DC435940445
:10258300120DC4769404120DC4C9A102120DC4E83D
:10259300A102120DC44EA202120DC4D2A202120D48
:1025A300C45AA302120DC475A302120DC4EBA302F5
:1025B300120DC414A602120DC4EEA702120DC40319
:1025C300A902120DC4B9A902120DC4D5AE02120D8F
:1025D300C4BEAF02120DC450B002120DC412B10238
:1025E300120DC49AB102120DC4BAB102120DC4ED98
:1025F300B102120DC418B302120DC49BB302120D23
:10260300C4B8B302120DC41CB402120DC4ACB4029C
:10261300120DC425B502120DC40FB602120DC43338
:10262300B702120DC4CDB702120DC40AB802120DBF
:10263300C481B902120DC433BB02120DC4A0BE0281
:10264300120DC42FE103120DC4F0E103120DC45D9A
:10265300E203120DC482E203120DC44BE303120D15
:10266300C4E59704120DC4DDD103120DC465D20372
:10267300120DC487D403120DC4DDD403120DC4E0BC
:10268300D403120DC4FCD403120DC4FFD403120DE2
:10269300C424D503120DC45BD503120DC4D8D903CA
:1026A300120DC407DA03120DC450DA03120DC46A03
:1026B300DA03120DC499DA03120DC4A6DA03120D5C
:1026C300C4C3DA03120DC4B0DB03120DC4E7DB038A
:1026D300120DC4F8DC03120DC401DD03120DC40A8C
:1026E300DD03120DC413DD03120DC41CDD03120D33
:1026F300C476E803120DC409EC03120DC4A29804B6
:10270300120DC43E9504120DC4689504120DC46CD9
:102713009804120DC4D8FF03120DC4D19804120DEE
:10272300C4008003120DC4CD8403120DC4E18701DC
:10273300120DC4BD8701120DC4A28701120DC4314D
:102743008701120DC45F8601120DC4C48501120DE9
:10275300C4538501120DC4348501120DC4398C0193
:10276300120DC4148C01120DC4228501120DC497DD
:10277300A102120DC4D18B01120DC4E18A01120D05
:10278300C479A102120DC41DA102120DC457A002E7
:10279300120DC4BB9F02120DC4479E02120DC4F357
:1027A3009B02120DC40A9B02120DC4EB9A02120D76
:1027B300C48B9A02120DC43D9A02120DC481990270
:1027C300120DC43F9602120DC4179602120DC4BC1B
:1027D3009502120DC4999502120DC4F39402120DC1
:1027E300C49B9402120DC4F89202120DC4F5920216
:1027F300120DC4049202120DC4E49102120DC434EA
:102803009102120DC4B68F02120DC4518A01120D2A
:10281300C4A08901120DC4C68801120DC47D8F02A4
:10282300120DC44E8F02120DC44B8F02120DC43D04
:102833008F02120DC47A8801120DC4298F02120D62
:10284300C41C8F02120DC43F8E02120DC4CB8D0225
:10285300120DC4CCF202120DC4598801120DC49199
:102863008D02120DC4398D02120DC4088D02120D92
:10287300C43A8A02120DC4238A02120DC496890235
:10288300120DC4E48802120DC4838602120DC4ED36
:102893008302120DC4B78302120DC4558202120DB6
:1028A300C4018202120DC43A8102120DC40D8102C9
:1028B300120DC4678002120DC43A8002120DC400C7
:1028C3008002120DC493970300000080FBC2C7323D
:1028D300E473000136360101000102010001030126
:1028E3000001040106060502000007010034080187
:1028F300000F090401010D0100FF0E08000017027B
:102903000000190100FF1A0100011B0100FE1C0158
:1029130000081D0200001F01000120010001210227
:1029230000002301000F24020000260100012701FB
:102933000008280200FF2A0100072B0102402C0196
:1029430000002D0100012E0100012F0100FF3001C5
:102953000B1C310800003A0100083B01000F2F0156
:1029630000000300710030016000110070003102AB
:102973002003500480001000610000001400630075
:1029830073007200620043000000130006000000A1
:10299300000004001200000000000000000004001A
:1029A3000400370037003C02440000000000000030
:1029B30000006500000035008100000005000000F4
:1029C30083000000030271023001600211027002F1
:1029D3000102020202028002100261023A00410077
:1029E300630273027202620243020002130238009E
:1029F30000020002040212020002000200020002AE
:102A030004020402370037003C024402000239008A
:102A13000002000265020002350281020002050283
:102A23008202830200020103710301030103010314
:102A33000103010322030203010310030003000344
:102A43000003000300030003000342030003240305
:102A530006030003000304031203250323032503D2
:102A630023030403040300030003000344030003DC
:102A730000032303000365032100350381030003DF
:102A8300050300030003000303047104020460044C
:102A9300110470040204020401040204100461041A
:102AA3000004140463047304720462044304000402
:102AB30013040604000400040404120400040004C4
:102AC30000040004510464000004000400044404EE
:102AD30000040004000400046504000435048104B8
:102AE3006400050400048304000401017101010171
:102AF30001011101010131010101010180011001F5
:102B030061013B001400630173017201620143011F
:102B13000001130106013D0135000401120100010A
:102B230000010001000104010401330133013C01F0
:102B33004401320136000001000165010001350046
:102B430081010001050182018301000100000300EE
:102B530020012085000000002001218500000400E1
:102B63004201B68200000500420194820000060083
:102B7300420172820000070020011E850000100040
:102B830042030C1C000011002003421B0000120032
:102B930010031D1C030000002103431B060000005B
:102BA3002001451B0000000000000000360001006A
:102BB300060000000F0000000000000000000000FD
:102BC300000003FFFF00000403FFFF0000FFFF0FEF
:102BD300F4010005C4040320000100000B00000001
:102BE300000000000003010F0D262B2613263D26AF
:102BF30019263126192637261F263D261926312662
:102C030000000000000000000000000000000000C1
:102C13000000000025263D26000000000000000003
:102C2300000055201300D11F010055200200891F09
:102C330003008F1F0400951F05009B1F0600A71F9D
:102C43001100C51F1400CB1F1500B91FFFFF0000A3
:102C530001E7150617160811160B2316105D15024A
:102C6300ED1505051607F3150CCF150DDB15FF0044
:102C730000030003000400080010001F003E007B57
:102C830000F600EC01D703AF075D0FB91E713D00DD
:102C9300005F198F1965196B1989197D19771995B2
:102CA300199B19A119AD1971195919531903EAF58A
:102CB300E5D5D5C5B5A595958585757565655555D1
:102CC3004545353525251515059C36063A703DD9FC
:102CD300404344AD47174B814EEA5100160F0000A5
:102CE3000B150B020002220F320000060001020343
:102CF3000405060708090A0B0C0D0E0F491A5B1A87
:102D0300611A2919671A23192F1963185D1899185D
:102D13009F1893184B18BB1AD91ADF1AC11ACD1A68
:102D2300C71A00383C3E363B3B352B432C00011978
:102D330016181616152303000C0E020B040B0A07B4
:102D430008000F00034948424D181725050230308B
:102D530017181921301B1D1F303030161819202366
:102D63001A1C1E308319A719D31AB319B919AF1A2C
:102D73006D1A731A7F1A791A0005150D09100804C4
:102D83006F1875186918A5180000000000007B185B
:102D93008D1800BE040A150004000E000928080857
:102DA3000309000001040A100F0C1005C082C08340
:102DB300E99003CEF0E4900382F012255F9003E1E3
:102DC300E4F0A3F09003CFF0A3F01217BB12276334
:102DD3001214BB122565900342E4F0A3F09003F3B1
:102DE300E07002A3E060099003F312611E1228D37E
:102DF300902DABE493FA79021226D302540774F2AE
:102E0300120AB4EAFEEBFF74805FF9E47001E96033
:102E1300619003CEE0F9121D078A088B09EA70015D
:102E2300EB60467B0080010BEB75F003A42453F8A1
:102E3300E5F0342CF988828983E493FA74FF6A609D
:102E430021850882850983E06A70DCAA08AB0988BA
:102E5300828983A3E493C0E0740193F583D0821243
:102E630028D3AA08AB09121CFBEEFA74806FFB028D
:102E7300302A74105FF9E47001E9601D1216A18A0B
:102E8300088B09EA7001EB600A1215DBAA08AB098B
:102E9300121CFBEEFA741080D4EE54207003022F40
:102EA30077750C001250A47001EB70107C027D004A
:102EB3007A207B009003CEE0F9121E1B7C0079047C
:102EC3007A007B0012166B8A088B09800D740188C7
:102ED300828983F0850A08850B09E5087002E509F4
:102EE300606D7C007904AA08AB0912166B8A0A8B01
:102EF3000B750C01E508240412712E24FFF0A3E0E6
:102F030034FF1273717002A3E070C9E5082409F855
:102F1300E5093400F9850882850983A3A3A3A3A344
:102F2300A3A3A3A3A3E0640170A3850882850983F7
:102F3300A3A3A3A3A3A3E054047092740688828975
:102F430083F07AB785088285098312313B80851225
:102F5300163B7C0079017A007B0012166BEA700144
:102F6300EB7009E50C70057A2012302D74206EFA8F
:102F7300EF022E71EE541060071214F1741080EEFC
:102F8300EE54406007121545744080E2EE548060B1
:102F930007121413748080D674015FF9E47001E999
:102FA300601A9003F5E07002A3E060099003F51244
:102FB300611E1228D3EEFA7401022E7074085FF9B1
:102FC300E47001E9602D1214C7901275E06401707A
:102FD3001B901276E06015FC75F0E8A4CCAAF0759E
:102FE300F003A42AFD7A007B081231ACEEFA7408D0
:102FF300022E7074025FF9E47001E9600A1217B5DA
:10300300EEFA7402022E7074045FF9E47001E96051
:10301300121264AA125E59790112402EEEFA740458
:10302300022E707A007B00023CC27B009003CEE04C
:10303300F9121E212274F7120AB474E11210D8EAAD
:10304300FEEBFFEE7001EF6033851882851983ACC8
:1030530082AD831216CB740612132BE0601E741715
:1030630012132BE0FD740112132BE0FCEEFAEFFBBD
:103073007900122781E9600479A480027900025360
:103083004C74F6120AB4EAFEEBFF8E828F83A3A37D
:10309300A3A3A3A3E0544060178E828F8312611E03
:1030A30012662260067AFF7BFF802412312F80157F
:1030B30090036DE0A2E1500A790012312F1214CD72
:1030C30080031216EF74FE6A700374FF6B60458E03
:1030D300828F8312611E12663E12175BE98E828F06
:1030E300836006123128E480051231287401F07CD4
:1030F300B77D158E828F83125F071226CDE9F508FF
:103103007015EE7001EF60097901EEFAEFFB12160C
:10311300470261147508CDAA088E828F8312313B52
:10312300E960DF80ECE0240D125957228E828F83F1
:10313300126837FAA3E0FB22E0240C12539DF91224
:1031430015C32274F6120AB4E9FEEAFF7A0F7B0074
:10315300121CF5EA7001EB6019740C8A828B83F000
:10316300EEA3A3F0EF8A828B83A3F012630B7900A3
:103173008034EEF91216718A088B09A808A909E8A8
:103183007001E9601F740688828983A3A3A3A3A3A4
:10319300A3A31270F9A3A3A3A3A3E0F9121557EEF7
:1031A300F912164D79100261349003CEE0F9121E24
:1031B300152274EE120AB4EAFEEBFF8C088D09891E
:1031C3000E741212132BE0F510A3E0F51185108293
:1031D300F583E4F0A3F01232C5EE241DF8EF3400BA
:1031E300F9880C890D88821232D2601F850A828584
:1031F3000B831235AB7014850A82850B831257D764
:10320300851082851183125E598003750E00850C2B
:1032130082850D83126833120E640109C032353280
:103223004F3258326332C0328732C0329732B032B3
:10323300B9327810121061AC08AD09EEFAEFFB1247
:1032430014D97402121074E9F50E8071EEFAEFFBD3
:103253001214DF8068A90EEEFAEFFB12177380E7F2
:1032630012737664027056E50E7010850A82850B20
:1032730083126A8C7003A3E0697042EEFAEFFB12CB
:10328300172B803912737664027032EEFAEFFB1259
:10329300171380299003F7E07002A3E0601FEEFA92
:1032A300EFFB9003F712611E1228D38010EEFAEFA2
:1032B300FB12177F8007EEFAEFFB12178BA90E02A2
:1032C3004E50EE2409F8EF3400F9880A890B22F5F1
:1032D30083126837F912173DE92274ED120AB474A8
:1032E300DE1210D8EAFEEBFFEE2402125AD2F912D4
:1032F30016718A088B09EA7001EB70030233C9EE79
:10330300240CF50CEF124AA3EA2409F50AEB127018
:10331300E4EA2406F50EEB123BC88E828F83A3AE3C
:1033230082AF83E064F16017E064CD6012E0641A59
:10333300600DE064E96008E064E1600302344A85FB
:103343000E82850F83A3E05408F9E47001E970034A
:103353000233D67405850A82850B83F09003FBE064
:103363007002A3E060099003FB12611E1228D39040
:1033730003FDE07002A3E0603490036DE0A2E1502E
:103383002C850882850983127141A3A3A3A3A3A358
:10339300A3A3125356123BE6EA7001EB600F8E8231
:1033A3008F83E0F99003FD12611E1228D3850A82F0
:1033B300850B83E0640270037406F0851082851127
:1033C30083E0F912164D12163B74221210747F0B10
:1033D300020E267900121647E9606C90036DE0A295
:1033E300E15058850882850983126E227002A3E09A
:1033F3006049740312132B126E098E828F83E0646B
:10340300E9701812350B1210658E828F83E0F51266
:1034130078121210651245F6121074740C12132BE5
:10342300125F0712611812663E7900740E12132B95
:10343300125702740C12132B123BDF850E82850F79
:103443008312570C02335E8E828F83E0C0E07402D6
:1034530012132BD0E0123C161263FF1245D01273E5
:103463007C851882851983AA82AB83700512143771
:1034730080031217378E828F83E064F16034E06437
:10348300CD602FE0641A602AE064E16025E064F017
:103493006020740212132BE0FC74B76C60141235B5
:1034A3000B121065ECF51278121210651245F61224
:1034B300107490036DE0A2E140030233B0850A82E9
:1034C300850B83E06402702A850E82850F83E054A6
:1034D30004601F126118126622701312611874FFC0
:1034E300F0A3F07405850A82850B830233BD740350
:1034F30080F38E828F83E064E960030233B0AA080D
:10350300AB091217910233B08508828509831268CB
:103513004075120178122274F5120AB48A088B09D5
:10352300750A00EA24091254E2FEE9FF8E828F83B2
:103533001235AB7003750A018E828F83125D5D7045
:1035430003A3E06B7006E50AD2E1F50AE50824025D
:10355300FEE5093400FFE50A60138E828F83E07075
:1035630006E50AD2E58004E50AD2E6F50A12175BFE
:10357300E964017006E50AD2E0F50A8E828F83E0E2
:103583006017E508241DF582E50934001232D26480
:10359300016006E50AC2E0F50AE50AA2E14004D2A9
:1035A300E7F50AA90A02699712662664022274E8FB
:1035B300120AB474DC1210D8EAFEEBFF7403121380
:1035C3002B126410751400751500740512132BACBF
:1035D30082AD838E828F83A3A3A312660F125F072C
:1035E3001216CBEE241B1257D1741212132B125E38
:1035F30059740B12132BE06022741C12132BE0FD81
:10360300740612132BE0FC8E828F83A3A3125F0731
:103613007901122781E96003023BBB740512132B66
:10362300AA82AB831215D5E9F508740B12132BE0AC
:10363300700E90036AE06008E9A2E14003023BBB1D
:10364300EE2412F516EF3400F517EE242A1270E17A
:10365300EE242C123BD01240DDE0687003A3E06936
:10366300701C75090078091210657809121065EE4F
:10367300242E123BD7123BF2124606121074740822
:1036830012132BE0FA900370E06A6003023BBB74F1
:103693000B12132BE07003023734123BF2123BE69A
:1036A3008A0A8B0BA80AA90BE87001E97003023799
:1036B300D8740612132B123BEDFAA3E03400FB740B
:1036C3000D2AF582E43BF583E0FAE82404F50AE9E0
:1036D3001270E4E82403F582E912737C6A600DEA50
:1036E300F090850B780C1212E1123C3B79047406BE
:1036F30012132B123BEDFCA3E034008C82F583A361
:10370300AA82AB83121CE38A0C8B0D8C0E8D0F8562
:103713000A82850B8378101212E17810790C121249
:10372300845003023BBB908503780C1211A8123C12
:103733003BEE2424123BC5EE2430F50CEF124AA3D2
:10374300EE242F1270E190036DE0A2E150030238E2
:103753006F900382E0FA74046A600874096A600374
:10376300023BBBE508A2E5400302381E123C22C01F
:10377300E0740112132BD0E0124630C0E074021241
:10378300132BD0E0F0741612132BE0640170207435
:103793001012132B123C0A7003A3E0697011740E0C
:1037A30012132B1235AB7007741612132BE4F0852A
:1037B3000E82850F83120E9A740412132BAC82AD02
:1037C30083740912132BAA82AB8312143D7404125F
:1037D3001074023BBB9003C7E064016003023734FB
:1037E300742212132B12683364067009E508A2E6EB
:1037F3005003023734741212132BE064FF7004A3D6
:10380300E064FF7003023BBBEEFCEFFD7405121393
:103813002BAA82AB831215E1023BBBA2E640030253
:103823003BBB742212132B123C02701C741C121328
:103833002BE064026003023BBB740512132BAA82C4
:10384300AB8312172B023BBB74076A6003023BBBBB
:10385300741C12132BE064046003023BBB74051257
:10386300132BAA82AB8312171F023BBB74161213CE
:103873002BE0601D8E828F83A3A312462214125C59
:1038830069A3124622C0E0741612132BD0E0F07025
:1038930006E508C2E7F508900382E0FA74046A605B
:1038A3000574096A7061740E12132B125D5D700347
:1038B300A3E06B601712175BE96402600F740A12CE
:1038C300132BE0540364016003023BBB7407121320
:1038D3002BE0701B123C22C0E0740112132BD0E0CA
:1038E300124630C0E0740212132BD0E00237B174D9
:1038F3002212132B123C02700302382F74076A60E2
:1039030003023BBB02385375090074615508700309
:10391300023A23E508A2E0507085168285178312C8
:103923005702740512132BAA82AB8312154BE9704D
:10393300551216FBE9F509741612132BE0700F7478
:103943001012132B123C0A7003A3E069603BA90910
:10395300851682851783125702740512132BAA82C8
:10396300AB83121551E96013740E12132B126A13F1
:1039730012132B125E59751404800EE508C2E5F587
:1039830008750900800353089FE508A2E5503C121F
:103993003C22C0E0740112132BD0E0124630C0E089
:1039A300740212132BD0E0F0850E82850F83120E62
:1039B3009A740412132BAC82AD83740912132BAACD
:1039C30082AB8312143D7404121074E508A2E6401E
:1039D30003023AE2740312132B85820A85830B7860
:1039E3000A121061A909851682851783125702747A
:1039F3000712132BAA82AB831215C9740212107417
:103A0300E9F5097003023AE2742212132B126833A8
:103A130064016003023AE274104514F514023AE2B9
:103A2300740712132BE06401703B742212132B12E0
:103A330068336405702F740312132B858208858302
:103A43000978081210617900851682851783125749
:103A530002740712132BAA82AB831215C9740212C4
:103A63001074023BBB741612132BE0700302380B65
:103A7300121641E96003023BBB740E12132B126A48
:103A83001312132B125E597809121065741E121348
:103A93002BAC82AD83740F12132B125F07740A12BF
:103AA300132BE0F912158D7401121074E9600F7570
:103AB30014208E828F83A3A3126833543FF07900BE
:103AC300741012132B125702740E12132B123BDFB6
:103AD300E9600674204514F5141216FBE9F5097420
:103AE3000312132BE064FE7004A3E064FF700375FC
:103AF3000900E508A2E74003023BBBE509700302A6
:103B03003BBB740312132B123C0A7003A3E06970CE
:103B13000B741D12132BE0700302380B8E828F83FC
:103B2300A3A3A3A3E0FA7B00121D738A0A8B0BEAFB
:103B33007001EB7003023BBB8E828F83A3A3E0F57E
:103B43000CA3E0F50D750E00780C12105D8E828FBC
:103B530083A3A3A3A3E0FC7D00124B74121074741F
:103B63000712132BE0851882851983F07401121351
:103B73002BE4F0A3123C1685820C85830D780C127E
:103B830010617814121061E509F5087808121065C0
:103B93008E828F83A3A3A3A3E0F9740812132B12BD
:103BA3005702AA0AAB0B1216B97405121074E96016
:103BB30007AA0AAB0B121D7974241210747F10022A
:103BC3000E26F50EEF3400F50F22EE240BF582EFEF
:103BD30012715522F582EF1264CEF9221253991213
:103BE30014D3221253991217DF22126D6D2A2285E4
:103BF3000A82850B831254FB851682851783221252
:103C03006837FA74046A221257E985168285178386
:103C1300E06822123C1A22F085188285198322EE6D
:103C2300242E1264CB851882851983123C3222F02C
:103C3300850A82850B83E022850A82850B83E50C46
:103C4300F0A3E50DF0A3E50EF0A3E50FF02274F267
:103C5300120AB4EAFEEBFF8C088D091232C5790013
:103C63008882F583125F071215698A828B83E58246
:103C73007002E583603AA3A3A3A3A3A3E05418604F
:103C83002FE508241BF582E509123BD3120E9EE5AE
:103C9300082412F582E509123BD3120E9EEE241876
:103CA300123BD7123CC71215997404121074800882
:103CB3007900123CC71214EB800574031210747F51
:103CC30006020E26850A82850B831254FBEE240B13
:103CD3001253922274EE120AB474EA1210D88A0CA8
:103CE3008B0DEA2402F50EEB123BC80A0AFB1213F2
:103CF300478A088B09AE08AF09750901850C8285CF
:103D03000D83A3E0F508750A01AC0EAD0F8518828B
:103D1300851983AA82AB83122583740812132B128D
:103D23006410740A12132B7402F0741312132BE42D
:103D3300F0E50C240AF50CE50D124AA3901B50E0A4
:103D43007010EE7001EF700AE50870067509C30282
:103D53003EAD900382E0640860067509C2023EA985
:103D6300850C82850D83E0A2E1500EA2E350057518
:103D73000A04800C750A038007A2E35003750A0244
:103D8300EE7001EF60648E828F83A3A3A3A3E0FA96
:103D930074046A600574036A700C7404650A601C19
:103DA3007403650A601674026A600574016A702000
:103DB3007402650A60067401650A700F8E828F8330
:103DC30012490C12132B125E59801F74026A60058C
:103DD30074016A700A8E828F831249C01228D3AA93
:103DE3000EAB0F1213537E007F00740812132BE0E7
:103DF30064FE7004A3E064FF7038122775E9703223
:103E0300E50860179003BFE06402700F901B571220
:103E1300490C12132BE8F0A3E98016850C82850D5B
:103E230083E05402F91214F7740812132BEAF0A377
:103E3300EBF0740812132B123F4D700374FF6B7079
:103E4300057509C78060E508F50B780B12106585C9
:103E53000C82850D83E0F9AC0EAD0F12145B740177
:103E6300121074E97040A90AAC0EAD0F7408121356
:103E73002B1240278A108B11AE10AF11EE7001EF99
:103E8300601C74026508700BEE240512737954FBF1
:103E93004408F0740A12132BE4F0F509800874083F
:103EA30012132B126410E508700F8518828519838D
:103EB300AA82AB831226B58010FCA90A85188285D5
:103EC3001983AA82AB83121719E9FAEE7001EF6026
:103ED3003EEE2405F8EF3400F9E508601288828984
:103EE30083E0D2E6F0740265087004E0D2E5F08561
:103EF3000C82850D83E0A2E6500888828983E0D294
:103F0300E7F08E828F83A3A3A3A3A3A3E004F0E52A
:103F1300097003EA602FFC7D007A017B1012256B88
:103F2300EE7001EF6007AA0EAB0F12135374081261
:103F3300132B123F4D700374FF6B600990035A12E9
:103F4300611E1228D37416024E4D12539974FE6AE1
:103F53002274F6120AB474F71210D88A088B0990E7
:103F63000382E0FA74036A600D74016A60087409DD
:103F73006A60030240248508828B83A3AE82AF83E9
:103F8300E060030240097C007D007A027B00122579
:103F93006BE5082402124E5512698A125E59795351
:103FA3001226AF790012402E900382E06409600963
:103FB300900380125F071217D974011261517404C0
:103FC300900382F0740112132BAA82AB83794A12F5
:103FD30026A9740112132BAC82AD837A787B03126A
:103FE30025837900740112132BAC82AD8390037681
:103FF30012402790036DE0A2E35004D2F08002C286
:10400300F01261398018FC7D007A037B1012256B56
:104013008E828F83E0F912402EE4900382F0121611
:104023001D02612F125399121335229003801253EC
:104033009912145522C082C083900342E07002A3F8
:10404300E07041900382E0120F4F0003015A4005D4
:104053006940067840874090034AE07002A3E0601D
:104063007690034A806B900346E07002A3E060679A
:10407300900346805C900348E07002A3E060589090
:104083000348804D900342E07002A3E060091246AA
:104093001FFC74016C702379009003CF800909EA37
:1040A300126B96EB123BD31251307001EB70EF9011
:1040B30003CF125F07121443801D74026C70051244
:1040C30017A980139003F9E07002A3E0600990033D
:1040D300F912611E1228D30254071257E990038084
:1040E3002274F4120AB474EB1210D8EA1254DCFAF4
:1040F300E9FB8A828B8378081212E1780812127422
:10410300900383780812121A7F7F7E7F7C007508E4
:1041130001750900750A00750B00EC78081210028E
:1041230090038378081211E190850B780812111916
:10413300602A7D009003CF801288828983A3A3E045
:104143006C70010D126B95E9123BD312519E7001F5
:10415300E970E6EDC39F5004EDFFECFE0CECC39455
:104163001B40AB8A828B8378081212E190850B780F
:1041730008121119604590038378081212D28A82BB
:104183008B8378081212E1851882851983780812C7
:1041930012D2740412132B7401F0900389E0C0E06F
:1041A300740512132BD0E0F0740712132B12430083
:1041B300805B12147F90038012663E9003CF1251EE
:1041C3009E7001E96022900380126F8FE06A700392
:1041D300A3E06B700A88828983A3A3E06E60D31285
:1041E3006B95E9123BD380D6EE900375F012160B54
:1041F300E9601AE4900382F090034CE07002A3E0BC
:10420300600B79C490034C12611E1228D3741502FB
:10421300547074F0120AB474EB1210D88A828B8330
:10422300A3A3A3A3A3A3A3A3A312683C7C00750C1D
:1042330001750D00750E00750F00EC780C1210025D
:10424300850C08850D09850E0A850F0B900383786D
:10425300081211E190850B78081211196025901B43
:1042630056E0C0E08C08EA2508F582EB12737CFD6A
:10427300D0E0C39D500D780C121274900383780C18
:1042830012121A0CECC3941B40A4900383780812F7
:1042930012E190850B78081211196039851882850F
:1042A300198378081212D2740412132B7401F07458
:1042B3000712132B7401F0900389E0C0E074051218
:1042C300132BD0E0F0740712132B124300740690E3
:1042D3000382F08023E4900382F0FCFD7A047B10D8
:1042E30012256B90034CE07002A3E0600B79C4903D
:1042F300034C12611E1228D37415027118E412695B
:10430300A11226C12274EC120AB474ED1210D88AD9
:10431300828B83A31245E7EA24081254E2FEE9FFE5
:10432300851882851983AC82AD838E828F83124672
:104333000FA3A3A3A3125F0712162F851882851953
:1043430083E070768E828F83E0C3940B406C850884
:1043530082850983A3A3A3A3A3A3A3A3E0640270F9
:1043630059900382E0FAE5082410F510E5093400BA
:10437300F511E5082409124A9F74026A6041740624
:104383006A603C900342E07002A3E0600712461F9C
:104393006401605474086A600574046A701C7402D2
:1043A30012132BE0F9740712132BAC82AD83850C27
:1043B30082850D83125F071216357413026D059003
:1043C3000342E07002A3E0701F750A00780A12101E
:1043D30065780A1210658510828511831245D912FA
:1043E3004E5D1246061210749003CF127163900350
:1043F300CF126CFDE508240DF50EE509123BC880CC
:10440300318E828F83E0F8A31245D9E0687003A34D
:10441300E06970128E828F83A3A3E0FA850E8285F2
:104423000F83E06A606B8E0A8F0BEE126B96EF12AE
:104433007160EE7001EF70C97A187B00121D738AE8
:10444300128B13AE12AF13EE7001EF70030243BD74
:104453007C181272B9126407EE240C123BD074FF5D
:10446300F0E508240B12712E1245C7127370C412A3
:1044730045C7A3A3F09003CFE07002A3E0700590BB
:1044830003CF800AE50A126B96E50B123BD3127039
:10449300DB740112132B1245F1A3F0740212132BD8
:1044A3001245F1F0850E82850F831245E2A3124671
:1044B300301245BE125C74240DFAEF3400FB740213
:1044C30012132BE06401600E740712132BAC82AD40
:1044D3008312258380097C087D0079FF121CDD741B
:1044E3001212132BE0C0E0EE2415123BD0D0E012E1
:1044F3004627FC901BE2E0C39C40030243BD1245E8
:10450300D0123BD3A3E05480F9E47001E970099021
:10451300110FE070030243BD7D00EE240CF8EF346D
:1045230000F9EE240BFAEF3400FB9003BFE06402C2
:10453300701D8A828B83E0F50AC39C500D740512AB
:10454300132BE0C39405401B801AE50A6C701574A5
:104553000512132BE0C0E088828983E0FCD0E0C31E
:104563009C50010D740412132BE06020ED601D8537
:1045730008828509831269ABECF0A3ED1246278A02
:10458300828B83F0740512132B12571374061213C4
:104593002BE0600D74018E828F83A3A3A3A3A3A337
:1045A300F0740412132BE070030243BD74018E8276
:1045B3008F83A3A3A3A3A3F00243BDF8A3E0F98EC3
:1045C300828F8322540F8E828F83A3A322E5082434
:1045D3000BF582E50922E0F9850C82850D83221211
:1045E3004A9BA322A3A3E0F508A3E0F50922124AFC
:1045F3009B8021850C82850D8312460F1254F78A06
:10460300828B83125399121701740222E0F98A8272
:104613008B838002A3A3A3A3A3A3A3229003421289
:104623005967E022F0851082851183E022F0850C22
:1046330082850D83E02274F6120AB474C91210D86D
:10464300900382E064086062900393E0F824D6F557
:1046530082E4341BF583E0FA900364F0E824DCF58C
:1046630082E4341BF583E0FB900362F07508FF7569
:1046730009FFEA7808121240E508F4FCE509F4FDA5
:104683003395E0FE90038B1247D97508FF7509FF38
:10469300EBC39A7808121240E508F4FCE509F4FD2F
:1046A3003395E0FE90038F1247D9E41261477904F2
:1046B3001226AF900393E07009741E12132B74013A
:1046C3008006741E12132BE4F0740F85188285196B
:1046D30083F0901B5512699D79461226AF7401121F
:1046E300132BE4F0901BC4E0C0E0740212132BD030
:1046F300E0F0900370E0C0E0740312132BD0E0F0FD
:10470300740412132BE4F0740512132BE4F07407F2
:1047130012132BE4F0900393E0FAC3940F74065042
:104723000612132BEA800512132B740FF07C947D71
:1047330003740812132BAA82AB831225837C037D97
:104743000079FF741012132BAA82AB83121CDD9025
:1047530003CDE0C0E0741312132BD0E012624712B2
:10476300132B126236121707900387E0C0E0741C04
:1047730012132BD0E0F0900388E0C0E0741D1213F5
:104783002BD0E0F0900375E0C0E0741A12132BD025
:10479300E0F09003801257D7741812132B125E594E
:1047A300742012132BE4F090038AE0C0E0741F120C
:1047B300132BD0E0F0743412132BE4F0742912138A
:1047C3002BE41247E4741412132BAA82AB83122630
:1047D300C77437026131ECF0A3EDF0A3EEF0A3F060
:1047E30022F07A737B0379531247EF221226AF7AB2
:1047F300767B03794B1226AF22C082C0838A828BD9
:1048030083A3E06007E4900382F0804A7408900376
:1048130082F0900393E0701F90034CE07002A3E0DA
:10482300600B790090034C12611E1228D390038011
:104833001257027A05801A790012144F90037312EB
:1048430057027A067B0012256B9003761257027A81
:10485300047B0012256B02540774F4120AB474EA41
:104863001210D8EA2402FEEB3400FF0A0AFB1213EB
:10487300478A088B09EA7001EB70030249078A82B1
:104883008B83A3A3A3A3E0FA74016A600F74026A83
:10489300600A74036A600574046A7068EEFCEFFDD5
:1048A3008518828519831267A912490C12132B12DA
:1048B3005E59740A12132B7401F0741312132B1222
:1048C300699C1226BB890AAC0A7D007A077B001219
:1048D300256B850882850983A3A3A3A3A3E0C2E074
:1048E300F07401850882850983A3A3A3A3A3A3A3CB
:1048F300A3A3F07402850882850983A3A3A3A3A3BA
:10490300A3A3A3F074160254701257E97408227417
:10491300F7120AB49003CFE0FAA3E0800CEA24165E
:1049230012715D121D79EEFAEFFBEA7001EB70ED87
:104933009003CFE4F0A3F002535174F4120AB48A43
:10494300088B09EA240BFEEB3400FFEA2413F582FB
:10495300EB12737C64037009EEFAEFFB12134780CA
:104963000CE0640270548E828F8312713AEA7001F4
:10497300EB6047EA2406F8EB1232CA850882850900
:1049830083A3E07007E488828983802D64F1600546
:10499300E064E1701A88828983E0640170118A827D
:1049A3008B831249C01228D3EEFAEFFB12135385FF
:1049B3000A82850B83E0600214F002547312539948
:1049C30090035A1261222274F1120AB48A088B09E5
:1049D300ECFEEDFF890A8A828B83126D328A828B09
:1049E30083124A9AF0EEF8EFF9A30EAF838A828B13
:1049F30083A3A3E0C454F0FA88828983E04A124A6D
:104A0300AD124A9B124AA8E0333354FCFA8E828FCC
:104A130083E04A124AA8A3E033333354F8FA8E8270
:104A23008F83E04AF008EFF9A30EAF838508828BEA
:104A330083A3A3A3A3A3A3E0A2E0E492E0131354EC
:104A430080FA88828983E04AF0E5082407F50CEBB5
:104A5300124AA3750E00780C12105D7C08125ABB23
:104A6300121074126D1CE508240F124A9F780C1261
:104A7300105D7C03125ABB121074E50AC3940F40F5
:104A830011E5082412F582E509123BD31245E2A38E
:104A9300A3F07F07020E26A3E00245C2F50CE50949
:104AA3003400F50D22124AADA322F08508828B83D0
:104AB300A3A3A32274F1120AB4EAFEEBFF890A8CC2
:104AC300088D098E828F83E08C828D83125C69AEA0
:104AD30082AF83E0125D0F124B86C4125D0F124B3F
:104AE3007AE054038C828D83124B84A2E2E492E039
:104AF3008C828D83124B83131313541F125D0FA3E8
:104B0300124B83A2E7E492E08C828D83A3A3A3A339
:104B1300124B7A8E0C8F0D750E00780C12105D7C83
:104B2300087D00E5082407124B6E121074126D1CE9
:104B33008E0C8F0D780C12105D7C037D00E508242C
:104B43000F124B6E121074E5082412F8E5093400B5
:104B5300F9E50AC3940F400A8E828F83A3A3A3E0CF
:104B63008001E488828983F0024A95FAE5093400DA
:104B7300FB121CD1740322A3A3125C6D0EAF83221C
:104B8300A3A3A3A3F0026C4974F4120AB474F91238
:104B930010D8EAFEEBFF900342E07002A3E060103E
:104BA30012461F64027009EEFAEFFB1217A380622C
:104BB300900380E06E7003A3E06F70567401696028
:104BC300097A947B03126D9B70487A007B02125022
:104BD300A87001EB703C90038378081212E18518EA
:104BE3008285198378081212D2900389E0C0E07499
:104BF3000412132BD0E0F0740512132B7401F0741C
:104C03000612132B740212699D121401E9609812A3
:104C130014077407025470E0F902540774F6120A79
:104C2300B49003E0E0701F7C0079017A007B0012EE
:104C3300166BEA7001EB600E8A828B83E07002A32D
:104C4300E060031215BD026134C082C08312508834
:104C5300401079FF121665E9FA902DACE493C39ADC
:104C6300500479018002790002540774EE120AB4E9
:104C73008A088B09890D750E00EA2408F50AEB12E0
:104C830056F5E0F91216718A108B11AE10AF11753B
:104C93000C01EE7001EF6003024D23850882850944
:104CA30083A3A312571AF9850882850983125F0724
:104CB3001216598A0A8B0BAE0AAF0BEE7001EF7016
:104CC30003024E468E828F83A3A3A3A3E4F0A3F033
:104CD300E508240B124E55E0C0E0123BCDD0E0F0C6
:104CE300121767EE240C126637750E01EE2406F8D0
:104CF300EF125097E0547FF0A3E054FC124F3D5461
:104D0300046003024DB5901BBD125B8874077808DD
:104D13001212408A828B83E04508F0A3E04509F034
:104D2300EE2406F8EF1254E4FCE9FD8C828D831225
:104D33005F0774805AF50874035BF50974077808F4
:104D43001212B4E508F510EE24041270E1EE240902
:104D5300F508EF3400F509E50D60607402850882FB
:104D6300850983124B87240D125953E0A2E2500F99
:104D730090036E1257D7850A82850B83125E59E51D
:104D8300107003024E13747F5AFA74FC5BFB74FFBA
:104D93002510F51074FF3400F51174077810121202
:104DA30040E5104AF8E5114BF98C828D83125E5968
:104DB300805EE04480F0A3E0024D22E510700575AB
:104DC3000C00804CEA54206015121CEF8A10747F8B
:104DD3005510F8745F28850A82850B83801BEA547B
:104DE30010600E121CEF8A10740F5510F8740F80A8
:104DF300E4850A82850B837401F0A3E4F0740485CF
:104E0300088285098312509F7001EB7003126107BA
:104E13007401650E7030850A82850B83124E5DE046
:104E2300F9EEFAEFFB12165FE9601BEE240C123B5E
:104E3300D01251307001EB6003121D79EEFAEFFBD3
:104E4300121D79750C00A90C80031210747F0A02DD
:104E53000E26FAE50934000257F81254FB8508823E
:104E63008509832274F6120AB474F71210D87E00EF
:104E7300121671EA7001EB7003024F388A828B833A
:104E8300A3A3A3A3A3A3A3A3A3E064066003024F66
:104E9300388A828B83A3A3A3A3A3A3A3E0FF8A825D
:104EA3008B83125961E0C0E0740812132BD0E01217
:104EB3004F3DF8A3E0F5838882126723125E5912EF
:104EC300168F74085FF9E47001E9606785188285BD
:104ED30019831257027A007B00121653EA7001EB12
:104EE30070519003801254E91226DF7C007D007A12
:104EF300007B0080288E828F831264B4E064FF708D
:104F030004A3E064FF602C9003801257021222E98D
:104F1300E9641A601E7C007D00EEFAEFFB12165363
:104F23008A088B09AE08AF09EE7001EF70C77900EC
:104F33001226E57E01EEF902612F1257F5E0227485
:104F4300F7120AB4EA7001EB70059003E180068A58
:104F5300828B83A3A31251307001EB60288A828B6A
:104F630083A3A3A3A3A3A3A3E05408F9E47001E9D3
:104F730060DDEC7001ED601112682F6C7003A3E02B
:104F83006D70CC80047A007B0002535174F2120AD4
:104F9300B4EAFEEBFF890A8C088D097A0E7B0012B6
:104FA3001D73EA7001EB603BE48A828B83A3A3A3A6
:104FB300A3A3A3A3A3124FE9E50A1253661263FD49
:104FC3008A828B83A3A3A3A3E4F0124FE9A3A3F0E4
:104FD3001270D7EA240CF582EB12736AA31257EF0F
:104FE300F0A3F0023CC2A312536A02461A74F512EC
:104FF3000AB4EAFEEBFF890A8C088D09EE7001EF13
:1050030060567401650A70147901121665E9FA9005
:105013002DA2E493C39A500F791180667404650A34
:10502300703012508840F18E828F83A3A3A3A3A371
:10503300A3A3A3A3E50A125C7B12741FE4F0A3F0FD
:105043009003E1E07002A3E09003E160241257D7DC
:10505300800A7402650A60CF79C18026E8240208B9
:1050630008E912509712519E7001E970EF8A828B02
:1050730083EEF0A3EF12509F7001EB7003126107F0
:1050830079000269977904121665E9FA902DAEE466
:1050930093C39A221254E4FAE90257F8F01250A487
:1050A300227A207B009003CEE0F9121E27EA22C069
:1050B30082C083E9FC79009003E1801D8A828B839F
:1050C300A3A3A3A3A3A3A3A3A3E06C600574FF6C92
:1050D3007001098A828B83A3A31251307001EB7094
:1050E300DB02540774F7120AB4EA7001EB700590FF
:1050F30003E180068A828B83A3A31251307001EBF4
:1051030060248A828B83A3A3A3A3A3A3A3A3A3E063
:105113006970E1EC60148A828B83E0240D126C4386
:10512300A2E240D080047A007B00025351125399CB
:10513300EA22C082C0839003E180068A828B83A324
:10514300A31251307001EB60128A828B83A3A3A355
:10515300A3A3A3A3A3E06970E280047A007B000207
:105163005407C082C0839003E1800688828983A3A9
:10517300A312519E7001E9601B88828983E0FCA31E
:10518300E0F5838C82E06A7003A3E06B70DDE8FADC
:10519300E9FB80047A007B000254071257E9E822F6
:1051A30074F1120AB48A0A8B0B8C0C8D0D750800EE
:1051B300750900EA7001EB60319003E180068E828D
:1051C3008F83A3A31251F47001EF601EAC0CAD0DDD
:1051D300EEFAEFFB850A82850B831228D3E964017B
:1051E30070DCEEF8EFF988088909AA08AB09024ACE
:1051F30095E0FEA3E0FFEE227900020DB774F712EB
:105203000AB49003E11257D77C007D008007E8FCC5
:10521300E9FD1257D7E87001E9603AE82402F58204
:10522300E9123BD3EA687002EB6970E2125F079000
:1052330003E1127163E86E7002E96F70099003E194
:10524300EAF0A3EB800EEAF8EBF98C828D83A3A33B
:10525300E8F0A3E9F002535174F7120AB4EAFEEB43
:10526300FFEE7001EF6016121689125370EA700197
:10527300EB6003121D79EEFAEFFB121D7902535115
:1052830074F7120AB412682FFCA3E0FD9003E11235
:1052930057D77508007E00803388828983A3A3A330
:1052A300A3A3A3A3A3A3E0640570180E8882898334
:1052B300E0FFA3E0F5838F82E06C7003A3E06D70E1
:1052C30002050888828983A3A31257D7E87001E9EE
:1052D30070C7EA2404F8EB3400F9902DA3E493FC9F
:1052E300E508C39C500B902D9FE493FCEEC39C40B8
:1052F3000B888289837401F0A3E4800A90036E1201
:105303005356ECF0A3EDF074058A828B83A3A3A319
:10531300A3A3A3125363A3A3E0F0A3E04408124F93
:105323003DFAA3E0FB8A828B83E064FF7004A3E071
:1053330064FF600E9003801257021226D9E9641AA3
:10534300700579011226E58005741F1210747F0120
:10535300020E261254FB80033400F98882898322CB
:10536300A3A3A312536A221257F502461A8E828F01
:1053730083E0241C12539DFAA3E0FB121D798E8255
:105383008F83125399121D79EE240C12539222F536
:1053930082EF3400F583E002313612595BE022C01C
:1053A30082C083EAFCEBFDEC7001ED7004790580AB
:1053B3004CEC24FBF582ED34FFF583E07002A3E0AF
:1053C3007011EC24FFF8ED34FFF988828983E064DF
:1053D300FF6005121CFB80D59003CE125713902D4E
:1053E300A9E493F97AE37B031228C5E96401700BFE
:1053F3007A007B1012610B790080027904800574B6
:1054030002121074D083D082020DB774F4120AB45E
:10541300A2AFE492E0F508C2AF9003E31251F47037
:1054230001EF603DEE24FBF582EF34FFF583E0707E
:1054330002A3E07A007B109003CE600512610E8018
:1054430005E0F9121D37750A00750B00780A121072
:1054530061EEFCEFFD7AE37B03121D25740212104B
:1054630074E508A2E092AFEEFAEFFB80031210742A
:105473007F04020E2674F7120AB474E11210D8EAFC
:105483002413F582EB12737CC0E0741112132BD03A
:10549300E01257E2740912132B1257DB1254DCFC8F
:1054A300E9FD8C828D831257D7740B12132B12577D
:1054B300DB2414F582EB12737CC0E0741212132BFD
:1054C300D0E0F0EA240EF582EB123BDA8C828D8376
:1054D3001254E912155102534C24041254E222F8D7
:1054E300EB3400F9E8221254FB851882851983AA4C
:1054F30082AB8322A3A3A3A3E0FCA3E0FD2274EE6B
:10550300120AB474FC1210D8EAFEEBFF121641E93A
:10551300600579110256F0EE2412F510EF3400F510
:1055230011EE2402F50AEF1256F51266226008E422
:10553300851082851183F0EE2413125AC47003740C
:105543001EF0EE2411F8EF126607701990126CE04A
:10555300600D90036AE0700D8E828F83E07006E425
:1055630088828983F0EE2414080808EF12713170E1
:105573000C90035F12571390035FE004F0EE240FC7
:10558300F508EF3400F509EE240B123BC590036DCB
:10559300E0A2E1504F850A82850B831266226044A4
:1055A3008E828F83E0600B850E82850F831232D447
:1055B3006032850882850983E05440601A850C8235
:1055C300850D83E06401700F850882850983E054AB
:1055D300FBF0A3E0F0800DEEFAEFFB1216A7E970E3
:1055E300030255158E828F83E06401701A850E8243
:1055F300850F831268336402700D850882850983E1
:10560300E04440F0A3E0F0850882850983E054403C
:10561300705790036DE0A2E1504F750C00780C12A7
:105623001065EE2406FCEF3400FD850A82850B83AA
:10563300125F07851082851183E0F912158D7401BD
:10564300121074E9600CE4851082851183F01257FF
:1056530006F079008E828F8312571AFAA3E0FB12A9
:1056630014D3E96004125706F0851882851983ACB8
:1056730082AD83EEFAEFFB1216BF8A0C8B0D850AFF
:1056830082850B83125702EA7001EB605C8E828F76
:1056930083E0C0E0740112132BD0E0F07402121304
:1056A3002B1270DB740112132B85820A85830B780E
:1056B3000A121061850882850983120E9EEE240E5C
:1056C300127379F5087808121065740512132BE02C
:1056D300F91216B97405121074E9FE74106E700B8A
:1056E300AA0CAB0D121D7980027E10EEF974040230
:1056F3004E4D3400F50B850A82F583221271521246
:1057030054FB22850882850983E04420F0A3E0222C
:10571300E088828983F0221254F7023C33C082C0AE
:105723008374DE1210D88A828B83A3A3A3A3125798
:10573300D7740E12132BE8F0A3E91257E2740C127C
:10574300132B1257DB240DF582EB12737CC0E0742C
:105753001A12132BD0E0F0EA240BF582EB1257D484
:10576300742012132B1257DB2415F582EB12737C72
:10577300C0E0740812132BD0E0F0EA241CF582EB8E
:105783001257D4741212132B125E5974FF851882A8
:10579300851983F0740112132B74FFF07402121332
:1057A3002B74FFF090850B120E9A740412132BAC1A
:1057B30082AD83740712132BAA82AB8312143D7438
:1057C3000412107479007422025404EE240BF5823F
:1057D300EF1271551257E922E8F0A3E9F0EA221219
:1057E30057EF1257E922E0F8A3E0F9221257F5A385
:1057F300A322F08001FB8A828B832274EC120AB409
:1058030074F01210D88A128B13ECFEEDFF890F741B
:105813002412132BE0F50C742512132B1245E97493
:105823002712132B126CFD750D107A1E7B00121DAF
:1058330073740212132B12663E740212132BE07060
:1058430002A3E0700302594C750E00EEFAEFFB124F
:1058530013418A828B83E5827002E583601CA3A3D4
:10586300A3A3E0FA74016A600574036A700CE50887
:105873005440700674044509F50974045509F9E4A4
:105883007001E96003750E01851882851983AA8268
:10589300AB837950125EFE740212132B125961A36B
:1058A30012663E740212132BE0240B125953740236
:1058B300F012132B1259617402F012132B12611E92
:1058C3001270DB740212132B126828E50FF07402B6
:1058D30012132BE0240C125953E50CF0740212132B
:1058E3002BE0241C125953E512F0A3E513F07408BE
:1058F30012132B1263FF740A12132BE50CF0850AA3
:1059030082850B83C082C083740D12132BAC82ADCE
:1059130083D083D0827403120FC2A90E74021213B0
:105923002BAA82AB83121647E964017011E50E605E
:1059330008A90C121671121695750D00800B7402CE
:1059430012132B125F07121D79A90D7410026D0536
:105953001259572212595B22F8A3E002535B1259E2
:1059630067A3A32212612602461874EA120AB4EA54
:10597300FEEBFF8C088D098E828F83A385820A85B7
:10598300830B7408F0EE2416125AC4600974108550
:105993000A82850B83F0EE2417125AD2600A850A15
:1059A30082850B83E02408F0EE2411F8EF127131A5
:1059B3006005750E0E8003750E00EE240DF514EFD1
:1059C3003400F515850A82850B83E08514828515DD
:1059D30083FAE02A250E8C828D83127371601390F3
:1059E300036BE0F912276FE9FA850882850983E0E2
:1059F3002AF0850882850983E0FAC3947540097506
:105A03000800750900025AB27B0012703D7001EB69
:105A13007003025AB2EEFAEFFB1216C5EA8508824A
:105A230085098312663FEE2402F81264BA125AEA19
:105A3300F0EE240408081264BAA3A3125AEAA3A33B
:105A4300F0EE2413125AE0F0EE2414125AE0A3F0FD
:105A53007A08850C82850D83E0600FEE24181256B8
:105A6300FFE5082408126CF37A10851082851183F0
:105A7300E0600FEE241A1256FF8A0CE508250C127B
:105A83006CF3EE240B127379F510A3E0F511751284
:105A930000781012105D851482851583E0FC7D006B
:105AA300125E41E50E28FAE439125AC0121074AAA4
:105AB30008AB097F0E020E267D00EEFAEFFB024BC8
:105AC30074F50CEF3400F50D850C82F583E022F5B7
:105AD30010EF3400F511851082F583E02212715224
:105AE300125AF4A3A3A322A3A31270F5A3125AF488
:105AF30022E0850882850983A3A3A32274F6120AF0
:105B0300B48A828B83E0FC900370125B8874027802
:105B130008121240E5084CFCAD09EA2412125B821C
