:020000040000FA
:060000000212AA02080D25
:03002B0002287632
:0300330002104177
:030043000210C7E1
:03004B00020F7F22
:0300530002075F42
:03005B00020F8E03
:03006300020F9AEF
:03006B0002102759
:100083000207A9010101010503010F10FEFF03008F
:100093000300030003000300030003000300030045
:1000A30005000A00140028004F009E0000004F1AAC
:1000B3004F1A4F1A4F1A0519FF184F1ACF2900006C
:1000C3000000932A000000000C0000000C00010057
:1000D30000D51B000000000000711C0000000000A0
:1000E30000B71BD504FF010101001A110000008EA7
:1000F30011E80364006400B801020200080000056F
:1001030001071E02051E020A03B80B803E01FFFF12
:10011300010202060606060600141414141400064F
:10012300FF0600143B1A00000019261F262526008F
:1001330000000000000000000000000000000000BC
:10014300000000000000001020202020202020209C
:100153002020202020202020010C04010000000189
:10016300B88301BA833031323334353637383941C5
:10017300424344454600286E756C6C20706F696E6F
:10018300746572290030313233343536373839618A
:100193006263646566003F3F3F000000803FF902F1
:1001A3001550B743BA510000204100E7DB2E000091
:1001B300A04010000000080000001212C96046129F
:1001C30012F6603DE9687008F618F618F618F6227C
:1001D300748067F71201F1090909748067F7221225
:1001E30012F6601D1212C97005191919801A12111D
:1001F30034701F12115EC37003E667331919194077
:10020300071818182208080874FFF618F618F618C5
:10021300F62212115E601712131D702192F0121351
:10022300277019501720F014080808090909E7F680
:100233001819E7F61819E7F61819E7F62212132723
:1002430060E6E869701F0808E62480F608E436F6DD
:1002530018547FB47F0CE654806007F6E418F61850
:10026300F622181822E9C6CC08C6CD08C6CE08C6A1
:10027300CFC0E0E8C0E0EAC0E0EBC0E009E9F8097C
:10028300E7FA09E7FBE6F918E6F8C3EC98ED99EE0F
:100293009AEBC2E7F5F0EFC2E795F0500E600CEB76
:1002A300CFFBEACEFAE9CDF9E8CCF8EAA2E7D2E748
:1002B300FAEB33FB13F5F0EEA2E7D2E7FEEF33FFE1
:1002C300C5F013A2E730E601B313C5F0C3C0E0C025
:1002D300F07F00C39BFB605B9418600C401AD0E076
:1002E30023F9D0E0F80203C08AF0E9486003D2F0B2
:1002F300E4AFF0FAF9F8803BEB30E40D89F0EA6003
:1003030003D2F0E4AFF0F9CAF8EB30E30D88F0EF75
:100313006002D2F0AFF0E4CAC9F8EB54076014FBF3
:10032300C3EA13FAE913F9E813F8EF135002D2E022
:10033300FFDBEDD0E0C0E030E739C3E49FFFF5F029
:10034300EC98FC42F0ED99FD42F0EE9AFE42F0D0BB
:10035300E0F9D0E0F8E5F0607AE923F9EE20E7422E
:10036300D8028067C3EF33FFEC33FCED33FDEE338C
:10037300FE80EAEC28FCED39FDEE3AFED0E023F9ED
:10038300D0E0F84002801BC3EE13FEED13FDEC1327
:10039300FCEF135002D2E0FF08B800067F7F74FF22
:1003A300802EEF3350178CF020F00260100CBC004D
:1003B3000C0DBD00080EBE000408E860DFE933E859
:1003C30013FFEE2313FE4F4D4C8008E95480FFE4E6
:1003D300FEFDFCEE33EF33F47004FCFD7E80D0E0D1
:1003E300FBD0E0FAD0E0F8D0E0CFC618CEC618CDE7
:1003F300C618CCC6F9221212F67004181818221265
:1004030012C9700D74FFF61819F61819F61819F6B3
:1004130022E7548066F6121327700F12131D70F033
:1004230014F608F608F608F680D112131D700CF6C0
:1004330008F608768008E6447F80EC121161700CA0
:1004430012113760BFE65480F6E480BB1211377097
:100453000519191980A5E869700C763F187680187C
:10046300F618F6E8F922E6CDC0E018ECC0E0E63372
:10047300CD33CDD313F6E719FCE7191933CC33C3C6
:10048300947F400ECD9D502408E65480F6E418F680
:10049300800FF4043D14501408E6447FF618768068
:1004A300E418F618F6D0E0FCD0E0FD22CCD313CC50
:1004B300FD18E4C6CBC0E018E4C6CAC0E00808EDE6
:1004C30008C633E613F618E433C675F003C3CA97B8
:1004D300CA09CB97CB199C40047D08802EBD00032D
:1004E3000205A216B6FF050606081618C3CA33CAC4
:1004F300CB33CB33CA27CA09CB37CB193CC37D08CF
:10050300803E187D0820E75CC633C6CA33CACB33A6
:10051300CB33DDF1D5F0EB30E77BCA97CA09CB9734
:100523004ACB199C406F4B7025E620E0218066186A
:100533007D08C3CA97CA09CB97CB199CD3C633C6C8
:10054300CA33CACB33CB3350C9DDE7D5F0E1D3E4AB
:10055300C636C608C636C608C636C608C636C61860
:1005630018188031C3CA97CA09CB97CB199CB340DB
:1005730097C633C6CA33CACB33CB33DD34D5F02E5B
:10058300C6A2E0C640C8CA27CA09CB37194A70BEFB
:10059300CB3CB480B90808E63308E633601F18186B
:1005A30018D0E0FAD0E0FBD0E0FCD0E0FD22187DCB
:1005B30008CA27CA09CB37CB193CD3808013F61856
:1005C300E4B67F11F618B6FF0EF618C60470D2080B
:1005D30008768080CAF618F618F680C5001212F65F
:1005E300604F1212C96012E7548066F6121134701C
:1005F3001112131D703B090909F4F618F618F618C1
:10060300F62212115E701512132708080860EAE635
:10061300447FF618768018E4F618F6221213276042
:100623001612131D7012E4F608F608F608E6548055
:10063300F609090918181822EAC0E0EBC0E0ECC07B
:10064300E0EDC0E0E687F0A4FBACF008E687F0A499
:100653002CFCE435F0FA1809E687F0A42C4B600271
:100663007401CA35F0FCE433FB09E687F0D2F7A442
:100673002CCB35F0FC1908E687F0A42BCC35F0FB26
:10068300E433FD0819E687F0D2E7A42C4ACB35F012
:10069300CD3400FC09E687F0D2E7A42DCC35F0FD7C
:1006A300E433FA0918E687F0D2F7A42CCD35F0CA63
:1006B3003400FC08E687F0D2E7D2F7A42ACC35F061
:1006C3007A7E20E70B0ACB33CBCD33CDCC33CC337F
:1006D300CB3350147004ED30E00ED2F1E4CD3DCDB8
:1006E300CC3CCC3B5005DA05C2F1EB547FC6330852
:1006F300E63392F0FBE73309E733C39A502D2B70AF
:10070300190C0D4C4D70151806E608C333700D20F7
:10071300F10AA2F013F6E418800B4024E4F630F05B
:1007230002768018F618F618F68024D33B1450107E
:1007330074FFA2F013F6187680E418F618F6800F0B
:10074300A2F013F618E63303F618ECF618EDF6D01C
:10075300E0FDD0E0FCD0E0FBD0E0FA22C0E074F290
:10076300120B20E5A7FAE5A1FBEA5B54106008121F
:10077300234353A1EF802AEAA2E0C0D0EBA2E09288
:10078300F01211D4158182F05017906198E0FA901D
:10079300150BE0C39AA2D265D0335002EAF053A1FD
:1007A300FE7F01020C2EC0E074F2120B209061A4B4
:1007B300E0FA759B00E5915A540860087591F712A9
:1007C3002385802AE5915A541060087591EF12230E
:1007D3008B801BEAA2E0C0D0E591A2E092F0121157
:1007E300D4158182F05007E0C2E0F01224B1906189
:1007F300A3E0FAE5E95A5404600E12248775E9FB75
:10080300906193E0A2E640F28097C0E074F2120B8D
:10081300209061A5E0FAE5BF5A5404600653BFFB7C
:100823001224C90207A4C3E498F8E499F912086AE8
:100833008026C3E49AFAE49BFBE920E7E912086AFD
:10084300E498F8E499F922C3E498F8E499F91208D2
:100853006AE498F8E499F9C3E49AFAE49BFB22EB7F
:1008630020E7CFE920E7E0B90010BB0008E88AF0F1
:1008730084F8AAF022E4FBC8FA22EB70227B10C8AA
:1008830033C8C933C9335007C39AC3DBF280069A0E
:1008930050012ADBEAC833F4C8C933F4C9FA227514
:1008A300F008E4C833C8C933C933C99AC99B500493
:1008B300C92AC93BD5F0ECFBC833F4C8E4C9FA2212
:1008C30012090320F01430E72B74FFFCFBFA747F4A
:1008D3008022E4FCFBFA7480801AB48008BC00F226
:1008E300BB00EF800F50EBF9E4C39AFAE49BFBE4FF
:1008F3009CFCE499C6CC18C6CB18C6CA18C6F92204
:10090300E4C9C608CAC608CBC6D3330308CCC6336A
:1009130092F0C3947F402E94184019C9B90704CAB2
:10092300CBCC225025C309CA33CACB33CBCC33CC6F
:1009330033D9F422F4600DC9CCC313CB13CBCA1340
:10094300CAD9F6CC22E4FCFBFA2214FCFBFA2208F7
:100953000808EAC0E0EBC0E086F0E7A4FA180986CD
:10096300F0E7A42AFA180986F0E7A42AFA180986F8
:10097300F0E7A42AFA1986F0E7A4FBE5F02AFA19AE
:100983000886F0E7A42BFBE5F03AFA190886F0E7AE
:10099300A42BFBE5F03AFA18180986F0E7A4C5F092
:1009A3002BFBE43AFA1908E7C5F0C6A426F6E5F0EE
:1009B3003BFBE43AFA1886F0E7A4F6E5F00826F6DE
:1009C300E43B08F6E43A08F6D0E0FBD0E0FA22086C
:1009D3000808E630E7111211731209EA080808C67D
:1009E3004480C618181822181818E9799EC608CA30
:1009F300C608CBC608CCC6C370207996CACBCC70C8
:100A030019798ECBCC70137986CC700EF9802ACAF3
:100A130033CACB33CBCC33CC331930E7F2CCCBCA8C
:100A23003350147004EA30E00DE4CA3ACACB3BCB2E
:100A3300CC3CCC500209C3E913C6CC182313C6CB54
:100A430018C6CA18C6F922E4CFC0E0E4CEC0E0E479
:100A5300CDC0E0E4CCC0E075F020C3E633F608E691
:100A630033F608E633F608E633F6181818EC33FCC9
:100A7300ED33FDEE33FEEF33FFC3EC9709ED97093A
:100A8300EE9709EF97191919400FFFEC97FC09ED41
:100A930097FD09EE97FE191906D5F0BEECF709ED9F
:100AA300F709EEF709EFF7191919D0E0FCD0E0FDCB
:100AB300D0E0FED0E0FF222518C582C0E0E519345E
:100AC300FFC583C0E0E518C3958224F8F8E4C5A800
:100AD300858319858218C5A8E8CEF0A3E520F0A385
:100AE3007808E608F0A3DEFAEFF0A3E58124FAF82C
:100AF300E608F0A3E608F0A3E608F0A30808E60872
:100B0300F0A3E608F0A315811581D0E0FED0E0F84C
:100B1300158115811581E8C0E0EEC0E022C0D02523
:100B230018C582C0E0E51934FFC583C0E0E518C3EA
:100B3300958224F310AF0885831985821880088570
:100B43008319858218D2AFC8F0A3E9F0A3EAF0A312
:100B5300EBF0A37908E709F0A3D8FAECF0A3EDF0E2
:100B6300A3EEF0A3EFF0A3D0E0F0A3D0E0F0A3D086
:100B7300E0F0A3E520F0A3E5F0F0A322121312B9ED
:100B83000003020BC1E4900301784979188002F055
:100B9300A3D8FCD9FA901A49AA82AB83900086782D
:100BA3003879028015E493A3AC82AD838A828B8368
:100BB300F0A3AA82AB838C828D83D8E9D9E77582AF
:100BC300037583D07403120DAB758271758328741A
:100BD30000120DAB121176181818120A4A12125984
:100BE30019191922121259191919080808E618189F
:100BF3001820E7E0120A4A12117618181822090978
:100C030009E719191920E7DC080808E6181818205D
:100C1300E703020A4A121176181818120A4A121127
:100C2300761818181212591919192285198385185B
:100C330082E0C0E0A3E0F9A3E0FAA3E0FBA3780815
:100C4300E0F608A3DFFAE0FCA3E0FDA3E0FEA3E0E7
:100C5300FFA3E0C0E0A3E0C0E0A3E0F5D0A3E0F58C
:100C630020A3E0A3F5F0E4C5A8858319858218C500
:100C7300A8D082D083D0E0F8D0E0321212F6601C04
:100C83001212C96017121327700712131D7001D3B4
:100C930022C0D012131D7006D0D0B322C32233D08A
:100CA300D0501430E0F6C3E7960809E7960809E741
:100CB300960809E796B32220E0D5E6970809E69758
:100CC3000809E6970809E697B322D083D082ECC0DF
:100CD300E0EDC0E0E493A3FCE493A3FDED4C600DD1
:100CE300120DEDEC24FFFCED34FFFD80EFE493A344
:100CF300FCE493A3FDED4C600D120F2AEC24FFFCE2
:100D0300ED34FFFD80EFD0E0FDD0E0FCE493A3C021
:100D1300E0E493C0E0221212F6601B1212C96016BF
:100D2300121327700712131D600CB322C0D01213C5
:100D33001D7005D0D022C32233D0D0501330E0EB46
:100D4300C3E7960809E7960809E7960809E7962294
:100D530020E0E4E6970809E6970809E6970809E61C
:100D63009722D083D082E9C0E0E493A3C386F0C581
:100D7300F095F0F908E493A386F0C5F095F0700BB5
:100D8300E493A3C3994005E9048002A3E475F00248
:100D9300A42582F582E5F03583F583D0E0F9E49369
:100DA300A3C0E0E493C0E022F5F0E59F5407C0E060
:100DB300E59F54F845F0F59FE473859FF053F0F8F1
:100DC300D0E045F0F59F22D083D082E59F5407C041
:100DD300E0E493C0E0740193C0E07402935407F518
:100DE300F0E59F54F845F0F59F22C0E0C3E49396E5
:100DF300087401939618400FE49366700808740111
:100E030093661870007019A3A3C3E4939608740142
:100E1300939618A3A3400DD0E0D0E0D0E0020D09D3
:100E2300A3A3A3A3A3A3D0E022851983851882E0FB
:100E3300A3FEE0A3F5207808E0A3F608DFFAE0A319
:100E4300FFE0A3C0E0E0A3C0E0E0A3C0E0E0A3C0F4
:100E5300E0E0A3C0E0E4C5A8858218858319C5A88E
:100E6300D083D082020DBDD083D082C5F0E493A39A
:100E7300C5F0C395F0F5F0E493A3C395F04005E501
:100E8300F0048001E475F002A42582F582E5F035D3
:100E930083F583E493A3C0E0E493C0E02274048069
:100EA3000474028000CCC0E0EDC0E0E518C39CCC24
:100EB300AD1950011D10AF068C188D1980068C18C2
:100EC3008D19D2AF120FC8D0E0FDD0E0FC2274021E
:100ED3008000CCC0E0EDC0E0E518C39CCCAD195058
:100EE300011D10AF068C188D1980068C188D19D230
:100EF300AF120FA6D0E0FDD0E0FC221212F660255F
:100F03001212C96020121327700302131D08080868
:100F1300E76670101819E766700A1819E766700417
:100F23001819E76622F422C0E0C0F088F0E4936663
:100F330070080874019366187000A8F0A3A3700BDF
:100F4300D0F0D0E0D0E0D0E0020D09A3A3D0F0D0E0
:100F5300E022D083D082CCC0E0E493A36006120FDA
:100F6300E91470FAE493A360061210F41470FAD033
:100F7300E0FCE493A3C0E0E493C0E022C0E074F299
:100F8300120B201222717F01020C2EC0E074F212A8
:100F93000B2012227780EFC0E074F2120B20122292
:100FA3007D80E3CAC0E0E493A3C582CCC582C58338
:100FB300CDC583F0A3C582CCC582C583CDC583DAF5
:100FC300E5D0E0CA22CAC0E0E0A3C582CCC582C591
:100FD30083CDC583F0A3C582CCC582C583CDC5832C
:100FE300DAE6D0E0CA22C0E0E493A3D39C5010E435
:100FF30093A3C39C400AD0E0D0E0D0E0020F72A3D9
:10100300A3A3D0E022700908080822601618181854
:10101300C6C333C608C633C608C633C608C633C6F6
:10102300D5E0EA22C0E074F2120B20E589A2E15078
:10103300031221A5758900C2C57F01020C2EC2E8E7
:10104300322518F58210AF08F518400215198008EB
:10105300F51840021519D2AF851983227404800A4A
:1010630074038006740280027401C0E0F404121059
:1010730044D0E012130522C0D0251810AF08F5188C
:10108300500205198008F51850020519D2AFD0D0C7
:1010930022BB0102E722C082C08389828A83BB000C
:1010A30003E08002E493D083D0822260160808080C
:1010B300C6C313C618C613C618C613C618C613C6A6
:1010C300D5E0EA22C0E074F2120B20C2C0E5D1A23F
:1010D300E450031222B37F01020C2E251810AF082F
:1010E300F518400215198008F51840021519D2AFFA
:1010F30022C0E0E493A36C7009D0E0D0E0D0E0021A
:101103000F72A3A3D0E022C3E09608A3E09608A33E
:10111300E09608A3E096A2D265D03322E066701071
:1011230008A3E066700A08A3E066700408A3E066FB
:1011330022181818E6084608700AE608C333700533
:10114300E633F4220822C3E7960809E7960809E77D
:10115300960809E796A2D265D03322191919E7092F
:101163004709700AE709C3337005E733F4220922FC
:10117300181818E4C396F608E496F608E496F608F9
:10118300E496F622C3E096F008A3E096F008A3E005
:1011930096F008A3E096F022E627F60809E637F66C
:1011A3000809E637F60809E637F622E026F608A32B
:1011B300E036F608A3E036F608A3E036F622E0268A
:1011C300F008A3E036F008A3E036F008A3E036F019
:1011D30022C0E0E8C0E0E58124FCF8E6A2E7D0E025
:1011E300F8D0E022E056F608A3E056F608A3E0564E
:1011F300F608A3E056F622E657F60809E657F6087E
:1012030009E657F60809E657F622E647F60809E61F
:1012130047F60809E647F60809E647F622E056F0DE
:1012230008A3E056F008A3E056F008A3E056F02226
:10123300E046F008A3E046F008A3E046F008A3E088
:1012430046F022700422600D18C6C333C608C633A5
:10125300C6D5E0F41822E4C397F709E497F709E445
:1012630097F709E497F722600D08C6A2E713C6189B
:10127300C613C6D5E0F322C6F4C608C6F4C608C62C
:10128300F4C608C6F4C622C3E7960809E796080918
:10129300E7960809E79622C3E09608A3E09608A319
:1012A300E09608A3E0962275D00075814075180179
:1012B30075190300020B7F600C08C6C313C618C65A
:1012C30013C6D5E0F422E7094709C313470933607E
:1012D30002E733F422E6F008A3E6F008A3E6F008F9
:1012E300A3E6F022E0F608A3E0F608A3E0F608A3DD
:1012F300E0F622E6084608C3134608336002E633E5
:10130300F422CAC0E0E6F0A308DAFAD0E0FA2274C5
:10131300F855C74401F5C7790122E7C333194719C3
:1013230047194722E6C3331846184618462225189C
:10133300F582E43519F58322120DCA498D01120D88
:10134300CAB88D01120DCA618E01120DCA698E01D0
:10135300120DCA558F01120DCACC8F01120DCA0985
:101363009001120DCA709001120DCABD9101120DA8
:10137300CAD99101120DCA329201120DCACC92013F
:10138300120DCA1C9301120DCAB79301120DCA6440
:101393009401120DCAA29401120DCA129501120DE5
:1013A300CA5D9501120DCA969501120DCAC4960124
:1013B300120DCAFE9701120DCA5F9801120DCAA839
:1013C3009801120DCAD09801120DCA539901120D3A
:1013D300CAD39901120DCA469A01120DCA579A012E
:1013E300120DCACD9A01120DCA719B01120DCAB317
:1013F3009B01120DCA399C01120DCA759C01120D75
:10140300CA889C01120DCAE19C01120DCA229D01DA
:10141300120DCAAA9E01120DCA40A001120DCA6F75
:10142300A001120DCA14A101120DCA53A101120D7C
:10143300CA98A101120DCA84A201120DCA87A40180
:10144300120DCA91A401120DCA9BA401120DCAA5C3
:10145300A401120DCABFA401120DCAC9A401120D21
:10146300CAD3A401120DCADDA401120DCAFEA40140
:10147300120DCA50A501120DCA74A501120DCA9806
:10148300A501120DCAF7A501120DCA42A601120D3C
:10149300CA60A601120DCAD0A601120DCA0DA7017A
:1014A300120DCA54A701120DCABCA701120DCA2EF0
:1014B300A801120DCA62A901120DCA85A901120D54
:1014C300CA48AA01120DCA28AB01120DCA89AD017F
:1014D300120DCAF0AE01120DCAB3B001120DCA0546
:1014E300B101120DCAE8B101120DCA2DB201120DDC
:1014F300CAE5B201120DCA73B301120DCA9BB3013F
:10150300120DCA5DB401120DCA7EB601120DCAA333
:10151300B601120DCAF4B601120DCAF5B701120DC8
:10152300CA2DB801120DCA6DB801120DCAD0B80187
:10153300120DCAE9B901120DCA49BA01120DCA2F17
:10154300BB01120DCA35BD01120DCA51BD01120DE9
:10155300CAF6BE01120DCA3CBF01120DCA1AC00160
:10156300120DCA74C001120DCAA9C001120DCAD44A
:10157300C001120DCABFC101120DCAFBC101120D78
:10158300CA37C201120DCAC5C201120DCAC8C201AF
:10159300120DCA34C301120DCA142D00120DCA66EE
:1015A3002D00120DCA9D2F00120DCAE92F00120D36
:1015B300CAAB3000120DCA223100120DCA4A3200E2
:1015C300120DCA873400120DCA1E3500120DCABE91
:1015D3003B00120DCA443C00120DCAC13E00120D5D
:1015E300CAA53F00120DCA4A4000120DCA6341004A
:1015F300120DCA944400120DCA574600120DCAB701
:101603004600120DCA6D4700120DCA1A4800120D8A
:10161300CA454800120DCAD24800120DCABF49007C
:10162300120DCA934A00120DCA314B00120DCA5E45
:101633004B00120DCA804B00120DCA794D00120DDA
:10164300CA544E00120DCAA14E00120DCA024F0019
:10165300120DCAC44F00120DCAF94F00120DCA472A
:101663005000120DCA775000120DCAB55000120D6A
:10167300CA0D5100120DCA125100120DCA6D51004C
:10168300120DCA955100120DCAB45200120DCA2090
:101693005300120DCA8A5300120DCA135400120DBF
:1016A300CA325600120DCA105700120DCA7F5800D5
:1016B300120DCA115A00120DCAA15A00120DCAA85E
:1016C3005B00120DCA315C00120DCA785C00120D6A
:1016D300CAEF5D00120DCA035E00120DCA1D5E0043
:1016E300120DCA385E00120DCA445E00120DCA62A2
:1016F3005E00120DCA196000120DCA526000120D6D
:10170300CA5F6000120DCAAE6000120DCAA161006B
:10171300120DCAE56100120DCA686200120DCA6C8F
:101723006300120DCA286400120DCAA36500120DCE
:10173300CA7D6600120DCA146700120DCAA667009F
:10174300120DCABD6700120DCAE16700120DCAEB84
:101753006700120DCAF76700120DCA156800120D53
:10176300CA596800120DCAAA6800120DCA0B690093
:10177300120DCA6D6900120DCAE66900120DCAF690
:101783006A00120DCAA26B00120DCA8F6C00120DF3
:10179300CAF36C00120DCA8A6D00120DCA5A6E008C
:1017A300120DCA896E00120DCAE86E00120DCA9698
:1017B3006F00120DCABC6F00120DCAC37000120D68
:1017C300CAE27000120DCA517100120DCACB71002A
:1017D300120DCAF17100120DCA1D7200120DCA68F2
:1017E3007200120DCA067300120DCA2F7300120D78
:1017F300CA957300120DCAEF7300120DCA14740058
:10180300120DCA5A7400120DCA777400120DCA2140
:101813007500120DCA34FB03120DCA7FFB03120DB0
:10182300CAF3C301120DCA27C401120DCAFDC401B4
:10183300120DCAD1C501120DCAFCC601120DCA8010
:10184300C801120DCAFEC801120DCAC5C901120D85
:10185300CAE6CA01120DCA58CB01120DCABACB018E
:10186300120DCA08CC01120DCA12CC01120DCA50B6
:10187300CC01120DCAB9CC01120DCA58CD01120DFB
:10188300CAD6CD01120DCA8BCE01120DCAFDCE01EF
:10189300120DCA23CF01120DCA53CF01120DCA80F4
:1018A300CF01120DCA26D001120DCA36D001120D76
:1018B300CA89D001120DCA95D001120DCAA1D00157
:1018C300120DCAAAD001120DCA0BD101120DCA6B97
:1018D300D101120DCABCD101120DCAD7D101120D0B
:1018E300CA07D201120DCA28D201120DCA34D2017D
:1018F300120DCA75D301120DCA93D301120DCAFC7E
:10190300D301120DCA0FD401120DCA26D401120D30
:10191300CAB9D401120DCAB8D501120DCAB4D60181
:10192300120DCA36D701120DCA40D701120DCAA330
:10193300D701120DCAB4D701120DCAF7D701120D80
:10194300CA3ED801120DCA74D801120DCAAAD80111
:10195300120DCAC8D801120DCAECD801120DCA2D36
:10196300D901120DCA20DA01120DCA66DA01120D6D
:10197300CAA1DA01120DCA00DB01120DCA28DB016C
:10198300120DCA61DB01120DCA6FDB01120DCAD041
:10199300DB01120DCA0DDC01120DCA4FDC01120D61
:1019A300CA80DC01120DCAB4DC01120DCABFDC010E
:1019B300120DCADDDC01120DCAA5DD01120DCAAF7D
:1019C300DD01120DCAEEDD01120DCA04DE01120D96
:1019D300CA6EDE01120DCA82DE01120DCA7ADF0160
:1019E300120DCA8DDF01120DCAA2DF01120DCA4208
:1019F300E001120DCAA6E001120DCA69E101120D40
:101A0300CA74E101120DCA93E201120DCAAFE201D9
:101A1300120DCA07E301120DCA3EE301120DCA58A3
:101A2300E301120DCACCE301120DCA5DE401120DEC
:101A3300CAA5E401120DCAC0E601120DCA2AE701C4
:101A4300120DCA95E701120DCAEEE901120DCAFE85
:101A5300E901120DCA01EA01120DCA0DEA01120DC4
:101A6300CA21EA01120DCA29EA01120DCA5EEA016E
:101A7300120DCA0CEB01120DCA7CEB01120DCAE068
:101A8300EB01120DCA79EC01120DCA13ED01120D0F
:101A9300CA41ED01120DCAD1ED01120DCADDED01EE
:101AA300120DCA0CEE01120DCA2EEE01120DCA550B
:101AB300EE01120DCABBEE01120DCA25F001120D83
:101AC300CA28F001120DCA9FF001120DCA8BF10151
:101AD300120DCA63F201120DCAEDF201120DCA22F0
:101AE300F401120DCAD4F401120DCA0DF501120D41
:101AF300CA3EF501120DCA47F501120DCA33F601AC
:101B0300120DCAAFF601120DCA3FF701120DCA0931
:101B1300F801120DCA8DF801120DCAC3F801120D96
:101B2300CA0CF901120DCA008003120DCA128003F8
:101B3300120DCA858003120DCABB8003120DCA128F
:101B43008103120DCACC8203120DCAAD8403120D98
:101B5300CAAB8703120DCAE88703120DCA028803B2
:101B6300120DCA648803120DCAA08803120DCADCC1
:101B73008803120DCA168903120DCA077F00120DBE
:101B8300CA317F00120DCA4A7F00120DCA7E7F0040
:101B9300120DCA9F7F00120DCAF5EE03120DCA146F
:101BA300EF03120DCA5FEF03120DCAA9EF03120D63
:101BB300CA4CF003120DCA60F003120DCA8CF00375
:101BC300120DCA88F103120DCABFEB03120DCAFD31
:101BD300EC03120DCAA4AC03120DCA2BAD03120DF4
:101BE300CA35AD03120DCA5CAD03120DCA70AD0345
:101BF300120DCAC8AD03120DCAF8AD03120DCAED1A
:101C0300AE03120DCAB2AF03120DCA04B003120D14
:101C1300CA4EB003120DCA8BB003120DCAEEB00345
:101C2300120DCA31B103120DCAA8B103120DCA02B3
:101C3300B203120DCAA1E603120DCABAE603120DCE
:101C4300CA55E703120DCA04E803120DCA31E803AB
:101C5300120DCA55D303120DCADDD303120DCAE800
:101C6300D303120DCA0DD403120DCA98F202120D3A
:101C7300CA9BF202120DCA5EF302120DCA8CF30262
:101C8300120DCACEF302120DCAF3F302120DCA13D8
:101C9300F402120DCA49F402120DCA93F402120D92
:101CA300CAABF502120DCADAF502120DCAFBF50230
:101CB300120DCA53F602120DCA0AF702120DCA4ECA
:101CC300F702120DCA90F802120DCA26F902120D7C
:101CD300CA3AFA02120DCA89FA02120DCAB2FA02FC
:101CE300120DCA79FB02120DCAA4FB02120DCAD649
:101CF300FB02120DCA5B7500120DCA657500120D49
:101D0300CAEF8801120DCA217600120DCA3E760071
:101D1300120DCA007700120DCAB57900120DCABEA2
:101D23007900120DCA147A00120DCA3F7A00120DFF
:101D3300CAA47A00120DCA407B00120DCA7D7B0033
:101D4300120DCACE7B00120DCA287C00120DCA5890
:101D53007C00120DCADA7C00120DCA277D00120D19
:101D6300CA597D00120DCA8E7D00120DCA9E7D00D8
:101D7300120DCAAE7D00120DCACD7D00120DCAC56B
:101D83008C01120DCAD37E00120DCAD0F703120DB7
:101D9300CA99E403120DCAFDE403120DCA24E50334
:101DA300120DCA2AE603120DCAB5C402120DCA9A4D
:101DB300C502120DCAD5C502120DCA84C702120D7F
:101DC300CAC8C702120DCA80C902120DCAC7C90206
:101DD300120DCAA0CA02120DCA2DCB02120DCAB926
:101DE300CB02120DCA11CC02120DCA54CC02120D31
:101DF300CAE9CD02120DCA5BCF02120DCA83D1020A
:101E0300120DCA8DD102120DCAEAD102120DCA3EB9
:101E1300D202120DCA33D502120DCABFFC03120D32
:101E2300CAD5FC03120DCA2EC503120DCA46C5033B
:101E3300120DCAEEC503120DCA2FC603120DCA4CEA
:101E4300C603120DCA72C603120DCAB9C603120D18
:101E5300CAF2C603120DCA26C703120DCAB8C803B5
:101E6300120DCA89FB03120DCA5AED03120DCAC71C
:101E7300ED03120DCADEED03120DCA23EE03120D9C
:101E8300CA3AEE03120DCAD1EE03120DCADBEE03FA
:101E9300120DCA90E502120DCADEE502120DCACB7D
:101EA300E602120DCA58E702120DCAA2E702120D8A
:101EB300CAF0E702120DCA4DE802120DCA61E80228
:101EC300120DCA46EA02120DCAC5EA02120DCAEF82
:101ED300EA02120DCAD1EC02120DCAECEC02120D89
:101EE300CA2DED02120DCA60ED02120DCAB9ED0240
:101EF300120DCAD8ED02120DCA3CEE02120DCABB76
:101F0300EF02120DCAEFEF02120DCA1FF002120DFB
:101F1300CA24F002120DCA70F002120DCA15F102A2
:101F2300120DCA37F102120DCA41F102120DCA4451
:101F3300F102120DCAB6F102120DCAD3F102120D4B
:101F4300CAE6F102120DCA4DF202120DCA80F20264
:101F5300120DCAD8FA03120DCAF0FA03120DCA0001
:101F63009F03120DCA519F03120DCA14A103120D30
:101F7300CAE2A203120DCA2CA303120DCA65A4035D
:101F8300120DCAB4A503120DCAD2A503120DCA2697
:101F9300A603120DCAAEA603120DCAAAB202120DEF
:101FA300CADEB202120DCAC1B302120DCA4FB40285
:101FB300120DCAB5B402120DCAF7B402120DCA6EDD
:101FC300B502120DCA03B602120DCA87B602120D6C
:101FD300CAC3B602120DCAA7BA02120DCA52BC0274
:101FE300120DCA78BC02120DCA36BD02120DCA39CF
:101FF300BD02120DCAF8BD02120DCA22BF02120D94
:10200300CA4DC002120DCAC8C002120DCAF3C102E2
:10201300120DCA52C202120DCA99C302120DCA0E80
:10202300C402120DCA779F02120DCA33A002120D09
:10203300CAADA002120DCAC5A002120DCA61A10247
:10204300120DCAA4A102120DCAA0A202120DCACC7B
:10205300A202120DCA37A302120DCA89A302120DDE
:10206300CAE6A302120DCAB9A602120DCA5BA702E1
:10207300120DCAD7A702120DCA4CA902120DCAF932
:10208300A902120DCAA0AA02120DCAF5AA02120DC4
:10209300CA6BAB02120DCA95AC02120DCA3DAE0259
:1020A300120DCA5CAF02120DCAF9AF02120DCA6952
:1020B300B002120DCA6EB102120DCA19B203120D8B
:1020C300CA8FB203120DCAE8B203120DCA46B30394
:1020D300120DCA82B303120DCA0BB403120DCA4EFA
:1020E300B403120DCA92B403120DCA1BB503120D29
:1020F300CA20B503120DCA96B503120DCA32E00306
:10210300120DCA7FE003120DCA2EE103120DCA9409
:10211300E103120DCA05E203120DCAEED003120D3C
:10212300CA4BD103120DCABCD203120DCAFCF2036F
:10213300120DCA36F303120DCAFCF303120DCA23A0
:10214300EA03120DCA31EA03120DCAFDFC03120D94
:10215300CAC39E03120DCA1EFF01120DCA2EFF0130
:10216300120DCA52FF01120DCABAFF01120DCA7233
:10217300F503120DCA99F503120DCA22F603120DC7
:10218300CA89F603120DCADD9E03120DCA3EF4037B
:10219300120DCA5AF403120DCABFF403120DCAEF8B
:1021A300F403120DCA53F503120DCA55DB03120DC6
:1021B300CA75DB03120DCA96DB03120DCAB5DB0326
:1021C300120DCABDDB03120DCAE3DB03120DCA20D5
:1021D300DC03120DCA49DC03120DCA96DC03120D8F
:1021E300CADEDC03120DCA52F901120DCA6CF901E1
:1021F300120DCA75FA01120DCAB6FA01120DCAD030
:10220300FA01120DCA54FB01120DCA4FFC01120D43
:10221300CAB9FC01120DCAC5FC01120DCAECFC01BE
:10222300120DCA18FD01120DCA40FD01120DCA5844
:10223300FD01120DCAA9FD01120DCA67FE01120D9F
:10224300CA22FC02120DCA30FC02120DCAAEFC02F5
:10225300120DCA82FD02120DCAB6FF02120DCAA2E6
:10226300F603120DCA73E803120DCAABE803120D8D
:10227300CACFE803120DCA2DE903120DCA8FE90371
:10228300120DCACEE903120DCAFCE903120DCAE20C
:10229300A603120DCA61A703120DCA11A803120DDA
:1022A300CA82A803120DCA88A903120DCA2DAB0353
:1022B300120DCA8DAB03120DCADFAB03120DCAE8B0
:1022C300AB03120DCAFEAB03120DCA10AC03120D01
:1022D300CA22AC03120DCA87AC03120DCA91AC0318
:1022E300120DCA6B9903120DCABE9903120DCAD2FD
:1022F3009B03120DCA0A9C03120DCA2F9C03120DD5
:10230300CA489C03120DCA619C03120DCA569D0351
:10231300120DCAE49D03120DCA8DE203120DCAD039
:10232300E203120DCAE1E203120DCA14E303120D14
:10233300CA4CE303120DCA84E303120DCAECE30390
:10234300120DCA1FE403120DCA18D603120DCA4395
:10235300D603120DCA8AD603120DCA9CD603120DD8
:10236300CAB8D603120DCA20D703120DCA29D70340
:10237300120DCA8AD703120DCAAED703120DCA783B
:10238300D803120DCA85D803120DCA96D803120DAD
:10239300CA6CFA03120DCAB9FA03120DCADFBD03E0
:1023A300120DCAF2BD03120DCA50BF03120DCA5D4E
:1023B300BF03120DCA76BF03120DCA89BF03120DE4
:1023C300CAA3BF03120DCAC2BF03120DCA41C00381
:1023D300120DCA0DC103120DCA6AC103120DCA7AC6
:1023E300C103120DCAD1F903120DCAF6F903120D76
:1023F300CA1FFA03120DCA47FA03120DCACEDD0330
:10240300120DCAE7DD03120DCAF3DD03120DCAFC78
:10241300DD03120DCA20DE03120DCA2CDE03120DDA
:10242300CA3BDE03120DCA59DE03120DCAABDE032B
:10243300120DCAE5DE03120DCA1ADF03120DCA69B3
:10244300DF03120DCAB5DF03120DCACDDF03120D70
:10245300CAD7DF03120DCAE8DF03120DCA2CE0034B
:10246300120DCAD9FB03120DCA548903120DCA8077
:102473008903120DCA9C8903120DCAAF8903120D79
:10248300CAC58903120DCA318A03120DCA6B8A03A6
:10249300120DCAD98D03120DCAF88E03120DCA2963
:1024A3008F03120DCA8B8F03120DCA669003120D90
:1024B300CA8E9003120DCAA39003120DCAB39003E0
:1024C300120DCAF49003120DCA499103120DCA5991
:1024D3009103120DCAB9F103120DCAD4F103120DFF
:1024E300CAFEF103120DCA1BF203120DCA43F20313
:1024F300120DCA65F203120DCA7EF203120DCAADA4
:10250300F203120DCAC8F203120DCABE7F00120DE8
:10251300CA71CC03120DCA78CC03120DCA85CD0340
:10252300120DCAB7CD03120DCADDCD03120DCA10A9
:10253300CE03120DCA22CE03120DCA5DCE03120DB5
:10254300CACDCE03120DCA0ACF03120DCA57CF0349
:10255300120DCA85CF03120DCAA5CF03120DCAC42B
:10256300D803120DCA00D903120DCA07DA03120DDC
:10257300CAD1F803120DCA2FF903120DCA6EF9035B
:10258300120DCAAFF903120DCA829103120DCAA12B
:102593009103120DCA079203120DCA8F9203120DF3
:1025A300CA179303120DCA329303120DCAA89303D9
:1025B300120DCACB9503120DCA4A9603120DCAD83F
:1025C3009603120DCA9A9703120DCA1B9803120D94
:1025D300CA409803120DCAC39803120DCAE09803A8
:1025E300120DCA89C103120DCA4AC203120DCAB71A
:1025F300C203120DCADCC203120DCAA5C303120D16
:10260300CA21FC03120DCA38B603120DCA9DB603C4
:10261300120DCAD5B803120DCA1AB903120DCA1D79
:10262300B903120DCA3EB903120DCA41B903120D03
:10263300CA78B903120DCA18BA03120DCA47BA03EE
:10264300120DCA90BA03120DCAAABA03120DCAD246
:10265300BA03120DCAE9BA03120DCAF6BA03120D70
:10266300CA13BB03120DCA00BC03120DCA37BC0345
:10267300120DCA41BC03120DCA52BD03120DCA5B2F
:10268300BD03120DCA64BD03120DCA6DBD03120D45
:10269300CA76BD03120DCAD0C803120DCA63CC0398
:1026A300120DCA68FC03120DCA239E03120DCA4DF4
:1026B3009E03120DCAC4FF01120DCA97FC03120D2B
:1026C300CADFFC03120DCA7CD502120DCA49DA0215
:1026D300120DCA3E8801120DCA648701120DCA1871
:1026E3008701120DCAF78601120DCABA8601120DAF
:1026F300CA7F8601120DCA5B8601120DCA4086018C
:10270300120DCABB8C01120DCAA98C01120DCACFBE
:102713008501120DCAFD8401120DCA7C8C01120DB4
:10272300CA4E8B01120DCA628401120DCAF18301D4
:10273300120DCAD28301120DCAC08301120DCA4CF5
:102743009F02120DCA2E9F02120DCAD89E02120DAD
:10275300CA129E02120DCA769D02120DCA029C0273
:10276300120DCAAE9902120DCA499902120DCA027C
:102773009602120DCADA9502120DCA7F9502120D46
:10278300CA5C9502120DCAB69402120DCA5E940277
:10279300120DCABB9202120DCAB89202120DCAC719
:1027A3009102120DCAA79102120DCAF79002120DDF
:1027B300CA298B01120DCAD78A01120DCAB28A0126
:1027C300120DCA798F02120DCA408F02120DCA115F
:1027D3008F02120DCA0E8F02120DCA6F8A01120DDB
:1027E300CA008F02120DCAEC8E02120DCADF8E02CE
:1027F300120DCA078E02120DCA9A7E00120DCA7FED
:102803008901120DCA938D02120DCA598D02120D40
:10281300CA018D02120DCAD08C02120DCA028A029D
:10282300120DCAF68902120DCA698902120DCAB7BE
:102833008802120DCA568602120DCAC08302120DF7
:10284300CA8A8302120DCA288202120DCAD48102D7
:10285300120DCA0D8102120DCA678002120DCA3A07
:102863008002120DCA008002120DCAB17500000069
:102873000080FBC2C732E473000136360101000158
:102883000201000103010001040106060502000024
:10289300070100340801000F090401010D0100FFC5
:1028A3000E08000017020000190100FF1A010001C1
:1028B3001B0100FE1C0100081D0200001F01000196
:1028C30020010001210200002301000F2402000067
:1028D3002601000127010008280200FF2A01000742
:1028E3002B0102402C0100002D0100012E010001EB
:1028F3002F0100FF30010B1C310800003A010008D2
:102903003B01000F2F01000003027102300160023E
:10291300110270020102020202028002100261022D
:102923003A00410063027302720262024302000230
:102933001302380000020002040212020002000225
:102943000002000204020402370037003C02440282
:102953000002390000020002650200023502810212
:1029630000020502820283020002010171010101DA
:102973000101110101013101010101018001100176
:1029830061013B00140063017301720162014301A1
:102993000001130106013D0135000401120100018C
:1029A30000010001000104010401330133013C0172
:1029B30044013201360000010001650100013500C8
:1029C30081010001050182018301000103007100FF
:1029D30030016000110070003102200350048000B8
:1029E30010006100000014006300730072006200B5
:1029F3004300000013000600000000000400120062
:102A0300000000000000000004000400370037004D
:102A13003C024400000000000000000065000000CC
:102A2300350081000000050000008300000003045E
:102A3300710402046004110470040204020401041A
:102A43000204100461040004140463047304720494
:102A53006204430400041304060400040004040491
:102A63001204000400040004000451046400000480
:102A7300000400044404000400040004000465048A
:102A83000004350481046400050400048304000485
:102A93000103710301030103010301030103220382
:102AA30002030103100300030003000300030003F8
:102AB300000300034203000324030603000300038F
:102AC300040312032503230325032303040304033D
:102AD3000003000300034403000300032303000374
:102AE300650321003503810300030503000300038D
:102AF3000003000003002001BE830000000020014A
:102B0300BF83000004004201B181000005004201BF
:102B13008F810000060042016D8100000700200143
:102B2300BC830000100042030D1B000011002003B2
:102B33003D1A0000120020031E1B030000002103A6
:102B43003E1A060000002001401A3600010006006C
:102B530000000F0000000000000000000000000063
:102B630003FFFF00000403FFFF0000FFFF0FF4015A
:102B73000005C4040320000100000B000000000056
:102B830000000003010F000061201300FB1F010080
:102B930061200200B31F0300B91F0400BF1F05001B
:102BA300C51F0600D11F1100EF1F1400F51F1500EC
:102BB300E31FFFFF000001D51506FF1508F9150BEC
:102BC3001116104B1502DB1505ED1507E1150CBDAC
:102BD300150DC915FF0000030003000400080010D1
:102BE300001F003E007B00F600EC01D703AF075D3A
:102BF3000FB91E713D000003EAF5E5D5D5C5B5A5AE
:102C030095958585757565655555454535352525F1
:102C13001515055F198F1965196B1989197D1977B1
:102C23001995199B19A119AD197119591953199CA2
:102C330036063A703DD9404344AD47174B814EEABF
:102C43005100160F00000B150B020002220F320079
:102C53000006000102030405060708090A0B0C0D10
:102C63000E0F4F1A611A671A29196D1A23192F1992
:102C730063185D1899189F1893184B18C71AE51A0B
:102C8300EB1ACD1AD91AD31A0C0E020B040B0A072E
:102C930008000F303016181920231A1C1E300001AB
:102CA30019161816161523030000383C3E363B3B15
:102CB300352B432C00034948424D18172505023094
:102CC3003017181921301B1D1F308319A719DF1A5C
:102CD300B319B919BB1A731A791A851A7F1A000521
:102CE300150D091008046F1875186918A518000048
:102CF300000000007B188D1800BE040A15000400B4
:102D03000E000309280F010A0900000C041008082B
:102D130005C082C083E99003CEF0E4900382F012F1
:102D2300255F9003E1E4F0A3F09003CFF0A3F0124A
:102D330017BB1227BD1214A9122565900342E4F0B4
:102D4300A3F09003F3E07002A3E060099003F31291
:102D53006072122879902D08E493FA790212267989
:102D630002531974F2120ABAEAFEEBFF74805FF998
:102D7300E47001E960619003CEE0F9121D318A0825
:102D83008B09EA7001EB60467B0080010BEB75F069
:102D930003A424B9F8E5F0342BF988828983E493FA
:102DA300FA74FF6A6021850882850983E06A70DC12
:102DB300AA08AB0988828983A3E493C0E0740193D2
:102DC300F583D082122879AA08AB09121D25EEFAE1
:102DD30074806FFB022F8F74105FF9E47001E96058
:102DE3001D12168F8A088B09EA7001EB600A12150F
:102DF300C9AA08AB09121D25EEFA741080D4EE544B
:102E0300207003022EDC750C00124FB67001EB70BC
:102E1300107C027D007A207B009003CEE0F9121E25
:102E2300457C0079047A007B001216598A088B09C5
:102E3300800D740188828983F0850A08850B09E572
:102E4300087002E509606D7C007904AA08AB0912D9
:102E530016598A0A8B0B750C01E508240412708835
:102E630024FFF0A3E034FF1272CF7002A3E070C915
:102E7300E5082409F8E5093400F985088285098302
:102E8300A3A3A3A3A3A3A3A3A3A3E0640170A38504
:102E93000882850983A3A3A3A3A3A3E05404709288
:102EA300740688828983F07AB7850882850983123C
:102EB30030A080851216297C0079017A007B0012EC
:102EC3001659EA7001EB7009E50C70057A20122F90
:102ED3009274206EFAEF022DD6EE5410600712148E
:102EE300DF741080EEEE5440600712153374408097
:102EF300E2EE548060071213FB748080D674015F86
:102F0300F9E47001E9601A9003F5E07002A3E06050
:102F1300099003F5126072122879EEFA7401022DFA
:102F2300D574085FF9E47001E9602D1214B59011AE
:102F3300EBE06401701B9011ECE06015FC75F0E8A8
:102F4300A4CCAAF075F003A42AFD7A007B08123101
:102F530019EEFA7408022DD574025FF9E47001E9E1
:102F6300600A1217B5EEFA7402022DD574045FF9E4
:102F7300E47001E960121263FE125D6B7901123F86
:102F83009BEEFA7404022DD57A007B00023C2F7B62
:102F9300009003CEE0F9121E4B2274F7120ABA74A2
:102FA300E11210DEEAFEEBFFEE7001EF60338518ED
:102FB30082851983AC82AD831216B974061213315C
:102FC300E0601E7417121331E0FD7401121331E037
:102FD300FCEEFAEFFB7900122745E9600479A4803F
:102FE30002790002525E74F6120ABAEAFEEBFF8E11
:102FF300828F83A3A3A3A3A3A3E0544060178E826D
:103003008F8312607212657660067AFF7BFF8024DD
:10301300123094801590036DE0A2E1500A790012FA
:1030230030941214BB80031216DD74FE6A700374AD
:10303300FF6B60458E828F83126072126592121746
:103043005BE98E828F83600612308DE48005123037
:103053008D7401F07CA57D158E828F83125E19120B
:103063002673E9F5087015EE7001EF60097901EE3A
:10307300FAEFFB1216350260687508CDAA088E8236
:103083008F831230A0E960DF80ECE0240D125869D1
:10309300228E828F8312678BFAA3E0FB22E0240C3B
:1030A3001252AFF91215B12274F6120ABAE9FEEA06
:1030B300FF7A0F7B00121D1FEA7001EB6019740C7D
:1030C3008A828B83F0EEA3A3F0EF8A828B83A3F033
:1030D30012625F79008034EEF912165F8A088B0959
:1030E300A808A909E87001E9601F7406888289832A
:1030F300A3A3A3A3A3A3A3127053A3A3A3A3A3E074
:10310300F9121545EEF912163B7910026088EAFCB4
:10311300EBFD7A017B009003CEE0F9121E3F22748F
:10312300EE120ABAEAFEEBFF8C088D09890E7412BF
:10313300121331E0F510A3E0F511851082F583E455
:10314300F0A3F0123232EE241DF8EF3400F9880CAC
:10315300890D888212323F601F850A82850B831294
:1031630035187014850A82850B831256E9851082FF
:10317300851183125D6B8003750E00850C82850DAE
:1031830083126787120E6A01092D32A231BC31C541
:1031930031D0312D32F4312D3204321D32263278C2
:1031A30010121067AC08AD09EEFAEFFB1214C774E6
:1031B3000212107AE9F50E8071EEFAEFFB1214CDCC
:1031C3008068A90EEEFAEFFB12177380E71272D430
:1031D30064027056E50E7010850A82850B831269AE
:1031E300E07003A3E0697042EEFAEFFB12172B8045
:1031F300391272D464027032EEFAEFFB12171380A5
:10320300299003F7E07002A3E0601FEEFAEFFB9052
:1032130003F71260721228798010EEFAEFFB12178F
:103223007F8007EEFAEFFB12178BA90E024D62EEB9
:103233002409F8EF3400F9880A890B22F583126711
:103243008BF912173DE92274ED120ABA74DE1210DB
:10325300DEEAFEEBFFEE24021259E4F912165F8A4E
:10326300088B09EA7001EB7003023336EE240CF588
:103273000CEF1249ABEA2409F50AEB127037EA2482
:1032830006F50EEB123B358E828F83A3AE82AF839E
:10329300E064F16017E064CD6012E0641A600DE051
:1032A30064E96008E064E160030233B7850E828558
:1032B3000F83A3E05408F9E47001E9700302334378
:1032C3007405850A82850B83F09003FBE07002A3EB
:1032D300E060099003FB1260721228799003FDE00D
:1032E3007002A3E0603490036DE0A2E1502C8508E6
:1032F3008285098312709BA3A3A3A3A3A3A3A312F1
:103303005268123B53EA7001EB600F8E828F83E0A9
:10331300F99003FD126072122879850A82850B8366
:10332300E0640270037406F0851082851183E0F96E
:1033330012163B121629742212107A7F0B020E2CDE
:103343007900121635E9606C90036DE0A2E15058E4
:10335300850882850983126D757002A3E060497444
:1033630003121331126D5C8E828F83E064E970184F
:1033730012347812106B8E828F83E0F5127812125A
:10338300106B12445112107A740C121331125E191D
:1033930012606C1265927900740E12133112561476
:1033A300740C121331123B4C850E82850F83125617
:1033B3001E0232CB8E828F83E0C0E074021213317F
:1033C300D0E0123B8312635312442B1272DA851836
:1033D30082851983AA82AB8370051214318003128C
:1033E30017378E828F83E064F16034E064CD602F01
:1033F300E0641A602AE064E16025E064F060207410
:1034030002121331E0FC74B76C601412347812109A
:103413006BECF512781212106B12445112107A9061
:10342300036DE0A2E1400302331D850A82850B830D
:10343300E06402702A850E82850F83E05404601FC6
:1034430012606C126576701312606C74FFF0A3F057
:103453007405850A82850B8302332A740380F38EF5
:10346300828F83E064E9600302331DAA08AB09126B
:10347300179102331D85088285098312679475129B
:103483000178122274F5120ABA8A088B09750A00A8
:10349300EA24091253F4FEE9FF8E828F8312351852
:1034A3007003750A018E828F83125C6F7003A3E031
:1034B3006B7006E50AD2E1F50AE5082402FEE50988
:1034C3003400FFE50A60138E828F83E07006E50AFD
:1034D300D2E58004E50AD2E6F50A12175BE9640136
:1034E3007006E50AD2E0F50A8E828F83E06017E565
:1034F30008241DF582E509340012323F6401600699
:10350300E50AC2E0F50AE50AA2E14004D2E7F50ABA
:10351300A90A0268EB12657A64022274E8120ABAF5
:1035230074DC1210DEEAFEEBFF7403121331126334
:10353300647514007515007405121331AC82AD83E4
:103543008E828F83A3A3A3126563125E191216B929
:10355300EE241B1256E37412121331125D6B740BBB
:10356300121331E06022741C121331E0FD74061251
:103573001331E0FC8E828F83A3A3125E19790112AB
:103583002745E96003023B287405121331AA82AB75
:10359300831215C3E9F508740B121331E0700E9012
:1035A300036AE06008E9A2E14003023B28EE24122B
:1035B300F516EF3400F517EE242A127034EE242C9E
:1035C300123B3D12415CE0687003A3E069701C7517
:1035D3000900780912106B780912106BEE242E1271
:1035E3003B44123B5F12446112107A740812133188
:1035F300E0FA900370E06A6003023B28740B121335
:1036030031E070030236A1123B5F123B538A0A8BEF
:103613000BA80AA90BE87001E97003023745740689
:10362300121331123B5AFAA3E03400FB740D2AF54E
:1036330082E43BF583E0FAE82404F50AE9127037E3
:10364300E82403F582E91272DA6A600DEAF09083E6
:10365300A7780C1212E7123BA879047406121331EF
:10366300123B5AFCA3E034008C82F583A3AA82ABFD
:1036730083121D0D8A0C8B0D8C0E8D0F850A82858E
:103683000B8378101212E77810790C12128A500308
:10369300023B2890839F780C1211AE123BA8EE24B4
:1036A30024123B32EE2430F50CEF1249ABEE242FFB
:1036B30012703490036DE0A2E150030237DC9003F3
:1036C30082E0FA74046A600874096A6003023B28A2
:1036D300E508A2E5400302378B123B8FC0E074017B
:1036E300121331D0E012448BC0E07402121331D0B4
:1036F300E0F07416121331E0640170207410121399
:1037030031123B777003A3E0697011740E12133109
:1037130012351870077416121331E4F0850E828582
:103723000F83120EA07404121331AC82AD8374099B
:10373300121331AA82AB83121437740412107A0263
:103743003B289003C7E0640160030236A174221290
:10375300133112678764067009E508A2E650030275
:1037630036A17412121331E064FF7004A3E064FF06
:103773007003023B28EEFCEFFD7405121331AA829D
:10378300AB831215CF023B28A2E64003023B287409
:1037930022121331123B6F701C741C121331E0643C
:1037A300026003023B287405121331AA82AB831211
:1037B300172B023B2874076A6003023B28741C1210
:1037C3001331E064046003023B287405121331AA29
:1037D30082AB8312171F023B287416121331E06069
:1037E3001D8E828F83A3A312447D14125B7BA312CD
:1037F300447DC0E07416121331D0E0F07006E50882
:10380300C2E7F508900382E0FA74046A600574095C
:103813006A7061740E121331125C6F7003A3E06B54
:10382300601712175BE96402600F740A121331E028
:10383300540364016003023B287407121331E070E0
:103843001B123B8FC0E07401121331D0E012448B82
:10385300C0E07402121331D0E002371E7422121337
:1038630031123B6F700302379C74076A6003023B9B
:10387300280237C075090074615508700302399036
:10388300E508A2E0507085168285178312561474DA
:1038930005121331AA82AB83121539E9705512163A
:1038A300E9E9F5097416121331E0700F741012135D
:1038B30031123B777003A3E069603BA90985168247
:1038C3008517831256147405121331AA82AB83121F
:1038D300153FE96013740E12133112696712133125
:1038E300125D6B751404800EE508C2E5F5087509D1
:1038F30000800353089FE508A2E5503C123B8FC0AC
:10390300E07401121331D0E012448BC0E074021250
:103913001331D0E0F0850E82850F83120EA074045C
:10392300121331AC82AD837409121331AA82AB83B3
:10393300121437740412107AE508A2E64003023A1F
:103943004F740312133185820A85830B780A121090
:1039530067A90985168285178312561474071213F3
:1039630031AA82AB831215B7740212107AE9F509F2
:103973007003023A4F742212133112678764016095
:1039830003023A4F74104514F514023A4F740712A8
:103993001331E06401703B742212133112678764A0
:1039A30005702F7403121331858208858309780803
:1039B30012106779008516828517831256147407CF
:1039C300121331AA82AB831215B7740212107A0252
:1039D3003B287416121331E0700302377812162F46
:1039E300E96003023B28740E121331126967121344
:1039F30031125D6B780912106B741E121331AC8295
:103A0300AD83740F121331125E19740A121331E06D
:103A1300F912157B740112107AE9600F7514208E68
:103A2300828F83A3A3126787543FF0790074101227
:103A33001331125614740E121331123B4CE9600603
:103A430074204514F5141216E9E9F50974031213E9
:103A530031E064FE7004A3E064FF7003750900E5C0
:103A630008A2E74003023B28E5097003023B2874E0
:103A730003121331123B777003A3E069700B741DBB
:103A8300121331E070030237788E828F83A3A3A3CE
:103A9300A3E0FA7B00121D9D8A0A8B0BEA7001EBEF
:103AA3007003023B288E828F83A3A3E0F50CA3E06F
:103AB300F50D750E00780C1210638E828F83A3A30D
:103AC300A3A3E0FC7D00124A7C12107A7407121340
:103AD30031E0851882851983F07401121331E4F003
:103AE300A3123B8385820C85830D780C12106778B3
:103AF30014121067E509F508780812106B8E828F8F
:103B030083A3A3A3A3E0F97408121331125614AAD2
:103B13000AAB0B1216A7740512107AE96007AA0AFA
:103B2300AB0B121DA3742412107A7F10020E2CF516
:103B33000EEF3400F50F22EE240BF582EF1270AF77
:103B430022F582EF126422F9221252AB1214C1221F
:103B53001252AB1217DF22126CC02A22850A828509
:103B63000B8312540D8516828517832212678BFAF5
:103B730074046A221256FB851682851783E0682235
:103B8300123B8722F085188285198322EE242E1298
:103B9300641F851882851983123B9F22F0850A8250
:103BA300850B83E022850A82850B83E50CF0A3E570
:103BB3000DF0A3E50EF0A3E50FF02274F2120ABA9A
:103BC300EAFEEBFF8C088D0912323279008882F508
:103BD30083125E191215578A828B83E5827002E580
:103BE30083603AA3A3A3A3A3A3E05418602FE5081B
:103BF300241BF582E509123B40120EA4E5082412AA
:103C0300F582E509123B40120EA4EE2418123B4440
:103C1300123C34121587740412107A80087900124A
:103C23003C341214D98005740312107A7F06020EF5
:103C33002C850A82850B8312540DEE240B1252A499
:103C43002274EE120ABA74EA1210DE8A0C8B0DEAA1
:103C53002402F50EEB123B350A0AFB1227038A08EE
:103C63008B09AE08AF09750901850C82850D83A305
:103C7300E0F508750A01AC0EAD0F8518828519832E
:103C8300AA82AB83122583740812133112636474FE
:103C93000A1213317402F07413121331E4F0E50CB9
:103CA300240AF50CE50D1249AB901A4BE07010EEA7
:103CB3007001EF700AE50870067509C3023E1A9099
:103CC3000382E0640860067509C2023E16850C8211
:103CD300850D83E0A2E1500EA2E35005750A04802E
:103CE3000C750A038007A2E35003750A02EE700104
:103CF300EF60648E828F83A3A3A3A3E0FA74046AA4
:103D0300600574036A700C7404650A601C740365AF
:103D13000A601674026A600574016A702074026591
:103D23000A60067401650A700F8E828F83124767DB
:103D3300121331125D6B801F74026A600574016A8D
:103D4300700A8E828F831248C8122879AA0EAB0F8D
:103D530012133B7E007F007408121331E064FE707F
:103D630004A3E064FF70381227DBE97032E50860D2
:103D7300179003BFE06402700F901A521247671244
:103D83001331E8F0A3E98016850C82850D83E05496
:103D930002F91214E57408121331EAF0A3EBF0747C
:103DA30008121331123EBA700374FF6B7005750964
:103DB300C78060E508F50B780B12106B850C8285C4
:103DC3000D83E0F9AC0EAD0F12144F740112107A8B
:103DD300E97040A90AAC0EAD0F7408121331123FFB
:103DE300948A108B11AE10AF11EE7001EF601C744A
:103DF300026508700BEE24051272D754FB4408F0D9
:103E0300740A121331E4F0F50980087408121331AF
:103E1300126364E508700F851882851983AA82AB43
:103E2300831226558010FCA90A851882851983AA56
:103E330082AB83121719E9FAEE7001EF603EEE24AC
:103E430005F8EF3400F9E508601288828983E0D22F
:103E5300E6F0740265087004E0D2E5F0850C828513
:103E63000D83E0A2E6500888828983E0D2E7F08ED2
:103E7300828F83A3A3A3A3A3A3E004F0E5097003A4
:103E8300EA602FFC7D007A017B1012256BEE700136
:103E9300EF6007AA0EAB0F12133B74081213311213
:103EA3003EBA700374FF6B600990035A126072127A
:103EB30028797416024D5F1252AB74FE6A2274F6AF
:103EC300120ABA74F71210DE8A088B09900382E093
:103ED300FA74036A600D74016A600874096A600306
:103EE300023F918508828B83A3AE82AF83E0600398
:103EF300023F767C007D007A027B0012256BE50889
:103F03002402124D671268DE125D6B795312264943
:103F13007900123F9B900382E0640960099003805B
:103F2300125E191217D974011260A57404900382EA
:103F3300F07401121331AA82AB83794A12264374B7
:103F430001121331AC82AD837A787B031225837916
:103F5300007401121331AC82AD83900376123F9447
:103F630090036DE0A2E35004D2F08002C2F012602D
:103F73008D8018FC7D007A037B1012256B8E828F57
:103F830083E0F9123F9BE4900382F012160B026068
:103F9300831252AB122721229003801252AB1214C8
:103FA3004922C082C083900342E07002A3E07041C3
:103FB300900382E0120F55000301C73F05D63F0669
:103FC300E53FF43F90034AE07002A3E0607690037C
:103FD3004A806B900346E07002A3E060679003465B
:103FE300805C900348E07002A3E06058900348802F
:103FF3004D900342E07002A3E0600912447AFC741E
:10400300016C702379009003CF800909EA126AE9F1
:10401300EB123B401250427001EB70EF9003CF1252
:104023005E1912143D801D74026C70051217A9806D
:10403300139003F9E07002A3E060099003F91260A2
:104043007212287902531974F4120ABA74FB12100B
:10405300DE8A088B097A0F7B00121D1F8A0A8B0BDD
:10406300AE0AAF0BEE7001EF700302415774028E7C
:10407300828F831268F1795012264385088285095D
:1040830083A3858208858309E0600302414090038E
:104093008012704C700374FF69602F74FE687003A4
:1040A30074FF696025851882851983E0687003A30E
:1040B300E069601674EA85088285098312463F7AAF
:1040C300807B037950122649807385188285198372
:1040D30012415C125D6B7A737B0379531226439012
:1040E3000373125D657A767B03794B1226437A75E7
:1040F3007B0379E1122643900387E0C3940F502298
:10410300900375E0C0E07402121331D0E0F0740440
:104113001213317401F07402121331AA82AB8312A9
:10412300266D750A00780A12106B780A12106B90CC
:104133001AE5E0F9124B2212446112107A850882C3
:1041430085098312443DF07403900382F0EEFAEF85
:10415300FB12625F74050253821256FB90038022A6
:1041630074EC120ABA74ED1210DE8A828B83A312E6
:104173004442EA24081253F4FEE9FF8518828519A4
:1041830083AC82AD838E828F8312446AA3A3A3A3DD
:10419300125E1912161D851882851983E070768EBA
:1041A300828F83E0C3940B406C850882850983A3C7
:1041B300A3A3A3A3A3A3A3E064027059900382E083
:1041C300FAE5082410F510E5093400F511E5082493
:1041D300091249A774026A604174066A603C90033D
:1041E30042E07002A3E0600712447A6401605474F1
:1041F300086A600574046A701C7402121331E0F9D2
:104203007407121331AC82AD83850C82850D831242
:104213005E191216237413026C58900342E0700265
:10422300A3E0701F750A00780A12106B780A121047
:104233006B851082851183124434124D6F124461D1
:1042430012107A9003CF1270BD9003CF126C50E519
:1042530008240DF50EE509123B3580318E828F83DC
:10426300E0F8A3124434E0687003A3E06970128E8F
:10427300828F83A3A3E0FA850E82850F83E06A60B1
:104283006B8E0A8F0BEE126AE9EF1270BAEE7001B1
:10429300EF70C97A187B00121D9D8A128B13AE1220
:1042A300AF13EE7001EF70030242187C1812721301
:1042B30012635BEE240C123B3D74FFF0E508240B04
:1042C3001270881244221272CEC4124422A3A3F0A5
:1042D3009003CFE07002A3E070059003CF800AE55E
:1042E3000A126AE9E50B123B4012702E7401121395
:1042F3003112444CA3F0740212133112444CF08572
:104303000E82850F8312443DA312448B124419126B
:104313005B86240DFAEF3400FB7402121331E06460
:1043230001600E7407121331AC82AD8312258380B2
:10433300097C087D0079FF121D077412121331E006
:10434300C0E0EE2415123B3DD0E0124482FC901AEB
:10435300E5E0C39C400302421812442B123B40A3E6
:10436300E05480F9E47001E97009901111E07003E1
:104373000242187D00EE240CF8EF3400F9EE240B12
:10438300FAEF3400FB9003BFE06402701D8A828B56
:1043930083E0F50AC39C500D7405121331E0C394F6
:1043A30005401B801AE50A6C70157405121331E081
:1043B300C0E088828983E0FCD0E0C39C50010D7487
:1043C30004121331E06020ED601D850882850983A6
:1043D3001268FFECF0A3ED1244828A828B83F0749F
:1043E300051213311256257406121331E0600D7451
:1043F300018E828F83A3A3A3A3A3A3F07404121338
:1044030031E0700302421874018E828F83A3A3A349
:10441300A3A3F0024218F8A3E0F98E828F832254FB
:104423000F8E828F83A3A322E508240BF582E5096F
:1044330022E0F9850C82850D83221249A3A322A3CE
:10444300A3E0F508A3E0F509221249A38021850C16
:1044530082850D8312446A1254098A828B83125215
:10446300AB1216EF740222E0F98A828B838002A3D7
:10447300A3A3A3A3A3A322900342125879E022F09B
:10448300851082851183E022F0850C82850D83E0FF
:104493002274F6120ABA74C91210DE900382E06421
:1044A300086062900393E0F824D9F582E4341AF5A6
:1044B30083E0FA900364F0E824DFF582E4341AF52C
:1044C30083E0FB900362F07508FF7509FFEA780843
:1044D300121246E508F4FCE509F4FD3395E0FE907D
:1044E300038B1246347508FF7509FFEBC39A7808EE
:1044F300121246E508F4FCE509F4FD3395E0FE905D
:10450300038F124634E412609B7904122649900308
:1045130093E07009741E12133174018006741E1225
:104523001331E4F0740F851882851983F0901A50C3
:104533001268F179461226497401121331E4F0909E
:104543001AC6E0C0E07402121331D0E0F090037099
:10455300E0C0E07403121331D0E0F074041213319D
:10456300E4F07405121331E4F07407121331E4F02C
:10457300900393E0FAC3940F74065006121331EAC2
:104583008005121331740FF07C947D0374081213A9
:1045930031AA82AB831225837C037D0079FF7410DB
:1045A300121331AA82AB83121D079003CDE0C0E042
:1045B3007413121331D0E012619B12133112618A0A
:1045C300121707900387E0C0E0741C121331D0E088
:1045D300F0900388E0C0E0741D121331D0E0F09036
:1045E3000375E0C0E0741A121331D0E0F090038039
:1045F3001256E97418121331125D6B7420121331C1
:10460300E4F090038AE0C0E0741F121331D0E0F0AD
:104613007434121331E4F07429121331E412463F57
:104623007414121331AA82AB8312266774370260A3
:1046330085ECF0A3EDF0A3EEF0A3F022F07A737B08
:1046430003795312464A221226497A767B03794B21
:1046530012264922C082C0838A828B83A3E060072B
:10466300E4900382F0804A7408900382F0900393ED
:10467300E0701F90034CE07002A3E0600B790090A0
:10468300034C1260721228799003801256147A0533
:10469300801A79001214439003731256147A067B1E
:1046A3000012256B9003761256147A047B001225B0
:1046B3006B02531974F4120ABA74EA1210DEEA2474
:1046C30002FEEB3400FF0A0AFB1227038A088B0958
:1046D300EA7001EB70030247628A828B83A3A3A370
:1046E300A3E0FA74016A600F74026A600A74036AD1
:1046F300600574046A7068EEFCEFFD851882851905
:10470300831266FD124767121331125D6B740A122E
:1047130013317401F074131213311268F012265B13
:10472300890AAC0A7D007A077B0012256B85088213
:10473300850983A3A3A3A3A3E0C2E0F074018508C2
:1047430082850983A3A3A3A3A3A3A3A3A3F07402B2
:10475300850882850983A3A3A3A3A3A3A3A3F074BA
:10476300160253821256FB74082274F0120ABA74AA
:10477300F81210DE8A0C8B0D8C0A8D0B890E8518AE
:1047830082851983AC82AD8375838375823F7408F8
:10479300120FC8F50FAC0CAD0D851882851983AACD
:1047A30082AB83126CEE7003750F019003CF8030E0
:1047B300AC0CAD0DEE240DFAEF34001272C1601A89
:1047C300850882850983E0650E700F8E828F83E0F2
:1047D300650A7004A3E0650B6036EE2416123B3DB8
:1047E3001251067001EF6028EE2402F508EF340041
:1047F300F509E50F70BA8E828F83E0650A7004A312
:10480300E0650B70D5850882850983E0650E70CA63
:10481300EEFAEFFB02707074F7120ABA9003CFE05E
:10482300FAA3E0800CEA24161270B7121DA3EEFA65
:10483300EFFBEA7001EB70ED9003CFE4F0A3F0021D
:10484300526374F4120ABA8A088B09EA240BFEEB4A
:104853003400FFEA2413F582EB1272DA6403700961
:10486300EEFAEFFB122703800CE0640270548E8291
:104873008F83127094EA7001EB6047EA2406F8EB29
:10488300123237850882850983A3E07007E48882A2
:104893008983802D64F16005E064E1701A88828960
:1048A30083E0640170118A828B831248C8122879CD
:1048B300EEFAEFFB12133B850A82850B83E060025D
:1048C30014F00253851252AB90035A12607622748D
:1048D300F1120ABA8A088B09ECFEEDFF890A8A8273
:1048E3008B83126C858A828B831249A2F0EEF8EFD8
:1048F300F9A30EAF838A828B83A3A3E0C454F0FA97
:1049030088828983E04A1249B51249A31249B0E06B
:10491300333354FCFA8E828F83E04A1249B0A3E00A
:1049230033333354F8FA8E828F83E04AF008EFF979
:10493300A30EAF838508828B83A3A3A3A3A3A3E0C2
:10494300A2E0E492E013135480FA88828983E04A58
:10495300F0E5082407F50CEB1249AB750E00780C53
:104963001210637C081259CD12107A126C6FE5088D
:10497300240F1249A7780C1210637C031259CD122D
:10498300107AE50AC3940F4011E5082412F582E575
:1049930009123B4012443DA3A3F07F07020E2CA350
:1049A300E002441DF50CE5093400F50D221249B56A
:1049B300A322F08508828B83A3A3A32274F1120A96
:1049C300BAEAFEEBFF890A8C088D098E828F83E099
:1049D3008C828D83125B7BAE82AF83E0125C2112EB
:1049E3004A8EC4125C21124A82E054038C828D8366
:1049F300124A8CA2E2E492E08C828D83124A8B13DA
:104A03001313541F125C21A3124A8BA2E7E492E012
:104A13008C828D83A3A3A3A3124A828E0C8F0D7560
:104A23000E00780C1210637C087D00E50824071241
:104A33004A7612107A126C6F8E0C8F0D780C12104E
:104A4300637C037D00E508240F124A7612107AE591
:104A5300082412F8E5093400F9E50AC3940F400A63
:104A63008E828F83A3A3A3E08001E488828983F0ED
:104A730002499DFAE5093400FB121CFB740322A3CF
:104A8300A3125B7F0EAF8322A3A3A3A3F0026B9CAD
:104A930074F4120ABA74F91210DEEAFEEBFF900303
:104AA30042E07002A3E0601012447A64027009EEDF
:104AB300FAEFFB1217A38062900380E06E7003A3EA
:104AC300E06F705674016960097A947B03126CEE8F
:104AD30070487A007B02124FBA7001EB703C90036E
:104AE3008378081212E785188285198378081212D1
:104AF300D8900389E0C0E07404121331D0E0F0745D
:104B0300051213317401F074061213317402126822
:104B1300F11213EFE960981213F5740702538290B0
:104B2300038012540D90037622E0F902531974F6B0
:104B3300120ABA9003E0E0701F7C0079017A007BCF
:104B430000121659EA7001EB600E8A828B83E070C3
:104B530002A3E060031215AB026088C082C0831217
:104B63004F9A401079FF121653E9FA902D0EE493F1
:104B7300C39A500479018002790002531974EE122A
:104B83000ABA8A088B09890D750E00EA2408F50A0A
:104B9300EB125607E0F912165F8A108B11AE10AFB5
:104BA30011750C01EE7001EF6003024C358508822C
:104BB300850983A3A312562CF985088285098312DC
:104BC3005E191216478A0A8B0BAE0AAF0BEE700101
:104BD300EF7003024D588E828F83A3A3A3A3E4F047
:104BE300A3F0E508240B124D67E0C0E0123B3AD076
:104BF300E0F0121767EE240C12658B750E01EE249C
:104C030006F8EF124FA9E0547FF0A3E054FC124ED4
:104C13004F54046003024CC7901ABF125A9A740788
:104C230078081212468A828B83E04508F0A3E04598
:104C330009F0EE2406F8EF1253F6FCE9FD8C828DA1
:104C430083125E1974805AF50874035BF5097407BF
:104C530078081212BAE508F510EE2404127034EE47
:104C63002409F508EF3400F509E50D606074028549
:104C73000882850983124A8F240D125865E0A2E247
:104C8300500F90036E1256E9850A82850B83125DDD
:104C93006BE5107003024D25747F5AFA74FC5BFBBD
:104CA30074FF2510F51074FF3400F51174077810A4
:104CB300121246E5104AF8E5114BF98C828D8312E6
:104CC3005D6B805EE04480F0A3E0024C34E510703D
:104CD30005750C00804CEA54206015121D198A10CA
:104CE300747F5510F8745F28850A82850B83801BB7
:104CF300EA5410600E121D198A10740F5510F874BF
:104D03000F80E4850A82850B837401F0A3E4F074B9
:104D130004850882850983124FB17001EB70031279
:104D230060457401650E7030850A82850B83124DD0
:104D33006FE0F9EEFAEFFB12164DE9601BEE240C5F
:104D4300123B3D1250427001EB6003121DA3EEFAB9
:104D5300EFFB121DA3750C00A90C800312107A7FC0
:104D63000A020E2CFAE509340002570A12540D8583
:104D730008828509832274F6120ABA74F71210DEC8
:104D83007E0012165FEA7001EB7003024E4A8A82BC
:104D93008B83A3A3A3A3A3A3A3A3A3E0640660039A
:104DA300024E4A8A828B83A3A3A3A3A3A3A3E0FFF8
:104DB3008A828B83125873E0C0E07408121331D0D7
:104DC300E0124E4FF8A3E0F5838882126677125DF6
:104DD3006B12167D74085FF9E47001E9606785184A
:104DE300828519831256147A007B00121641EA70E9
:104DF30001EB70519003801253FB1226857C007DDA
:104E0300007A007B0080288E828F83126408E0641E
:104E1300FF7004A3E064FF602C9003801256141209
:104E230022E9E9641A601E7C007D00EEFAEFFB12B2
:104E330016418A088B09AE08AF09EE7001EF70C7FF
:104E4300790012268B7E01EEF9026083125707E088
:104E53002274F7120ABAEA7001EB70059003E1803D
:104E6300068A828B83A3A31250427001EB60288AC7
:104E7300828B83A3A3A3A3A3A3A3E05408F9E470A1
:104E830001E960DDEC7001ED60111267836C700362
:104E9300A3E06D70CC80047A007B0002526374F24D
:104EA300120ABAEAFEEBFF890A8C088D097A0E7B97
:104EB30000121D9DEA7001EB603BE48A828B83A3A1
:104EC300A3A3A3A3A3A3A3124EFBE50A1252781232
:104ED30063518A828B83A3A3A3A3E4F0124EFBA3A3
:104EE300A3F012702AEA240CF582EB1272C8A31203
:104EF3005701F0A3F0023C2FA312527C02447574B5
:104F0300F5120ABAEAFEEBFF890A8C088D09EE70E6
:104F130001EF60567401650A70147901121653E9A2
:104F2300FA902D11E493C39A500F7911806674049B
:104F3300650A7030124F9A40F18E828F83A3A3A328
:104F4300A3A3A3A3A3A3E50A125B8D12737DE4F0CD
:104F5300A3F09003E1E07002A3E09003E160241268
:104F630056E9800A7402650A60CF79C18026E82475
:104F7300020808E9124FA91250B07001E970EF8AD4
:104F8300828B83EEF0A3EF124FB17001EB7003122B
:104F9300604579000268EB7904121653E9FA902D03
:104FA30013E493C39A221253F6FAE902570AF01252
:104FB3004FB6227A207B009003CEE0F9121E51EA0D
:104FC30022C082C083E9FC79009003E1801D8A82BC
:104FD3008B83A3A3A3A3A3A3A3A3A3E06C600574E0
:104FE300FF6C7001098A828B83A3A3125042700164
:104FF300EB70DB02531974F7120ABAEA7001EB7013
:10500300059003E180068A828B83A3A3125042702A
:1050130001EB60248A828B83A3A3A3A3A3A3A3A3EB
:10502300A3E06970E1EC60148A828B83E0240D12A3
:105033006B96A2E240D080047A007B000252631296
:1050430052ABEA22C082C0839003E180068A828B3E
:1050530083A3A31250427001EB60128A828B83A355
:10506300A3A3A3A3A3A3A3E06970E280047A007BB4
:1050730000025319C082C0839003E18006888289AD
:1050830083A3A31250B07001E9601B88828983E077
:10509300FCA3E0F5838C82E06A7003A3E06B70DD10
:1050A300E8FAE9FB80047A007B000253191256FBED
:1050B300E82274F1120ABA8A0A8B0B8C0C8D0D75D7
:1050C3000800750900EA7001EB60319003E1800686
:1050D3008E828F83A3A31251067001EF601EAC0C66
:1050E300AD0DEEFAEFFB850A82850B83122879E971
:1050F300640170DCEEF8EFF988088909AA08AB09A6
:1051030002499DE0FEA3E0FFEE227900020DBD748B
:10511300F7120ABA9003E11256E97C007D0080077A
:10512300E8FCE9FD1256E9E87001E9603AE8240277
:10513300F582E9123B40EA687002EB6970E2125EA5
:10514300199003E11270BDE86E7002E96F70099067
:1051530003E1EAF0A3EB800EEAF8EBF98C828D838E
:10516300A3A3E8F0A3E9F002526374F7120ABAEAC0
:10517300FEEBFFEE7001EF6016121677125282EA11
:105183007001EB6003121DA3EEFAEFFB121DA302E5
:10519300526374F7120ABA126783FCA3E0FD90030B
:1051A300E11256E97508007E00803388828983A363
:1051B300A3A3A3A3A3A3A3A3E0640570180E8882EB
:1051C3008983E0FFA3E0F5838F82E06C7003A3E0A3
:1051D3006D7002050888828983A3A31256E9E870DB
:1051E30001E970C7EA2404F8EB3400F9902D05E4D3
:1051F30093FCE508C39C500B902D06E493FCEEC38F
:105203009C400B888289837401F0A3E4800A900395
:105213006E125268ECF0A3EDF074058A828B83A3BF
:10522300A3A3A3A3A3125275A3A3E0F0A3E044088E
:10523300124E4FFAA3E0FB8A828B83E064FF700473
:10524300A3E064FF600E90038012561412267FE9D8
:10525300641A7005790112268B8005741F12107A67
:105263007F01020E2C12540D80033400F9888289C9
:105273008322A3A3A312527C221257070244758EE2
:10528300828F83E0241C1252AFFAA3E0FB121DA30A
:105293008E828F831252AB121DA3EE240C1252A4E2
:1052A30022F582EF3400F583E002309B12586DE063
:1052B30022C082C083EAFCEBFDEC7001ED7004793F
:1052C30005804CEC24FBF582ED34FFF583E070029E
:1052D300A3E07011EC24FFF8ED34FFF98882898391
:1052E300E064FF6005121D2580D59003CE1256257C
:1052F300902D0AE493F97AE37B03121D55E96401C7
:10530300700B7A007B101260497900800279048067
:1053130005740212107AD083D082020DBD74F41288
:105323000ABAA2AFE492E0F508C2AF9003E31251C8
:10533300067001EF603DEE24FBF582EF34FFF58349
:10534300E07002A3E07A007B109003CE6005126048
:105353004C8005E0F9121D61750A00750B00780A8F
:10536300121067EEFCEFFD7AE37B03121D4F74020C
:1053730012107AE508A2E092AFEEFAEFFB80031277
:10538300107A7F04020E2C74F7120ABA74E1121019
:10539300DEEA2413F582EB1272DAC0E07411121301
:1053A30031D0E01256F474091213311256ED125330
:1053B300EEFCE9FD8C828D831256E9740B121331D6
:1053C3001256ED2414F582EB1272DAC0E074121255
:1053D3001331D0E0F0EA240EF582EB123B478C82C6
:1053E3008D831253FB12153F02525E24041253F4B1
:1053F30022F8EB3400F9E82212540D85188285193E
:1054030083AA82AB8322A3A3A3A3E0FCA3E0FD2290
:1054130074EE120ABA74FC1210DEEAFEEBFF1216E7
:105423002FE960057911025602EE2412F510EF34CC
:1054330000F511EE2402F50AEF12560712657660A5
:1054430008E4851082851183F0EE24131259D67077
:1054530003741EF0EE2411F8EF12655B70199011BE
:10546300E2E0600D90036AE0700D8E828F83E0703E
:1054730006E488828983F0EE2414080808EF12708A
:105483008B700C90035F12562590035FE004F0EEDF
:10549300240FF508EF3400F509EE240B123B32908C
:1054A300036DE0A2E1504F850A82850B8312657676
:1054B30060448E828F83E0600B850E82850F83129A
:1054C30032416032850882850983E05440601A8541
:1054D3000C82850D83E06401700F85088285098342
:1054E300E054FBF0A3E0F0800DEEFAEFFB1216950B
:1054F300E970030254278E828F83E06401701A855A
:105503000E82850F831267876402700D850882857A
:105513000983E04440F0A3E0F0850882850983E035
:105523005440705790036DE0A2E1504F750C007822
:105533000C12106BEE2406FCEF3400FD850A828505
:105543000B83125E19851082851183E0F912157B96
:10555300740112107AE9600CE4851082851183F0DE
:10556300125618F079008E828F8312562CFAA3E01C
:10557300FB1214C1E96004125618F08518828519CC
:1055830083AC82AD83EEFAEFFB1216AD8A0C8B0D62
:10559300850A82850B83125614EA7001EB605C8ED8
:1055A300828F83E0C0E07401121331D0E0F0740203
:1055B30012133112702E740112133185820A8583FE
:1055C3000B780A121067850882850983120EA4EEF0
:1055D300240E1272D7F508780812106B7405121393
:1055E30031E0F91216A7740512107AE9FE74106EF1
:1055F300700BAA0CAB0D121DA380027E10EEF97482
:1056030004024D5F3400F50B850A82F58322127084
:10561300AC12540D22850882850983E04420F0A34F
:10562300E022E088828983F022125409023BA0C061
:1056330082C08374DE1210DE8A828B83A3A3A3A3AA
:105643001256E9740E121331E8F0A3E91256F474FA
:105653000C1213311256ED240DF582EB1272DAC0DF
:10566300E0741A121331D0E0F0EA240BF582EB1246
:1056730056E674201213311256ED2415F582EB12FF
:1056830072DAC0E07408121331D0E0F0EA241CF59A
:1056930082EB1256E67412121331125D6B74FF859E
:1056A3001882851983F0740112133174FFF07402A8
:1056B30012133174FFF09083A7120EA07404121317
:1056C30031AC82AD837407121331AA82AB831214F7
:1056D30037740412107A79007422025316EE240BE5
:1056E300F582EF1270AF1256FB22E8F0A3E9F0EA5D
:1056F300221257011256FB22E0F8A3E0F9221257B7
:1057030007A3A322F08001FB8A828B832274EC120D
:105713000ABA74F01210DE8A128B13ECFEEDFF89C5
:105723000F7424121331E0F50C7425121331124453
:10573300447427121331126C50750D107A1E7B00BE
:10574300121D9D74021213311265927402121331E9
:10575300E07002A3E0700302585E750E00EEFAEFEC
:10576300FB1227098A828B83E5827002E583601C22
:10577300A3A3A3A3E0FA74016A600574036A700C1F
:10578300E5085440700674044509F5097404550985
:10579300F9E47001E96003750E01851882851983A8
:1057A300AA82AB837950125E10740212133112581D
:1057B30073A31265927402121331E0240B1258651D
:1057C3007402F01213311258737402F0121331126F
:1057D300607212702E740212133112677CE50FF09F
:1057E3007402121331E0240C125865E50CF07402B4
:1057F300121331E0241C125865E512F0A3E513F0EF
:105803007408121331126353740A121331E50CF046
:10581300850A82850B83C082C083740D121331AC59
:1058230082AD83D083D0827403120FC8A90E740291
:10583300121331AA82AB83121635E964017011E5A4
:105843000E6008A90C12165F121683750D00800BEB
:105853007402121331125E19121DA3A90D741002E2
:105863006C581258692212586D22F8A3E002526D47
:10587300125879A3A32212607A02447374EA120ABB
:10588300BAEAFEEBFF8C088D098E828F83A3858293
:105893000A85830B7408F0EE24161259D660097436
:1058A30010850A82850B83F0EE24171259E4600AEF
:1058B300850A82850B83E02408F0EE2411F8EF12A9
:1058C300708B6005750E0E8003750E00EE240DF5CA
:1058D30014EF3400F515850A82850B83E085148265
:1058E300851583FAE02A250E8C828D831272CF6090
:1058F3001390036BE0F912273FE9FA8508828509C3
:1059030083E02AF0850882850983E0FAC394754011
:10591300097508007509000259C47B00126F907065
:1059230001EB70030259C4EEFAEFFB1216B3EA85DA
:105933000882850983126593EE2402F812640E121D
:1059430059FCF0EE2404080812640EA3A31259FCB8
:10595300A3A3F0EE24131259F2F0EE24141259F219
:10596300A3F07A08850C82850D83E0600FEE24187E
:10597300125611E5082408126C467A1085108285A8
:105983001183E0600FEE241A1256118A0CE50825E4
:105993000C126C46EE240B1272D7F510A3E0F5112E
:1059A3007512007810121063851482851583E0FC4C
:1059B3007D00125D53E50E28FAE4391259D2121014
:1059C3007AAA08AB097F0E020E2C7D00EEFAEFFBDC
:1059D300024A7CF50CEF3400F50D850C82F583E06B
:1059E30022F510EF3400F511851082F583E02212C1
:1059F30070AC125A06A3A3A322A3A3127048A31246
:105A03005A0622E0850882850983A3A3A32274F69C
:105A1300120ABA8A828B83E0FC900370125A9A743A
:105A2300027808121246E5084CFCAD09EA2412126A
:105A33005A9474067808121246E5084CFCE5094DA1
:105A4300FDEA2411125A9474097808121246E509E2
:105A53004DFDEA2416125A94740B7808121246E587
:105A6300094DFDEA2417125A94740C780812124651
:105A7300E5094DFD8A828B83A3A3A3A3A3A3125A93
:105A83009A740A7808121246ECFAE5094DFB026093
:105A930088F582EB1270AFE0F5087509002274F205
:105AA300120ABA8A088B09ECFEEDFFE98E828F8316
:105AB300F0125DA4C0E0EE2411123B3DD0E0125D74
:105AC3009FC0E0EE2412123B3DD0E0125B7BA88224
:105AD300A983125D716010E5082408FAE509340012
:105AE300FBEE2413125B998E828F83A3A3A3A3A33C
:105AF300A3A3A3E0601588828983E0FAE5082AFA64
:105B0300E5093400FBEE2415125B99EE2419127299
:105B1300C5EE241B1272C51272CEF50AF50CE50808
