:020000040000FA
:060000000212BD0207FB25
:03002B000225FBB0
:0300330002106751
:030043000210EDBB
:03004B00020FA5FC
:0300530002074D54
:03005B00020FB4DD
:03006300020FC0C9
:03006B0002104D33
:1000830002079701010503010F03000300030003A7
:10009300000300030003000300030005000A00142B
:1000A3000028004F009E0000001C181C181C181C80
:1000B30018D816D2161C18B62D00000000902C007C
:1000C3000000000C0000000C00010000901900006B
:1000D300000000002C1A0000000000007219AD049B
:1000E300FF01010100F20C000000650DE80364004C
:1000F3006400B8010202000800000501071E0205A2
:100103001E0A03B80B01FFFF023202020612FF06AA
:100113000014E814000000B623BC23C2230000002F
:1001230000000000000000000000000000000000CC
:10013300000000000010202020202020202020206C
:10014300202020202020010C0401000000017783DF
:1001530001798330313233343536373839414243CC
:1001630044454600286E756C6C20706F696E74652B
:1001730072290030313233343536373839616263AE
:10018300646566003F3F3F000000803FF902155061
:10019300B743BA510000204100E7DB2E0000A04026
:1001A30010000000080000001212DC604612130960
:1001B300603DE9687008F618F618F618F6227480A0
:1001C30067F71201DF090909748067F7221213091F
:1001D300601D1212DC7005191919801A1211307082
:1001E3001F121184C37003E66733191919400718E6
:1001F30018182208080874FFF618F618F618F622DD
:100203001211846017121330702192F012133A7096
:1002130019501720F014080808090909E7F61819F6
:10022300E7F61819E7F61819E7F62212133A60E60B
:10023300E869701F0808E62480F608E436F61854C7
:100243007FB47F0CE654806007F6E418F618F622B4
:10025300181822E9C6CC08C6CD08C6CE08C6CFC03A
:10026300E0E8C0E0EAC0E0EBC0E009E9F809E7FA3A
:1002730009E7FBE6F918E6F8C3EC98ED99EE9AEB7B
:10028300C2E7F5F0EFC2E795F0500E600CEBCFFB41
:10029300EACEFAE9CDF9E8CCF8EAA2E7D2E7FAEB3D
:1002A30033FB13F5F0EEA2E7D2E7FEEF33FFC5F021
:1002B30013A2E730E601B313C5F0C3C0E0C0F07F7B
:1002C30000C39BFB605B9418600C401AD0E023F9D9
:1002D300D0E0F80203AE8AF0E9486003D2F0E4AF5D
:1002E300F0FAF9F8803BEB30E40D89F0EA6003D2D1
:1002F300F0E4AFF0F9CAF8EB30E30D88F0EF6002F9
:10030300D2F0AFF0E4CAC9F8EB54076014FBC3EAB8
:1003130013FAE913F9E813F8EF135002D2E0FFDB05
:10032300EDD0E0C0E030E739C3E49FFFF5F0EC988F
:10033300FC42F0ED99FD42F0EE9AFE42F0D0E0F976
:10034300D0E0F8E5F0607AE923F9EE20E742D8023D
:100353008067C3EF33FFEC33FCED33FDEE33FE80F8
:10036300EAEC28FCED39FDEE3AFED0E023F9D0E0CB
:10037300F84002801BC3EE13FEED13FDEC13FCEFFC
:10038300135002D2E0FF08B800067F7F74FF802E6F
:10039300EF3350178CF020F00260100CBC000C0DF2
:1003A300BD00080EBE000408E860DFE933E813FF70
:1003B300EE2313FE4F4D4C8008E95480FFE4FEFD0D
:1003C300FCEE33EF33F47004FCFD7E80D0E0FBD011
:1003D300E0FAD0E0F8D0E0CFC618CEC618CDC618E4
:1003E300CCC6F9221213097004181818221212DC51
:1003F300700D74FFF61819F61819F61819F622E796
:10040300548066F612133A700F12133070F014F61C
:1004130008F608F608F680D1121330700CF608F6C9
:1004230008768008E6447F80EC121187700C121165
:100433003360BFE65480F6E480BB121133700519B4
:10044300191980A5E869700C763F18768018F6189C
:10045300F6E8F922E6CDC0E018ECC0E0E633CD3390
:10046300CDD313F6E719FCE7191933CC33C3947FC3
:10047300400ECD9D502408E65480F6E418F6800F14
:10048300F4043D14501408E6447FF6187680E4180B
:10049300F618F6D0E0FCD0E0FD22CCD313CCFD1847
:1004A300E4C6CBC0E018E4C6CAC0E00808ED08C63D
:1004B30033E613F618E433C675F003C3CA97CA09C3
:1004C300CB97CB199C40047D08802EBD0003020509
:1004D3009016B6FF050606081618C3CA33CACB33EF
:1004E300CB33CA27CA09CB37CB193CC37D08803E1F
:1004F300187D0820E75CC633C6CA33CACB33CB3377
:10050300DDF1D5F0EB30E77BCA97CA09CB974ACB2D
:10051300199C406F4B7025E620E0218066187D080A
:10052300C3CA97CA09CB97CB199CD3C633C6CA3360
:10053300CACB33CB3350C9DDE7D5F0E1D3E4C636BC
:10054300C608C636C608C636C608C636C61818183C
:100553008031C3CA97CA09CB97CB199CB34097C6BE
:1005630033C6CA33CACB33CB33DD34D5F02EC6A260
:10057300E0C640C8CA27CA09CB37194A70BECB3C6C
:10058300B480B90808E63308E633601F181818D09A
:10059300E0FAD0E0FBD0E0FCD0E0FD22187D08CAF1
:1005A30027CA09CB37CB193CD3808013F618E4B69E
:1005B3007F11F618B6FF0EF618C60470D208087637
:1005C3008080CAF618F618F680C500121309604F2A
:1005D3001212DC6012E7548066F6121130701112A9
:1005E3001330703B090909F4F618F618F618F622C9
:1005F300121184701512133A08080860EAE6447F62
:10060300F618768018E4F618F62212133A601612DA
:1006130013307012E4F608F608F608E65480F6097B
:10062300090918181822EAC0E0EBC0E0ECC0E0EDBD
:10063300C0E0E687F0A4FBACF008E687F0A42CFC4E
:10064300E435F0FA1809E687F0A42C4B6002740134
:10065300CA35F0FCE433FB09E687F0D2F7A42CCBD0
:1006630035F0FC1908E687F0A42BCC35F0FBE43316
:10067300FD0819E687F0D2E7A42C4ACB35F0CD3438
:1006830000FC09E687F0D2E7A42DCC35F0FDE43376
:10069300FA0918E687F0D2F7A42CCD35F0CA340056
:1006A300FC08E687F0D2E7D2F7A42ACC35F07A7EAD
:1006B30020E70B0ACB33CBCD33CDCC33CC33CB3389
:1006C30050147004ED30E00ED2F1E4CD3DCDCC3CBE
:1006D300CC3B5005DA05C2F1EB547FC63308E63351
:1006E30092F0FBE73309E733C39A502D2B70190CB3
:1006F3000D4C4D70151806E608C333700D20F10A32
:10070300A2F013F6E418800B4024E4F630F00276EE
:100713008018F618F618F68024D33B14501074FF93
:10072300A2F013F6187680E418F618F6800FA2F0FC
:1007330013F618E63303F618ECF618EDF6D0E0FDE1
:10074300D0E0FCD0E0FBD0E0FA22C0E074F2120B60
:100753000EE5A7FAE5A1FBEA5B541060081220E05E
:1007630053A1EF802AEAA2E0C0D0EBA2E092F012FC
:1007730011FA158182F05017906198E0FA9010E019
:10078300E0C39AA2D265D0335002EAF053A1FE7FB0
:1007930001020C1CC0E074F2120B0E9061A4E0FA8B
:1007A300759B00E5915A540860087591F712212250
:1007B300802AE5915A541060087591EF1221288020
:1007C3001BEAA2E0C0D0E591A2E092F01211FA1563
:1007D3008182F05007E0C2E0F012224E9061A3E064
:1007E300FAE5E95A5404600E12222475E9FB90617C
:1007F30093E0A2E640F28097C0E074F2120B0E90F1
:1008030061A5E0FAE5BF5A5404600653BFFB122208
:1008130066020792C3E498F8E499F912085880260F
:10082300C3E49AFAE49BFBE920E7E9120858E49849
:10083300F8E499F922C3E498F8E499F9120858E422
:1008430098F8E499F9C3E49AFAE49BFB22EB20E7D6
:10085300CFE920E7E0B90010BB0008E88AF084F88C
:10086300AAF022E4FBC8FA22EB70227B10C833C83B
:10087300C933C9335007C39AC3DBF280069A5001C8
:100883002ADBEAC833F4C8C933F4C9FA2275F0087D
:10089300E4C833C8C933C933C99AC99B5004C92AA8
:1008A300C93BD5F0ECFBC833F4C8E4C9FA221208FB
:1008B300F120F01430E72B74FFFCFBFA747F8022E5
:1008C300E4FCFBFA7480801AB48008BC00F2BB001D
:1008D300EF800F50EBF9E4C39AFAE49BFBE49CFC32
:1008E300E499C6CC18C6CB18C6CA18C6F922E4C9FF
:1008F300C608CAC608CBC6D3330308CCC63392F0A6
:10090300C3947F402E94184019C9B90704CACBCCAD
:10091300225025C309CA33CACB33CBCC33CC33D90A
:10092300F422F4600DC9CCC313CB13CBCA13CAD9B9
:10093300F6CC22E4FCFBFA2214FCFBFA220808089A
:10094300EAC0E0EBC0E086F0E7A4FA180986F0E716
:10095300A42AFA180986F0E7A42AFA180986F0E708
:10096300A42AFA1986F0E7A4FBE5F02AFA19088607
:10097300F0E7A42BFBE5F03AFA190886F0E7A42B7D
:10098300FBE5F03AFA18180986F0E7A4C5F02BFB4B
:10099300E43AFA1908E7C5F0C6A426F6E5F03BFBEE
:1009A300E43AFA1886F0E7A4F6E5F00826F6E43B05
:1009B30008F6E43A08F6D0E0FBD0E0FA220808088B
:1009C300E630E7111211991209D8080808C64480C5
:1009D300C618181822181818E9799EC608CAC60836
:1009E300CBC608CCC6C370207996CACBCC70197914
:1009F3008ECBCC70137986CC700EF9802ACA33CA99
:100A0300CB33CBCC33CC331930E7F2CCCBCA335016
:100A1300147004EA30E00DE4CA3ACACB3BCBCC3CB9
:100A2300CC500209C3E913C6CC182313C6CB18C68E
:100A3300CA18C6F922E4CFC0E0E4CEC0E0E4CDC0DA
:100A4300E0E4CCC0E075F020C3E633F608E633F605
:100A530008E633F608E633F6181818EC33FCED33E2
:100A6300FDEE33FEEF33FFC3EC9709ED9709EE97E5
:100A730009EF97191919400FFFEC97FC09ED97FD42
:100A830009EE97FE191906D5F0BEECF709EDF70943
:100A9300EEF709EFF7191919D0E0FCD0E0FDD0E02B
:100AA300FED0E0FF222518C582C0E0E51934FFC55A
:100AB30083C0E0E518C3958224F8F8E4C5A88583CC
:100AC30019858218C5A8E8CEF0A3E520F0A378081D
:100AD300E608F0A3DEFAEFF0A3E58124FAF8E608CE
:100AE300F0A3E608F0A3E608F0A30808E608F0A3DD
:100AF300E608F0A315811581D0E0FED0E0F815815A
:100B030015811581E8C0E0EEC0E022C0D02518C5EC
:100B130082C0E0E51934FFC583C0E0E518C39582C0
:100B230024F310AF088583198582188008858319FB
:100B3300858218D2AFC8F0A3E9F0A3EAF0A3EBF0E3
:100B4300A37908E709F0A3D8FAECF0A3EDF0A3EE3C
:100B5300F0A3EFF0A3D0E0F0A3D0E0F0A3D0E0F057
:100B6300A3E520F0A3E5F0F0A322121325B90003B7
:100B7300020BAFE490030178F679128002F0A3D858
:100B8300FCD9FA9014F6AA82AB8390008678267972
:100B9300028015E493A3AC82AD838A828B83F0A396
:100BA300AA82AB838C828D83D8E9D9E775821B75C2
:100BB30083927403120D997582F67583257400125E
:100BC3000D9912119C181818120A3812126C19195F
:100BD300192212126C191919080808E61818182096
:100BE300E7E0120A3812119C18181822090909E7BC
:100BF30019191920E7DC080808E618181820E70374
:100C0300020A3812119C181818120A3812119C186B
:100C1300181812126C19191922851983851882E084
:100C2300C0E0A3E0F9A3E0FAA3E0FBA37808E0F6B1
:100C330008A3DFFAE0FCA3E0FDA3E0FEA3E0FFA32B
:100C4300E0C0E0A3E0C0E0A3E0F5D0A3E0F520A37B
:100C5300E0A3F5F0E4C5A8858319858218C5A8D05B
:100C630082D083D0E0F8D0E032121309601C121254
:100C7300DC601712133A70071213307001D322C0CD
:100C8300D01213307006D0D0B322C32233D0D05049
:100C93001430E0F6C3E7960809E7960809E79608D3
:100CA30009E796B32220E0D5E6970809E6970809F5
:100CB300E6970809E697B322121309601B1212DCA8
:100CC300601612133A7007121330600CB322C0D0AF
:100CD3001213307005D0D022C32233D0D05013303A
:100CE300E0EBC3E7960809E7960809E7960809E7E2
:100CF300962220E0E4E6970809E6970809E69708B4
:100D030009E69722D083D082ECC0E0EDC0E0E49303
:100D1300A3FCE493A3FDED4C600D120DDBEC24FF6B
:100D2300FCED34FFFD80EFE493A3FCE493A3FDED1E
:100D33004C600D120F50EC24FFFCED34FFFD80EFEF
:100D4300D0E0FDD0E0FCE493A3C0E0E493C0E02254
:100D5300D083D082E9C0E0E493A3C386F0C5F095C5
:100D6300F0F908E493A386F0C5F095F0700BE493D3
:100D7300A3C3994005E9048002A3E475F002A42506
:100D830082F582E5F03583F583D0E0F9E493A3C0DF
:100D9300E0E493C0E022F5F0E59F5407C0E0E59F4F
:100DA30054F845F0F59FE473859FF053F0F8D0E0D5
:100DB30045F0F59F22D083D082E59F5407C0E0E43D
:100DC30093C0E0740193C0E07402935407F5F0E517
:100DD3009F54F845F0F59F22C0E0C3E4939608744E
:100DE30001939618400FE4936670080874019366A4
:100DF3001870007019A3A3C3E49396087401939623
:100E030018A3A3400DD0E0D0E0D0E0020D43A3A38C
:100E1300A3A3A3A3D0E022851983851882E0A3FEB0
:100E2300E0A3F5207808E0A3F608DFFAE0A3FFE0EB
:100E3300A3C0E0E0A3C0E0E0A3C0E0E0A3C0E0E023
:100E4300A3C0E0E4C5A8858218858319C5A8D0830B
:100E5300D082020DABC0E0C0D0EAC0E0C082C08344
:100E6300900490E004F0C394644002E4F0E0C0E036
:100E7300900491E0FAD0E0C39A4004D2808002C289
:100E830080D083D082D0E0FAD0D0D0E032D083D0EB
:100E930082C5F0E493A3C5F0C395F0F5F0E493A302
:100EA300C395F04005E5F0048001E475F002A42544
:100EB30082F582E5F03583F583E493A3C0E0E49300
:100EC300C0E0227404800474028000CCC0E0EDC052
:100ED300E0E518C39CCCAD1950011D10AF068C186A
:100EE3008D1980068C188D19D2AF120FEED0E0FD4C
:100EF300D0E0FC2274028000CCC0E0EDC0E0E51835
:100F0300C39CCCAD1950011D10AF068C188D1980F0
:100F1300068C188D19D2AF120FCCD0E0FDD0E0FCB7
:100F23002212130960251212DC602012133A700397
:100F3300021330080808E76670101819E766700A8C
:100F43001819E76670041819E76622F422C0E0C096
:100F5300F088F0E4936670080874019366187000D3
:100F6300A8F0A3A3700BD0F0D0E0D0E0D0E0020D46
:100F730043A3A3D0F0D0E022D083D082CCC0E0E45E
:100F830093A3600612100F1470FAE493A360061281
:100F9300111A1470FAD0E0FCE493A3C0E0E493C008
:100FA300E022C0E074F2120B0E12200E7F01020C3D
:100FB3001CC0E074F2120B0E12201480EFC0E07418
:100FC300F2120B0E12201A80E3CAC0E0E493A3C509
:100FD30082CCC582C583CDC583F0A3C582CCC5822F
:100FE300C583CDC583DAE5D0E0CA22CAC0E0E0A359
:100FF300C582CCC582C583CDC583F0A3C582CCC5CC
:1010030082C583CDC583DAE6D0E0CA22C0E0E4938B
:10101300A3D39C5010E493A3C39C400AD0E0D0E038
:10102300D0E0020F98A3A3A3D0E022700908080818
:10103300226016181818C6C333C608C633C608C6B6
:1010430033C608C633C6D5E0EA22C0E074F2120BF9
:101053000EE589A2E15003121F3C758900C2C57FCA
:1010630001020C1CC2E8322518F58210AF08F518EE
:10107300400215198008F51840021519D2AF8519D9
:1010830083227404800A740380067402800274014C
:10109300C0E0F40412106AD0E012131822C0D02565
:1010A3001810AF08F518500205198008F5185002FA
:1010B3000519D2AFD0D022BB0102E722C082C08380
:1010C30089828A83BB0003E08002E493D083D082C9
:1010D300226016080808C6C313C618C613C618C666
:1010E30013C618C613C6D5E0EA22C0E074F2120B89
:1010F3000EC2C0E5D1A2E450031220507F01020CBE
:101103001C251810AF08F518400215198008F518AA
:1011130040021519D2AF22C0E0E493A36C7009D04A
:10112300E0D0E0D0E0020F98A3A3D0E02218181873
:10113300E6084608700AE608C3337005E633F4226E
:101143000822C3E7960809E7960809E7960809E71E
:1011530096A2D265D03322C3E09608A3E09608A3F3
:10116300E09608A3E096A2D265D03322E066701021
:1011730008A3E066700A08A3E066700408A3E066AB
:1011830022191919E7094709700AE709C3337005DA
:10119300E733F4220922181818E4C396F608E496F4
:1011A300F608E496F608E496F622C3E096F008A360
:1011B300E096F008A3E096F008A3E096F022E62775
:1011C300F60809E637F60809E637F60809E637F6BA
:1011D30022E026F608A3E036F608A3E036F608A3D5
:1011E300E036F622E026F008A3E036F008A3E03666
:1011F300F008A3E036F022C0E0E8C0E0E58124FC7B
:10120300F8E6A2E7D0E0F8D0E022E056F608A3E043
:1012130056F608A3E056F608A3E056F622E657F67C
:101223000809E657F60809E657F60809E657F622CD
:10123300E647F60809E647F60809E647F60809E629
:1012430047F622E056F008A3E056F008A3E056F074
:1012530008A3E056F022700422600D18C6C333C6FB
:1012630008C633C6D5E0F41822E4C397F709E49718
:10127300F709E497F709E497F722600D08C6A2E798
:1012830013C618C613C6D5E0F322C6F4C608C6F4BF
:10129300C608C6F4C608C6F4C622C3E7960809E71B
:1012A300960809E7960809E79622C3E09608A3E0A3
:1012B3009608A3E09608A3E0962275D000758140B6
:1012C30075180175190300020B6D600C08C6C31372
:1012D300C618C613C6D5E0F422E7094709C3134766
:1012E30009336002E733F422E6F008A3E6F008A32B
:1012F300E6F008A3E6F022E0F608A3E0F608A3E090
:10130300F608A3E0F622E6084608C313460833604E
:1013130002E633F422CAC0E0E6F0A308DAFAD0E02A
:10132300FA2274F855C74401F5C7790122E7C3339C
:1013330019471947194722E6C33318461846184672
:10134300222518F582E43519F58322120DB860B60B
:1013530001120DB8C2B601120DB85CB701120DB877
:10136300A3B701120DB83EB801120DB8EBB80112C4
:101373000DB829B901120DB899B901120DB8E4B924
:1013830001120DB81DBA01120DB84BBB01120DB8F5
:101393007CBC01120DB8DBBC01120DB824BD0112D7
:1013A3000DB84CBD01120DB8CFBD01120DB851BE21
:1013B30001120DB8C6BE01120DB8D7BE01120DB889
:1013C3004DBF01120DB8FFBF01120DB841C001128C
:1013D3000DB8C7C001120DB80EC101120DB857C127
:1013E30001120DB8E0C201120DB89AC401120DB872
:1013F300E4C401120DB8C8C501120DB8C2C7011269
:101403000DB8CCC701120DB8D6C701120DB8E0C78D
:1014130001120DB8EAC701120DB8F4C701120DB8D5
:10142300FEC701120DB81FC801120DB843C801123F
:101433000DB867C801120DB8C6C801120DB815C999
:1014430001120DB833C901120DB8A3C901120DB8A9
:10145300E0C901120DB82ECA01120DB891CA0112CA
:101463000DB83FCC01120DB8B1CC01120DB8D1CEDD
:1014730001120DB8F6CE01120DB836D001120DB817
:1014830075D001120DB8BBD001120DB899D101125C
:101493000DB800D201120DB831D201120DB834D2F9
:1014A30001120DB80E3000120DB85A3000120DB8EB
:1014B300353200120DB8733200120DB8BF3200126C
:1014C3000DB8643300120DB8CA3300120DB81534C9
:1014D30000120DB8363500120DB8CD3500120DB817
:1014E300D93800120DB8593900120DB8503A00120C
:1014F3000DB8F53A00120DB80B3C00120DB82B3F96
:1015030000120DB8DE3F00120DB8084000120DB8EE
:10151300EE4000120DB8BF4100120DB85642001242
:101523000DB8A04200120DB8CD4200120DB8EF4223
:1015330000120DB8F24400120DB8C74500120DB8E1
:10154300144600120DB8834600120DB8314700123D
:101553000DB8664700120DB8B44700120DB8E9473D
:1015630000120DB8414800120DB89B4800120DB887
:101573001B4900120DB8854900120DB8094A001223
:101583000DB86A4B00120DB82B4C00120DB8574D15
:1015930000120DB8E54E00120DB8834F00120DB8BE
:1015A3008A5000120DB81A5100120DB86151001281
:1015B3000DB8DB5200120DB8EF5200120DB8FC52F9
:1015C30000120DB8305300120DB83C5300120DB881
:1015D3005A5300120DB8505400120DB8875400121C
:1015E3000DB8945400120DB8F25400120DB86055A2
:1015F30000120DB85E5600120DB8405700120DB818
:10160300D95700120DB8505800120DB86758001280
:101613000DB88B5800120DB8A95800120DB8ED582B
:1016230000120DB82E5900120DB8995900120DB8B9
:10163300AF5A00120DB8B85B00120DB8885C0012E7
:101643000DB8F35C00120DB8A15D00120DB8C75DB3
:1016530000120DB8AC5E00120DB8CB5E00120DB8CF
:101663003A5F00120DB8B35F00120DB8DF5F0012CE
:101673000DB82A6000120DB88A6000120DB8F06030
:1016830000120DB8506100120DB885BC03120DB8DD
:10169300D0BC03120DB8AB8401120DB80C85011236
:1016A3000DB86C8501120DB8BD8501120DB8D88532
:1016B30001120DB8088601120DB8298601120DB862
:1016C300358601120DB8768701120DB89487011281
:1016D3000DB8FD8701120DB8108801120DB82788C7
:1016E30001120DB8BA8801120DB8B98901120DB8EB
:1016F300B58A01120DB8378B01120DB8418B011257
:101703000DB8A48B01120DB8B58B01120DB8F88B6F
:1017130001120DB83F8C01120DB8758C01120DB872
:10172300AB8C01120DB8C98C01120DB8ED8C0112EE
:101733000DB82E8D01120DB8218E01120DB8678ED2
:1017430001120DB8A28E01120DB8FF8E01120DB851
:10175300278F01120DB8608F01120DB86E8F011221
:101763000DB8CF8F01120DB80C9001120DB84E9029
:1017730001120DB87F9001120DB8B39001120DB88C
:10178300BE9001120DB8DC9001120DB8A4910112A4
:101793000DB8AE9101120DB8ED9101120DB803927F
:1017A30001120DB80C9201120DB8769201120DB808
:1017B3008A9201120DB8829301120DB8959301120A
:1017C3000DB8AA9301120DB84A9401120DB8AE9444
:1017D30001120DB8719501120DB87C9501120DB867
:1017E3009B9601120DB8B79601120DB80F9701120F
:1017F3000DB8469701120DB8609701120DB89F9767
:1018030001120DB8BA9901120DB8249A01120DB83C
:101813008F9A01120DB8E69C01120DB8F69C0112C5
:101823000DB8F99C01120DB8059D01120DB8199D53
:1018330001120DB8219D01120DB8569D01120DB86C
:10184300049E01120DB8749E01120DB8D89E0112A8
:101853000DB8719F01120DB80BA001120DB832A083
:1018630001120DB8C2A001120DB8CEA001120DB81D
:10187300FDA001120DB81FA101120DB846A101125E
:101883000DB8ACA101120DB816A301120DB819A31E
:1018930001120DB890A301120DB87CA401120DB86A
:1018A30054A501120DB8DEA501120DB813A701123C
:1018B3000DB8C5A701120DB8FEA701120DB82FA8C8
:1018C30001120DB838A801120DB824A901120DB8E0
:1018D300A0A901120DB82DAA01120DB8F7AA011281
:1018E3000DB87BAB01120DB8B1AB01120DB8FAAB59
:1018F30001120DB80CBC02120DB81EBC02120DB8B9
:1019030091BC02120DB8C7BC02120DB81EBD021263
:101913000DB8D8BE02120DB8B9C002120DB8B7C3C4
:1019230002120DB8F4C302120DB80EC402120DB8A0
:1019330070C402120DB8ACC402120DB8E8C402128E
:101943000DB822C502120DB8A9BD03120DB8C7BD4B
:1019530003120DB84E9D03120DB86D9D03120DB801
:10196300B89D03120DB8029E03120DB8A59E031273
:101973000DB898B003120DB8C4B003120DB8C0B1BE
:1019830003120DB862AD03120DB8A0AE03120DB869
:10199300B0E902120DB837EA02120DB841EA021299
:1019A3000DB868EA02120DB87CEA02120DB8D4EA47
:1019B30002120DB804EB02120DB8F9EB02120DB8C6
:1019C300BEEC02120DB810ED02120DB85AED021260
:1019D3000DB897ED02120DB8FAED02120DB83DEEF7
:1019E30002120DB8B4EE02120DB80EEF02120DB8CA
:1019F300E0A903120DB8F9A903120DB894AA0312B2
:101A03000DB843AB03120DB870AB03120DB8739549
:101A130003120DB8FB9503120DB8069603120DB809
:101A23002B9603120DB861F301120DB864F3011282
:101A33000DB827F401120DB855F401120DB897F43F
:101A430001120DB8BCF401120DB8DCF401120DB88B
:101A530012F501120DB85CF501120DB874F60112FE
:101A63000DB8A3F601120DB8C4F601120DB81CF798
:101A730001120DB8D3F701120DB817F801120DB802
:101A830059F901120DB8EFF901120DB803FB011258
:101A93000DB852FB01120DB87BFB01120DB842FCCD
:101AA30001120DB86DFC01120DB89FFC01120DB8A7
:101AB30083B202120DB88DB202120DB8D9B202125E
:101AC3000DB849B302120DB866B302120DB828B4AB
:101AD30002120DB8DDB602120DB8E6B602120DB849
:101AE3003CB702120DB867B702120DB8CCB7021299
:101AF3000DB868B802120DB8A5B802120DB8F6B841
:101B030002120DB85DB902120DB8DFB902120DB899
:101B13002CBA02120DB85EBA02120DB893BA0212B1
:101B23000DB8A3BA02120DB8B3BA02120DB8D2BAE5
:101B330002120DB89FBB02120DB8D8BB02120DB82A
:101B4300F5B703120DB8D8A703120DB83CA80312BA
:101B53000DB863A803120DB869A903120DB8A891B3
:101B630002120DB88D9202120DB8C89202120DB86E
:101B7300779402120DB8BB9402120DB87396021239
:101B83000DB8BA9602120DB8939702120DB82098A9
:101B930002120DB8AC9802120DB8049902120DB8D6
:101BA300479902120DB8DC9A02120DB84E9C02122C
:101BB3000DB8769E02120DB8809E02120DB8DD9EFE
:101BC30002120DB8319F02120DB826A202120DB8EF
:101BD300B2AF01120DB84F8703120DB86787031216
:101BE3000DB80F8803120DB8508803120DB86D8815
:101BF30003120DB8938803120DB8DA8803120DB8D7
:101C0300138903120DB8478903120DB8D98A031239
:101C13000DB8AFFF02120DB8FDAE03120DB86AAFD7
:101C230003120DB881AF03120DB8C6AF03120DB87E
:101C3300DDAF03120DB874B003120DB87EB00312FA
:101C43000DB8997300120DB844B601120DB898740B
:101C530000120DB8257500120DB8747500120DB879
:101C6300D17500120DB8E57500120DB8B5770012E5
:101C73000DB8347800120DB85E7800120DB80E7AE4
:101C830000120DB8297A00120DB86A7A00120DB845
:101C93009D7A00120DB8F67A00120DB8127B00126D
:101CA3000DB8767B00120DB8FF7C00120DB82F7DA6
:101CB30000120DB8587D00120DB8B87D00120DB892
:101CC300D27D00120DB8D57D00120DB8D87D00125B
:101CD3000DB84A7E00120DB86C7E00120DB87F7EDF
:101CE30000120DB8E67E00120DB8197F00120DB870
:101CF30031BB03120DB83DBB03120DB887BB0312F2
:101D03000DB88ED502120DB8DFD502120DB8A2D7C9
:101D130002120DB870D902120DB8BAD902120DB859
:101D2300F3DA02120DB842DC02120DB860DC0212C3
:101D33000DB8B4DC02120DB83CDD02120DB88A6195
:101D430000120DB8B56100120DB86E6200120DB825
:101D5300FC6200120DB8626300120DB8AE6300128C
:101D63000DB81B6400120DB8B06400120DB83465D1
:101D730000120DB8706500120DB8546900120DB849
:101D8300FF6A00120DB8286B00120DB8E66B001243
:101D93000DB8A56C00120DB8CF6D00120DB8316FE0
:101DA30000120DB8AC6F00120DB8D77000120DB849
:101DB300367100120DB87D7200120DB8F272001266
:101DC3000DB8008002120DB8BC8002120DB8368126
:101DD30002120DB84E8102120DB8EA8102120DB83B
:101DE3002D8202120DB8298302120DB855830212F7
:101DF3000DB8C08302120DB8128402120DB86F849D
:101E030002120DB8A68502120DB8408602120DB853
:101E1300BC8602120DB8338802120DB8DB88021299
:101E23000DB8828902120DB8DE8902120DB8548AE8
:101E330002120DB8728B02120DB8338D02120DB857
:101E4300498E02120DB8E68E02120DB85F8F021290
:101E53000DB8649002120DB8DDF302120DB853F4FD
:101E630002120DB8ACF402120DB80AF502120DB845
:101E730046F502120DB8CFF502120DB812F6021292
:101E83000DB856F602120DB8DFF602120DB8E4F6DD
:101E930002120DB85AF702120DB864A103120DB85D
:101EA300B1A103120DB860A203120DB8C6A20312AA
:101EB3000DB837A303120DB80C9303120DB8699331
:101EC30003120DB8DA9403120DB834B303120DB82C
:101ED3006EB303120DB834B403120DB876B4031203
:101EE3000DB884B403120DB854BE03120DB8287F85
:101EF30000120DB8387F00120DB8597F00120DB8CB
:101F0300C17F00120DB8AAB503120DB8D1B50312E3
:101F13000DB85AB603120DB8C1B603120DB8DD9E43
:101F230003120DB8DAB603120DB8F0B603120DB8EA
:101F330042B703120DB872B703120DB8D6B7031226
:101F43000DB8E29A03120DB8029B03120DB8239B3E
:101F530003120DB8429B03120DB84A9B03120DB82E
:101F6300709B03120DB8AD9B03120DB8D69B0312E1
:101F73000DB8239C03120DB86B9C03120DB870DDD2
:101F830002120DB885DD02120DB88EDE02120DB8F5
:101F9300CFDE02120DB8E9DE02120DB86DDF0212B8
:101FA3000DB868E002120DB8CAE002120DB801E1E3
:101FB30002120DB82FE102120DB862E102120DB840
:101FC30092E102120DB83AE202120DB88BE202124C
:101FD3000DB8A5E202120DB863E302120DB8DCFBE3
:101FE30002120DB8EAFB02120DB875FC02120DB80D
:101FF30049FD02120DB87DFF02120DB829BC031270
:102003000DB8B2AB03120DB8EAAB03120DB80EACA8
:1020130003120DB86CAC03120DB8CEAC03120DB89D
:102023000DAD03120DB83BAD03120DB8EEE3021272
:102033000DB86DE402120DB81DE502120DB88EE560
:1020430002120DB894E602120DB839E802120DB867
:1020530099E802120DB8EBE802120DB8F4E8021287
:102063000DB80AE902120DB81CE902120DB82EE9E7
:1020730002120DB893E902120DB89DE902120DB8D0
:1020830025EF02120DB878EF02120DB88CF102128F
:102093000DB8C4F102120DB8E9F102120DB802F243
:1020A30002120DB81BF202120DB810F302120DB892
:1020B3009EF302120DB8CCA503120DB80FA603129E
:1020C3000DB820A603120DB853A603120DB88BA6A4
:1020D30003120DB8C3A603120DB82BA703120DB834
:1020E3005EA703120DB8369803120DB86198031258
:1020F3000DB8A89803120DB8BA9803120DB8D69864
:1021030003120DB83E9903120DB8479903120DB887
:10211300A89903120DB8CC9903120DB8969A03121D
:102123000DB8A39A03120DB8B49A03120DB8BDBB30
:1021330003120DB80ABC03120DB8008003120DB8C8
:10214300138003120DB8718103120DB87E8103123F
:102153000DB8978103120DB8AA8103120DB8C4817B
:1021630003120DB8E38103120DB8628203120DB896
:102173002E8303120DB88B8303120DB89B830312B6
:102183000DB896BA03120DB8BBBA03120DB8E4BA70
:1021930003120DB80CBB03120DB8009F03120DB848
:1021A300199F03120DB8259F03120DB82E9F03121A
:1021B3000DB8529F03120DB85E9F03120DB86D9FA9
:1021C30003120DB88B9F03120DB8DD9F03120DB8D8
:1021D30017A003120DB84CA003120DB89BA0031255
:1021E3000DB8E7A003120DB8FFA003120DB809A1A3
:1021F30003120DB81AA103120DB85EA103120DB894
:10220300DABC03120DB860C502120DB88CC50212F8
:102213000DB8A8C502120DB8BBC502120DB8D1C5C1
:1022230002120DB83DC602120DB877C602120DB8E0
:10223300E5C902120DB804CB02120DB835CB021258
:102243000DB897CB02120DB872CC02120DB89ACC0E
:1022530002120DB8AFCC02120DB8BFCC02120DB8EA
:1022630000CD02120DB855CD02120DB865CD021284
:102273000DB8F1B103120DB80CB203120DB836B29A
:1022830003120DB853B203120DB87BB203120DB88B
:102293009DB203120DB8B6B203120DB8E5B2031224
:1022A3000DB800B303120DB869BD03120DB8898EC2
:1022B30003120DB8908E03120DB89D8F03120DB843
:1022C300CF8F03120DB8F58F03120DB828900312A8
:1022D3000DB83A9003120DB8759003120DB8E5903E
:1022E30003120DB8229103120DB86F9103120DB8AA
:1022F3009D9103120DB8BD9103120DB8BFA3031234
:102303000DB8D1A303120DB8D5A403120DB8F6B8B6
:1023130003120DB854B903120DB893B903120DB8D3
:10232300D4B903120DB88ECD02120DB8ADCD021281
:102333000DB813CE02120DB89BCE02120DB823CFE7
:1023430002120DB83ECF02120DB8B4CF02120DB86F
:10235300D7D102120DB86DD202120DB8FBD2021200
:102363000DB8BDD302120DB83ED402120DB863D41A
:1023730002120DB8E6D402120DB803D502120DB83D
:10238300AA8303120DB86B8403120DB8D884031209
:102393000DB8FD8403120DB8C68503120DB822BD16
:1023A30003120DB8FCF702120DB861F802120DB852
:1023B30099FA02120DB8DEFA02120DB8E1FA02120E
:1023C3000DB802FB02120DB805FB02120DB83CFB5F
:1023D30002120DB8EBFC01120DB817FD01120DB876
:1023E30060FD01120DB87AFD01120DB8A2FD0112B4
:1023F3000DB8C9FD01120DB8B6FE01120DB8C0FE2D
:1024030001120DB8CDFE01120DB8DEFF01120DB899
:10241300E7FF01120DB8F0FF01120DB8F18A0312A4
:102423000DB8848E03120DB8CB7F00120DB8F6B928
:1024330003120DB820BA03120DB8E0BD03120DB894
:1024430016BE03120DB8B99E03120DB86FA2021285
:102453000DB83CA702120DB866AF01120DB829AF33
:1024630001120DB8EEAE01120DB8CAAE01120DB8CD
:10247300AFAE01120DB83FAE01120DB86DAD011232
:102483000DB8E2AC01120DB8F4B401120DB895B455
:1024930001120DB871AC01120DB852AC01120DB896
:1024A30058B401120DB8E1B301120DB840AC0112DA
:1024B3000DB831F301120DB813F301120DB8B2F2D6
:1024C30001120DB8EAF101120DB858F101120DB85D
:1024D300FEEF01120DB8B1ED01120DB84AED011274
:1024E3000DB80FEA01120DB8E7E901120DB89BE927
:1024F30001120DB878E901120DB88FE801120DB879
:1025030037E801120DB893E601120DB890E60112F7
:102513000DB888E501120DB868E501120DB8C1E4E4
:1025230001120DB844E301120DB80BE301120DB80B
:10253300F3B201120DB8E1B201120DB8BDB101122F
:102543000DB8DCE201120DB8D9E201120DB8CBE2ED
:1025530001120DB8ADE201120DB82DB101120DB883
:102563009CE201120DB8B8E101120DB84EE101125F
:102573000DB81BE101120DB8E77300120DB88AB054
:1025830001120DB8C3E001120DB892E001120DB8AB
:10259300B9DD01120DB8C6DC01120DB85CDC011205
:1025A3000DB81CDC01120DB810DC01120DB883DB71
:1025B30001120DB8D1DA01120DB8FFD801120DB80E
:1025C30071D601120DB83BD601120DB8DCD401123D
:1025D3000DB888D401120DB8B5D301120DB81CD3B0
:1025E30001120DB8BBD201120DB8F5D201120DB80C
:1025F3003EBE0300000080FBC2C732E4730000004C
:102603000000000000000000000000000000007057
:10261300F8F87000000000000D0D000000001C3CE5
:102623000000003C1C00000000000000000020F837
:10263300F820F8F82000020F0F020F0F020070F8C5
:10264300888E8E983000060C0838380F07006060BB
:10265300000080C06000080C0603010C0C0000B0F1
:10266300F8C878B08000070F0809070F0800203C5E
:102673001C0000000000000000000000000000E05B
:10268300F018080000000003070C08000000000019
:102693000818F0E000000000080C07030080A0E029
:1026A300C0C0E0A08000020301010302008080801B
:1026B300F0F08080800000000707000000000000A9
:1026C30000000000000000101E0E0000008080804B
:1026D30080808080000000000000000000000000F7
:1026E30000000000000000000C0C000000000000CF
:1026F30080C0603018000603010000000000F0F8FD
:1027030088C868F8F000070F0908080F07000020C1
:1027130030F8F80000000008080F0F080800101830
:102723000888C87830000C0E0B09080C0C00101830
:10273300888888F87000040C0808080F070080C018
:102743006030F8F80000010101090F0F0900F8F8E3
:10275300888888880800040C0808080F0700E0F040
:10276300988888800000070F0808080F07001818CA
:102773000888C878380000000F0F0000000070F8C8
:10278300888888F87000070F0808080F070070F89A
:10279300888888F8F000000808080C070300000088
:1027A30030300000000000000606000000000000BA
:1027B30030300000000000080E060000000080C05A
:1027C300603018080000000103060C0800004040B8
:1027D30040404040000002020202020200000818CA
:1027E3003060C0800000080C060301000000303890
:1027F3000888C87830000000000D0D000000F0F8D4
:1028030008C8C8F8F000070F080B0B0B0100C0E065
:10281300301830E0C0000F0F0101010F0F0008F85E
:10282300F88888F87000080F0F08080F0700E0F019
:1028330018080818300003070C08080C060008F8ED
:10284300F80818F0E000080F0F080C07030008F859
:10285300F888C8183800080F0F08090C0E0008F88C
:10286300F888C8183800080F0F0801000000E0F0CE
:1028730018080818300003070C0909070F00F8F8B7
:10288300808080F8F8000F0F0000000F0F00000891
:10289300F8F80800000000080F0F0800000000000F
:1028A3000008F8F80800060E08080F07000008F8EB
:1028B300F880E0781800080F0F00030F0C0008F8E9
:1028C300F80800000000080F0F08080C0E00F8F8C5
:1028D300306030F8F8000F0F0000000F0F00F8F819
:1028E30070E0C0F8F8000F0F0000010F0F00E0F0D8
:1028F300180818F0E00003070C080C07030008F899
:10290300F88888F87000080F0F0800000000F0F83E
:10291300080808F8F000030704071E1F130008F84F
:10292300F88888F87000080F0F00010F0E00307848
:10293300C88888383000060E0808090F06180808EA
:10294300F8F80808180000080F0F08000000F8F84E
:10295300000000F8F800070F0808080F0700F8F850
:10296300000000F8F8000103060C06030100F8F864
:10297300000000F8F8000F0F0603060F0F00387869
:10298300C080C07838000E0F0100010F0E003878A8
:10299300C080C078380000080F0F0F0800003818F7
:1029A30088C8683818000E0F0908080C0E0000F8D4
:1029B300F80808000000000F0F0808000000387036
:1029C300E0C0800000000000000103070E000008C3
:1029D30008F8F80000000008080F0F0000001018A6
:1029E3000C060C181000000000000000000000009E
:1029F3000000000000002020202020200000000014
:102A0300060E080000000000000000000000004067
:102A13004040C0800000060F0909070F080008F8AE
:102A2300F840C0800000080F0708080F070080C0A7
:102A3300404040C08000070F0808080C04000080D5
:102A4300C048F8F80000070F0808070F080080C007
:102A5300404040C08000070F0909090D050080F0C0
:102A6300F88898300000080F0F080000000080C0AD
:102A7300404080C04000133724243F1F000008F863
:102A8300F88040C08000080F0F00000F0F00000007
:102A930040D8D80000000000080F0F080000000015
:102AA3000040D8D80000183820203F1F000008F845
:102AB300F80080C04000080F0F01030E0C00000057
:102AC30008F8F80000000000080F0F08000080C09D
:102AD300808080C080000F0F000F000F0F0040C0E8
:102AE300804040C08000000F0F00000F0F0080C027
:102AF300404040C08000070F0808080F070040C08F
:102B0300804040C08000203F3F240407030080C072
:102B1300404080C04000030704243F3F200040C0E2
:102B230080C040C08000080F0F080001010080C072
:102B3300404040C08000040D090B0A0E04004040D1
:102B4300F0F8404000000000070F080C0400C0C06C
:102B53000000C0C00000070F0808070F0800C0C02E
:102B6300000000C0C0000103060C06030100C0C042
:102B7300000000C0C000070F0C060C0F070040C088
:102B8300800080C04000080C0703070C0800C0C089
:102B9300000000C0C00003272424341F0F00C0C05E
:102BA3004040C0C04000080C0E0B090C0C00808094
:102BB300F078080800000000070F08080000000074
:102BC30078780000000000000F0F000000000808E4
:102BD30078F08080000008080F070000000010183C
:102BE3000818101808000000000000000000000092
:102BF3000E0A0E0000000000000000000000013675
:102C03003601010001020100010301000104010674
:102C13000605020000070100340801000F09040142
:102C2300010D0100FF0E080000170200001901004A
:102C3300FF1A0100011B0100FE1C0100081D020018
:102C4300001F0100012001000121020000230100F7
:102C53000F240200002601000127010008280200BA
:102C6300FF2A0100072B0102402C0100002D010067
:102C7300012E0100012F0100FF30010B1C31080060
:102C8300003A0100083B01000F2F0100000103710E
:102C930003010301030103010301032203020301EF
:102CA30003100300030003000300030003000300F9
:102CB3000342030003240306030003000304031277
:102CC3000325032303250323030403040300030051
:102CD30003000344030003000323030003650321EC
:102CE3000035038103000305030003000300030110
:102CF3000171010101010111010101310101010111
:102D0300018001100161013B001400630173017232
:102D130001620143010001130106013D0135000475
:102D2300011201000100010001000104010401334B
:102D33000133013C01440132013600000100016509
:102D430001000135008101000105018201830100B9
:102D530001030271023001600211027002010202DA
:102D63000202028002100261023A00410063027310
:102D730002720262024302000213023800000200E0
:102D83000204021202000200020002000204020412
:102D930002370037003C02440200023900000200FF
:102DA30002650200023502810200020502820283EB
:102DB3000200020300710030016000110070003155
:102DC300022003500480001000610000001400631F
:102DD300007300720062004300000013000600004D
:102DE30000000004001200000000000000000004C6
:102DF300000400370037003C0244000000000000DC
:102E0300000000650000003500810000000500009F
:102E130000830000000000030020017E8300000007
:102E23000020017D830000040042015C8100000555
:102E3300004201B1810000060042018F81000007BA
:102E43000020017B83000010004203A8150000113D
:102E5300002003EA14000012002003B91503000048
:102E6300002103EB14060000002001ED14360001DD
:102E730000060000000F000000000000000000003A
:102E830000000003FFFF00000403FFFF0000FFFF3B
:102E93000FF4010005C4040320000100000B00002F
:102EA30000000000000003010F0000FE1D13009846
:102EB3001D0100FE1D0200561D03005C1D0400627F
:102EC3001D0500681D0600741D11008C1D14009261
:102ED3001D1500861DFFFF0000030003000400080A
:102EE3000010001F003E007B00F600EC01D703AF8B
:102EF300075D0FB91E713D00003217621738173E88
:102F0300175C1750174A1768176E17741780174402
:102F1300172C17261703EAF5E5D5D5C5B5A595955D
:102F230085857575656555554545353525251515CE
:102F3300050A1C1502E61405F81407EC140CCE144C
:102F43000DDA14FF00009C36063A703DD940434425
:102F5300AD47174B814EEA5100160F00000B150BBE
:102F6300020002220F3200000600010203040506DC
:102F73000708090A0B0C0D0E0F1C182E183418FC29
:102F8300163A18F61602179418B218B8189A18A613
:102F930018A01800011916181616152303000003AC
:102FA3004948424D181725050200383C3E363B3B45
:102FB300352B432C303016181920231A1C1E3030A1
:102FC3003017181921301B1D1F300C0E020B040B78
:102FD3000A0708000F88184018461852184C18564C
:102FE300177A17AC1886178C170005150D091008EA
:102FF3000400000000000000BE040A150004000ED7
:1030030000280A090C0404080F0508C082C083E9DC
:103013009003BAF0E490036EF01222FC9003CDE427
:10302300F0A3F09003BBF0A3F01216541223029006
:10303300033DE4F0A3F09003DFE07002A3E0600936
:103043009003DF1254BC1225FE90300BE493FA79FF
:103053000212240A02497E74F2120AA8EAFEEBFF66
:1030630074805FF9E47001E960619003BAE0F912DA
:103073001AEC8A088B09EA7001EB60467B00800139
:103083000BEB75F003A42434F8E5F0342FF98882B0
:103093008983E493FA74FF6A602185088285098332
:1030A300E06A70DCAA08AB0988828983A3E493C031
:1030B300E0740193F583D0821225FEAA08AB0912AE
:1030C3001AE0EEFA74806FFB02321F74105FF9E4AA
:1030D3007001E9601D1215768A088B09EA7001EB0D
:1030E300600A1214DAAA08AB09121AE0EEFA741095
:1030F30080D4EEA2E0501A900373E0640F700B7952
:10310300001214B0E9600312322B74016EFAEF80DF
:10311300B6542070030231EB750C001244E47001C5
:10312300EB70107C027D007A207B009003BAE0F9FB
:10313300121BF47C0079047A007B001215528A0872
:103143008B09800D740188828983F0850A08850BB9
:1031530009E5087002E509606D7C007904AA08ABF3
:10316300091215528A0A8B0B750C01E50824041207
:103173005E6224FFF0A3E034FF12605E7002A3E0FE
:1031830070C9E5082409F8E5093400F98508828542
:103193000983A3A3A3A3A3A3A3A3A3A3E06401708D
:1031A300A3850882850983A3A3A3A3A3A3E054044F
:1031B3007092740688828983F07AB78508828509BC
:1031C3008312335880851215227C0079017A007BA3
:1031D30000121552EA7001EB7009E50C70057A20B4
:1031E300125445742002310F74025FF9E47001E94F
:1031F300600A12164EEEFA74020230C974045FF9C3
:10320300E47001E960121255F21252557901123A33
:1032130046EEFA74040230C97A007B008005740319
:103223001210A07F06020E1A90155F12490E121497
:10323300C822C082C08374EA1211048518828519DA
:1032430083AA82AB83794B1223E07408121344746C
:1032530002F07409121344AA82AB8379501223E05B
:1032630074131213441259131223FE741602497B6A
:1032730074F7120AA874E1121104EAFEEBFFEE7070
:1032830001EF6033851882851983AC82AD831215F3
:103293009A7406121344E0601E7417121344E0FD7F
:1032A3007401121344E0FCEEFAEFFB79001224B828
:1032B300E9600479A4800279000248C274F6120A14
:1032C300A8EAFEEBFF8E828F83A3A3A3A3A3A3E0AD
:1032D3005440601B1254B812564A60067AFF7BFFB3
:1032E300801A8E828F83124B5AFAA3E0FB8003125B
:1032F30015BE74FE6A700374FF6B60411254B812FA
:1033030054A4121618E98E828F836006123351E497
:1033130080051233517401F07CB67D148E828F8345
:1033230012532C122404E9F5087015EE7001EF60B6
:10333300097901EEFAEFFB12152E0254AA7508CD96
:10334300AA088E828F83123358E960DF80ECE02471
:103353000D124D3F22E0240C124D3FE0F91214C22E
:103363002274F6120AA8E9FEEAFF7A0F7B00121A0A
:10337300DAEA7001EB6019740C8A828B83F0EEA396
:10338300A3F0EF8A828B83A3F012553A790080343D
:10339300EEF91215588A088B09A808A909E87001E3
:1033A300E9601F740688828983A3A3A3A3A3A3A3AD
:1033B300125E41A3A3A3A3A3E0F912147AEEF912B8
:1033C300153479100254B3C082C083900373E06450
:1033D3000F7018EA7001EB601290036EE0FC740842
:1033E3006C600574046C70031233F102497EEAFCCD
:1033F300EBFD7A017B009003BAE0F9121BEE221277
:10340300560D640222EE2409F8EF3400F9880A8984
:103413000B2274F2120AA874FD1211048A088B0994
:10342300EA2402F50CEB124EBBF91215588A0A8BEB
:103433000BAE0AAF0BEE7001EF700302351E850869
:1034430082850983A385820A85830BE064F1601476
:10345300E064CD600FE0641A600AE064E96005E0AF
:1034630064E1701C790012152EE960148E828F833B
:10347300A3A3A3A3A3A3E04420F0A3E0F002350891
:10348300850A82850B83E0C0E07402121344D0E006
:10349300F0125CE7126063851882851983AA82ABF8
:1034A3008370051213F08003121600850A82850BC0
:1034B30083E064F1604FE064CD604AE0641A6045E4
:1034C300E064E16040E064F0603B7402121344E0A6
:1034D300FC74B76C602F12352A750A01780A121032
:1034E30091ECF50A780A121091E508240CF582E5AF
:1034F30009123FDA123EE7FCA3E0FD8A828B8312B6
:103503003F011210A0EE240912340270037406F076
:10351300850C82850D83E0F912153412152290155E
:103523006312322E0232218E828F83124C25E8FAE7
:10353300E9FB2274F5120AA88A088B09750A00EAC6
:1035430024091249F4FEE9FF8E828F831235C77076
:1035530003750A018E828F831251587003A3E06BA7
:103563007006E50AD2E1F50AE5082402FEE509340E
:1035730000FFE50A60138E828F83E07006E50AD2AE
:10358300E58004E50AD2E6F50A121618E96401702B
:1035930006E50AD2E0F50A8E828F83E06017E5081C
:1035A300241DF582E50934001235BD64016006E58A
:1035B3000AC2E0F50AA90A02590E124B5FE0F9129A
:1035C3001606E92212564E64022274E8120AA874FF
:1035D300DE121104EAFEEBFFEE2404124B2CE06032
:1035E30010901561E07002A3E0600690156112323D
:1035F3002EEE2402F50CEF1256327403121344AC70
:1036030082AD83850882850983123EDDFAA3E0FB40
:1036130012159AEE241B1248CC7410121344125242
:10362300557409121344E0601C741A121344E0FD2C
:103633007404121344E0FC12532679011224B8E9EE
:1036430060030238B47403121344AA82AB831214C6
:10365300D4E9F50A7409121344E0700E900356E09E
:103663006008E9A2E140030238B4EE2412F514EF36
:103673003400F515EE242A126055EE242EF516EFCC
:103683003400F517EE242C123FD7123C04E0687087
:1036930003A3E069701E750B00780B121091780B71
:1036A300121091851682851783E0F91238C9123FEB
:1036B300011210A07406121344E0FA90035CE06A4E
:1036C30060030238B47409121344E0700302378CA8
:1036D3001238C912532C1216728A088B09A808A92A
:1036E30009E87001E9700302382D740412134412BF
:1036F30038BEFAA3E03400FB740D2AF582E43BF5EF
:1037030083E0FAE82404F508E9126058E82403F595
:1037130082E91260696A601FEAF09083667810128A
:1037230012FA850882850983E510F0A3E511F0A359
:10373300E512F0A3E513F07904E91213441238BE3D
:10374300FCA3E034008C82F583A3AA82AB83121A14
:10375300C88A0C8B0D8C0E8D0F85088285098378A2
:10376300101212FA7810790C12129D50030238B419
:1037730090835A780C1211D4850882850983125BD1
:1037830094A3E50EF0A3E50FF090036EE0FA740442
:103793006A600874096A60030238B4E50AA2E54066
:1037A3000302386F851682851783E0851882851991
:1037B30083F0EE242F126066C0E07401121344D02C
:1037C300E0F0EE2430126066C0E07402121344D0BD
:1037D300E0F07414121344E064017028740E1213A1
:1037E300441248D2851482851583E0687003A3E0F0
:1037F300697011740C1213441235C77007741412D4
:103803001344E4F0EE2424123FD7120EC6740412BC
:103813001344AC82AD837407121344AA82AB8312A0
:1038230013F674041210A00238B49003B3E06401D9
:10383300600302378C7420121344124B5A640670CF
:1038430009E50AA2E6500302378C7410121344E010
:1038530064FF7004A3E064FF6057EEFCEFFD7403A4
:10386300121344AA82AB831214E08045A2E65041AE
:103873007420121344124B5AFA74046A7018741A9F
:10388300121344E0640270297403121344AA82AB36
:10389300831215F4801B74076A7016741A1213448A
:1038A300E06404700C7403121344AA82AB831215F0
:1038B300EE74221210A07F10020E1AE0FA850C8219
:1038C300850D83E02A22850882850983124B498569
:1038D30014828515832274F2120AA8EAFEEBFF8C88
:1038E300088D0912340879008882F58312532C124B
:1038F30014868A828B83E5827002E583603DA3A3ED
:10390300A3A3A3A3E054186032E508241BF582E5C2
:1039130009123FDA120ECAE5082412F582E50912EC
:103923003FDA120ECAEE2418F582EF1249EF12396C
:103933004912149874041210A080087900123949AE
:10394300121462023226850A82850B83124B49EEDA
:10395300240B1249072274F6120AA874F7121104F1
:103963008A088B0990036EE0FA74036A600D740190
:103973006A600874096A6003023A388508828B8397
:10398300A3AE82AF83E06003023A1D7C007D007A20
:10399300027B00122308E5082402123A3B1248D2A4
:1039A30090035F12525579531223E67900123A4677
:1039B30090036EE06409600990036C12532C121695
:1039C3006C74011254D8740490036EF074011213D2
:1039D30044AA82AB83794A1223E07401121344ACE4
:1039E30082AD837A647B0312232090035F124B45DD
:1039F3007A037B00122308900362124B457A047BFF
:103A030000122308900359E0A2E35004D2F080028D
:103A1300C2F01254C012322B8018FC7D007A037B53
:103A2300101223088E828F83E0F9123A46E4900342
:103A33006EF01215040254AEFAE5093400FB8A82D3
:103A43008B832290036C12490E12140222C082C08F
:103A53008390033DE07002A3E0704190036EE01297
:103A63000F7B000301723A05813A06903A9F3A9020
:103A73000345E07002A3E06076900345806B9003FA
:103A830041E07002A3E06067900341805C900343D0
:103A9300E07002A3E06058900343804D90033DE043
:103AA3007002A3E0600912424EFC74016C7023792A
:103AB300009003BB800909EA125A96EB123FDA120F
:103AC30047AF7001EB70EF9003BB12532C1213FC42
:103AD300801D74026C700512164280139003E1E09E
:103AE3007002A3E060099003E11254BC1225FE02A8
:103AF300497E74F4120AA874FB1211048A088B0914
:103B03007A0F7B00121ADA8A0A8B0BAE0AAF0BEE1E
:103B13007001EF7003023BFF74028E828F83125990
:103B23001479501223E0850882850983A3858208CE
:103B3300858309E06003023BE890036C125E3A70F0
:103B43000374FF69602F74FE68700374FF69602556
:103B5300851882851983E0687003A3E06960167491
:103B6300EA850882850983123F137A6C7B037950B7
:103B73001223E68070851882851983123C04125241
:103B8300557A5F7B0379531223E090035F125250FF
:103B93007A627B03794B1223E07A617B0379E1122A
:103BA30023E0900373E0C3940F5022900361E0C0BD
:103BB300E07402121344D0E0F0740412134474014D
:103BC300F07402121344AA82AB831223F8750A001D
:103BD300780A121091780A12109190157FE0F91269
:103BE3003EF81210A0850882850983123EC8F0743E
:103BF3000390036EF0EEFAEFFB12553A7405024997
:103C0300E7124C2590036C2274EC120AA874ED128F
:103C130011048A828B83A3123ECDEA24081249F44D
:103C2300FEE9FF851882851983AC82AD838E828F6E
:103C330083123EE7FAA3E0FB12151085188285195B
:103C430083E070708E828F83E0C3940B4066850897
:103C530082850983A3A3A3A3A3A3A3A3E064027000
:103C63005390036EE0FAE5082410F510E5093400DB
:103C7300F511E508240912562E74026A603B740696
:103C83006A603690033DE07002A3E0600712424E83
:103C93006401605574086A600574046A70167402DE
:103CA300121344E0F97407121344AC82AD83125328
:103CB300261215167413025B6590033DE07002A390
:103CC300E07026750A00780A121091780A12109192
:103CD300851082851183123EDDFCA3E0FD850882F9
:103CE300850983123F011210A09003BB125EA690B8
:103CF30003BB125B5DE508240DF50EE5093400F501
:103D03000F80308E828F83E0F8A3123EDD6870034C
:103D1300A3E06970128E828F83A3A3E0FA850E82DB
:103D2300850F83E06A606B8E0A8F0BEE125A96EF53
:103D3300125EA3EE7001EF70CA7A187B00121B5259
:103D43008A128B13AE12AF13EE7001EF7003023CB5
:103D5300B77C18125FD512554FEE240C123FD7745F
:103D6300FFF0E508240B125E62123EBF12605DC4D1
:103D7300123EBFA3A3F09003BBE07002A3E0700563
:103D83009003BB800AE50A125A96E50B123FDA123A
:103D93005CED7401121344123ED7A3F074021213A4
:103DA30044123ED7F0850E82850F83123EC8A3F0DE
:103DB300125E7B125074240DFAEF3400FB7402126E
:103DC3001344E06401600E7407121344AC82AD83A4
:103DD30012232080097C087D0079FF121AC2741215
:103DE300121344E0C0E0EE2415123FD7D0E0123F97
:103DF3000AFC90157FE0C39C4003023CB7125E505F
:103E0300E509123FDAA3E05480F9E47001E970098F
:103E1300900CE9E07003023CB77D00EE240CF8EF50
:103E23003400F9EE240BFAEF3400FB9003ABE064AB
:103E330002701D8A828B83E0F50AC39C500D7405C2
:103E4300121344E0C39405401B801AE50A6C7015F5
:103E53007405121344E0C0E088828983E0FCD0E05B
:103E6300C39C50010D7406121344E06035ED6025C8
:103E7300850882850983125922ECF0A3ED123F0ACB
:103E83008A828B83F07405121344124B4F7406120B
:103E93001344E0600D74018E828F83A3A3A3A3A3B5
:103EA300A3F07404121344E07003023CB774018E50
:103EB300828F83A3A3A3A3A3F0023CB7540F8E82E4
:103EC3008F83A3A3221240D9A322A3A3E0F508A3BF
:103ED300E0F509221240D9025102E0F9850C8285EE
:103EE3000D83E022E0F98A828B83A3A3A3A3A3A378
:103EF300A3A3A3E02290036C124B499003621249DF
:103F03000E1215D0740222F0851082851183E022EF
:103F1300F07A5F7B037953123F1E221223E67A6203
:103F23007B03794B1223E62274F0120AA874F81269
:103F330011048A0C8B0D8C0A8D0B890E85188285D2
:103F43001983AC82AD8375838375821A7408120F4B
:103F5300EEF50FAC0CAD0D851882851983AA82ABE3
:103F630083125BA67003750F019003BB8030AC0C0A
:103F7300AD0DEE240DFAEF3400126051601A85087E
:103F830082850983E0650E700F8E828F83E0650A58
:103F93007004A3E0650B6032EE2416123FD712487B
:103FA3003A7001EF6024EE2402126055E50F70BEF3
:103FB3008E828F83E0650A7004A3E0650B70D98558
:103FC3000882850983E0650E70CEEEFAEFFB025698
:103FD30016EE240BF582EF125E982274F7120AA8EC
:103FE3009003BB124F75800CEA2416125EA0121BBD
:103FF30058EEFAEFFBEA7001EB70ED9003BBE4F0CF
:10400300A3F00248C774F1120AA88A088B09ECFED0
:10401300EDFF890A8A828B83125B9C8A828B8312CF
:1040230040D8F0EEF8EFF9A30EAF838A828B83A317
:10403300A3E0C454F0FA88828983E04A1240E41270
:1040430040D91240DFE0333354FCFA8E828F83E091
:104053004A1240DFA3E033333354F8FA8E828F835E
:10406300E04AF008EFF9A30EAF838508828B83A3A0
:10407300A3A3A3A3A3E0A2E0E492E013135480FA62
:1040830088828983E04AF0E5082407F50CEB125691
:1040930032750E00780C1210897C08124EAF121084
:1040A300A0125B7CE508240F12562E780C1210899F
:1040B3007C03124EAF1210A0E50AC3940F4011E522
:1040C300082412F582E509123FDA123EC8A3A3F0D1
:1040D3007F07020E1AA3E08E828F83221240E4A38D
:1040E30022F08508828B83A3A3A32274F1120AA86A
:1040F300EAFEEBFF890A8C088D098E828F83E08CA0
:10410300828D8312505DAE82AF83E0125113124150
:10411300BAC41251131241AEE054038C828D831240
:1041230041B8A2E2E492E08C828D831241B713136B
:1041330013541F125113A31241B7A2E7E492E08C68
:10414300828D83A3A3A3A31241AE8E0C8F0D750E94
:1041530000780C1210897C087D00E50824071241C1
:10416300A51210A0125B7C8E0C8F0D780C12108997
:104173007C037D00E508240F1241A51210A0E50879
:104183002412F8E5093400F9E50AC3940F400A8EB6
:10419300828F83A3A3A3E08001E488828983F00252
:1041A30040D3FAE5093400124EB422A3A31250619E
:1041B3000EAF8322A3A3A3A3F0025AA974F4120A95
:1041C300A874F9121104EAFEEBFF90033DE07002BC
:1041D300A3E0601012424E64027009EEFAEFFB1284
:1041E300163C806290036CE06E7003A3E06F705620
:1041F30074016960097A807B03125BA670487A00B8
:104203007B021244E87001EB703C90036F78081254
:1042130012FA85188285198378081212EB900375B8
:10422300E0C0E07404121344D0E0F07405121344A8
:104233007401F0740612134474021259141213CC4D
:10424300E960981213D274070249E790033D124DB7
:104253004CE02274F7120AA88A828B83A3AE82AF42
:1042630083E0F912141A8E828F83E0FA74EB6A608A
:104273000574E16A7002E4F012322B7508017808C4
:104283001210918E828F83E0F508780812109179CD
:1042930000123EF81210A01215220248C774F6123B
:1042A3000AA89003CCE0701F7C0079017A007B00A0
:1042B300121552EA7001EB600E8A828B83E0700262
:1042C300A3E060031214BC0254B3C082C08312473C
:1042D3001A401079FF12154CE9FA903007E493C3A2
:1042E3009A500479018002790002497E74EE120A21
:1042F300A88A088B09890D750E00EA2408F50AEBD4
:104303003400F50B850A82F583E0F91215588A10FB
:104313008B11AE10AF11750C01EE7001EF6003024B
:1043230043B2850882850983A3A3A3A3A3A3124B46
:1043330045850A82850B83124F7A12532C1215403E
:104343008A0A8B0BAE0AAF0BEE7001EF70030244C7
:10435300DC8E828F83A3A3A3A3E4F0A3F0E5082458
:104363000BFAE509125BABC0E0123FD4D0E0F012C8
:10437300161EEE240C12549D750E01EE2406F8EF62
:10438300124729E0547FF0A3E054FC1245C25404C1
:104393006003024444901567124F6E740778081245
:1043A30012598A828B83E04508F0A3E04509F0EEB9
:1043B3002406F8EF1249F6FCE9FD8C828D83125333
:1043C3002C74805AF50874035BF509740778081296
:1043D30012CDE508F510EE2404F50AEF3400F50BD1
:1043E300EE2409126055E50D60607402850882852C
:1043F30009831241BB240D124D3BE0A2E2500F9002
:10440300035A1248D2850A82850B83125255E5104E
:1044130070030244A3747F5AFA74FC5BFB74FF2598
:1044230010F51074FF3400F5117407781012125947
:10443300E5104AF8E5114BF98C828D8312525580B1
:104443005FE04480F0A3E00243B1E5107005750C12
:1044530000804DEA54206015121AD48A10747F55D7
:1044630010F8745F28850A82850B83801BEA541039
:10447300600E121AD48A10740F5510F8740F80E46A
:10448300850A82850B837401F0A3E4F07404850824
:1044930082850983F01244E47001EB700312547AAD
:1044A3007401650E7036850A82850B83124B458530
:1044B3000882850983E0F9EEFAEFFB121546E960FD
:1044C3001BEE240C123FD71247AF7001EB600312AF
:1044D3001B58EEFAEFFB121B58750C00A90C025285
:1044E300397A207B009003BAE0F9121C00EA2274A7
:1044F300F6120AA874F71211047E00121558EA7016
:1045030001EB70030245BD8A828B83A3A3A3A3A3FC
:10451300A3A3A3A3E0640660030245BD8A828B8341
:10452300A3A3A3A3A3A3A3E0FF8A828B83124D4675
:10453300E0C0E07408121344D0E01245C2124B628B
:1045430012573A12525512156A74085FF9E4700152
:10455300E96065851882851983124B457A007B00D3
:1045630012153AEA7001EB704F90036C1249FB127B
:1045730024107C007D007A007B0080268E828F834E
:10458300E01248D67004A3E064FF602C90036C1221
:104593004B45122086E9641A601E7C007D00EEFA0A
:1045A300EFFB12153A8A088B09AE08AF09EE7001CA
:1045B300EF70C979001224167E01EEF90254AE128F
:1045C3004678E02274F7120AA8EA7001EB700590AE
:1045D30003CD80068A828B83A3A31247AF7001EBBE
:1045E30060288A828B83A3A3A3A3A3A3A3E0540875
:1045F300F9E47001E960DDEC7001ED6011124B56D6
:104603006C7003A3E06D70CC80047A007B000248D9
:10461300C774F2120AA8EAFEEBFF890A8C088D0917
:104623007A0E7B00121B52EA7001EB603AE48A8235
:104633008B83A3A3A3A3A3A3A3A312467CE50A127C
:1046430048E2E508F0A3E509125E30E4F012467C87
:10465300A3A3124678125CEDEA240CF582EB124B0D
:104663003C12466DF0A3F0023226A31246722212C8
:104673004678A3A322F0023A41A31248E6A3A32259
:1046830074F5120AA8EAFEEBFF890A8C088D09EE7D
:104693007001EF60567401650A7014790112154CAC
:1046A300E9FA90300DE493C39A500F791180657441
:1046B30004650A703012471A40F18E828F83A3A3D8
:1046C300A3A3A3A3A3A3A3E50A1250681260D8E48B
:1046D300F0A3F09003CDE07002A3E09003CD60243B
:1046E3001248D2800A7402650A60CF79C18025E836
:1046F30024020808E91247291247E47001E970EF20
:104703008A828B83125CED1244E47001EB70031216
:10471300547A790002590E790412154CE9FA903053
:104723000CE493C39A221249F6FAE9023A40C08292
:10473300C083E9FC79009003CD801D8A828B83A31B
:10474300A3A3A3A3A3A3A3A3E06C600574FF6C704E
:1047530001098A828B83A3A31247AF7001EB70DB3D
:1047630002497E74F7120AA8EA7001EB7005900300
:10477300CD80068A828B83A3A31247AF7001EB60BF
:10478300248A828B83A3A3A3A3A3A3A3A3A3E069E4
:1047930070E1EC60148A828B83E0240D125AA3A289
:1047A300E240D080047A007B000248C712490EEA37
:1047B30022C082C0839003CD80068A828B83A3A309
:1047C3001247AF7001EB60128A828B83A3A3A3A36A
:1047D300A3A3A3A3E06970E280047A007B000249EB
:1047E3007E124C25E82274F1120AA88A0A8B0B8CDC
:1047F3000C8D0D750800750900EA7001EB603190AE
:1048030003CD80068E828F83A3A312483A7001EFF3
:10481300601EAC0CAD0DEEFAEFFB850A82850B83AF
:104823001225FEE9640170DCEEF8EFF988088909C6
:10483300AA08AB090240D3E0FEA3E0FFEE2274F71F
:10484300120AA89003CD1248D27C007D008007E8AD
:10485300FCE9FD1248D2E87001E9603AE82402F568
:1048630082E9123FDAEA687002EB6970E212532CB4
:104873009003CD125EA6E86E7002E96F7009900393
:10488300CDEAF0A3EB800EEAF8EBF98C828D83A3DB
:10489300A3E8F0A3E9F0802C74F7120AA8EAFEEB70
:1048A300FFEE7001EF60161215641248ECEA700116
:1048B300EB6003121B58EEFAEFFB121B58800574D2
:1048C3001F1210A07F01020E1AF582EF125E9812DA
:1048D3004C2522FAA3E0FB8A828B83E064FF221239
:1048E30048E6221246780251038E828F83E0241C0D
:1048F300124D3F1249138E828F83124913EE240CFB
:1049030012490722F582EF3400F583124F75FB221B
:10491300124F75FB121B5822C082C083EAFCEBFDC9
:10492300EC7001ED70047905804CEC24FBF582ED0D
:1049330034FFF583E07002A3E07011EC24FFF8ED7F
:1049430034FFF988828983E064FF6005121AE080EE
:10495300D59003BA124B4F903005E493F97ACF7B8D
:1049630003121B0AE96401700B7A007B1012547E58
:1049730079008002790480031210A0D083D08202D0
:104983000DAB74F4120AA8A2AFE492E0F508C2AF2B
:104993009003CF12483A7001EF603DEE24FBF5829D
:1049A300EF34FFF583E07002A3E07A007B109003FD
:1049B300BA60051254818005E0F9121B16750A00CE
:1049C300750B00780A12108DEEFCEFFD7ACF7B0396
:1049D300121B0474021210A0E508A2E092AFEEFAD3
:1049E300EFFB80031210A07F04020E1A125610F977
:1049F30022F8EB3400F9E822124B49851882851915
:104A030083AA82AB832274F0120AA874FC121104E5
:104A1300EAFEEBFF121528E960057911024B27EE38
:104A23002402124B2C12564A6006EE2412124B3902
:104A3300EE24131260667003741EF0EE2411F8EF77
:104A43001256377019900DB9E0600D900356E0705F
:104A53000D8E828F83E07006E488828983F0EE24D2
:104A630014080808EF125E65700C90034B124B4F4D
:104A730090034BE004F0EE240FF50AEF3400F50B3E
:104A83008E828F83E064017017123FD4124B5A64F5
:104A930002700D850A82850B83E04440F0A3E0F0A9
:104AA300851882851983AC82AD83EEFAEFFB12156C
:104AB3008E8A0C8B0D850882850983124B45EA701B
:104AC30001EB605C8E828F83E0C0E07401121344BB
:104AD300D0E0F07402121344125CED74011213441B
:104AE300858208858309780812108D850A82850BD3
:104AF30083120ECAEE240E126066F50878081210AF
:104B0300917405121344E0F912158874051210A06C
:104B1300E9FE74106E700BAA0CAB0D121B588002C9
:104B23007E10EEF97404025618F508EF3400F50907
:104B3300850882F58322F582EF125E98E4F0221253
:104B43005E95124B4922E0FCA3E0FD22E0888289B6
:104B530083F0228A828B83124B61E022F583E0F893
:104B6300A3E0F583888222C082C08374DE1211041D
:104B73008A828B83A3A3A3A31248D2740E12134475
:104B8300E8F0A3E9124C1E740C121344124C1724C0
:104B93000DF582EB126069C0E0741A121344D0E081
:104BA300F0EA125E52EB1248CF7420121344124CF7
:104BB300172415F582EB126069C0E07408121344E0
:104BC300D0E0F0EA241CF582EB1248CF74121213E2
:104BD3004412525574FF851882851983F0740112AB
:104BE300134474FFF0740212134474FFF09083664D
:104BF300120EC67404121344AC82AD8374071213ED
:104C030044AA82AB831213F674041210A0790074C1
:104C13002202497BE8F0A3E9F0EA22124672124C21
:104C23002522E0F8A3E0F92274EF120AA874F01227
:104C330011048A0C8B0DECFEEDFF89107421121305
:104C430044E0F50F7422121344125B5D74241213B3
:104C530044123ECF750E107A1E7B00121B52740253
:104C63001213441254A47402121344E07002A3E01A
:104C73007003024D2F851882851983AA82AB83792D
:104C83005012531C12532C7402121344124D46A398
:104C93001254A47402121344E0240B124D3B740209
:104CA300F0121344124D467402F01213441254BC12
:104CB300125CED740212134412583DE510F07402B5
:104CC300121344E0240C124D3BE50FF0740212134F
:104CD30044E0241C124D3B125B947408121344E508
:104CE3000AF0A3E50BF0740A121344E50FF08508EC
:104CF30082850983C082C083740D121344AC82ADD4
:104D030083D083D0827403120FEEF974021213441A
:104D1300AA82AB8312152EE964017005750E00801B
:104D23000B740212134412532C121B58A90E741045
:104D33001210A07F09020E1A124D3F22F8A3E012AF
:104D4300614522124D4CA3A322E0F8A3E0F583882A
:104D53008202510374EA120AA8EAFEEBFF8C088D63
:104D6300098E828F83A385820A85830B7408F0EEF4
:104D73002416F50CEF124EBB60097410850A828568
:104D83000B83F0EE2417F510EF3400F51185108234
:104D9300F583E0600A850A82850B83E02408F0EE40
:104DA3002411F8EF125E656005750E0E8003750E13
:104DB30000EE240DF514EF3400F515850A82850BFA
:104DC30083E0851482851583FAE02A250E8C828D73
:104DD3008312605E6013900357E0F91224B2E9FA7C
:104DE300850882850983E02AF0850882850983E0A6
:104DF300FAC394754009750800750900024EA67B35
:104E030000125D9B7001EB7003024EA6EEFAEFFBFE
:104E1300121594EA8508828509831254A5EE2402AB
:104E2300F81255FC124ED0F0EE240408081255FC7B
:104E3300A3A3124ED0A3A3F0EE2413124EC6F0EE9A
:104E43002414124EC6A3F07A08850C82850D83E0E4
:104E5300600FEE2418124B42E5082408125B537AC4
:104E630010851082851183E0600FEE241A124B42E5
:104E73008A0CE508250C125B53126063F510A3E05E
:104E8300F511751200781012108985148285158327
:104E9300E0FC7D0012523EE50E28FAE439124EB4CE
:104EA3001210A0AA08AB097F0E020E1A7D00EEFABB
:104EB300EFFB121AB67403223400F50D850C82F54C
:104EC30083E022125E95124EDAA3A3A322A3A312B8
:104ED3005E36A3124EDA22E0850882850983A3A3F6
:104EE300A32274F6120AA88A828B83E0FC90035CE7
:104EF300124F6E74027808121259E5084CFCAD0982
:104F0300EA2412124F6874067808121259E5084C05
:104F1300FCE5094DFDEA2411124F68740978081263
:104F23001259E5094DFDEA2416124F68740B7808EF
:104F3300121259E5094DFDEA2417124F68740C78D3
:104F430008121259E5094DFD8A828B83A3A3A3A3FB
:104F5300A3A3124F6E740A7808121259ECFAE509EA
:104F63004DFB0254B3F582EB125E98E0F508750928
:104F73000022E0FAA3E022E0F98508828509832272
:104F830074F2120AA88A088B09ECFEEDFFE98E82FF
:104F93008F83F0125290C0E0EE2411123FD7D0E07D
:104FA30012528AC0E0EE2412123FD7D0E012505DB5
:104FB300A882A98312525B6010E5082408FAE50968
:104FC3003400FBEE241312507B8E828F83A3A3A3A2
:104FD300A3A3A3A3A3E0601588828983E0FAE5086D
:104FE3002AFAE5093400FBEE241512507BEE24194E
:104FF300124B39EE241B124B3912605DF50AF50C86
:10500300E508250CF8E5093400F9EE241DFAEF3420
:1050130000FBEAFCEBFD8C828D831250742417FA9B
:10502300EF3400FB8A088B098E828F83E0C3950AD5
:105033008A828B83125068A3A3E0601B8A828B83CE
:10504300E024F2F0E8240EF8E9125263FA850882AC
:10505300850983E0C39AF002322612506122F08E52
:10506300828F83A32212506C22F08E828F8302518F
:1050730005E8F0A3E9F0EE22125E95EAF0A3EB1245
:105083005E36E02408F02274F4120AA88A088B0919
:10509300EA12510AF0EA1313543F125113A3A3A3C4
:1050A300F0EAC4131312510AA3A3F0E48C828D8394
:1050B300A3A3A3A3A3F08A0A8B0B7409780A121281
:1050C300CDE50A1250FAF0EC2418F582ED124B3CB0
:1050D3008A0A8B0B740B780A1212CDE50A1250F56B
:1050E300F0740C78081212CDE5081250F5A3F00203
:1050F30049EA1250FAA32254018C828D838001A3C2
:10510300A3A3A3A3A3A32254038C828D83A3A322CB
:10511300540F8C828D8322C082C083790090035602
:1051230012598BA3A3A3E0600FEC70268A828B83B2
:10513300A3A3E0701D09801AEC60178A828B83A3F6
:10514300A3A3A3A3A3A3A3A31251587003A3E06B28
:1051530070E302497E12490E90035FE06A2274EE07
:10516300120AA88A088B09890CECFEEDFF125290F3
:10517300C0E0EE2411123FD7D0E012528AC0E0EE15
:105183002412123FD7D0E012505D85820A85830B2B
:1051930012525B6010E5082408F8E5093400F9EEC3
:1051A30024131252798E828F83A3A3A3A3A3A3A351
:1051B300A3E0600912523EEE2415125279EEFAEF83
:1051C300FB1215A6E9F50D706B850A82850B83E04A
:1051D300F50EF510E5082510FAE5093400FBEE2479
:1051E30017F8EF3400F988088909EE241DF8EF1247
:1051F30049F6FCE9FD8E828F83A3A3A3A3A3A3E0B7
:105203007012EAF8EBF98C828D83125255E50CC3C8
:10521300950E8019EA240EF8EB125263FB850A827D
:10522300850B83E0FAE50CC39A24F2C39B850882BD
:10523300850983F0A90D7F0A020E1A850A82850B60
:1052430083E0F8E50828F8E5093400F922125E85C1
:10525300A3A3E8F0A3E9F022740812506C023EF312
:105263003400F98C828D83E8F0A3E9F0900357E0D2
:10527300F91224B2E922125E95E8F0A3E9F0850A57
:1052830082850B83025085125620023EF38A828B5D
:105293008312490E1215A0850882850983A3A312E0
:1052A30052CFE0F9EA8E828F83A3A3A3A3A3A3A380
:1052B300A3A31252D41252CFA3A3E0F9EAF8EE2427
:1052C3000B125E95E81252D4A3A3E022E0FA024E39
:1052D300DBF0A3E912562422C082C0837AD47B0375
:1052E30079E21223E07AD47B0302497EC082C08331
:1052F30090035F12532C02497EC082C08374FE1256
:105303001104851882851983AA82AB83794B1253C2
:105313001C12532C740202497B1223E085188285E8
:10532300198322850C82850D8312490E22C082C007
:1053330083794A1223E002497E74F6120AA8900385
:10534300DCE0FE04F0EEF9121558EA7001EB70EEA2
:10535300EE60EBF90254B374EE120AA8EAFEEBFF17
:105363008C088D09890A7412121344E0F50B741327
:10537300121344E0F50C750D00750E001216728AB7
:10538300108B11AC10AD11EC7001ED7014E50C70C5
:105393004DA90AAC08AD09EEFAEFFB1216780254D8
:1053A30040EC2402F8ED3400F9E50A60198882899B
:1053B30083E0FA850A08E5082AFAE4340013EA13BD
:1053C300F070037401F0E50C6020E50B70108C8223
:1053D3008D83E0600914F064027003750E0174019B
:1053E300650C7035E50B7016802A90157FE0C0E0E0
:1053F30088828983E0FAD0E0C39A504180DD90032C
:10540300E3E004F0C0E0901568E0FAD0E0C39A400E
:1054130008750D01E49003E3F0E50E7004E50D60FB
:105423001CE50D6018900362E06E7003A3E06F70DB
:105433000CEEFAEFFB7901121414125443025239A1
:105443007A017B009003BAE0F9121BFA22C082C0F2
:105453008374016A7001EB70077A0112547C801423
:1054630090155F1254A4EA7001EB60051233F180CA
:105473000312544302497E7A207B009003BAE0F979
:10548300121B1022C082C0839015611254A40249DA
:105493007EC082C08390156380F1F582EF3400F5FE
:1054A30083EAF0A3EBF022A908800574091210A087
:1054B3007F02020E1A8E828F83124B6122A2F0E4C6
:1054C30092E01254CE79521223E62285188285196E
:1054D30083F0024A041254CE79421223E622AA82AE
:1054E300AB8312150A7ABD7B0379451223E6227436
:1054F300F7120AA874ED121104E9FE9003B91258C9
:10550300441255297412121344EE12551E85188243
:105513008519831254E174130248C4F09014FBE01C
:10552300F97CBD7D03229014FBE0F97ABD7B031265
:10553300151022AA08AB099003BAE0F9121AE62261
:105543003400F583740122125543F022A3A3A3A3CD
:10555300A3A3A3A3A374FEF0A374FFF02274F41215
:105563000AA8EAFEEBFF7A007B041254471255F2B5
:10557300125255740990036EF01215B28A088B0902
:10558300AC08AD09EE2413123FD712532C125BA6BD
:105593006401704D7A0F1255E77001EB604374029A
:1055A3008A828B83F0EE241DF8EF12614112532C93
:1055B3008A828B83A3125990E0FBEC8508828509CC
:1055C30083A3A3F0A3EB12605E124B62A3A3A31207
:1055D3005600125604FAA3E0FB794A1223E6125549
:1055E300360249EA7B00121ADA8A088B09EA22900A
:1055F300033F124C2590156322EF126145E0024FE1
:105603007CA3F0EE241512560D22F582EF3400F53B
:1056130083E02274081210A07F08020E1A12562487
:1056230022F0850882850983025105F50CE50934CA
:1056330000F50D22125E696401228E828F83A3A37B
:10564300A3A3A3A3A3A3A312564E22124F75FB1227
:105653001618E92212591C12160C2274F4120AA805
:1056630074F3121104EAFEEBFF7C0D7D00790085D3
:105673001882851983AA82AB83121AC2EE241D12E3
:105683003FD71254BCA3E0F854206008740C1213E3
:10569300447401F0E854806008740B1213447401DD
:1056A300F0E85440600A740A1213447401F0800A4B
:1056B300740A121344E064017005EE24138003EEB0
:1056C3002415124B427402121344AA82AB83122391
:1056D30020EE240BF8EF3400F9880889098882F555
:1056E3008312573A125255740A121344E06401703C
:1056F3003412563D703C1215BE8A0A8B0BA80AA9B8
:105703000B850882850983E0687003A3E069702232
:105713001215B2EAFCEBFD7402121344AA82AB83A6
:10572300125BA6600D851882851983AA82AB83124A
:10573300140E740D0249E7124C2502531F74F6121E
:105743000AA874F31211048A088B09ECFEEDFF7C9E
:105753000D7D007900851882851983AA82AB831297
:105763005FD9A3A3A3A3A3A3A3A3A312573AE8F0C8
:10577300A3E91257CAFAA2E55008740B1213447432
:1057830001F0EAA2E75008740A1213447401F0EA24
:10579300A2E6EE5004241380022415124B42740235
:1057A3001213441257C0A3A3E0C0E0740C121344B5
:1057B300D0E0125914121408740D0254B0AA82AB2B
:1057C30083122320024F7CF0EE241DF582EF340078
:1057D300124B5FA3E02274F7120AA874E1121104BA
:1057E300EAFEEBFF12352AEA2406F8EB125E65A205
:1057F300E0504454FEF0A3E01258448A828B831293
:10580300583DE0F98A828B83E0241CFAA3E0123A24
:105813003E12532C1215ACE9701D741D1213441261
:105823004B5A64047011851882851983AC82AD8349
:10583300EEFAEFFB1215FA0248C2E0241B124D3FA9
:105843002212584CAC82AD8322F002531FE9FA793D
:105853000074046A600A740A6A600574036A70015A
:1058630009020DAB74F6120AA874208A828B83F0A6
:105873007401A3A3F01213C0EA7001EB6007740173
:105883008A828B83F00254B3C082C0837401900375
:10589300D1F0E9A2E350037403F0E9A2E15004E07C
:1058A300D2E2F002497E74F6120AA879007C008ADB
:1058B300088B097808120D53F8FF07DC58DA58DA19
:1058C30058DA58DA58D358D758DC58D0580C8009CE
:1058D3007C0480050C80F67C089003D1E05C6003B7
:1058E300098003EC6001090254B374F6120AA88A12
:1058F300828B83E0700EA31247AF7001EB60051239
:10590300256680047A007B000254B37F03020E1ADB
:10591300E41259182212591C2212584C024A04123A
:105923004B498E828F83A3A302510274F2120AA8F9
:1059330074FD1211048A088B09ECFEEDFF890A75C8
:105943000B0174011213447404125E577001EB606F
:1059530032EA125E52EB1248CF740388828983F0D5
:10596300A3E50AF0EE88828983A3A3F0EF888289F6
:1059730083A3A312466DE508F0A3E509F01213BA59
:10598300E9F50BA90B023221125990A322E0FC8AFC
:10599300828B83A3A32274EC120AA874F512110458
:1059A3008A0C8B0D89108C0A8D0B741F121344E023
:1059B300F5117420121344E0F50EA3E0F50F7E01F8
:1059C300EE121344740AF0E97007E511C333240A95
:1059D300F0851882851983AA82AB8312160C8A0874
:1059E3008B09EA7001EB7003025A8F125E9D7409F2
:1059F300125B854511125B9FAC0AAD0B125B6DE523
:105A030010702D7C008023ECC333F8E433F9E50EEA
:105A130028F8E50F39F988828983125B9C8882898B
:105A2300831240D8F0A30EAF830CECC3951140D77B
:105A3300E5082417F582E509125A9BE508241AF5AF
:105A430082E5091254A07403121344AC82AD83AAF5
:105A53000CAB0D122464E96021E508125A96E5099E
:105A630012554A7403121344A882A983E508241823
:105A7300F582E509123FDA125255850882850983BA
:105A8300125B92AA08AB091213BAE9FEEEF9740B82
:105A9300025B652416F58222125543F01215B222D9
:105AA300FEA3E03400FF8E828F83E02274EC120A9F
:105AB300A88A0C8B0D89118C0E8D0F74141213444C
:105AC300E0F5107415121344125B5D900D29E0701C
:105AD30002A3E06078E510C333F508E433F50974F5
:105AE3000E2508FAE43509FB121ADA8A128B13AE73
:105AF30012AF13EE7001EF605474D48E828F83F073
:105B0300125B928E828F83A3A3A3A3E511F0AC0E45
:105B1300AD0FEE2405FAEF125B56EE240D123FD7BC
