:020000040000FA
:060000000212BD0207FB25
:03002B000225F5B6
:0300330002106751
:030043000210EDBB
:03004B00020FA5FC
:0300530002074D54
:03005B00020FB4DD
:03006300020FC0C9
:03006B0002104D33
:1000830002079701010503010F03000300030003A7
:10009300000300030003000300030005000A00142B
:1000A3000028004F009E0000001C181C181C181C80
:1000B30018D816D2161C18B02700000000EC260032
:1000C3000000000C0000000C00010000901900006B
:1000D300000000002C1A0000000000007219AD049B
:1000E300FF01010100F20C000000650DE80364004C
:1000F3006400B8010202000800000501071E0205A2
:100103001E0A03B80B01FFFF023202020612FF06AA
:100113000014E914000000B023B623BC2300000040
:1001230000000000000000000000000000000000CC
:10013300000000000010202020202020202020206C
:10014300202020202020010C040100000001558301
:1001530001578330313233343536373839414243EE
:1001630044454600286E756C6C20706F696E74652B
:1001730072290030313233343536373839616263AE
:10018300646566003F3F3F000000803FF902155061
:10019300B743BA510000204100E7DB2E0000A04026
:1001A30010000000080000001212DC604612130960
:1001B300603DE9687008F618F618F618F6227480A0
:1001C30067F71201DF090909748067F7221213091F
:1001D300601D1212DC7005191919801A1211307082
:1001E3001F121184C37003E66733191919400718E6
:1001F30018182208080874FFF618F618F618F622DD
:100203001211846017121330702192F012133A7096
:1002130019501720F014080808090909E7F61819F6
:10022300E7F61819E7F61819E7F62212133A60E60B
:10023300E869701F0808E62480F608E436F61854C7
:100243007FB47F0CE654806007F6E418F618F622B4
:10025300181822E9C6CC08C6CD08C6CE08C6CFC03A
:10026300E0E8C0E0EAC0E0EBC0E009E9F809E7FA3A
:1002730009E7FBE6F918E6F8C3EC98ED99EE9AEB7B
:10028300C2E7F5F0EFC2E795F0500E600CEBCFFB41
:10029300EACEFAE9CDF9E8CCF8EAA2E7D2E7FAEB3D
:1002A30033FB13F5F0EEA2E7D2E7FEEF33FFC5F021
:1002B30013A2E730E601B313C5F0C3C0E0C0F07F7B
:1002C30000C39BFB605B9418600C401AD0E023F9D9
:1002D300D0E0F80203AE8AF0E9486003D2F0E4AF5D
:1002E300F0FAF9F8803BEB30E40D89F0EA6003D2D1
:1002F300F0E4AFF0F9CAF8EB30E30D88F0EF6002F9
:10030300D2F0AFF0E4CAC9F8EB54076014FBC3EAB8
:1003130013FAE913F9E813F8EF135002D2E0FFDB05
:10032300EDD0E0C0E030E739C3E49FFFF5F0EC988F
:10033300FC42F0ED99FD42F0EE9AFE42F0D0E0F976
:10034300D0E0F8E5F0607AE923F9EE20E742D8023D
:100353008067C3EF33FFEC33FCED33FDEE33FE80F8
:10036300EAEC28FCED39FDEE3AFED0E023F9D0E0CB
:10037300F84002801BC3EE13FEED13FDEC13FCEFFC
:10038300135002D2E0FF08B800067F7F74FF802E6F
:10039300EF3350178CF020F00260100CBC000C0DF2
:1003A300BD00080EBE000408E860DFE933E813FF70
:1003B300EE2313FE4F4D4C8008E95480FFE4FEFD0D
:1003C300FCEE33EF33F47004FCFD7E80D0E0FBD011
:1003D300E0FAD0E0F8D0E0CFC618CEC618CDC618E4
:1003E300CCC6F9221213097004181818221212DC51
:1003F300700D74FFF61819F61819F61819F622E796
:10040300548066F612133A700F12133070F014F61C
:1004130008F608F608F680D1121330700CF608F6C9
:1004230008768008E6447F80EC121187700C121165
:100433003360BFE65480F6E480BB121133700519B4
:10044300191980A5E869700C763F18768018F6189C
:10045300F6E8F922E6CDC0E018ECC0E0E633CD3390
:10046300CDD313F6E719FCE7191933CC33C3947FC3
:10047300400ECD9D502408E65480F6E418F6800F14
:10048300F4043D14501408E6447FF6187680E4180B
:10049300F618F6D0E0FCD0E0FD22CCD313CCFD1847
:1004A300E4C6CBC0E018E4C6CAC0E00808ED08C63D
:1004B30033E613F618E433C675F003C3CA97CA09C3
:1004C300CB97CB199C40047D08802EBD0003020509
:1004D3009016B6FF050606081618C3CA33CACB33EF
:1004E300CB33CA27CA09CB37CB193CC37D08803E1F
:1004F300187D0820E75CC633C6CA33CACB33CB3377
:10050300DDF1D5F0EB30E77BCA97CA09CB974ACB2D
:10051300199C406F4B7025E620E0218066187D080A
:10052300C3CA97CA09CB97CB199CD3C633C6CA3360
:10053300CACB33CB3350C9DDE7D5F0E1D3E4C636BC
:10054300C608C636C608C636C608C636C61818183C
:100553008031C3CA97CA09CB97CB199CB34097C6BE
:1005630033C6CA33CACB33CB33DD34D5F02EC6A260
:10057300E0C640C8CA27CA09CB37194A70BECB3C6C
:10058300B480B90808E63308E633601F181818D09A
:10059300E0FAD0E0FBD0E0FCD0E0FD22187D08CAF1
:1005A30027CA09CB37CB193CD3808013F618E4B69E
:1005B3007F11F618B6FF0EF618C60470D208087637
:1005C3008080CAF618F618F680C500121309604F2A
:1005D3001212DC6012E7548066F6121130701112A9
:1005E3001330703B090909F4F618F618F618F622C9
:1005F300121184701512133A08080860EAE6447F62
:10060300F618768018E4F618F62212133A601612DA
:1006130013307012E4F608F608F608E65480F6097B
:10062300090918181822EAC0E0EBC0E0ECC0E0EDBD
:10063300C0E0E687F0A4FBACF008E687F0A42CFC4E
:10064300E435F0FA1809E687F0A42C4B6002740134
:10065300CA35F0FCE433FB09E687F0D2F7A42CCBD0
:1006630035F0FC1908E687F0A42BCC35F0FBE43316
:10067300FD0819E687F0D2E7A42C4ACB35F0CD3438
:1006830000FC09E687F0D2E7A42DCC35F0FDE43376
:10069300FA0918E687F0D2F7A42CCD35F0CA340056
:1006A300FC08E687F0D2E7D2F7A42ACC35F07A7EAD
:1006B30020E70B0ACB33CBCD33CDCC33CC33CB3389
:1006C30050147004ED30E00ED2F1E4CD3DCDCC3CBE
:1006D300CC3B5005DA05C2F1EB547FC63308E63351
:1006E30092F0FBE73309E733C39A502D2B70190CB3
:1006F3000D4C4D70151806E608C333700D20F10A32
:10070300A2F013F6E418800B4024E4F630F00276EE
:100713008018F618F618F68024D33B14501074FF93
:10072300A2F013F6187680E418F618F6800FA2F0FC
:1007330013F618E63303F618ECF618EDF6D0E0FDE1
:10074300D0E0FCD0E0FBD0E0FA22C0E074F2120B60
:100753000EE5A7FAE5A1FBEA5B541060081220DA64
:1007630053A1EF802AEAA2E0C0D0EBA2E092F012FC
:1007730011FA158182F05017906198E0FA9010E118
:10078300E0C39AA2D265D0335002EAF053A1FE7FB0
:1007930001020C1CC0E074F2120B0E9061A4E0FA8B
:1007A300759B00E5915A540860087591F712211C56
:1007B300802AE5915A541060087591EF1221228026
:1007C3001BEAA2E0C0D0E591A2E092F01211FA1563
:1007D3008182F05007E0C2E0F01222489061A3E06A
:1007E300FAE5E95A5404600E12221E75E9FB906182
:1007F30093E0A2E640F28097C0E074F2120B0E90F1
:1008030061A5E0FAE5BF5A5404600653BFFB122208
:1008130060020792C3E498F8E499F9120858802615
:10082300C3E49AFAE49BFBE920E7E9120858E49849
:10083300F8E499F922C3E498F8E499F9120858E422
:1008430098F8E499F9C3E49AFAE49BFB22EB20E7D6
:10085300CFE920E7E0B90010BB0008E88AF084F88C
:10086300AAF022E4FBC8FA22EB70227B10C833C83B
:10087300C933C9335007C39AC3DBF280069A5001C8
:100883002ADBEAC833F4C8C933F4C9FA2275F0087D
:10089300E4C833C8C933C933C99AC99B5004C92AA8
:1008A300C93BD5F0ECFBC833F4C8E4C9FA221208FB
:1008B300F120F01430E72B74FFFCFBFA747F8022E5
:1008C300E4FCFBFA7480801AB48008BC00F2BB001D
:1008D300EF800F50EBF9E4C39AFAE49BFBE49CFC32
:1008E300E499C6CC18C6CB18C6CA18C6F922E4C9FF
:1008F300C608CAC608CBC6D3330308CCC63392F0A6
:10090300C3947F402E94184019C9B90704CACBCCAD
:10091300225025C309CA33CACB33CBCC33CC33D90A
:10092300F422F4600DC9CCC313CB13CBCA13CAD9B9
:10093300F6CC22E4FCFBFA2214FCFBFA220808089A
:10094300EAC0E0EBC0E086F0E7A4FA180986F0E716
:10095300A42AFA180986F0E7A42AFA180986F0E708
:10096300A42AFA1986F0E7A4FBE5F02AFA19088607
:10097300F0E7A42BFBE5F03AFA190886F0E7A42B7D
:10098300FBE5F03AFA18180986F0E7A4C5F02BFB4B
:10099300E43AFA1908E7C5F0C6A426F6E5F03BFBEE
:1009A300E43AFA1886F0E7A4F6E5F00826F6E43B05
:1009B30008F6E43A08F6D0E0FBD0E0FA220808088B
:1009C300E630E7111211991209D8080808C64480C5
:1009D300C618181822181818E9799EC608CAC60836
:1009E300CBC608CCC6C370207996CACBCC70197914
:1009F3008ECBCC70137986CC700EF9802ACA33CA99
:100A0300CB33CBCC33CC331930E7F2CCCBCA335016
:100A1300147004EA30E00DE4CA3ACACB3BCBCC3CB9
:100A2300CC500209C3E913C6CC182313C6CB18C68E
:100A3300CA18C6F922E4CFC0E0E4CEC0E0E4CDC0DA
:100A4300E0E4CCC0E075F020C3E633F608E633F605
:100A530008E633F608E633F6181818EC33FCED33E2
:100A6300FDEE33FEEF33FFC3EC9709ED9709EE97E5
:100A730009EF97191919400FFFEC97FC09ED97FD42
:100A830009EE97FE191906D5F0BEECF709EDF70943
:100A9300EEF709EFF7191919D0E0FCD0E0FDD0E02B
:100AA300FED0E0FF222518C582C0E0E51934FFC55A
:100AB30083C0E0E518C3958224F8F8E4C5A88583CC
:100AC30019858218C5A8E8CEF0A3E520F0A378081D
:100AD300E608F0A3DEFAEFF0A3E58124FAF8E608CE
:100AE300F0A3E608F0A3E608F0A30808E608F0A3DD
:100AF300E608F0A315811581D0E0FED0E0F815815A
:100B030015811581E8C0E0EEC0E022C0D02518C5EC
:100B130082C0E0E51934FFC583C0E0E518C39582C0
:100B230024F310AF088583198582188008858319FB
:100B3300858218D2AFC8F0A3E9F0A3EAF0A3EBF0E3
:100B4300A37908E709F0A3D8FAECF0A3EDF0A3EE3C
:100B5300F0A3EFF0A3D0E0F0A3D0E0F0A3D0E0F057
:100B6300A3E520F0A3E5F0F0A322121325B90003B7
:100B7300020BAFE490030178F779128002F0A3D857
:100B8300FCD9FA9014F7AA82AB8390008678267971
:100B9300028015E493A3AC82AD838A828B83F0A396
:100BA300AA82AB838C828D83D8E9D9E7758281755C
:100BB30083FC7402120D997582F0758325740012FB
:100BC3000D9912119C181818120A3812126C19195F
:100BD300192212126C191919080808E61818182096
:100BE300E7E0120A3812119C18181822090909E7BC
:100BF30019191920E7DC080808E618181820E70374
:100C0300020A3812119C181818120A3812119C186B
:100C1300181812126C19191922851983851882E084
:100C2300C0E0A3E0F9A3E0FAA3E0FBA37808E0F6B1
:100C330008A3DFFAE0FCA3E0FDA3E0FEA3E0FFA32B
:100C4300E0C0E0A3E0C0E0A3E0F5D0A3E0F520A37B
:100C5300E0A3F5F0E4C5A8858319858218C5A8D05B
:100C630082D083D0E0F8D0E032121309601C121254
:100C7300DC601712133A70071213307001D322C0CD
:100C8300D01213307006D0D0B322C32233D0D05049
:100C93001430E0F6C3E7960809E7960809E79608D3
:100CA30009E796B32220E0D5E6970809E6970809F5
:100CB300E6970809E697B322121309601B1212DCA8
:100CC300601612133A7007121330600CB322C0D0AF
:100CD3001213307005D0D022C32233D0D05013303A
:100CE300E0EBC3E7960809E7960809E7960809E7E2
:100CF300962220E0E4E6970809E6970809E69708B4
:100D030009E69722D083D082ECC0E0EDC0E0E49303
:100D1300A3FCE493A3FDED4C600D120DDBEC24FF6B
:100D2300FCED34FFFD80EFE493A3FCE493A3FDED1E
:100D33004C600D120F50EC24FFFCED34FFFD80EFEF
:100D4300D0E0FDD0E0FCE493A3C0E0E493C0E02254
:100D5300D083D082E9C0E0E493A3C386F0C5F095C5
:100D6300F0F908E493A386F0C5F095F0700BE493D3
:100D7300A3C3994005E9048002A3E475F002A42506
:100D830082F582E5F03583F583D0E0F9E493A3C0DF
:100D9300E0E493C0E022F5F0E59F5407C0E0E59F4F
:100DA30054F845F0F59FE473859FF053F0F8D0E0D5
:100DB30045F0F59F22D083D082E59F5407C0E0E43D
:100DC30093C0E0740193C0E07402935407F5F0E517
:100DD3009F54F845F0F59F22C0E0C3E4939608744E
:100DE30001939618400FE4936670080874019366A4
:100DF3001870007019A3A3C3E49396087401939623
:100E030018A3A3400DD0E0D0E0D0E0020D43A3A38C
:100E1300A3A3A3A3D0E022851983851882E0A3FEB0
:100E2300E0A3F5207808E0A3F608DFFAE0A3FFE0EB
:100E3300A3C0E0E0A3C0E0E0A3C0E0E0A3C0E0E023
:100E4300A3C0E0E4C5A8858218858319C5A8D0830B
:100E5300D082020DABC0E0C0D0EAC0E0C082C08344
:100E6300900490E004F0C394644002E4F0E0C0E036
:100E7300900491E0FAD0E0C39A4004D2808002C289
:100E830080D083D082D0E0FAD0D0D0E032D083D0EB
:100E930082C5F0E493A3C5F0C395F0F5F0E493A302
:100EA300C395F04005E5F0048001E475F002A42544
:100EB30082F582E5F03583F583E493A3C0E0E49300
:100EC300C0E0227404800474028000CCC0E0EDC052
:100ED300E0E518C39CCCAD1950011D10AF068C186A
:100EE3008D1980068C188D19D2AF120FEED0E0FD4C
:100EF300D0E0FC2274028000CCC0E0EDC0E0E51835
:100F0300C39CCCAD1950011D10AF068C188D1980F0
:100F1300068C188D19D2AF120FCCD0E0FDD0E0FCB7
:100F23002212130960251212DC602012133A700397
:100F3300021330080808E76670101819E766700A8C
:100F43001819E76670041819E76622F422C0E0C096
:100F5300F088F0E4936670080874019366187000D3
:100F6300A8F0A3A3700BD0F0D0E0D0E0D0E0020D46
:100F730043A3A3D0F0D0E022D083D082CCC0E0E45E
:100F830093A3600612100F1470FAE493A360061281
:100F9300111A1470FAD0E0FCE493A3C0E0E493C008
:100FA300E022C0E074F2120B0E1220087F01020C43
:100FB3001CC0E074F2120B0E12200E80EFC0E0741E
:100FC300F2120B0E12201480E3CAC0E0E493A3C50F
:100FD30082CCC582C583CDC583F0A3C582CCC5822F
:100FE300C583CDC583DAE5D0E0CA22CAC0E0E0A359
:100FF300C582CCC582C583CDC583F0A3C582CCC5CC
:1010030082C583CDC583DAE6D0E0CA22C0E0E4938B
:10101300A3D39C5010E493A3C39C400AD0E0D0E038
:10102300D0E0020F98A3A3A3D0E022700908080818
:10103300226016181818C6C333C608C633C608C6B6
:1010430033C608C633C6D5E0EA22C0E074F2120BF9
:101053000EE589A2E15003121F3C758900C2C57FCA
:1010630001020C1CC2E8322518F58210AF08F518EE
:10107300400215198008F51840021519D2AF8519D9
:1010830083227404800A740380067402800274014C
:10109300C0E0F40412106AD0E012131822C0D02565
:1010A3001810AF08F518500205198008F5185002FA
:1010B3000519D2AFD0D022BB0102E722C082C08380
:1010C30089828A83BB0003E08002E493D083D082C9
:1010D300226016080808C6C313C618C613C618C666
:1010E30013C618C613C6D5E0EA22C0E074F2120B89
:1010F3000EC2C0E5D1A2E4500312204A7F01020CC4
:101103001C251810AF08F518400215198008F518AA
:1011130040021519D2AF22C0E0E493A36C7009D04A
:10112300E0D0E0D0E0020F98A3A3D0E02218181873
:10113300E6084608700AE608C3337005E633F4226E
:101143000822C3E7960809E7960809E7960809E71E
:1011530096A2D265D03322C3E09608A3E09608A3F3
:10116300E09608A3E096A2D265D03322E066701021
:1011730008A3E066700A08A3E066700408A3E066AB
:1011830022191919E7094709700AE709C3337005DA
:10119300E733F4220922181818E4C396F608E496F4
:1011A300F608E496F608E496F622C3E096F008A360
:1011B300E096F008A3E096F008A3E096F022E62775
:1011C300F60809E637F60809E637F60809E637F6BA
:1011D30022E026F608A3E036F608A3E036F608A3D5
:1011E300E036F622E026F008A3E036F008A3E03666
:1011F300F008A3E036F022C0E0E8C0E0E58124FC7B
:10120300F8E6A2E7D0E0F8D0E022E056F608A3E043
:1012130056F608A3E056F608A3E056F622E657F67C
:101223000809E657F60809E657F60809E657F622CD
:10123300E647F60809E647F60809E647F60809E629
:1012430047F622E056F008A3E056F008A3E056F074
:1012530008A3E056F022700422600D18C6C333C6FB
:1012630008C633C6D5E0F41822E4C397F709E49718
:10127300F709E497F709E497F722600D08C6A2E798
:1012830013C618C613C6D5E0F322C6F4C608C6F4BF
:10129300C608C6F4C608C6F4C622C3E7960809E71B
:1012A300960809E7960809E79622C3E09608A3E0A3
:1012B3009608A3E09608A3E0962275D000758140B6
:1012C30075180175190300020B6D600C08C6C31372
:1012D300C618C613C6D5E0F422E7094709C3134766
:1012E30009336002E733F422E6F008A3E6F008A32B
:1012F300E6F008A3E6F022E0F608A3E0F608A3E090
:10130300F608A3E0F622E6084608C313460833604E
:1013130002E633F422CAC0E0E6F0A308DAFAD0E02A
:10132300FA2274F855C74401F5C7790122E7C3339C
:1013330019471947194722E6C33318461846184672
:10134300222518F582E43519F58322120DB83EB62D
:1013530001120DB8A0B601120DB83AB701120DB8BB
:1013630081B701120DB81CB801120DB8C9B801122A
:101373000DB807B901120DB877B901120DB8C2B98A
:1013830001120DB8FBB901120DB829BB01120DB83A
:101393005ABC01120DB8B9BC01120DB802BD01123D
:1013A3000DB82ABD01120DB8ADBD01120DB82FBE87
:1013B30001120DB8A4BE01120DB8B5BE01120DB8CD
:1013C3002BBF01120DB8DDBF01120DB81FC00112F2
:1013D3000DB8A5C001120DB8ECC001120DB835C18E
:1013E30001120DB8BEC201120DB878C401120DB8B6
:1013F300C2C401120DB8A6C501120DB8A0C70112CF
:101403000DB8AAC701120DB8B4C701120DB8BEC7F3
:1014130001120DB8C8C701120DB8D2C701120DB819
:10142300DCC701120DB8FDC701120DB821C80112A6
:101433000DB845C801120DB8A4C801120DB8F3C800
:1014430001120DB811C901120DB881C901120DB8ED
:10145300BEC901120DB80CCA01120DB86FCA011230
:101463000DB81DCC01120DB88FCC01120DB8AFCE43
:1014730001120DB8D4CE01120DB814D001120DB85B
:1014830053D001120DB899D001120DB877D10112C2
:101493000DB8DED101120DB80FD201120DB812D260
:1014A30001120DB8082A00120DB8542A00120DB803
:1014B3002F2C00120DB86D2C00120DB8B92C001290
:1014C3000DB85E2D00120DB8C42D00120DB80F2EED
:1014D30000120DB8302F00120DB8C72F00120DB82F
:1014E300D33200120DB8533300120DB84A34001230
:1014F3000DB8EF3400120DB8053600120DB82539BA
:1015030000120DB8D83900120DB8023A00120DB806
:10151300E83A00120DB8B93B00120DB8503C001266
:101523000DB89A3C00120DB8C73C00120DB8E93C47
:1015330000120DB8EC3E00120DB8C13F00120DB8F9
:101543000E4000120DB87D4000120DB82B41001261
:101553000DB8604100120DB8AE4100120DB8E34161
:1015630000120DB83B4200120DB8954200120DB89F
:10157300154300120DB87F4300120DB80344001247
:101583000DB8644500120DB8254600120DB8514739
:1015930000120DB8DF4800120DB87D4900120DB8D6
:1015A300844A00120DB8144B00120DB85B4B0012A5
:1015B3000DB8D54C00120DB8E94C00120DB8F64C1D
:1015C30000120DB82A4D00120DB8364D00120DB899
:1015D300544D00120DB84A4E00120DB8814E001240
:1015E3000DB88E4E00120DB8EC4E00120DB85A4FC6
:1015F30000120DB8585000120DB83A5100120DB830
:10160300D35100120DB84A5200120DB861520012A4
:101613000DB8855200120DB8A35200120DB8E7524F
:1016230000120DB8285300120DB8935300120DB8D1
:10163300A95400120DB8B25500120DB8825600120B
:101643000DB8ED5600120DB89B5700120DB8C157D7
:1016530000120DB8A65800120DB8C55800120DB8E7
:10166300345900120DB8AD5900120DB8D9590012F2
:101673000DB8245A00120DB8845A00120DB8EA5A54
:1016830000120DB84A5B00120DB832B603120DB842
:101693007DB603120DB8898401120DB8EA840112D4
:1016A3000DB84A8501120DB89B8501120DB8B68598
:1016B30001120DB8E68501120DB8078601120DB8A7
:1016C300138601120DB8548701120DB872870112E7
:1016D3000DB8DB8701120DB8EE8701120DB805882E
:1016E30001120DB8988801120DB8978901120DB82F
:1016F300938A01120DB8158B01120DB81F8B0112BD
:101703000DB8828B01120DB8938B01120DB8D68BD5
:1017130001120DB81D8C01120DB8538C01120DB8B6
:10172300898C01120DB8A78C01120DB8CB8C011254
:101733000DB80C8D01120DB8FF8D01120DB8458E39
:1017430001120DB8808E01120DB8DD8E01120DB895
:10175300058F01120DB83E8F01120DB84C8F011287
:101763000DB8AD8F01120DB8EA8F01120DB82C9090
:1017730001120DB85D9001120DB8919001120DB8D0
:101783009C9001120DB8BA9001120DB8829101120A
:101793000DB88C9101120DB8CB9101120DB8E191E6
:1017A30001120DB8EA9101120DB8549201120DB84D
:1017B300689201120DB8609301120DB87393011270
:1017C3000DB8889301120DB8289401120DB88C94AA
:1017D30001120DB84F9501120DB85A9501120DB8AB
:1017E300799601120DB8959601120DB8ED96011276
:1017F3000DB8249701120DB83E9701120DB87D97CD
:1018030001120DB8989901120DB8029A01120DB880
:101813006D9A01120DB8C49C01120DB8D49C01122B
:101823000DB8D79C01120DB8E39C01120DB8F79CBB
:1018330001120DB8FF9C01120DB8349D01120DB8B1
:10184300E29D01120DB8529E01120DB8B69E01120F
:101853000DB84F9F01120DB8E99F01120DB810A0EA
:1018630001120DB8A0A001120DB8ACA001120DB861
:10187300DBA001120DB8FDA001120DB824A10112C5
:101883000DB88AA101120DB8F4A201120DB8F7A286
:1018930001120DB86EA301120DB85AA401120DB8AE
:1018A30032A501120DB8BCA501120DB8F1A60112A3
:1018B3000DB8A3A701120DB8DCA701120DB80DA82E
:1018C30001120DB816A801120DB802A901120DB824
:1018D3007EA901120DB80BAA01120DB8D5AA0112E7
:1018E3000DB859AB01120DB88FAB01120DB8D8ABBF
:1018F30001120DB8F3B502120DB805B602120DB8F8
:1019030078B602120DB8AEB602120DB805B70212C0
:101913000DB8BFB802120DB8A0BA02120DB89EBD21
:1019230002120DB8DBBD02120DB8F5BD02120DB8DF
:1019330057BE02120DB893BE02120DB8CFBE0212EB
:101943000DB809BF02120DB89F9E03120DB8BD9EBC
:1019530003120DB8C0A703120DB8DFA703120DB809
:101963002AA803120DB874A803120DB817A90312FD
:101973000DB82BA903120DB857A903120DB853AA1A
:1019830003120DB88AA403120DB8C8A503120DB82B
:10199300D7E202120DB85EE302120DB868E3021239
:1019A3000DB88FE302120DB8A3E302120DB8FBE3E7
:1019B30002120DB82BE402120DB820E502120DB885
:1019C300E5E502120DB837E602120DB881E6021200
:1019D3000DB8BEE602120DB821E702120DB864E796
:1019E30002120DB8DBE702120DB835E802120DB88A
:1019F30008A103120DB821A103120DB8BCA1031253
:101A03000DB86BA203120DB898A203120DB8DF8DA7
:101A130003120DB8678E03120DB8728E03120DB840
:101A2300978E03120DB850F601120DB853F601123A
:101A33000DB816F701120DB844F701120DB886F769
:101A430001120DB8ABF701120DB8CBF701120DB8A7
:101A530001F801120DB84BF801120DB863F9011228
:101A63000DB892F901120DB8B3F901120DB80BFAC2
:101A730001120DB8C2FA01120DB806FB01120DB81E
:101A830048FC01120DB8DEFC01120DB8F2FD011283
:101A93000DB841FE01120DB86AFE01120DB831FFF7
:101AA30001120DB85CFF01120DB88EFF01120DB8C3
:101AB3006AAC02120DB874AC02120DB8C0AC0212BB
:101AC3000DB830AD02120DB84DAD02120DB80FAE08
:101AD30002120DB8C4B002120DB8CDB002120DB887
:101AE30023B102120DB84EB102120DB8B3B10212F6
:101AF3000DB84FB202120DB88CB202120DB8DDB29E
:101B030002120DB844B302120DB8C6B302120DB8D7
:101B130013B402120DB845B402120DB87AB402120E
:101B23000DB88AB402120DB89AB402120DB8B9B442
:101B330002120DB886B502120DB8BFB502120DB868
:101B4300A1B003120DB8009F03120DB8649F0312D6
:101B53000DB88B9F03120DB891A003120DB800802E
:101B630002120DB8E58002120DB8208102120DB8E1
:101B7300CF8202120DB8138302120DB8CB84021266
:101B83000DB8128502120DB8EB8502120DB87886D6
:101B930002120DB8048702120DB85C8702120DB849
:101BA3009F8702120DB8348902120DB8A68A021259
:101BB3000DB8CE8C02120DB8D88C02120DB8358D2B
:101BC30002120DB8898D02120DB890AF01120DB833
:101BD300D9FF02120DB8008003120DB8188003124A
:101BE3000DB8C08003120DB8018103120DB81E8118
:101BF30003120DB8448103120DB88B8103120DB883
:101C0300C48103120DB8F88103120DB88A8303123D
:101C13000DB887B603120DB825A603120DB892A608
:101C230003120DB8A9A603120DB8EEA603120DB840
:101C330005A703120DB89CA703120DB8A6A703129C
:101C43000DB822B601120DB829A102120DB8DAA1FE
:101C530002120DB867A202120DB8B6A202120DB895
:101C630013A302120DB827A302120DB8F7A4021290
:101C73000DB876A502120DB8A0A502120DB850A793
:101C830002120DB86BA702120DB8ACA702120DB861
:101C9300DFA702120DB838A802120DB854A8021219
:101CA3000DB8B8A802120DB841AA02120DB871AA54
:101CB30002120DB89AAA02120DB8FAAA02120DB8AE
:101CC30014AB02120DB817AB02120DB81AAB021205
:101CD3000DB88CAB02120DB8AEAB02120DB8C1AB8E
:101CE30002120DB828AC02120DB85BAC02120DB88B
:101CF3003AB503120DB846B503120DB890B50312E9
:101D03000DB867CF02120DB8B8CF02120DB87BD150
:101D130002120DB849D302120DB893D302120DB8B3
:101D2300CCD402120DB81BD602120DB839D602124A
:101D33000DB88DD602120DB815D702120DB899D26F
:101D430001120DB8C4D201120DB87DD301120DB822
:101D53000BD401120DB871D401120DB8BDD4011208
:101D63000DB82AD501120DB8BFD501120DB843D64F
:101D730001120DB87FD601120DB863DA01120DB846
:101D83000EDC01120DB837DC01120DB8F5DC0112BF
:101D93000DB8B4DD01120DB8DEDE01120DB840E05E
:101DA30001120DB8BBE001120DB8E6E101120DB846
:101DB30045E201120DB88CE301120DB801E40112E2
:101DC3000DB8A8E401120DB864E501120DB8DEE503
:101DD30001120DB8F6E501120DB892E601120DB825
:101DE300D5E601120DB8D1E701120DB8FDE70112D6
:101DF3000DB868E801120DB8BAE801120DB817E979
:101E030001120DB84EEA01120DB8E8EA01120DB83D
:101E130064EB01120DB8DBEC01120DB883ED011276
:101E23000DB82AEE01120DB886EE01120DB8FCEEC4
:101E330001120DB81AF001120DB8DBF101120DB841
:101E4300F1F201120DB88EF301120DB807F401126D
:101E53000DB80CF501120DB804ED02120DB87AEDB0
:101E630002120DB8D3ED02120DB831EE02120DB805
:101E73006DEE02120DB8F6EE02120DB839EF021232
:101E83000DB87DEF02120DB806F002120DB80BF07B
:101E930002120DB881F002120DB82B9803120DB87F
:101EA300789803120DB8279903120DB88D99031270
:101EB3000DB8FE9903120DB872FD02120DB8CFFDD5
:101EC30002120DB840FF02120DB8C7AB03120DB8D2
:101ED30001AC03120DB8C7AC03120DB809AD031260
:101EE3000DB817AD03120DB80BB803120DB85CB3E0
:101EF30003120DB86CB303120DB88DB303120DB8F2
:101F0300F5B303120DB871AF03120DB898AF0312F6
:101F13000DB821B003120DB888B003120DB8DD9EC1
:101F230003120DB83DAE03120DB859AE03120DB82E
:101F3300BEAE03120DB8EEAE03120DB852AF0312CC
:101F43000DB84E9303120DB86E9303120DB88F9311
:101F530003120DB8AE9303120DB8B69303120DB866
:101F6300DC9303120DB8199403120DB842940312B3
:101F73000DB88F9403120DB8D79403120DB849D737
:101F830002120DB863D702120DB86CD802120DB845
:101F9300ADD802120DB8C7D802120DB84BD9021230
:101FA3000DB846DA02120DB8B0DA02120DB8BCDA77
:101FB30002120DB8E3DA02120DB80FDB02120DB8EC
:101FC30037DB02120DB84FDB02120DB8A0DB021291
:101FD3000DB85EDC02120DB803F502120DB811F54F
:101FE30002120DB88FF502120DB863F602120DB886
:101FF30097F802120DB8A2B203120DB8DAA20312B7
:102003000DB812A303120DB836A303120DB894A38F
:1020130003120DB8F6A303120DB835A403120DB8BD
:1020230063A403120DB815DD02120DB894DD02127C
:102033000DB844DE02120DB8B5DE02120DB8BBDFD7
:1020430002120DB860E102120DB8C0E102120DB820
:1020530012E202120DB81BE202120DB831E20212B3
:102063000DB843E202120DB855E202120DB8BAE2FE
:1020730002120DB8C4E202120DB84CE802120DB8F8
:102083009FE802120DB8B3EA02120DB8EBEA02128E
:102093000DB810EB02120DB829EB02120DB842EB8A
:1020A30002120DB837EC02120DB8C5EC02120DB8CE
:1020B300939C03120DB8D69C03120DB8E79C031230
:1020C3000DB81A9D03120DB8529D03120DB88A9DC7
:1020D30003120DB8F29D03120DB8259E03120DB81D
:1020E300A29003120DB8CD9003120DB814910312F0
:1020F3000DB8269103120DB8429103120DB8AA919F
:1021030003120DB8B39103120DB8149203120DB854
:10211300389203120DB8029303120DB80F930312F2
:102123000DB8209303120DB8C6B503120DB813B63C
:1021330003120DB82A7C00120DB83D7C00120DB8B5
:102143009B7D00120DB8A87D00120DB8C17D001251
:102153000DB8D47D00120DB8EE7D00120DB80D7EC2
:1021630000120DB88C7E00120DB8587F00120DB806
:10217300B57F00120DB8C57F00120DB89FB40312CE
:102183000DB8C4B403120DB8EDB403120DB815B5F0
:1021930003120DB8C79503120DB8E09503120DB8DD
:1021A300EC9503120DB8F59503120DB819960312A9
:1021B3000DB8259603120DB8349603120DB8529636
:1021C30003120DB8A49603120DB8DE9603120DB8D0
:1021D300139703120DB8629703120DB8AE9703124B
:1021E3000DB8C69703120DB8D09703120DB8E19737
:1021F30003120DB8259803120DB8D7B603120DB804
:1022030047BF02120DB873BF02120DB88FBF02127F
:102213000DB8A2BF02120DB8B8BF02120DB824C088
:1022230002120DB85EC002120DB8CCC302120DB873
:10223300EBC402120DB81CC502120DB87EC5021202
:102243000DB859C602120DB881C602120DB896C652
:1022530002120DB8A6C602120DB8E7C602120DB8D7
:102263003CC702120DB84CC702120DB884AA031260
:102273000DB89FAA03120DB8C9AA03120DB8E6AA96
:1022830003120DB80EAB03120DB830AB03120DB829
:1022930049AB03120DB878AB03120DB893AB03121D
:1022A3000DB866B703120DB83A8703120DB841870C
:1022B30003120DB84E8803120DB8808803120DB8AF
:1022C300A68803120DB8D98803120DB8EB88031240
:1022D3000DB8268903120DB8968903120DB8D38958
:1022E30003120DB8208A03120DB84E8A03120DB8DB
:1022F3006E8A03120DB8869A03120DB8989A0312C8
:102303000DB89C9B03120DB8A2B103120DB800B215
:1023130003120DB83FB203120DB880B203120DB809
:1023230075C702120DB894C702120DB8FAC702128C
:102333000DB882C802120DB80AC902120DB825C918
:1023430002120DB89BC902120DB8BECB02120DB812
:1023530046CC02120DB8D2CC02120DB89ECD021299
:102363000DB81FCE02120DB844CE02120DB8C7CE5F
:1023730002120DB8E4CE02120DB8DCF802120DB849
:102383009DF902120DB80AFA02120DB82FFA0212C1
:102393000DB8F8FA02120DB81FB703120DB823F1E6
:1023A30002120DB888F102120DB8C0F302120DB873
:1023B30005F402120DB808F402120DB829F4021242
:1023C3000DB82CF402120DB863F402120DB8CC8AC6
:1023D30003120DB8F88A03120DB8418B03120DB81E
:1023E3005B8B03120DB8838B03120DB8AA8B0312F8
:1023F3000DB8978C03120DB8A18C03120DB8AE8CD7
:1024030003120DB8BF8D03120DB8C88D03120DB89A
:10241300D18D03120DB8A28303120DB835870312B1
:102423000DB8DCB703120DB8FFB303120DB829B40E
:1024330003120DB8A6B703120DB8D47F00120DB85E
:10244300DAFF01120DB8C79002120DB8949502126B
:102453000DB844AF01120DB807AF01120DB8CCAEE1
:1024630001120DB8A8AE01120DB88DAE01120DB850
:102473001DAE01120DB84BAD01120DB8C0AC011267
:102483000DB8D2B401120DB873B401120DB84FAC2C
:1024930001120DB830AC01120DB836B401120DB8EB
:1024A300BFB301120DB81EAC01120DB8FA7B0012B6
:1024B3000DB8DC7B00120DB87B7B00120DB8B37A2C
:1024C30000120DB8217A00120DB8C77800120DB8AA
:1024D3007A7600120DB8137600120DB8D872001276
:1024E3000DB8B07200120DB8647200120DB84172CB
:1024F30000120DB8587100120DB8007100120DB81A
:102503005C6F00120DB8596F00120DB8516E0012B6
:102513000DB8316E00120DB88A6D00120DB80D6C36
:1025230000120DB8D46B00120DB8D1B201120DB860
:10253300BFB201120DB89BB101120DB8A56B001209
:102543000DB8A26B00120DB8946B00120DB8766B28
:1025530000120DB80BB101120DB8656B00120DB866
:10256300816A00120DB8176A00120DB8E4690012EF
:102573000DB8DBA002120DB868B001120DB88C695A
:1025830000120DB85B6900120DB8826600120DB817
:102593008F6500120DB8256500120DB8E5640012B1
:1025A3000DB8D96400120DB84C6400120DB89A63CB
:1025B30000120DB8C86100120DB83A5F00120DB8D1
:1025C300045F00120DB8A55D00120DB8515D001235
:1025D3000DB87E5C00120DB8E55B00120DB8845B8C
:1025E30000120DB8BE5B00120DB87E900200000011
:1025F30080FBC2C732E473000136360101000102D9
:1026030001000103010001040106060502000007A1
:102613000100340801000F090401010D0100FF0E40
:1026230008000017020000190100FF1A0100011B36
:102633000100FE1C0100081D0200001F0100012013
:10264300010001210200002301000F2402000026E3
:1026530001000127010008280200FF2A0100072BBF
:102663000102402C0100002D0100012E0100012F69
:102673000100FF30010B1C310800003A0100083B48
:1026830001000F2F0100000101710101010101117E
:102693000101013101010101018001100161013BCF
:1026A300001400630173017201620143010001130D
:1026B3000106013D01350004011201000100010082
:1026C30001000104010401330133013C01440132DF
:1026D30001360000010001650100013500810100A0
:1026E300010501820183010001010371030103015B
:1026F3000301030103010322030203010310030087
:10270300030003000300030003000300034203006C
:102713000324030603000300030403120325032316
:1027230003250323030403040300030003000344FA
:102733000300030003230300036503210035038122
:1027430003000305030003000300030302710230C7
:1027530001600211027002010202020202800210F1
:102763000261023A00410063027302720262024391
:1027730002000213023800000200020402120200E7
:102783000200020002000204020402370037003C88
:102793000244020002390000020002650200023511
:1027A3000281020002050282028302000203007119
:1027B30000300160001100700031022003500480DA
:1027C30000100061000000140063007300720062D7
:1027D3000043000000130006000000000004001284
:1027E3000000000000000000000400040037003770
:1027F300003C0244000000000000000000650000EF
:102803000035008100000005000000830000000087
:1028130000030020015C830000000020015B8300B3
:1028230000040042016D810000050042018F810018
:1028330000060042015C810000070020015983006B
:102843000010004203A915000011002003EB14003F
:102853000012002003BA15030000002103EC140644
:102863000000002001EE1436000100060000000FF6
:102873000000000000000000000000000003FFFF54
:1028830000000403FFFF0000FFFF0FF4010005C475
:10289300040320000100000B000000000000000002
:1028A30003010F0000FE1D1300981D0100FE1D0211
:1028B30000561D03005C1D0400621D0500681D0613
:1028C30000741D11008C1D1400921D1500861DFF40
:1028D300FF0000030003000400080010001F003E77
:1028E300007B00F600EC01D703AF075D0FB91E7143
:1028F3003D000003EAF5E5D5D5C5B5A595958585D4
:1029030075756565555545453535252515150532C7
:1029130017621738173E175C1750174A1768176E58
:10292300177417801744172C1726170A1C1502E66D
:102933001405F81407EC140CCE140DDA14FF000080
:102943009C36063A703DD9404344AD47174B814E00
:10295300EA5100160F00000B150B020002220F3282
:10296300000006000102030405060708090A0B0C10
:102973000D0E0F1C182E183418FC163A18F61602F2
:10298300179418B218B8189A18A618A018000119A5
:1029930016181616152303000C0E020B040B0A0758
:1029A30008000F00034948424D1817250502003857
:1029B3003C3E363B3B352B432C3030171819213026
:1029C3001B1D1F30303016181920231A1C1E3056B9
:1029D300177A17AC1886178C1788184018461852A0
:1029E300184C180005150D0910080400000000001C
:1029F3000000BE040A0E00040015000428090C049C
:102A0300050A080F08C082C083E99003BAF0E49076
:102A1300036EF01222F69003CDE4F0A3F09003BB13
:102A2300F0A3F01216541222FC90033DE4F0A3F03D
:102A33009003DFE07002A3E060099003DF124EB65B
:102A43001225F8902A06E493FA7902122404024329
:102A53007874F2120AA8EAFEEBFF74805FF9E4705F
:102A630001E960619003BAE0F9121AEC8A088B0954
:102A7300EA7001EB60467B0080010BEB75F003A469
:102A8300242EF8E5F03429F988828983E493FA74D3
:102A9300FF6A6021850882850983E06A70DCAA08E1
:102AA300AB0988828983A3E493C0E0740193F5831F
:102AB300D0821225F8AA08AB09121AE0EEFA748044
:102AC3006FFB022C1974105FF9E47001E9601D12A9
:102AD30015768A088B09EA7001EB600A1214DAAAE8
:102AE30008AB09121AE0EEFA741080D4EEA2E0509B
:102AF3001A900373E0640F700B79001214B0E9604D
:102B030003122C2574016EFAEF80B6542070030271
:102B13002BE5750C00123EDE7001EB70107C027D1C
:102B2300007A207B009003BAE0F9121BF47C007951
:102B3300047A007B001215528A088B09800D7401F8
:102B430088828983F0850A08850B09E5087002E508
:102B530009606D7C007904AA08AB091215528A0A30
:102B63008B0B750C01E508240412585C24FFF0A3B9
:102B7300E034FF125A587002A3E070C9E508240933
:102B8300F8E5093400F9850882850983A3A3A3A383
:102B9300A3A3A3A3A3A3E0640170A385088285096B
:102BA30083A3A3A3A3A3A3E054047092740688820F
:102BB3008983F07AB7850882850983122D5280852F
:102BC3001215227C0079017A007B00121552EA70FB
:102BD30001EB7009E50C70057A20124E3F74200258
:102BE3002B0974025FF9E47001E9600A12164EEED4
:102BF300FA7402022AC374045FF9E47001E96012F3
:102C0300124FEC124C4F7901123440EEFA74040265
:102C13002AC37A007B00800574031210A07F06028A
:102C23000E1A9015601243081214C822C082C08382
:102C330074EA121104851882851983AA82AB8379F9
:102C43004B1223DA74081213447402F0740912133A
:102C530044AA82AB8379501223DA741312134412F9
:102C6300530D1223F8741602437574F7120AA874ED
:102C7300E1121104EAFEEBFFEE7001EF60338518F9
:102C830082851983AC82AD8312159A74061213449C
:102C9300E0601E7417121344E0FD7401121344E044
:102CA300FCEEFAEFFB79001224B2E9600479A48008
:102CB3000279000242BC74F6120AA8EAFEEBFF8E08
:102CC300828F83A3A3A3A3A3A3E05440601B124E4C
:102CD300B212504460067AFF7BFF801A8E828F8384
:102CE300124554FAA3E0FB80031215BE74FE6A700A
:102CF3000374FF6B6041124EB2124E9E121618E916
:102D03008E828F836006122D4BE48005122D4B7447
:102D130001F07CB67D148E828F83124D261223FE22
:102D2300E9F5087015EE7001EF60097901EEFAEF2D
:102D3300FB12152E024EA47508CDAA088E828F832E
:102D4300122D52E960DF80ECE0240D12473922E0B6
:102D5300240C124739E0F91214C22274F6120AA89D
:102D6300E9FEEAFF7A0F7B00121ADAEA7001EB60E0
:102D730019740C8A828B83F0EEA3A3F0EF8A828B03
:102D830083A3F0124F3479008034EEF91215588A78
:102D9300088B09A808A909E87001E9601F7406886F
:102DA300828983A3A3A3A3A3A3A312583BA3A3A38F
:102DB300A3A3E0F912147AEEF91215347910024E36
:102DC300ADC082C083900373E0640F7018EA700192
:102DD300EB601290036EE0FC74086C600574046C85
:102DE3007003122DEB024378EAFCEBFD7A017B00C2
:102DF3009003BAE0F9121BEE22125007640222EE8E
:102E03002409F8EF3400F9880A890B2274F2120AB4
:102E1300A874FD1211048A088B09EA2402F50CEB4D
:102E23001248B5F91215588A0A8B0BAE0AAF0BEE8E
:102E33007001EF7003022F18850882850983A3852B
:102E4300820A85830BE064F16014E064CD600FE0D7
:102E5300641A600AE064E96005E064E1701C7900CB
:102E630012152EE960148E828F83A3A3A3A3A3A3B9
:102E7300E04420F0A3E0F0022F02850A82850B8351
:102E8300E0C0E07402121344D0E0F01256E1125A8B
:102E93005D851882851983AA82AB8370051213F0AE
:102EA3008003121600850A82850B83E064F1604F6C
:102EB300E064CD604AE0641A6045E064E16040E0AC
:102EC30064F0603B7402121344E0FC74B76C602F2F
:102ED300122F24750A01780A121091ECF50A780A68
:102EE300121091E508240CF582E5091239D4123841
:102EF300E1FCA3E0FD8A828B831238FB1210A0EE63
:102F03002409122DFC70037406F0850C82850D8351
:102F1300E0F9121534121522901564122C28022C94
:102F23001B8E828F8312461FE8FAE9FB2274F51287
:102F33000AA88A088B09750A00EA24091243EEFEDF
:102F4300E9FF8E828F83122FC17003750A018E826F
:102F53008F83124B527003A3E06B7006E50AD2E134
:102F6300F50AE5082402FEE5093400FFE50A6013CB
:102F73008E828F83E07006E50AD2E58004E50AD2EB
:102F8300E6F50A121618E964017006E50AD2E0F5BF
:102F93000A8E828F83E06017E508241DF582E50918
:102FA3003400122FB764016006E50AC2E0F50AA9EE
:102FB3000A025308124559E0F9121606E922125083
:102FC3004864022274E8120AA874DE121104EAFEAD
:102FD300EBFFEE2404124526E06010901562E070CA
:102FE30002A3E06006901562122C28EE2402F50C71
:102FF300EF12502C7403121344AC82AD8385088204
:103003008509831238D7FAA3E0FB12159AEE241B25
:103013001242C67410121344124C4F740912134413
:10302300E0601C741A121344E0FD7404121344E0AC
:10303300FC124D2079011224B2E960030232AE740E
:1030430003121344AA82AB831214D4E9F50A740958
:10305300121344E0700E900356E06008E9A2E140C9
:10306300030232AEEE2412F514EF3400F515EE240C
:103073002A125A4FEE242EF516EF3400F517EE24DC
:103083002C1239D11235FEE0687003A3E069701E7B
:10309300750B00780B121091780B12109185168224
:1030A300851783E0F91232C31238FB1210A074069D
:1030B300121344E0FA90035CE06A60030232AE74D8
:1030C30009121344E070030231861232C3124D26F3
:1030D3001216728A088B09A808A909E87001E97019
:1030E3000302322774041213441232B8FAA3E034F1
:1030F30000FB740D2AF582E43BF583E0FAE824042F
:10310300F508E9125A52E82403F582E9125A636A70
:10311300601FEAF090834478101212FA85088285C2
:103123000983E510F0A3E511F0A3E512F0A3E5137D
:10313300F07904E91213441232B8FCA3E034008C92
:1031430082F583A3AA82AB83121AC88A0C8B0D8CD7
:103153000E8D0F85088285098378101212FA781074
:10316300790C12129D50030232AE908338780C1200
:1031730011D485088285098312558EA3E50EF0A329
:10318300E50FF090036EE0FA74046A600874096A4C
:1031930060030232AEE50AA2E540030232698516F6
:1031A30082851783E0851882851983F0EE242F1218
:1031B3005A60C0E07401121344D0E0F0EE243012E0
:1031C3005A60C0E07402121344D0E0F07414121376
:1031D30044E064017028740E1213441242CC851427
:1031E30082851583E0687003A3E0697011740C1283
:1031F3001344122FC170077414121344E4F0EE2425
:10320300241239D1120EC67404121344AC82AD8356
:103213007407121344AA82AB831213F674041210B8
:10322300A00232AE9003B3E06401600302318674FE
:103233002012134412455464067009E50AA2E650AD
:10324300030231867410121344E064FF7004A3E098
:1032530064FF6057EEFCEFFD7403121344AA82ABC4
:10326300831214E08045A2E65041742012134412E5
:103273004554FA74046A7018741A121344E0640211
:1032830070297403121344AA82AB831215F4801BB2
:1032930074076A7016741A121344E06404700C7491
:1032A30003121344AA82AB831215EE74221210A0E8
:1032B3007F10020E1AE0FA850C82850D83E02A2224
:1032C30085088285098312454385148285158322E7
:1032D30074F2120AA8EAFEEBFF8C088D09122E0283
:1032E30079008882F583124D261214868A828B8395
:1032F300E5827002E583603DA3A3A3A3A3A3E054E7
:10330300186032E508241BF582E5091239D4120E40
:10331300CAE5082412F582E5091239D4120ECAEE61
:103323002418F582EF1243E91233431214987404FC
:103333001210A080087900123343121462022C2069
:10334300850A82850B83124543EE240B1243012227
:1033530074F6120AA874F71211048A088B099003F1
:103363006EE0FA74036A600D74016A600874096A96
:1033730060030234328508828B83A3AE82AF83E07D
:1033830060030234177C007D007A027B0012230263
:10339300E50824021234351242CC90035F124C4FDD
:1033A30079531223E0790012344090036EE06409EC
:1033B300600990036C124D2612166C7401124ED2E2
:1033C300740490036EF07401121344AA82AB8379E0
:1033D3004A1223DA7401121344AC82AD837A647BFC
:1033E3000312231A90035F12453F7A037B001223D3
:1033F3000290036212453F7A047B0012230290037A
:1034030059E0A2E35004D2F08002C2F0124EBA1285
:103413002C258018FC7D007A037B101223028E82F8
:103423008F83E0F9123440E490036EF01215040226
:103433004EA8FAE5093400FB8A828B832290036C41
:1034430012430812140222C082C08390033DE0702D
:1034530002A3E0704190036EE0120F7B0003016C46
:1034630034057B34068A349934900345E07002A313
:10347300E06076900345806B900341E07002A3E027
:103483006067900341805C900343E07002A3E060B7
:1034930058900343804D90033DE07002A3E0600920
:1034A300123C48FC74016C702379009003BB8009C3
:1034B30009EA125490EB1239D41241A97001EB704E
:1034C300EF9003BB124D261213FC801D74026C7027
:1034D3000512164280139003E1E07002A3E0600935
:1034E3009003E1124EB61225F802437874F4120ADF
:1034F300A874FB1211048A088B097A0F7B00121A35
:10350300DA8A0A8B0BAE0AAF0BEE7001EF7003027F
:1035130035F974028E828F8312530E79501223DA97
:10352300850882850983A3858208858309E0600372
:103533000235E290036C125834700374FF69602FF4
:1035430074FE68700374FF6960258518828519838A
:10355300E0687003A3E069601674EA850882850950
:103563008312390D7A6C7B0379501223E0807085C6
:1035730018828519831235FE124C4F7A5F7B0379CB
:10358300531223DA90035F124C4A7A627B03794B1E
:103593001223DA7A617B0379E11223DA900373E071
:1035A300C3940F5022900361E0C0E07402121344ED
:1035B300D0E0F074041213447401F0740212134443
:1035C300AA82AB831223F2750A00780A121091784B
:1035D3000A121091901580E0F91238F21210A085AA
:1035E30008828509831238C2F0740390036EF0EEEB
:1035F300FAEFFB124F3474050243E112461F9003A6
:103603006C2274EC120AA874ED1211048A828B8363
:10361300A31238C7EA24081243EEFEE9FF85188295
:10362300851983AC82AD838E828F831238E1FAA32E
:10363300E0FB121510851882851983E070708E8265
:103643008F83E0C3940B4066850882850983A3A317
:10365300A3A3A3A3A3A3E06402705390036EE0FAB1
:10366300E5082410F510E5093400F511E5082409EF
:1036730012502874026A603B74066A603690033DF8
:10368300E07002A3E06007123C48640160557408CF
:103693006A600574046A70167402121344E0F974C4
:1036A30007121344AC82AD83124D20121516741306
:1036B30002555F90033DE07002A3E07026750A0097
:1036C300780A121091780A1210918510828511835D
:1036D3001238D7FCA3E0FD8508828509831238FBE5
:1036E3001210A09003BB1258A09003BB125557E5CC
:1036F30008240DF50EE5093400F50F80308E828F16
:1037030083E0F8A31238D7687003A3E06970128EC0
:10371300828F83A3A3E0FA850E82850F83E06A601C
:103723006B8E0A8F0BEE125490EF12589DEE7001C0
:10373300EF70CA7A187B00121B528A128B13AE12D7
:10374300AF13EE7001EF70030236B17C181259CF3C
:10375300124F49EE240C1239D174FFF0E508240B03
:1037630012585C1238B9125A57C41238B9A3A3F0CD
:103773009003BBE07002A3E070059003BB800AE5F1
:103783000A125490E50B1239D41256E7740112133E
:10379300441238D1A3F074021213441238D1F085C5
:1037A3000E82850F831238C2A3F0125875124A6E27
:1037B300240DFAEF3400FB7402121344E064016039
:1037C3000E7407121344AC82AD8312231A80097C52
:1037D300087D0079FF121AC27412121344E0C0E08C
:1037E300EE24151239D1D0E0123904FC901580E093
:1037F300C39C40030236B112584AE5091239D4A3D7
:10380300E05480F9E47001E97009900CE9E0700379
:103813000236B17D00EE240CF8EF3400F9EE240BF0
:10382300FAEF3400FB9003ABE06402701D8A828BD5
:1038330083E0F50AC39C500D7405121344E0C3944E
:1038430005401B801AE50A6C70157405121344E0D9
:10385300C0E088828983E0FCD0E0C39C50010D74F2
:1038630006121344E06035ED6025850882850983DF
:1038730012531CECF0A3ED1239048A828B83F0748B
:10388300051213441245497406121344E0600D7483
:10389300018E828F83A3A3A3A3A3A3F074041213A3
:1038A30044E070030236B174018E828F83A3A3A315
:1038B300A3A3F00236B1540F8E828F83A3A32212E7
:1038C3003AD3A322A3A3E0F508A3E0F50922123A11
:1038D300D3024AFCE0F9850C82850D83E022E0F9EE
:1038E3008A828B83A3A3A3A3A3A3A3A3A3E022906E
:1038F300036C1245439003621243081215D07402FD
:1039030022F0851082851183E022F07A5F7B0379B0
:1039130053123918221223E07A627B03794B122364
:10392300E02274F0120AA874F81211048A0C8B0DA9
:103933008C0A8D0B890E851882851983AC82AD8321
:103943007583827582F07408120FEEF50FAC0CAD1F
:103953000D851882851983AA82AB831255A0700343
:10396300750F019003BB8030AC0CAD0DEE240DFA46
:10397300EF3400125A4B601A850882850983E0658B
:103983000E700F8E828F83E0650A7004A3E0650BCF
:103993006032EE24161239D11242347001EF6024E2
:1039A300EE2402125A4FE50F70BE8E828F83E065BC
:1039B3000A7004A3E0650B70D9850882850983E04A
:1039C300650E70CEEEFAEFFB025010EE240BF5827B
:1039D300EF1258922274F7120AA89003BB12496F90
:1039E300800CEA241612589A121B58EEFAEFFBEADF
:1039F3007001EB70ED9003BBE4F0A3F00242C174DD
:103A0300F1120AA88A088B09ECFEEDFF890A8A8263
:103A13008B831255968A828B83123AD2F0EEF8EF9B
:103A2300F9A30EAF838A828B83A3A3E0C454F0FA75
:103A330088828983E04A123ADE123AD3123AD9E0F5
:103A4300333354FCFA8E828F83E04A123AD9A3E0CF
:103A530033333354F8FA8E828F83E04AF008EFF958
:103A6300A30EAF838508828B83A3A3A3A3A3A3E0A1
:103A7300A2E0E492E013135480FA88828983E04A37
:103A8300F0E5082407F50CEB12502C750E00780CAA
:103A93001210897C081248A91210A0125576E50865
:103AA300240F125028780C1210897C031248A91293
:103AB30010A0E50AC3940F4011E5082412F582E52E
:103AC300091239D41238C2A3A3F07F07020E1AA336
:103AD300E08E828F8322123ADEA322F08508828B46
:103AE30083A3A3A32274F1120AA8EAFEEBFF890AB7
:103AF3008C088D098E828F83E08C828D83124A57C6
:103B0300AE82AF83E0124B0D123BB4C4124B0D12C5
:103B13003BA8E054038C828D83123BB2A2E2E49271
:103B2300E08C828D83123BB1131313541F124B0D80
:103B3300A3123BB1A2E7E492E08C828D83A3A3A3FB
:103B4300A3123BA88E0C8F0D750E00780C121089F2
:103B53007C087D00E5082407123B9F1210A0125534
:103B6300768E0C8F0D780C1210897C037D00E5088E
:103B7300240F123B9F1210A0E5082412F8E5093424
:103B830000F9E50AC3940F400A8E828F83A3A3A38F
:103B9300E08001E488828983F0023ACDFAE50934B2
:103BA300001248AE22A3A3124A5B0EAF8322A3A343
:103BB300A3A3F00254A374F4120AA874F912110413
:103BC300EAFEEBFF90033DE07002A3E06010123CBD
:103BD3004864027009EEFAEFFB12163C8062900310
:103BE3006CE06E7003A3E06F705674016960097A2C
:103BF300807B031255A070487A007B02123EE2706C
:103C030001EB703C90036F78081212FA85188285D5
:103C1300198378081212EB900375E0C0E074041264
:103C23001344D0E0F074051213447401F0740612C7
:103C33001344740212530E1213CCE960981213D278
:103C430074070243E190033D124746E02274F712E2
:103C53000AA88A828B83A3AE82AF83E0F912141A77
:103C63008E828F83E0FA74EB6A600574E16A7002F6
:103C7300E4F0122C2575080178081210918E828FBA
:103C830083E0F508780812109179001238F21210C7
:103C9300A01215220242C174F6120AA89003CCE0C6
:103CA300701F7C0079017A007B00121552EA7001C3
:103CB300EB600E8A828B83E07002A3E06003121430
:103CC300BC024EADC082C083124114401079FF1272
:103CD300154CE9FA902A01E493C39A5004790180C0
:103CE30002790002437874EE120AA88A088B0989C4
:103CF3000D750E00EA2408F50AEB3400F50B850A6E
:103D030082F583E0F91215588A108B11AE10AF11AA
:103D1300750C01EE7001EF6003023DAC85088285EE
:103D23000983A3A3A3A3A3A312453F850A82850BFB
:103D330083124974124D261215408A0A8B0BAE0A60
:103D4300AF0BEE7001EF7003023ED68E828F83A31A
:103D5300A3A3A3E4F0A3F0E508240BFAE5091255A5
:103D6300A5C0E01239CED0E0F012161EEE240C12DC
:103D73004E97750E01EE2406F8EF124123E0547FAF
:103D8300F0A3E054FC123FBC54046003023E3E9097
:103D93001568124968740778081212598A828B834E
:103DA300E04508F0A3E04509F0EE2406F8EF1243DE
:103DB300F0FCE9FD8C828D83124D2674805AF50840
:103DC30074035BF509740778081212CDE508F51042
:103DD300EE2404F50AEF3400F50BEE2409125A4FD2
:103DE300E50D60607402850882850983123BB52462
:103DF3000D124735E0A2E2500F90035A1242CC85D0
:103E03000A82850B83124C4FE5107003023E9D74AA
:103E13007F5AFA74FC5BFB74FF2510F51074FF34B2
:103E230000F51174077810121259E5104AF8E511DC
:103E33004BF98C828D83124C4F805FE04480F0A35A
:103E4300E0023DABE5107005750C00804DEA54208F
:103E53006015121AD48A10747F5510F8745F288580
:103E63000A82850B83801BEA5410600E121AD48ACF
:103E730010740F5510F8740F80E4850A82850B8344
:103E83007401F0A3E4F07404850882850983F012B9
:103E93003EDE7001EB7003124E747401650E7036D2
:103EA300850A82850B8312453F850882850983E055
:103EB300F9EEFAEFFB121546E9601BEE240C1239FA
:103EC300D11241A97001EB6003121B58EEFAEFFB0C
:103ED300121B58750C00A90C024C337A207B0090FE
:103EE30003BAE0F9121C00EA2274F6120AA874F766
:103EF3001211047E00121558EA7001EB7003023FA1
:103F0300B78A828B83A3A3A3A3A3A3A3A3A3E064DE
:103F1300066003023FB78A828B83A3A3A3A3A3A351
:103F2300A3E0FF8A828B83124740E0C0E07408124B
:103F33001344D0E0123FBC12455C125134124C4F73
:103F430012156A74085FF9E47001E96065851882E7
:103F530085198312453F7A007B0012153AEA7001F6
:103F6300EB704F90036C1243F512240A7C007D0022
:103F73007A007B0080268E828F83E01242D0700409
:103F8300A3E064FF602C90036C12453F122080E98C
:103F9300641A601E7C007D00EEFAEFFB12153A8A6C
:103FA300088B09AE08AF09EE7001EF70C9790012F2
:103FB30024107E01EEF9024EA8124072E02274F73B
:103FC300120AA8EA7001EB70059003CD80068A827D
:103FD3008B83A3A31241A97001EB60288A828B8390
:103FE300A3A3A3A3A3A3A3E05408F9E47001E96086
:103FF300DDEC7001ED60111245506C7003A3E06DB0
:1040030070CC80047A007B000242C174F2120AA8C9
:10401300EAFEEBFF890A8C088D097A0E7B00121BDE
:1040230052EA7001EB603AE48A828B83A3A3A3A3D1
:10403300A3A3A3A3124076E50A1242DCE508F0A38A
:10404300E50912582AE4F0124076A3A31240721233
:1040530056E7EA240CF582EB124536124067F0A3CB
:10406300F0022C20A312406C22124072A3A322F070
:1040730002343BA31242E0A3A32274F5120AA8EA76
:10408300FEEBFF890A8C088D09EE7001EF60567410
:1040930001650A7014790112154CE9FA902A07E4B4
:1040A30093C39A500F791180657404650A703012B6
:1040B300411440F18E828F83A3A3A3A3A3A3A3A33D
:1040C300A3E50A124A62125AD2E4F0A3F09003CD98
:1040D300E07002A3E09003CD60241242CC800A7406
:1040E30002650A60CF79C18025E824020808E91235
:1040F30041231241DE7001E970EF8A828B831256ED
:10410300E7123EDE7001EB7003124E747900025326
:1041130008790412154CE9FA902A03E493C39A220E
:104123001243F0FAE902343AC082C083E9FC790011
:104133009003CD801D8A828B83A3A3A3A3A3A3A3F0
:10414300A3A3E06C600574FF6C7001098A828B8302
:10415300A3A31241A97001EB70DB02437874F71239
:104163000AA8EA7001EB70059003CD80068A828B62
:1041730083A3A31241A97001EB60248A828B83A3DA
:10418300A3A3A3A3A3A3A3A3E06970E1EC60148A90
:10419300828B83E0240D12549DA2E240D080047AE6
:1041A300007B000242C1124308EA22C082C083900E
:1041B30003CD80068A828B83A3A31241A97001EBEE
:1041C30060128A828B83A3A3A3A3A3A3A3A3E069FF
:1041D30070E280047A007B0002437812461FE822D3
:1041E30074F1120AA88A0A8B0B8C0C8D0D750800CA
:1041F300750900EA7001EB60319003CD80068E8271
:104203008F83A3A31242347001EF601EAC0CAD0D7B
:10421300EEFAEFFB850A82850B831225F8E9640128
:1042230070DCEEF8EFF988088909AA08AB09023AAD
:10423300CDE0FEA3E0FFEE2274F7120AA89003CDAF
:104243001242CC7C007D008007E8FCE9FD1242CCE1
:10425300E87001E9603AE82402F582E91239D4EA08
:10426300687002EB6970E2124D269003CD1258A0DC
:10427300E86E7002E96F70099003CDEAF0A3EB805A
:104283000EEAF8EBF98C828D83A3A3E8F0A3E9F09F
:10429300802C74F7120AA8EAFEEBFFEE7001EF60C0
:1042A300161215641242E6EA7001EB6003121B5802
:1042B300EEFAEFFB121B588005741F1210A07F014A
:1042C300020E1AF582EF12589212461F22FAA3E049
:1042D300FB8A828B83E064FF221242E02212407247
:1042E300024AFD8E828F83E0241C12473912430D4C
:1042F3008E828F8312430DEE240C12430122F5822A
:10430300EF3400F58312496FFB2212496FFB121B36
:104313005822C082C083EAFCEBFDEC7001ED70040F
:104323007905804CEC24FBF582ED34FFF583E070D6
:1043330002A3E07011EC24FFF8ED34FFF9888289C1
:1043430083E064FF6005121AE080D59003BA12453A
:1043530049902A04E493F97ACF7B03121B0AE96498
:1043630001700B7A007B10124E7879008002790479
:1043730080031210A0D083D082020DAB74F4120A12
:10438300A8A2AFE492E0F508C2AF9003CF12423483
:104393007001EF603DEE24FBF582EF34FFF583E01F
:1043A3007002A3E07A007B109003BA6005124E7B83
:1043B3008005E0F9121B16750A00750B00780A12C6
:1043C300108DEEFCEFFD7ACF7B03121B04740212F7
:1043D30010A0E508A2E092AFEEFAEFFB8003121003
:1043E300A07F04020E1A12500AF922F8EB3400F9E6
:1043F300E822124543851882851983AA82AB83225A
:1044030074F0120AA874FC121104EAFEEBFF1215F1
:1044130028E960057911024521EE2402124526128E
:1044230050446006EE2412124533EE2413125A60F0
:104433007003741EF0EE2411F8EF125031701990CE
:104443000DB9E0600D900356E0700D8E828F83E00E
:104453007006E488828983F0EE2414080808EF12BA
:10446300585F700C90034B12454990034BE004F0E6
:10447300EE240FF50AEF3400F50B8E828F83E06490
:104483000170171239CE1245546402700D850A82E9
:10449300850B83E04440F0A3E0F0851882851983FF
:1044A300AC82AD83EEFAEFFB12158E8A0C8B0D8571
:1044B300088285098312453FEA7001EB605C8E82B6
:1044C3008F83E0C0E07401121344D0E0F074021251
:1044D30013441256E7740112134485820885830935
:1044E300780812108D850A82850B83120ECAEE247A
:1044F3000E125A60F50878081210917405121344CD
:10450300E0F912158874051210A0E9FE74106E709C
:104513000BAA0CAB0D121B5880027E10EEF974042B
:10452300025012F508EF3400F509850882F583225D
:10453300F582EF125892E4F02212588F124543226B
:10454300E0FCA3E0FD22E088828983F0228A828B4B
:104553008312455BE022F583E0F8A3E0F5838882CC
:1045630022C082C08374DE1211048A828B83A3A3C8
:10457300A3A31242CC740E121344E8F0A3E912462B
:1045830018740C121344124611240DF582EB125ABF
:1045930063C0E0741A121344D0E0F0EA12584CEBF3
:1045A3001242C974201213441246112415F582EBEA
:1045B300125A63C0E07408121344D0E0F0EA241CDA
:1045C300F582EB1242C97412121344124C4F74FF5A
:1045D300851882851983F0740112134474FFF074F3
:1045E3000212134474FFF0908344120EC674041233
:1045F3001344AC82AD837407121344AA82AB8312B3
:1046030013F674041210A079007422024375E8F0C3
:10461300A3E9F0EA2212406C12461F22E0F8A3E05D
:10462300F92274EF120AA874F01211048A0C8B0D8C
:10463300ECFEEDFF89107421121344E0F50F742290
:1046430012134412555774241213441238C9750EA9
:10465300107A1E7B00121B527402121344124E9ED8
:104663007402121344E07002A3E070030247298529
:104673001882851983AA82AB837950124D16124D85
:10468300267402121344124740A3124E9E74021260
:104693001344E0240B1247357402F01213441247FB
:1046A300407402F0121344124EB61256E77402120B
:1046B3001344125237E510F07402121344E0240C31
:1046C300124735E50FF07402121344E0241C12471D
:1046D3003512558E7408121344E50AF0A3E50BF066
:1046E300740A121344E50FF0850882850983C0829A
:1046F300C083740D121344AC82AD83D083D0827413
:1047030003120FEEF97402121344AA82AB8312153B
:104713002EE964017005750E00800B7402121344B8
:10472300124D26121B58A90E74101210A07F0902F5
:104733000E1A12473922F8A3E0125B3F22124746B2
:10474300A3A322E0F8A3E0F5838882024AFD74EA7A
:10475300120AA8EAFEEBFF8C088D098E828F83A3D1
:1047630085820A85830B7408F0EE2416F50CEF128C
:1047730048B560097410850A82850B83F0EE24170F
:10478300F510EF3400F511851082F583E0600A859A
:104793000A82850B83E02408F0EE2411F8EF125807
:1047A3005F6005750E0E8003750E00EE240DF51483
:1047B300EF3400F515850A82850B83E08514828525
:1047C3001583FAE02A250E8C828D83125A586013C2
:1047D300900357E0F91224ACE9FA8508828509832E
:1047E300E02AF0850882850983E0FAC394754009BD
:1047F3007508007509000248A07B001257957001E7
:10480300EB70030248A0EEFAEFFB121594EA850859
:1048130082850983124E9FEE2402F8124FF6124846
:10482300CAF0EE24040808124FF6A3A31248CAA341
:10483300A3F0EE24131248C0F0EE24141248C0A3D0
:10484300F07A08850C82850D83E0600FEE24181240
:10485300453CE508240812554D7A108510828511D0
:1048630083E0600FEE241A12453C8A0CE508250C00
:1048730012554D125A5DF510A3E0F511751200782B
:1048830010121089851482851583E0FC7D00124C7B
:1048930038E50E28FAE4391248AE1210A0AA08AB84
:1048A300097F0E020E1A7D00EEFAEFFB121AB674A0
:1048B30003223400F50D850C82F583E02212588F14
:1048C3001248D4A3A3A322A3A3125830A31248D4FB
:1048D30022E0850882850983A3A3A32274F6120A22
:1048E300A88A828B83E0FC90035C12496874027887
:1048F30008121259E5084CFCAD09EA241212496268
:1049030074067808121259E5084CFCE5094DFDEAD6
:10491300241112496274097808121259E5094DFDF0
:10492300EA2416124962740B7808121259E5094DEC
:10493300FDEA2417124962740C7808121259E5092A
:104943004DFD8A828B83A3A3A3A3A3A312496874F7
:104953000A7808121259ECFAE5094DFB024EADF53F
:1049630082EB125892E0F50875090022E0FAA3E001
:1049730022E0F98508828509832274F2120AA88A43
:10498300088B09ECFEEDFFE98E828F83F0124C8ACF
:10499300C0E0EE24111239D1D0E0124C84C0E0EE15
:1049A30024121239D1D0E0124A57A882A983124C9B
:1049B300556010E5082408FAE5093400FBEE2413DA
:1049C300124A758E828F83A3A3A3A3A3A3A3A3E0F9
:1049D300601588828983E0FAE5082AFAE50934003C
:1049E300FBEE2415124A75EE2419124533EE241BEF
:1049F300124533125A57F50AF50CE508250CF8E56C
:104A0300093400F9EE241DFAEF3400FBEAFCEBFD58
:104A13008C828D83124A6E2417FAEF3400FB8A08C6
:104A23008B098E828F83E0C3950A8A828B83124A15
:104A330062A3A3E0601B8A828B83E024F2F0E82464
:104A43000EF8E9124C5DFA850882850983E0C39A62
:104A5300F0022C20124A5B22F08E828F83A3221253
:104A63004A6622F08E828F83024AFFE8F0A3E9F0C0
:104A7300EE2212588FEAF0A3EB125830E02408F02C
:104A83002274F4120AA88A088B09EA124B04F0EA8A
:104A93001313543F124B0DA3A3A3F0EAC413131231
:104AA3004B04A3A3F0E48C828D83A3A3A3A3A3F05D
:104AB3008A0A8B0B7409780A1212CDE50A124AF49A
:104AC300F0EC2418F582ED1245368A0A8B0B740B31
:104AD300780A1212CDE50A124AEFF0740C78081224
:104AE30012CDE508124AEFA3F00243E4124AF4A3FD
:104AF3002254018C828D838001A3A3A3A3A3A3A328
:104B03002254038C828D83A3A322540F8C828D8322
:104B130022C082C0837900900356125385A3A3A3B6
:104B2300E0600FEC70268A828B83A3A3E0701D09DB
:104B3300801AEC60178A828B83A3A3A3A3A3A3A3E6
:104B4300A3A3124B527003A3E06B70E302437812EA
:104B5300430890035FE06A2274EE120AA88A088B66
:104B630009890CECFEEDFF124C8AC0E0EE24111211
:104B730039D1D0E0124C84C0E0EE24121239D1D0E6
:104B8300E0124A5785820A85830B124C556010E563
:104B9300082408F8E5093400F9EE2413124C738E47
:104BA300828F83A3A3A3A3A3A3A3A3E06009124CAF
:104BB30038EE2415124C73EEFAEFFB1215A6E9F545
:104BC3000D706B850A82850B83E0F50EF510E50801
:104BD3002510FAE5093400FBEE2417F8EF3400F949
:104BE30088088909EE241DF8EF1243F0FCE9FD8ED5
:104BF300828F83A3A3A3A3A3A3E07012EAF8EBF924
:104C03008C828D83124C4FE50CC3950E8019EA24D8
:104C13000EF8EB124C5DFB850A82850B83E0FAE507
:104C23000CC39A24F2C39B850882850983F0A90DDE
:104C33007F0A020E1A850A82850B83E0F8E50828AD
:104C4300F8E5093400F92212587FA3A3E8F0A3E999
:104C5300F0227408124A660238ED3400F98C828D12
:104C630083E8F0A3E9F0900357E0F91224ACE922BA
:104C730012588FE8F0A3E9F0850A82850B83024A74
:104C83007F12501A0238ED8A828B83124308121561
:104C9300A0850882850983A3A3124CC9E0F9EA8E93
:104CA300828F83A3A3A3A3A3A3A3A3A3124CCE1274
:104CB3004CC9A3A3E0F9EAF8EE240B12588FE812CB
:104CC3004CCEA3A3E022E0FA0248D5F0A3E91250A8
:104CD3001E22C082C0837AD47B0379E21223DA7A5C
:104CE300D47B03024378C082C08390035F124D26B6
:104CF300024378C082C08374FE1211048518828532
:104D03001983AA82AB83794B124D16124D26740276
:104D13000243751223DA85188285198322850C8252
:104D2300850D8312430822C082C083794A1223DA95
:104D330002437874F6120AA89003DCE0FE04F0EE56
:104D4300F9121558EA7001EB70EEEE60EBF9024EC2
:104D5300AD74EE120AA8EAFEEBFF8C088D09890AEE
:104D63007412121344E0F50B7413121344E0F50CA0
:104D7300750D00750E001216728A108B11AC10ADF2
:104D830011EC7001ED7014E50C704DA90AAC08AD7F
:104D930009EEFAEFFB121678024E3AEC2402F8ED14
:104DA3003400F9E50A601988828983E0FA850A08E4
:104DB300E5082AFAE4340013EA13F070037401F0EF
:104DC300E50C6020E50B70108C828D83E060091484
:104DD300F064027003750E017401650C7035E50B08
:104DE3007016802A901580E0C0E088828983E0FAFB
:104DF300D0E0C39A504180DD9003E3E004F0C0E0CB
:104E0300901569E0FAD0E0C39A4008750D01E4906B
:104E130003E3F0E50E7004E50D601CE50D601890EA
:104E23000362E06E7003A3E06F700CEEFAEFFB79A0
:104E330001121414124E3D024C337A017B0090038D
:104E4300BAE0F9121BFA22C082C08374016A7001AE
:104E5300EB70077A01124E768014901560124E9E05
:104E6300EA7001EB6005122DEB8003124E3D024305
:104E7300787A207B009003BAE0F9121B1022C082DB
:104E8300C083901562124E9E024378C082C0839005
:104E9300156480F1F582EF3400F583EAF0A3EBF0BB
:104EA30022A908800574091210A07F02020E1A8E2F
:104EB300828F8312455B22A2F0E492E0124EC879FE
:104EC300521223E022851882851983F00243FE12D1
:104ED3004EC879421223E022AA82AB8312150A7AC2
:104EE300BD7B0379451223E02274F7120AA874EDFF
:104EF300121104E9FE9003B912523E124F237412A9
:104F0300121344EE124F18851882851983124EDB53
:104F130074130242BEF09014FCE0F97CBD7D0322C1
:104F23009014FCE0F97ABD7B0312151022AA08AB9A
:104F3300099003BAE0F9121AE6223400F5837401EA
:104F430022124F3DF022A3A3A3A3A3A3A3A3A3745D
:104F5300FEF0A374FFF02274F4120AA8EAFEEBFF3A
:104F63007A007B04124E41124FEC124C4F7409909D
:104F7300036EF01215B28A088B09AC08AD09EE2452
:104F8300131239D1124D261255A06401704D7A0FB8
:104F9300124FE17001EB604374028A828B83F0EE5F
:104FA300241DF8EF125B3B124D268A828B83A312DA
:104FB300538AE0FBEC850882850983A3A3F0A3EB66
:104FC300125A5812455CA3A3A3124FFA124FFEFACA
:104FD300A3E0FB794A1223E0124F300243E47B0043
:104FE300121ADA8A088B09EA2290033F12461F90AD
:104FF300156422EF125B3FE0024976A3F0EE24151D
:1050030012500722F582EF3400F583E02274081270
:1050130010A07F08020E1A12501E22F08508828506
:105023000983024AFFF50CE5093400F50D221258F5
:10503300636401228E828F83A3A3A3A3A3A3A3A349
:10504300A31250482212496FFB121618E922125379
:105053001612160C2274F4120AA874F3121104EA3D
:10506300FEEBFF7C0D7D007900851882851983AAEC
:1050730082AB83121AC2EE241D1239D1124EB6A38B
:10508300E0F854206008740C1213447401F0E854DF
:10509300806008740B1213447401F0E85440600AF2
:1050A300740A1213447401F0800A740A121344E060
:1050B30064017005EE24138003EE241512453C743D
:1050C30002121344AA82AB8312231AEE240BF8EFC5
:1050D3003400F9880889098882F583125134124C07
:1050E3004F740A121344E064017034125037703C59
:1050F3001215BE8A0A8B0BA80AA90B85088285099B
:1051030083E0687003A3E06970221215B2EAFCEB36
:10511300FD7402121344AA82AB831255A0600D855D
:105123001882851983AA82AB8312140E740D02436D
:10513300E112461F024D1974F6120AA874F31211F4
:10514300048A088B09ECFEEDFF7C0D7D0079008558
:105153001882851983AA82AB831259D3A3A3A3A36D
:10516300A3A3A3A3A3125134E8F0A3E91251C4FAF1
:10517300A2E55008740B1213447401F0EAA2E7503D
:1051830008740A1213447401F0EAA2E6EE500424F0
:10519300138002241512453C74021213441251BAAF
:1051A300A3A3E0C0E0740C121344D0E012530E1218
:1051B3001408740D024EAAAA82AB8312231A024961
:1051C30076F0EE241DF582EF3400124559A3E02258
:1051D30074F7120AA874E1121104EAFEEBFF122F0E
:1051E30024EA2406F8EB12585FA2E0504454FEF080
:1051F300A3E012523E8A828B83125237E0F98A82ED
:105203008B83E0241CFAA3E0123438124D261215C6
:10521300ACE9701D741D12134412455464047011DB
:10522300851882851983AC82AD83EEFAEFFB1215E4
:10523300FA0242BCE0241B12473922125246AC82C6
:10524300AD8322F0024D19E9FA790074046A600A09
:10525300740A6A600574036A700109020DAB74F67F
:10526300120AA874208A828B83F07401A3A3F0121C
:1052730013C0EA7001EB600774018A828B83F0022A
:105283004EADC082C08374019003D1F0E9A2E35014
:10529300037403F0E9A2E15004E0D2E2F0024378A0
:1052A30074F6120AA879007C008A088B0978081220
:1052B3000D53F8FF07D652D452D452D452D452CD00
:1052C30052D152D652CA520C80097C0480050C80FC
:1052D300F67C089003D1E05C6003098003EC600175
:1052E30009024EAD74F6120AA88A828B83E0700E0F
:1052F300A31241A97001EB600512256080047A00B6
:105303007B00024EAD7F03020E1AE41253122212E7
:105313005316221252460243FE1245438E828F8356
:10532300A3A3024AFC74F2120AA874FD1211048AA0
:10533300088B09ECFEEDFF890A750B01740112134A
:105343004474041258517001EB6032EA12584CEB6A
:105353001242C9740388828983F0A3E50AF0EE88B8
:10536300828983A3A3F0EF88828983A3A312406772
:10537300E508F0A3E509F01213BAE9F50BA90B024E
:105383002C1B12538AA322E0FC8A828B83A3A322C1
:1053930074EC120AA874F51211048A0C8B0D89108F
:1053A3008C0A8D0B741F121344E0F5117420121331
:1053B30044E0F50EA3E0F50F7E01EE121344740AE8
:1053C300F0E97007E511C333240AF08518828519C3
:1053D30083AA82AB8312160C8A088B09EA7001EB4D
:1053E3007003025489125897740912557F4511129C
:1053F3005599AC0AAD0B125567E510702D7C0080F2
:1054030023ECC333F8E433F9E50E28F8E50F39F953
:105413008882898312559688828983123AD2F0A3AF
:105423000EAF830CECC3951140D7E5082417F58222
:10543300E509125495E508241AF582E509124E9AF6
:105443007403121344AC82AD83AA0CAB0D12245E19
:10545300E96021E508125490E509124F44740312E0
:105463001344A882A983E5082418F582E5091239B3
:10547300D4124C4F85088285098312558CAA08AB38
:10548300091213BAE9FEEEF9740B02555F2416F5FF
:105493008222124F3DF01215B222FEA3E03400FF28
:1054A3008E828F83E02274EC120AA88A0C8B0D89FA
:1054B300118C0E8D0F7414121344E0F51074151231
:1054C3001344125557900D29E07002A3E06078E56C
:1054D30010C333F508E433F509740E2508FAE435EF
:1054E30009FB121ADA8A128B13AE12AF13EE700194
:1054F300EF605474D48E828F83F012558C8E828F1A
:1055030083A3A3A3A3E511F0AC0EAD0FEE2405FA1C
:10551300EF125550EE240D1239D1E510F0850A0C27
:10552300850B0D750E00780C121089AC08AD09EED1
:10553300240EFAEF123BA21210A0EEFAEFFB900D2D
:1055430029124EB61225F8025562FAE5093400FB1A
:1055530012231A22E0F50AA3E0F50B221210A07F12
:105563000C020E1AEEFAEFFB12556F2212231A12D7
:10557300557622EE2408FEEF3400FF228E828F83BD
:10558300F0A3E510C43354E022A3A3E50CF0A3E594
:105593000DF022123AD3F0A3AE82AF83221223146A
:1055A300E9221255A9223400FB8A828B83E02274FC
:1055B300F6120AA8E9FE7C007D0078007900800BD2
:1055C300EC2508FCED3509FD1259A7125A74504118
:1055D300E8FAE9FBEA75F012A4FAAFF075F012EB02
:1055E300A42FFBEA2409FAEB3411FB8A828B83A3F1
:1055F300A3A3A3E064FF60D0EA24101256747002E0
:10560300E50960C4EE60B98A828B83E4F0A3F0807D
:10561300B778007900800BEC2508FCED3509FD1205
:1056230059A7125A675043E8FAE9FBEA75F017A441
:10563300FAAFF075F017EBA42FFBEA2483FAEB34EF
:1056430012FB8A828B83E064FE7004A3E064FF6034
:10565300CEEA24151256747002E50960C2EE60B7F3
:105663008A828B83E4F0A3F080B5ECFAEDFB024E63
:10567300ADFAEB1255A9F508A3E0F509E508227484
:10568300F6120AA8EAFEEBFF9003D2801388828900
:1056930083E06E7003A3E06F603B88828983A3A3DA
:1056A3001241DE7001E970E57A047B00121B528A15
:1056B300088B09A808A909E87001E960188882899C
:1056C300831256E79003D21256DBA3A3124E9E9089
:1056D30003D2124C4F024EAD124308025870851884
:1056E30082851983EEF0A3EFF02274F4120AA87EE8
:1056F300009003D280070E88828983A3A31241DE20
:105703007001E970F1EEC333FAE433FB125795707D
:1057130001EB60787F009003D28024888289831212
:10572300453FEFC333FAE433FBE5082AF582E50985
:105733003BF583ECF0A3EDF00F88828983A3A312DA
:1057430041DE7001E970D49003B5124B527003A38C
:10575300E06B7808701612108DEEF50A780A1210B5
:10576300917C807D037900121630801412108DEE27
:10577300F50A780A1210917C807D03790012162AAB
:1057830074031210A0AA08AB09121B581213D202F9
:1057930043E4121B52024FE6C082C08380128A8206
:1057A3008B83A3A31242CC9003D2124C4F121B58EB
:1057B3009003D21241A97001EB70E302437874F6AF
:1057C300120AA890036C1258A09003DD1235FE1242
:1057D3004C4F7ADD7B0379501223E09003DD12589E
:1057E3006812167E9003DD1258A0900D2BE0700214
:1057F300A3E060307A067B00121ADAEA7001EB60EC
:105803002374D58A828B83F0E4A3A3F074018A8284
:105813008B83A3A3A312582A1256E7900D2B124E83
:10582300B61225F8024EAD12406CA3A322F0025823
:105833007012461F74FF682212583F22A3A3F088F8
:10584300828983A3A3A322E508240BF582221250A5
:1058530051EA2208E93400F922F8E50912586322D3
:10586300125B3FE022124543EEFAEFFB2288828966
:105873008322850C82850D8312587F22E0F8A3E0F2
:10588300F9023AD4F0EE240F12588F22F582EF3446
:1058930000F58322EA240BF582EB125892E0FEA373
:1058A300E0FF2274F7120AA87E008008EE125A174E
:1058B3001216660E9029FEE493FAEEC39A40ED02A7
:1058C30042C174F7120AA87800790080031259A71D
:1058D3009029FEE493FEC3E89EE99400504CE8FE51
:1058E300E9FFEE75F017A4FE85F00875F017EFA435
:1058F3002508FFEE2483FEEF125B456A7003A3E0E5
:105903006B70CA8E828F83A3A3A3A3A3A3A3A3A312
:10591300A3E06C7003A3E06D600A74FF6C70037402
:10592300FF6D70A9EEFAEFFB80047A007B00024260
:10593300C174F6120AA87CFF7DFF7AFE7BFF121664
:105943005AEA7001EB705A7508007509008042E548
:105953000875F017A4F8ACF075F017E509A42CF955
:10596300E82483FEE93412FFEE240F125A60600824
:10597300EE240E125A60700E8A828B83124D261209
:10598300149EEEFAEFFBE5082401F508E509125A27
:10599300529029FEE493F8C3E50898E50994004082
:1059A300AE024EADE8240102585674F7120AA8EA73
:1059B300FEEBFFEE7001EF600E1259CD124F528EC7
:1059C300828F83A3124F490242C17C177D00790065
:1059D300121AC2023AD474F7120AA8EAFEEBFF7550
:1059E30008008021E508125A178A828B83A3A3A398
:1059F300A3A3A3A3A3A3A3E06E7003A3E06F600319
:105A030012166605089029FEE493FAE508C39A4046
:105A1300D30242C175F017A42483FAE5F03412FBD4
:105A23002274F6120AA812165A8A088B09A808A922
:105A330009E87001E9600AE8240DFAE93400FB8003
:105A4300047A007B00024EADFB0255A0F508EF344B
:105A530000F50922A3125830E022EE240BF582EF61
:105A630012500A229029FEE493FAC3E89AE99400BB
:105A7300229029FCE493FA740193FBC3E89AE99B0F
:105A83002274F0120AA88A088B098C0A8D0B890CE0
:105A9300125AC57001EF60271259CD125AD2A3A32F
:105AA300A3A3A3A3A3A3E50AF0A3E50B125887E5D9
:105AB3000C70027401F0EE240E1239D1125ADD0279
:105AC30050151216608A0E8B0FAE0EAF0FEE22E545
:105AD30008F0A3E509124A5BA3227401F0EE240D3A
:105AE30012588F7402F02274F5120AA88A088B09DF
:105AF300ECFEEDFF750A00800DEE6C7002EF6D6039
:105B030003121666050A9029FEE493FAE50AC39A7E
:105B13005021E50A125A17EA240A125B3912453F4B
