:020000040000FA
:06000000020ACA0202031D
:03002B00021DA013
:030033000208A11F
:0300430002092788
:03004B000207DFCA
:0300530002015552
:03005B000207EEAB
:030063000207FA97
:03006B0002088701
:1000830002019F01010503010F03000300030003A5
:10009300000300030003000300030005000A00142B
:1000A3000028004F009E0000004B104B104B104BDC
:1000B30010070F010F4B105B1F00000000971E007D
:1000C3000000000C0000000C00010000B311000050
:1000D300000000004F120000000000009511AD0465
:1000E300FF01010100F20C000000650DE80364004C
:1000F3006400B8010202000800000501071E0205A2
:100103001E0A03B80B01FFFF0202020612FF0600DC
:1001130014E914000000C71BCD1BD31B0000000013
:1001230000000000000000000000000000000000CC
:10013300000000001020202020202020202020204C
:100143002020202020010C040100000001858101F2
:100153008781C0E074F212040FE5A7FAE5A1FBEA78
:100163005B541060081218F153A1EF802AEAA2E051
:10017300C0D0EBA2E092F01209F6158182F050177D
:10018300906198E0FA9010E1E0C39AA2D265D0336F
:100193005002EAF053A1FE7F0102051DC0E074F294
:1001A30012040F9061A4E0FA759B00E5915A54087C
:1001B30060087591F7121933802AE5915A5410603B
:1001C300087591EF121939801BEAA2E0C0D0E591BE
:1001D300A2E092F01209F6158182F05007E0C2E026
:1001E300F0121A5F9061A3E0FAE5E95A5404600E35
:1001F300121A3575E9FB906193E0A2E640F280970D
:10020300C0E074F212040F9061A5E0FAE5BF5A54FE
:1002130004600653BFFB121A7702019AC3E498F8ED
:10022300E499F91202608026C3E49AFAE49BFBE99D
:1002330020E7E9120260E498F8E499F922C3E4980C
:10024300F8E499F9120260E498F8E499F9C3E49A9E
:10025300FAE49BFB22EB20E7CFE920E7E0B90010AB
:10026300BB0008E88AF084F8AAF022E4FBC8FA226B
:10027300EB70227B10C833C8C933C9335007C39A04
:10028300C3DBF280069A50012ADBEAC833F4C8C9FB
:1002930033F4C9FA2275F008E4C833C8C933C93343
:1002A300C99AC99B5004C92AC93BD5F0ECFBC83392
:1002B300F4C8E4C9FA22080808EAC0E0EBC0E08603
:1002C300F0E7A4FA180986F0E7A42AFA180986F0D9
:1002D300E7A42AFA180986F0E7A42AFA1986F0E7B0
:1002E300A4FBE5F02AFA190886F0E7A42BFBE5F056
:1002F3003AFA190886F0E7A42BFBE5F03AFA181846
:100303000986F0E7A4C5F02BFBE43AFA1908E7C520
:10031300F0C6A426F6E5F03BFBE43AFA1886F0E7CC
:10032300A4F6E5F00826F6E43B08F6E43A08F6D02E
:10033300E0FBD0E0FA22E4CFC0E0E4CEC0E0E4CDBD
:10034300C0E0E4CCC0E075F020C3E633F608E63342
:10035300F608E633F608E633F6181818EC33FCED26
:1003630033FDEE33FEEF33FFC3EC9709ED9709EE50
:100373009709EF97191919400FFFEC97FC09ED97AF
:10038300FD09EE97FE191906D5F0BEECF709EDF756
:1003930009EEF709EFF7191919D0E0FCD0E0FDD009
:1003A300E0FED0E0FF222518C582C0E0E51934FF46
:1003B300C583C0E0E518C3958224F8F8E4C5A88591
:1003C3008319858218C5A8E8CEF0A3E520F0A378A9
:1003D30008E608F0A3DEFAEFF0A3E58124FAF8E6D5
:1003E30008F0A3E608F0A3E608F0A30808E608F07F
:1003F300A3E608F0A315811581D0E0FED0E0F8153F
:100403008115811581E8C0E0EEC0E022C0D0251837
:10041300C582C0E0E51934FFC583C0E0E518C39584
:100423008224F310AF088583198582188008858399
:1004330019858218D2AFC8F0A3E9F0A3EAF0A3EBC1
:10044300F0A37908E709F0A3D8FAECF0A3EDF0A341
:10045300EEF0A3EFF0A3D0E0F0A3D0E0F0A3D0E060
:10046300F0A3E520F0A3E5F0F0A322120B14B900EA
:10047300030204B0E490030178F779128002F0A339
:10048300D8FCD9FA9014F7AA82AB8390008678D06F
:1004930079018015E493A3AC82AD838A828B83F0C8
:1004A300A3AA82AB838C828D83D8E9D9E775823284
:1004B3007583F274021205FF75829B75831D7400A8
:1004C3001205FF120A68181818120339120A79194B
:1004D300191922120A79191919080808E61818189F
:1004E30020E7E0120339120A6818181822090909CB
:1004F300E719191920E7DC080808E618181820E797
:1005030003020339120A68181818120339120A6809
:10051300181818120A79191919228519838518824E
:10052300E0C0E0A3E0F9A3E0FAA3E0FBA37808E0CE
:10053300F608A3DFFAE0FCA3E0FDA3E0FEA3E0FFDF
:10054300A3E0C0E0A3E0C0E0A3E0F5D0A3E0F52082
:10055300A3E0A3F5F0E4C5A8858319858218C5A88F
:10056300D082D083D0E0F8D0E032D083D082ECC008
:10057300E0EDC0E0E493A3FCE493A3FDED4C600D38
:10058300120641EC24FFFCED34FFFD80EFE493A35E
:10059300FCE493A3FDED4C600D12078AEC24FFFCF1
:1005A300ED34FFFD80EFD0E0FDD0E0FCE493A3C089
:1005B300E0E493C0E022D083D082E9C0E0E493A3D7
:1005C300C386F0C5F095F0F908E493A386F0C5F06F
:1005D30095F0700BE493A3C3994005E9048002A34B
:1005E300E475F002A42582F582E5F03583F583D026
:1005F300E0F9E493A3C0E0E493C0E022F5F0E59FC3
:100603005407C0E0E59F54F845F0F59FE473859FD8
:10061300F053F0F8D0E045F0F59F22D083D082E587
:100623009F5407C0E0E493C0E0740193C0E07402F8
:10063300935407F5F0E59F54F845F0F59F22C0E089
:10064300C3E49396087401939618400FE49366707D
:100653000808740193661870007019A3A3C3E49388
:1006630096087401939618A3A3400DD0E0D0E0D070
:10067300E00205A9A3A3A3A3A3A3D0E02285198322
:10068300851882E0A3FEE0A3F5207808E0A3F6082E
:10069300DFFAE0A3FFE0A3C0E0E0A3C0E0E0A3C073
:1006A300E0E0A3C0E0E0A3C0E0E4C5A8858218852C
:1006B3008319C5A8D083D082020611C0E0C0D0EA56
:1006C300C0E0C082C083900490E004F0C39464400F
:1006D30002E4F0E0C0E0900491E0FAD0E0C39A4075
:1006E30004D2808002C280D083D082D0E0FAD0D0FE
:1006F300D0E032D083D082C5F0E493A3C5F0C39594
:10070300F0F5F0E493A3C395F04005E5F004800110
:10071300E475F002A42582F582E5F03583F583E4E0
:1007230093A3C0E0E493C0E02274048004740280C5
:1007330000CCC0E0EDC0E0E518C39CCCAD1950017E
:100743001D10AF068C188D1980068C188D19D2AF29
:10075300120828D0E0FDD0E0FC2274028000CCC057
:10076300E0EDC0E0E518C39CCCAD1950011D10AFFE
:10077300068C188D1980068C188D19D2AF120806B5
:10078300D0E0FDD0E0FC22C0E0C0F088F0E4936646
:1007930070080874019366187000A8F0A3A3700B87
:1007A300D0F0D0E0D0E0D0E00205A9A3A3D0F0D0F0
:1007B300E022D083D082CCC0E0E493A36006120889
:1007C300681470FAE493A3600612093E1470FAD019
:1007D300E0FCE493A3C0E0E493C0E022C0E074F241
:1007E30012040F1218257F0102051DC0E074F212D6
:1007F300040F12182B80EFC0E074F212040F1218CA
:100803003180E3CAC0E0E493A3C582CCC582C5832B
:10081300CDC583F0A3C582CCC582C583CDC583DA9C
:10082300E5D0E0CA22CAC0E0E0A3C582CCC582C538
:1008330083CDC583F0A3C582CCC582C583CDC583D3
:10084300DAE6D0E0CA2270090808082260161818F0
:1008530018C6C333C608C633C608C633C608C6336C
:10086300C6D5E0EA22C0E0E493A3D39C5010E493FE
:10087300A3C39C400AD0E0D0E0D0E00207D2A3A3F8
:10088300A3D0E022C0E074F212040FE589A2E15084
:100893000312175F758900C2C57F0102051DC2E8F7
:1008A300327404800A74038006740280027401C0E7
:1008B300E0F4041208BFD0E0120B07222518F582DA
:1008C30010AF08F518400215198008F518400215F5
:1008D30019D2AF85198322BB0102E722C082C083EC
:1008E30089828A83BB0003E08002E493D083D082B1
:1008F30022C0D0251810AF08F5185002051980083A
:10090300F51850020519D2AFD0D022601608080896
:10091300C6C313C618C613C618C613C618C613C64D
:10092300D5E0EA22C0E074F212040FC2C0E5D1A2FE
:10093300E450031218677F0102051DC0E0E493A38E
:100943006C7009D0E0D0E0D0E00207D2A3A3D0E0DE
:1009530022251810AF08F518400215198008F5185C
:1009630040021519D2AF22E066701008A3E066704A
:100973000A08A3E066700408A3E06622C3E09608B1
:10098300A3E09608A3E09608A3E096A2D265D0332D
:1009930022C3E7960809E7960809E7960809E79648
:1009A300A2D265D03322C3E096F008A3E096F00804
:1009B300A3E096F008A3E096F022E026F008A3E077
:1009C30036F008A3E036F008A3E036F022E627F677
:1009D3000809E637F60809E637F60809E637F62286
:1009E300E026F608A3E036F608A3E036F608A3E00F
:1009F30036F622C0E0E8C0E0E58124FCF8E6A2E791
:100A0300D0E0F8D0E022E647F60809E647F6080901
:100A1300E647F60809E647F622E056F008A3E05653
:100A2300F008A3E056F008A3E056F022E657F608D4
:100A330009E657F60809E657F60809E657F622E0ED
:100A430056F608A3E056F608A3E056F608A3E056C8
:100A5300F622700422600D18C6C333C608C633C617
:100A6300D5E0F41822E4C396F608E496F608E49673
:100A7300F608E496F622E4C397F709E497F709E446
:100A830097F709E497F722600D08C6A2E713C61883
:100A9300C613C6D5E0F322C6F4C608C6F4C608C614
:100AA300F4C608C6F4C622C3E7960809E796080900
:100AB300E7960809E79622C3E09608A3E09608A301
:100AC300E09608A3E0962275D00075814075180161
:100AD3007519030002046E600C08C6C313C618C65A
:100AE30013C6D5E0F422E6F008A3E6F008A3E6F087
:100AF30008A3E6F022E0F608A3E0F608A3E0F60870
:100B0300A3E0F622CAC0E0E6F0A308DAFAD0E0FADE
:100B13002274F855C74401F5C77901222518F582D7
:100B2300E43519F5832212061E3B840112061E7654
:100B3300840112061EB3840112061EFF84011206ED
:100B43001ED7850112061E7A860112061E0A870128
:100B530012061E2E880112061E40880112061E2E42
:100B6300890112061EA5890112061EE289011206D9
:100B73001E418A0112061E918B0112061EAD8B01C6
:100B830012061E0F8C0112061EA98C0112061EF0FE
:100B93008C0112061E8B8D0112061E388E01120661
:100BA3001E768E0112061EE68E0112061E318F017D
:100BB30012061E6A8F0112061E98900112061EC9A4
:100BC300910112061E28920112061E71920112064D
:100BD3001E99920112061E1C930112061E9E93017A
:100BE30012061E13940112061E24940112061E9A65
:100BF300940112061E4C950112061E8E95011206D3
:100C03001E14960112061E5B960112061EA496017F
:100C130012061E2D980112061EE7990112061E31B7
:100C23009A0112061E159B0112061E0F9D01120644
:100C33001E199D0112061E239D0112061E2D9D01E4
:100C430012061E379D0112061E419D0112061E4B00
:100C53009D0112061E6C9D0112061E909D01120637
:100C63001EB49D0112061E139E0112061E629E01F2
:100C730012061E809E0112061EF09E0112061E2DF4
:100C83009F0112061E7B9F0112061EDE9F011206A4
:100C93001E8CA10112061EFEA10112061E1EA40136
:100CA30012061E43A40112061E83A50112061EC2CC
:100CB300A50112061E08A60112061EE6A6011206CB
:100CC3001E4DA70112061E7EA70112061E81A70153
:100CD30012061EB3210012061EFF210012061EDAA1
:100CE300230012061E18240012061E642400120696
:100CF3001E09250012061E6F250012061EBA2500C6
:100D030012061EDB260012061E72270012061E7E26
:100D13002A0012061EFE2A0012061EF52B001206DA
:100D23001E9A2C0012061EB02D0012061ED0300093
:100D330012061E83310012061EAD310012061E93E9
:100D4300320012061E64330012061EFB3300120625
:100D53001E45340012061E72340012061E9434001F
:100D630012061E97360012061E6C370012061EB9B5
:100D7300370012061E28380012061ED63800120647
:100D83001E0B390012061E59390012061E8E390039
:100D930012061EE6390012061E403A0012061EC055
:100DA3003A0012061E2A3B0012061EAE3B00120634
:100DB3001E0F3D0012061ED03D0012061EFC3E0013
:100DC30012061E8A400012061E28410012061E2F1C
:100DD300420012061EBF420012061E064300120600
:100DE3001E80440012061E94440012061EA14400F5
:100DF30012061ED5440012061EE1440012061EFF11
:100E0300440012061EF5450012061E2C460012066B
:100E13001E39460012061E97460012061E0547009D
:100E230012061E03480012061EE5480012061E7E27
:100E3300490012061EF5490012061E0C4A0012064E
:100E43001E304A0012061E4E4A0012061E924A0027
:100E530012061ED34A0012061E3E4B0012061E54F3
:100E63004C0012061E5D4D0012061E2D4E0012068A
:100E73001E984E0012061E464F0012061E6C4F00AF
:100E830012061E51500012061E70500012061EDF7D
:100E9300500012061E58510012061E8451001206FD
:100EA3001ECF510012061E2F520012061E9552002D
:100EB30012061EF5520012061EA7FF0212061EF2AC
:100EC300FF0212061E5B540012061EBC54001206DB
:100ED3001E1C550012061E6D550012061E88550075
:100EE30012061EB8550012061ED9550012061EE53D
:100EF300550012061E26570012061E4457001206FE
:100F03001EAD570012061EC0570012061ED757000B
:100F130012061E6A580012061E69590012061E6543
:100F23005A0012061EE75A0012061EF15A00120654
:100F33001E545B0012061E655B0012061EA85B00B2
:100F430012061EEF5B0012061E255C0012061E5BD6
:100F53005C0012061E795C0012061E9D5C001206E0
:100F63001EDE5C0012061ED15D0012061E175E0017
:100F730012061E525E0012061EAF5E0012061ED738
:100F83005E0012061E105F0012061E1E5F00120690
:100F93001E7F5F0012061EBC5F0012061EFE5F006E
:100FA30012061E2F600012061E63600012061E6EDC
:100FB300600012061E8C600012061E5461001206A9
:100FC3001E5E610012061E9D610012061EB36100C3
:100FD30012061EBC610012061E26620012061E3A8D
:100FE300620012061E32630012061E4563001206DB
:100FF3001E5A630012061EFA630012061E5E640088
:1010030012061E21650012061E2C650012061E4BD9
:10101300660012061E67660012061EBF66001206F1
:101023001EF6660012061E10670012061E4F6700AA
:1010330012061E6A690012061ED4690012061E3FBC
:101043006A0012061E966C0012061EA66C0012069B
:101053001EA96C0012061EB56C0012061EC96C0098
:1010630012061ED16C0012061E066D0012061EB477
:101073006D0012061E246E0012061E886E001206F4
:101083001E216F0012061EBB6F0012061EE26F00C8
:1010930012061E72700012061E7E700012061EAD2E
:1010A300700012061ECF700012061EF670001206A4
:1010B3001E5C710012061EC6720012061EC9720063
:1010C30012061E40730012061E2C740012061E0424
:1010D300750012061E8E750012061EC376001206D8
:1010E3001E75770012061EAE770012061EDF77000C
:1010F30012061EE8770012061ED4780012061E5050
:10110300790012061EDD790012061EA77A00120668
:101113001E2B7B0012061E617B0012061EAA7B009B
:1011230012061EA29E0212061EB49E0212061E275D
:101133009F0212061E5D9F0212061EB49F02120634
:101143001E6EA10212061E4FA30212061E4DA60218
:1011530012061E8AA60212061EA4A60212061E0666
:10116300A70212061E42A70212061E7EA70212063D
:101173001EB8A70212061E828C0312061EA18C0340
:1011830012061EEC8C0312061E368D0312061ED9A0
:101193008D0312061EED8D0312061E198E03120611
:1011A3001E158F0312061E4C890312061E8A8A031C
:1011B30012061E3EC50212061EC5C50212061ECF2A
:1011C300C50212061EF6C50212061E0AC602120642
:1011D3001E62C60212061E92C60212061E87C702AE
:1011E30012061E4CC80212061E9EC80212061EE8F4
:1011F300C80212061E25C90212061E88C90212065B
:101203001ECBC90212061E42CA0212061E9CCA0245
:1012130012061E14840312061E2D840312061EC812
:10122300840312061E77850312061EA48503120685
:101233001E2CFD0112061EB4FD0112061EBFFD0188
:1012430012061EE4FD0112061E8F8B0212061E9269
:101253008B0212061E558C0212061E838C02120686
:101263001EC58C0212061EEA8C0212061E0A8D028D
:1012730012061E408D0212061E8A8D0212061EA23F
:101283008E0212061ED18E0212061EF28E02120664
:101293001E4A8F0212061E01900212061E4590027C
:1012A30012061E87910212061E1D920212061E319D
:1012B300930212061E80930212061EA993021206BF
:1012C3001E70940212061E9B940212061ECD9402F7
:1012D30012061E19950212061E23950212061E6F90
:1012E300950212061EDF950212061EFC95021206D7
:1012F3001EBE960212061E73990212061E7C9902E6
:1013030012061ED2990212061EFD990212061E62D1
:101313009A0212061EFE9A0212061E3B9B02120638
:101323001E8C9B0212061EF39B0212061E759C0264
:1013330012061EC29C0212061EF49C0212061E29ED
:101343009D0212061E399D0212061E499D021206B7
:101353001E689D0212061E359E0212061E6E9E0216
:1013630012061E63950312061E0C820312061E70DC
:10137300820312061E97820312061E9D8303120622
:101383001E65EC0112061E4AED0112061E85ED01D3
:1013930012061E34EF0112061E78EF0112061E30EC
:1013A300F10112061E77F10112061E50F201120618
:1013B3001EDDF20112061E9F810112061EC1F301FA
:1013C30012061E04F40112061E99F50112061E0BE5
:1013D300F70112061E33F90112061E3DF90112062A
:1013E3001E9AF90112061EEEF90112061EE3FC0114
:1013F30012061EE9FF0112061E53E40212061E6BBB
:10140300E40212061E13E50212061E54E50212063A
:101413001E17840112061E97E50212061EDEE50260
:1014230012061E17E60212061E4BE60212061EDD08
:10143300E70212061EF7980312061EE78A03120636
:101443001E548B0312061E6B8B0312061EB08B03F6
:1014530012061EC78B0312061E5E8C0312061E683D
:101463008C0312061E00800212061E4E8002120614
:101473001EFF800212061E8C810212061EDB8102F1
:1014830012061E38820212061E4C820212061E1C0F
:10149300840212061E9B840212061EC584021206D3
:1014A3001E75860212061E90860212061ED1860241
:1014B30012061E04870212061E5D870212061E799B
:1014C300870212061EDD870212061E6689021206B5
:1014D3001E96890212061EBF890212061E1F8A0269
:1014E30012061E398A0212061E3C8A0212061E3F8B
:1014F3008A0212061EB18A0212061ED38A0212063D
:101503001EE68A0212061E4D8B0212061E808B02F5
:1015130012061EFF970312061E0B980312061E5592
:10152300980312061E24B00212061E75B00212069C
:101533001E38B20212061E06B40212061E50B40270
:1015430012061E89B50212061ED8B60212061EF630
:10155300B60212061E4AB70212061ED2B7021206BE
:101563001EAEC80112061ED9C80112061E92C90179
:1015730012061E20CA0112061E86CA0112061ED2B8
:10158300CA0112061E3FCB0112061ED4CB0112065E
:101593001E58CC0112061E94CC0112061E78D001EF
:1015A30012061E23D20112061E4CD20112061E0A77
:1015B300D30112061EC9D30112061EF3D40112066B
:1015C3001E55D60112061ED0D60112061EFBD701E8
:1015D30012061E5AD80112061EA1D90112061E16A2
:1015E300DA0112061EBDDA0112061E79DB011206AC
:1015F3001EF3DB0112061E0BDC0112061EA7DC0123
:1016030012061EEADC0112061EE6DD0112061E1298
:10161300DE0112061E7DDE0112061ECFDE0112065A
:101623001E2CDF0112061E63E00112061EFDE001FF
:1016330012061E79E10112061EF0E20112061E983F
:10164300E30112061E3FE40112061E9BE40112068B
:101653001E11E50112061E2FE60112061EF0E70118
:1016630012061E06E90112061EA3E90112061E1C3C
:10167300EA0112061E21EB0112061EE5D80212062C
:101683001E5BD90212061EB4D90212061E12DA021A
:1016930012061E4EDA0212061ED7DA0212061E1AAE
:1016A300DB0212061E5EDB0212061EE7DB021206D7
:1016B3001EECDB0212061E62DC0212061EA9FC02ED
:1016C30012061EF6FC0212061EA5FD0212061E0BD2
:1016D300FE0212061E7CFE0212061EB3F202120660
:1016E3001E10F30212061E81F40212061E899003D5
:1016F30012061EC3900312061E89910312061ECB07
:10170300910312061ED9910312061E8B9A03120629
:101713001E04FF0212061E14FF0212061E35FF02EC
:1017230012061E9DFF0212061E33940312061E5A52
:10173300940312061EE3940312061E4A950312062F
:101743001EDD9E0312061EFF920312061E1B930349
:1017530012061E80930312061EB0930312061E1474
:10176300940312061ECCF70212061EECF7021206B1
:101773001E0DF80212061E2CF80212061E34F80281
:1017830012061E5AF80212061E97F80212061EC00F
:10179300F80212061E0DF90212061E55F902120670
:1017A3001E72BF0212061E8CBF0212061E95C002D5
:1017B30012061ED6C00212061EF0C00212061E74C6
:1017C300C10212061E6FC20212061ED9C2021206FF
:1017D3001EE5C20212061E0CC30212061E38C30205
:1017E30012061E60C30212061E78C30212061EC929
:1017F300C30212061E87C40212061EF07B001206E5
:101803001EFE7B0012061E7C7C0012061E507D000D
:1018130012061E847F0012061E9C870312061ED426
:10182300870312061EF8870312061E568803120644
:101833001EB8880312061EF7880312061E258903A5
:1018430012061EB3CA0212061E32CB0212061EE293
:10185300CB0212061E53CC0212061E59CD021206EB
:101863001EFECE0212061E5ECF0212061EB0CF026D
:1018730012061EB9CF0212061ECFCF0212061EE1B8
:10188300CF0212061EF3CF0212061EFCCF0212066F
:101893001E0ED00212061E61D00212061E75D2025F
:1018A30012061EADD20212061ED2D20212061EEB81
:1018B300D20212061E04D30212061EF9D302120626
:1018C3001E87D40212061E00800312061E438003E5
:1018D30012061E54800312061E87800312061EBFC3
:1018E300800312061EF7800312061E5F8103120691
:1018F3001E92810312061E20F50212061E4BF502EC
:1019030012061E92F50212061EA4F50212061EC04E
:10191300F50212061E28F60212061E31F602120600
:101923001E92F60212061EB6F60212061E80F70279
:1019330012061E8DF70212061E9EF70212061E8B5A
:10194300980312061ED8980312061E04DD0212061F
:101953001E17DD0212061E75DE0212061E82DE024D
:1019630012061E9BDE0212061EAEDE0212061EC801
:10197300DE0212061EE7DE0212061E66DF021206F2
:101983001E32E00212061E8FE00212061E9FE002C4
:1019930012061E64970312061E89970312061EB2CF
:1019A300970312061EDA970312061E45FA02120661
:1019B3001E5EFA0212061E6AFA0212061E73FA026B
:1019C30012061E97FA0212061EA3FA0212061EB28E
:1019D300FA0212061ED0FA0212061E22FB02120699
:1019E3001E5CFB0212061E91FB0212061EE0FB02A6
:1019F30012061E2CFC0212061E44FC0212061E4E88
:101A0300FC0212061E5FFC0212061EA3FC02120653
:101A13001E47990312061EF6A70212061E22A802EB
:101A230012061E3EA80212061E51A80212061E67C7
:101A3300A80212061ED3A80212061E0DA902120640
:101A43001E7BAC0212061E9AAD0212061ECBAD021D
:101A530012061E2DAE0212061E08AF0212061E301B
:101A6300AF0212061E45AF0212061E55AF02120642
:101A73001E96AF0212061EEBAF0212061EFBAF024A
:101A830012061E468F0312061E618F0312061E8B5B
:101A93008F0312061EA88F0312061ED08F03120691
:101AA3001EF28F0312061E0B900312061E3A9003BA
:101AB30012061E55900312061ED6990312061E8D9A
:101AC300EB0212061E94EB0212061EA1EC02120692
:101AD3001ED3EC0212061EF9EC0212061E2CED02B6
:101AE30012061E3EED0212061E79ED0212061EE9D3
:101AF300ED0212061E26EE0212061E73EE021206F7
:101B03001EA1EE0212061EC1EE0212061EE185039D
:101B130012061EF3850312061EF7860312061E64C1
:101B2300960312061EC2960312061E01970312069F
:101B33001E42970312061E06B80212061E25B8029D
:101B430012061E8BB80212061E13B90212061E9B42
:101B5300B90212061EB6B90212061E2CBA021206EA
:101B63001E4FBC0212061E57BC0212061EE5BC0223
:101B730012061EA7BD0212061E28BE0212061E4D25
:101B8300BE0212061ED0BE0212061EEDBE021206D1
:101B93001EAEE00212061E6FE10212061EDCE10217
:101BA30012061E01E20212061ECAE20212061E8F6E
:101BB300990312061EC6D40212061E2FD502120660
:101BC3001E64D70212061EAAD70212061EADD70242
:101BD30012061ECAD70212061ECDD70212061E0413
:101BE300D80212061E1FEF0212061E4BEF02120648
:101BF3001E94EF0212061EAEEF0212061ED6EF026D
:101C030012061EFDEF0212061EEAF00212061EF471
:101C1300F00212061E01F10212061E12F202120651
:101C23001E1BF20212061E24F20212061EF5E70222
:101C330012061E88EB0212061E169A0312061EC90E
:101C43007F0012061E459A0312061E6D9A031206A2
:101C53001E8D810112061E7EC80112061E60C80178
:101C630012061EFFC70112061E37C70112061EA564
:101C7300C60112061E4BC50112061EFEC201120644
:101C83001E97C20112061E5CBF0112061E34BF015D
:101C930012061EE8BE0112061EC5BE0112061EDC98
:101CA300BD0112061E84BD0112061EE0BB01120611
:101CB3001EDDBB0112061ED5BA0112061EB5BA01FE
:101CC30012061E0EBA0112061E91B80112061E5804
:101CD300B80112061EFC830112061E8C8301120634
:101CE3001EBA820112061E29B80112061E26B80169
:101CF30012061E18B80112061EFAB70112061E2F8D
:101D0300820112061EE9B70112061E05B70112066B
:101D13001E9BB60112061E68B60112061E71E5026D
:101D230012061EBE810112061E10B60112061EDF28
:101D3300B50112061E06B30112061E13B2011206E6
:101D43001EA9B10112061E69B10112061E5DB10181
:101D530012061ED0B00112061E1EB00112061E4C42
:101D6300AE0112061EBEAB0112061E88AB0112069F
:101D73001E29AA0112061ED5A90112061E02A901D7
:101D830012061E69A80112061E08A80112061E42A9
:101D9300A80112061E69F30100000080FBC2C732CE
:101DA300E473000136360101000102010001030161
:101DB30000010401060605020000070100340801C2
:101DC300000F090401010D0100FF0E0800001702B6
:101DD3000000190100FF1A0100011B0100FE1C0194
:101DE30000081D0200001F01000120010001210263
:101DF30000002301000F2402000026010001270137
:101E03000008280200FF2A0100072B0102402C01D1
:101E130000002D0100012E0100012F0100FF300100
:101E23000B1C310800003A0100083B01000F2F0191
:101E330000000101710101010101110101013101E1
:101E4300010101018001100161013B0014006301E4
:101E530073017201620143010001130106013D0197
:101E63003500040112010001000100010001040119
:101E73000401330133013C01440132013600000106
:101E830000016501000135008101000105018201A6
:101E93008301000101037103010301030103010332
:101EA30001032203020301031003000300030003E1
:101EB300000300030003000342030003240306039B
:101EC3000003000304031203250323032503230351
:101ED300040304030003000300034403000300039B
:101EE3002303000365032100350381030003050376
:101EF30000030003000303027102300160021102B8
:101F030070020102020202028002100261023A0020
:101F1300410063027302720262024302000213026F
:101F23003800000200020402120200020002000252
:101F3300000204020402370037003C02440200029C
:101F4300390000020002650200023502810200022C
:101F53000502820283020002030071003001600067
:101F63001100700031022003500480001000610052
:101F7300000014006300730072006200430000005D
:101F8300130006000000000004001200000000001F
:101F93000000000004000400370037003C02440046
:101FA3000000000000000000650000003500810013
:101FB3000000050000008300000000000300200172
:101FC3008C810000000020018B810000040042018D
:101FD30056800000050042014580000006004201D2
:101FE30023800000070020018981000010004203C4
:101FF300A815000011002003EB14000012002003B9
:10200300B915030000002103EC14060000002001B1
:10201300EE1436000100060000000F00000000006F
:10202300000000000000000003FFFF00000403FFA6
:10203300FF0000FFFF0FF4010005C40403200001AB
:1020430000000B000000000000000003010F00006F
:1020530021161300BB150100211602007915030098
:102063007F150400851505008B15060097151100D3
:10207300AF151400B5151500A915FFFF00000300E7
:1020830003000400080010001F003E007B00F60060
:10209300EC01D703AF075D0FB91E713D000003EAE2
:1020A300F5E5D5D5C5B5A59595858575756565554D
:1020B30055454535352525151505610F910F670FD5
:1020C3006D0F8B0F7F0F790F970F9D0FA30FAF0F1F
:1020D300730F5B0F550F0A4B0D02150D05270D07E7
:1020E3001B0D0CFD0C0D090DFF00009C36063A700C
:1020F3003DD9404344AD47174B814EEA5100160F7B
:1021030000000B150B020002220F32000006000133
:1021130002030405060708090A0B0C0D0E0F4B10EA
:102123005D1063102B0F6910250F310FC310E110E1
:10213300E710C910D510CF1000011916181616157F
:102143002303000C0E020B040B0A0708000F000305
:102153004948424D181725050200383C3E363B3BA3
:10216300352B432C303017181921301B1D1F3030ED
:102173003016181920231A1C1E30850FA90FDB10E7
:10218300B50FBB0FB7106F10751081107B100005D2
:10219300150D0910080400000000000000BE040A29
:1021A3000E00040015000428090C04050A080F0892
:1021B300C082C083E99003BAF0E490036EF0121B6F
:1021C3000D9003CDE4F0A3F09003BBF0A3F0120E47
:1021D30083121B1390033DE4F0A3F09003DFE07040
:1021E30002A3E060099003DF124661121DA3902150
:1021F300B1E493FA7902121C1B023B2374F212031B
:10220300A9EAFEEBFF74805FF9E47001E960619075
:1022130003BAE0F912130F8A088B09EA7001EB6025
:10222300467B0080010BEB75F003A424D9F8E5F09D
:102233003420F988828983E493FA74FF6A602185E4
:102243000882850983E06A70DCAA08AB0988828961
:1022530083A3E493C0E0740193F583D082121DA39A
:10226300AA08AB09121303EEFA74806FFB0223C4AE
:1022730074105FF9E47001E9601D120DA58A088BE3
:1022830009EA7001EB600A120D09AA08AB091213DF
:1022930003EEFA741080D4EEA2E0501A900373E0B8
:1022A300640F700B7900120CDFE960031223D07402
:1022B300016EFAEF80B654207003022390750C0070
:1022C3001236897001EB70107C027D007A207B004E
:1022D3009003BAE0F91214177C0079047A007B00AA
:1022E300120D818A088B09800D740188828983F01D
:1022F300850A08850B09E5087002E509606D7C0015
:102303007904AA08AB09120D818A0A8B0B750C019B
:10231300E508240412500724FFF0A3E034FF12520F
:10232300037002A3E070C9E5082409F8E509340045
:10233300F9850882850983A3A3A3A3A3A3A3A3A3C6
:10234300A3E0640170A3850882850983A3A3A3A3E3
:10235300A3A3E054047092740688828983F07AB749
:102363008508828509831224FD8085120D517C0026
:1023730079017A007B00120D81EA7001EB7009E5A7
:102383000C70057A201245EA74200222B474025FAD
:10239300F9E47001E9600A120E7DEEFA740202227A
:1023A3006E74045FF9E47001E960121247971243F7
:1023B300FA7901122BEBEEFA740402226E7A007B97
:1023C30000800574031208F47F06020680901560EE
:1023D300123AB3120CF722C082C08374EA12095472
:1023E300851882851983AA82AB83794B121BF174FA
:1023F30008120B1F7402F07409120B1FAA82AB831D
:102403007950121BF17413120B1F124AB8121C0FCE
:102413007416023B2074F71203A974E1120954EAFB
:10242300FEEBFFEE7001EF6033851882851983ACF4
:1024330082AD83120DC97406120B1FE0601E741760
:10244300120B1FE0FD7401120B1FE0FCEEFAEFFB11
:102453007900121C5DE9600479A480027900023AD4
:102463006774F61203A9EAFEEBFF8E828F83A3A3A0
:10247300A3A3A3A3E05440601B12465D1247EF6081
:10248300067AFF7BFF801A8E828F83123CFFFAA3AA
:10249300E0FB8003120DED74FE6A700374FF6B6042
:1024A3004112465D124649120E47E98E828F8360C0
:1024B300061224F6E480051224F67401F07CE57D0F
:1024C3000C8E828F831244D1121C15E9F508701506
:1024D300EE7001EF60097901EEFAEFFB120D5D0278
:1024E300464F7508CDAA088E828F831224FDE960BA
:1024F300DF80ECE0240D123EE422E0240C123EE4E3
:10250300E0F9120CF12274F61203A9E9FEEAFF7A4C
:102513000F7B001212FDEA7001EB6019740C8A82C2
:102523008B83F0EEA3A3F0EF8A828B83A3F0124692
:10253300DF79008034EEF9120D878A088B09A80829
:10254300A909E87001E9601F740688828983A3A33F
:10255300A3A3A3A3A3124FE6A3A3A3A3A3E0F912E8
:102563000CA9EEF9120D637910024658C082C0839C
:10257300900373E0640F7018EA7001EB601290032C
:102583006EE0FC74086C600574046C70031225968D
:10259300023B23EAFCEBFD7A017B009003BAE0F9EE
:1025A300121D1D221247B2640222EE2409F8EF34F1
:1025B30000F9880A890B2274F21203A974FD120927
:1025C300548A088B09EA2402F50CEB124060F912D5
:1025D3000D878A0A8B0BAE0AAF0BEE7001EF700307
:1025E3000226C3850882850983A385820A85830B16
:1025F300E064F16014E064CD600FE0641A600AE007
:1026030064E96005E064E1701C7900120D5DE96026
:10261300148E828F83A3A3A3A3A3A3E04420F0A3D8
:10262300E0F00226AD850A82850B83E0C0E07402E8
:10263300120B1FD0E0F0124E8C12520885188285BF
:102643001983AA82AB837005120C1F8003120E2F0D
:10265300850A82850B83E064F1604FE064CD604AB4
:10266300E0641A6045E064E16040E064F0603B745C
:1026730002120B1FE0FC74B76C602F1226CF750A91
:1026830001780A1208B0ECF50A780A1208B0E508D6
:10269300240CF582E50912317F12308CFCA3E0FD96
:1026A3008A828B831230A61208F4EE24091225A71E
:1026B30070037406F0850C82850D83E0F9120D63B7
:1026C300120D519015641223D30223C68E828F8379
:1026D300123DCAE8FAE9FB2274F51203A98A088BB2
:1026E30009750A00EA2409123B99FEE9FF8E828FDD
:1026F3008312276C7003750A018E828F831242FD49
:102703007003A3E06B7006E50AD2E1F50AE508243D
:1027130002FEE5093400FFE50A60138E828F83E031
:102723007006E50AD2E58004E50AD2E6F50A120E40
:1027330047E964017006E50AD2E0F50A8E828F83C9
:10274300E06017E508241DF582E5093400122762CD
:1027530064016006E50AC2E0F50AA90A024AB31257
:102763003D04E0F9120E35E9221247F364022274A4
:10277300E81203A974DE120954EAFEEBFFEE240407
:10278300123CD1E06010901562E07002A3E0600695
:102793009015621223D3EE2402F50CEF1247D7747F
:1027A30003120B1FAC82AD83850882850983123027
:1027B30082FAA3E0FB120DC9EE241B123A717410C6
:1027C300120B1F1243FA7409120B1FE0601C741AD8
:1027D300120B1FE0FD7404120B1FE0FC1244CB79B3
:1027E30001121C5DE96003022A597403120B1FAA2C
:1027F30082AB83120D03E9F50A7409120B1FE07013
:102803000E900356E06008E9A2E14003022A59EE64
:102813002412F514EF3400F515EE242A1251FAEEC2
:10282300242EF516EF3400F517EE242C12317C120A
:102833002DA9E0687003A3E069701E750B00780B87
:102843001208B0780B1208B0851682851783E0F959
:10285300122A6E1230A61208F47406120B1FE0FA45
:1028630090035CE06A6003022A597409120B1FE0AB
:102873007003022931122A6E1244D1120EA18A0862
:102883008B09A808A909E87001E970030229D27429
:1028930004120B1F122A63FAA3E03400FB740D2AFF
:1028A300F582E43BF583E0FAE82404F508E91251E4
:1028B300FDE82403F582E912520E6A601FEAF090E4
:1028C30081747810120AF8850882850983E510F06F
:1028D300A3E511F0A3E512F0A3E513F07904E912DF
:1028E3000B1F122A63FCA3E034008C82F583A3AA96
:1028F30082AB831212EB8A0C8B0D8C0E8D0F850825
:10290300828509837810120AF87810790C120AAAC2
:102913005003022A5990816C780C1209E3850882CE
:10292300850983124D39A3E50EF0A3E50FF090035B
:102933006EE0FA74046A600874096A6003022A5933
:10294300E50AA2E54003022A14851682851783E06F
:10295300851882851983F0EE242F12520BC0E07480
:1029630001120B1FD0E0F0EE243012520BC0E074C2
:1029730002120B1FD0E0F07414120B1FE0640170FD
:1029830028740E120B1F123A77851482851583E083
:10299300687003A3E0697011740C120B1F12276C8B
:1029A30070077414120B1FE4F0EE242412317C120E
:1029B300072C7404120B1FAC82AD837407120B1F18
:1029C300AA82AB83120C2574041208F4022A5990CC
:1029D30003B3E0640160030229317420120B1F1258
:1029E3003CFF64067009E50AA2E65003022931742C
:1029F30010120B1FE064FF7004A3E064FF6057EE46
:102A0300FCEFFD7403120B1FAA82AB83120D0F8020
:102A130045A2E650417420120B1F123CFFFA7404C6
:102A23006A7018741A120B1FE0640270297403127F
:102A33000B1FAA82AB83120E23801B74076A7016C6
:102A4300741A120B1FE06404700C7403120B1FAA98
:102A530082AB83120E1D74221208F47F10020680CB
:102A6300E0FA850C82850D83E02A22850882850998
:102A730083123CEE8514828515832274F21203A916
:102A8300EAFEEBFF8C088D091225AD79008882F5EB
:102A9300831244D1120CB58A828B83E5827002E5DE
:102AA30083603DA3A3A3A3A3A3E054186032E50866
:102AB300241BF582E50912317F120730E508241241
:102AC300F582E50912317F120730EE2418F582EF03
:102AD300123B94122AEE120CC774041208F48008F5
:102AE3007900122AEE120C910223CB850A82850B00
:102AF30083123CEEEE240B123AAC2274F61203A9B5
:102B030074F71209548A088B0990036EE0FA740370
:102B13006A600D74016A600874096A6003022BDD40
:102B23008508828B83A3AE82AF83E06003022BC24E
:102B33007C007D007A027B00121B19E50824021237
:102B43002BE0123A7790035F1243FA7953121BF783
:102B53007900122BEB90036EE06409600990036C1B
:102B63001244D1120E9B740112467D740490036EBD
:102B7300F07401120B1FAA82AB83794A121BF17402
:102B830001120B1FAC82AD837A647B03121B31905D
:102B9300035F123CEA7A037B00121B199003621253
:102BA3003CEA7A047B00121B19900359E0A2E3501C
:102BB30004D2F08002C2F01246651223D08018FCC2
:102BC3007D007A037B10121B198E828F83E0F9122A
:102BD3002BEBE490036EF0120D33024653FAE50932
:102BE3003400FB8A828B832290036C123AB3120C5B
:102BF3003122C082C08390033DE07002A3E07041A4
:102C030090036EE01207B5000301172C05262C066E
:102C1300352C442C900345E07002A3E060769003CA
:102C230045806B900341E07002A3E060679003412D
:102C3300805C900343E07002A3E0605890034380FC
:102C43004D90033DE07002A3E060091233F3FC747E
:102C5300016C702379009003BB800909EA124C3B95
:102C6300EB12317F1239547001EB70EF9003BB12FA
:102C730044D1120C2B801D74026C7005120E7180EE
:102C8300139003E1E07002A3E060099003E11246B0
:102C930061121DA3023B2374F41203A974FB1209EE
:102CA300548A088B097A0F7B001212FD8A0A8B0B58
:102CB300AE0AAF0BEE7001EF7003022DA474028E07
:102CC300828F83124AB97950121BF18508828509D4
:102CD30083A3858208858309E06003022D8D900319
:102CE3006C124FDF700374FF69602F74FE6870030A
:102CF30074FF696025851882851983E0687003A3D2
:102D0300E069601674EA8508828509831230B87A0F
:102D13006C7B037950121BF78070851882851983A9
:102D2300122DA91243FA7A5F7B037953121BF19098
:102D3300035F1243F57A627B03794B121BF17A61CD
:102D43007B0379E1121BF1900373E0C3940F5022CC
:102D5300900361E0C0E07402120B1FD0E0F0740432
:102D6300120B1F7401F07402120B1FAA82AB8312A1
:102D73001C09750A00780A1208B0780A1208B09084
:102D8300157FE0F912309D1208F4850882850983C6
:102D930012306DF0740390036EF0EEFAEFFB1246FF
:102DA300DF7405023B8C123DCA90036C2274EC1253
:102DB30003A974ED1209548A828B83A3123072EA39
:102DC3002408123B99FEE9FF851882851983AC829A
:102DD300AD838E828F8312308CFAA3E0FB120D3FFA
:102DE300851882851983E070708E828F83E0C39487
:102DF3000B4066850882850983A3A3A3A3A3A3A38A
:102E0300A3E06402705390036EE0FAE5082410F522
:102E130010E5093400F511E50824091247D37402BB
:102E23006A603B74066A603690033DE07002A3E07B
:102E330060071233F36401605574086A6005740413
:102E43006A70167402120B1FE0F97407120B1FACA1
:102E530082AD831244CB120D457413024D0A9003C5
:102E63003DE07002A3E07026750A00780A1208B0EC
:102E7300780A1208B0851082851183123082FCA370
:102E8300E0FD8508828509831230A61208F49003B9
:102E9300BB12504B9003BB124D02E508240DF50EF7
:102EA300E5093400F50F80308E828F83E0F8A3129A
:102EB3003082687003A3E06970128E828F83A3A3AC
:102EC300E0FA850E82850F83E06A606B8E0A8F0BB2
:102ED300EE124C3BEF125048EE7001EF70CA7A18B5
:102EE3007B001213758A128B13AE12AF13EE7001AF
:102EF300EF7003022E5C7C1812517A1246F4EE2412
:102F03000C12317C74FFF0E508240B1250071230C9
:102F130064125202C4123064A3A3F09003BBE070A6
:102F230002A3E070059003BB800AE50A124C3BE55F
:102F33000B12317F124E927401120B1F12307CA3BD
:102F4300F07402120B1F12307CF0850E82850F8302
:102F530012306DA3F0125020124219240DFAEF34EF
:102F630000FB7402120B1FE06401600E7407120B66
:102F73001FAC82AD83121B3180097C087D0079FF71
:102F83001212E57412120B1FE0C0E0EE2415123189
:102F93007CD0E01230AFFC90157FE0C39C4003026D
:102FA3002E5C124FF5E50912317FA3E05480F9E45A
:102FB3007001E97009900CE9E07003022E5C7D005A
:102FC300EE240CF8EF3400F9EE240BFAEF3400FB97
:102FD3009003ABE06402701D8A828B83E0F50AC321
:102FE3009C500D7405120B1FE0C39405401B801AFF
:102FF300E50A6C70157405120B1FE0C0E088828926
:1030030083E0FCD0E0C39C50010D7406120B1FE05B
:103013006035ED6025850882850983124AC7ECF087
:10302300A3ED1230AF8A828B83F07405120B1F124B
:103033003CF47406120B1FE0600D74018E828F83C3
:10304300A3A3A3A3A3A3F07404120B1FE0700302B2
:103053002E5C74018E828F83A3A3A3A3A3F0022EFD
:103063005C540F8E828F83A3A32212327EA322A3EA
:10307300A3E0F508A3E0F5092212327E0242A7E09D
:10308300F9850C82850D83E022E0F98A828B83A384
:10309300A3A3A3A3A3A3A3A3E02290036C123CEED8
:1030A300900362123AB3120DFF740222F08510826C
:1030B300851183E022F07A5F7B0379531230C322B8
:1030C300121BF77A627B03794B121BF72274F012FF
:1030D30003A974F81209548A0C8B0D8C0A8D0B8981
:1030E3000E851882851983AC82AD837583817582C1
:1030F3003B7408120828F50FAC0CAD0D85188285BA
:103103001983AA82AB83124D4B7003750F01900391
:10311300BB8030AC0CAD0DEE240DFAEF3400125130
:10312300F6601A850882850983E0650E700F8E822A
:103133008F83E0650A7004A3E0650B6032EE24160A
:1031430012317C1239DF7001EF6024EE2402125138
:10315300FAE50F70BE8E828F83E0650A7004A3E0E8
:10316300650B70D9850882850983E0650E70CEEE04
:10317300FAEFFB0247BBEE240BF582EF12503D2220
:1031830074F71203A99003BB12411A800CEA2416A8
:1031930012504512137BEEFAEFFBEA7001EB70ED70
:1031A3009003BBE4F0A3F0023A6C74F11203A98A12
:1031B300088B09ECFEEDFF890A8A828B83124D414D
:1031C3008A828B8312327DF0EEF8EFF9A30EAF8380
:1031D3008A828B83A3A3E0C454F0FA88828983E0B4
:1031E3004A12328912327E123284E0333354FCFAAB
:1031F3008E828F83E04A123284A3E033333354F850
:10320300FA8E828F83E04AF008EFF9A30EAF83852D
:1032130008828B83A3A3A3A3A3A3E0A2E0E492E089
:1032230013135480FA88828983E04AF0E50824075F
:10323300F50CEB1247D7750E00780C1208A87C0822
:103243001240541208F4124D21E508240F1247D3FB
:10325300780C1208A87C031240541208F4E50AC340
:10326300940F4011E5082412F582E50912317F120B
:10327300306DA3A3F07F07020680A3E08E828F83C5
:1032830022123289A322F08508828B83A3A3A3226F
:1032930074F11203A9EAFEEBFF890A8C088D098EEB
:1032A300828F83E08C828D83124202AE82AF83E0F1
:1032B3001242B812335FC41242B8123353E05403BC
:1032C3008C828D8312335DA2E2E492E08C828D8343
:1032D30012335C131313541F1242B8A312335CA2AC
:1032E300E7E492E08C828D83A3A3A3A31233538ECE
:1032F3000C8F0D750E00780C1208A87C087D00E574
:1033030008240712334A1208F4124D218E0C8F0D34
:10331300780C1208A87C037D00E508240F12334AB9
:103323001208F4E5082412F8E5093400F9E50AC3A4
:10333300940F400A8E828F83A3A3A3E08001E488C5
:10334300828983F0023278FAE50934001240592267
:10335300A3A31242060EAF8322A3A3A3A3F0024C9E
:103363004E74F41203A974F9120954EAFEEBFF90A8
:10337300033DE07002A3E060101233F364027009AE
:10338300EEFAEFFB120E6B806290036CE06E70033B
:10339300A3E06F705674016960097A807B03124D54
:1033A3004B70487A007B0212368D7001EB703C90B3
:1033B300036F7808120AF885188285198378081232
:1033C3000AE9900375E0C0E07404120B1FD0E0F02B
:1033D3007405120B1F7401F07406120B1F74021292
:1033E3004AB9120BFBE96098120C017407023B8C7B
:1033F30090033D123EF1E02274F71203A98A828BF7
:1034030083A3AE82AF83E0F9120C498E828F83E0EF
:10341300FA74EB6A600574E16A7002E4F01223D077
:1034230075080178081208B08E828F83E0F508785A
:10343300081208B0790012309D1208F4120D5102DF
:103443003A6C74F61203A99003CCE0701F7C0079E8
:10345300017A007B00120D81EA7001EB600E8A8213
:103463008B83E07002A3E06003120CEB024658C0AA
:1034730082C0831238BF401079FF120D7BE9FA90A6
:1034830021ACE493C39A5004790180027900023B92
:103493002374EE1203A98A088B09890D750E00EABD
:1034A3002408F50AEB3400F50B850A82F583E0F96D
:1034B300120D878A108B11AE10AF11750C01EE70CF
:1034C30001EF6003023557850882850983A3A3A30F
:1034D300A3A3A3123CEA850A82850B8312411F1220
:1034E30044D1120D6F8A0A8B0BAE0AAF0BEE70013B
:1034F300EF70030236818E828F83A3A3A3A3E4F02C
:10350300A3F0E508240BFAE509124D50C0E012318F
:1035130079D0E0F0120E4DEE240C124642750E01E6
:10352300EE2406F8EF1238CEE0547FF0A3E054FC0B
:10353300123767540460030235E99015681241138A
:1035430074077808120A558A828B83E04508F0A332
:10355300E04509F0EE2406F8EF123B9BFCE9FD8CF5
:10356300828D831244D174805AF50874035BF50984
:1035730074077808120ADAE508F510EE2404F50A50
:10358300EF3400F50BEE24091251FAE50D60607477
:1035930002850882850983123360240D123EE0E020
:1035A300A2E2500F90035A123A77850A82850B8361
:1035B3001243FAE5107003023648747F5AFA74FC1A
:1035C3005BFB74FF2510F51074FF3400F5117407CD
:1035D3007810120A55E5104AF8E5114BF98C828DE3
:1035E300831243FA805FE04480F0A3E0023556E59E
:1035F300107005750C00804DEA542060151212F707
:103603008A10747F5510F8745F28850A82850B83AE
:10361300801BEA5410600E1212F78A10740F5510B3
:10362300F8740F80E4850A82850B837401F0A3E4A8
:10363300F07404850882850983F01236897001EBE2
:10364300700312461F7401650E7036850A82850B5E
:1036530083123CEA850882850983E0F9EEFAEFFBE1
:10366300120D75E9601BEE240C12317C1239547073
:1036730001EB600312137BEEFAEFFB12137B750C65
:1036830000A90C0243DE7A207B009003BAE0F91212
:103693001423EA2274F61203A974F71209547E0064
:1036A300120D87EA7001EB70030237628A828B8303
:1036B300A3A3A3A3A3A3A3A3A3E064066003023766
:1036C300628A828B83A3A3A3A3A3A3A3E0FF8A821B
:1036D3008B83123EEBE0C0E07408120B1FD0E012A4
:1036E3003767123D071248DF1243FA120D99740827
:1036F3005FF9E47001E96065851882851983123CDE
:10370300EA7A007B00120D69EA7001EB704F9003B7
:103713006C123BA0121C217C007D007A007B008090
:10372300268E828F83E0123A7B7004A3E064FF60ED
:103733002C90036C123CEA121897E9641A601E7C01
:10374300007D00EEFAEFFB120D698A088B09AE08C3
:10375300AF09EE7001EF70C97900121C277E01EEEC
:10376300F902465312381DE02274F71203A9EA70D6
:1037730001EB70059003CD80068A828B83A3A3128D
:1037830039547001EB60288A828B83A3A3A3A3A37C
:10379300A3A3E05408F9E47001E960DDEC7001EDE6
:1037A3006011123CFB6C7003A3E06D70CC80047A53
:1037B300007B00023A6C74F21203A9EAFEEBFF8964
:1037C3000A8C088D097A0E7B00121375EA7001EBDF
:1037D300603AE48A828B83A3A3A3A3A3A3A3A31224
:1037E3003821E50A123A87E508F0A3E509124FD517
:1037F300E4F0123821A3A312381D124E92EA240CCE
:10380300F582EB123CE1123812F0A3F00223CBA3B2
:103813001238172212381DA3A322F0022BE6A3129B
:103823003A8BA3A32274F51203A9EAFEEBFF890ADC
:103833008C088D09EE7001EF60567401650A7014EF
:103843007901120D7BE9FA9021B2E493C39A500FE8
:10385300791180657404650A70301238BF40F18EA7
:10386300828F83A3A3A3A3A3A3A3A3A3E50A1242C3
:103873000D12527DE4F0A3F09003CDE07002A3E0BB
:103883009003CD6024123A77800A7402650A60CFF0
:1038930079C18025E824020808E91238CE12398953
:1038A3007001E970EF8A828B83124E92123689700F
:1038B30001EB700312461F7900024AB37904120D1B
:1038C3007BE9FA9021AEE493C39A22123B9BFAE977
:1038D300022BE5C082C083E9FC79009003CD801DF3
:1038E3008A828B83A3A3A3A3A3A3A3A3A3E06C6054
:1038F3000574FF6C7001098A828B83A3A312395468
:103903007001EB70DB023B2374F71203A9EA700129
:10391300EB70059003CD80068A828B83A3A31239B3
:10392300547001EB60248A828B83A3A3A3A3A3A374
:10393300A3A3A3E06970E1EC60148A828B83E02483
:103943000D124C48A2E240D080047A007B00023A78
:103953006C123AB3EA22C082C0839003CD80068AF8
:10396300828B83A3A31239547001EB60128A828B7A
:1039730083A3A3A3A3A3A3A3A3E06970E280047A10
:10398300007B00023B23123DCAE82274F11203A913
:103993008A0A8B0B8C0C8D0D750800750900EA7073
:1039A30001EB60319003CD80068E828F83A3A31237
:1039B30039DF7001EF601EAC0CAD0DEEFAEFFB8545
:1039C3000A82850B83121DA3E9640170DCEEF8EF14
:1039D300F988088909AA08AB09023278E0FEA3E056
:1039E300FFEE2274F71203A99003CD123A777C00FD
:1039F3007D008007E8FCE9FD123A77E87001E96091
:103A03003AE82402F582E912317FEA687002EB6931
:103A130070E21244D19003CD12504BE86E7002E96C
:103A23006F70099003CDEAF0A3EB800EEAF8EBF98F
:103A33008C828D83A3A3E8F0A3E9F0802C74F712A2
:103A430003A9EAFEEBFFEE7001EF6016120D93126D
:103A53003A91EA7001EB600312137BEEFAEFFB126B
:103A6300137B8005741F1208F47F01020680F58220
:103A7300EF12503D123DCA22FAA3E0FB8A828B83E8
:103A8300E064FF22123A8B2212381D0242A88E8272
:103A93008F83E0241C123EE4123AB88E828F831285
:103AA3003AB8EE240C123AAC22F582EF3400F583D7
:103AB30012411AFB2212411AFB12137B22C082C04D
:103AC30083EAFCEBFDEC7001ED70047905804CECAE
:103AD30024FBF582ED34FFF583E07002A3E070115F
:103AE300EC24FFF8ED34FFF988828983E064FF60FA
:103AF3000512130380D59003BA123CF49021AFE46E
:103B030093F97ACF7B0312132DE96401700B7A00CA
:103B13007B1012462379008002790480031208F493
:103B2300D083D08202061174F41203A9A2AFE492E7
:103B3300E0F508C2AF9003CF1239DF7001EF603DAB
:103B4300EE24FBF582EF34FFF583E07002A3E07A05
:103B5300007B109003BA60051246268005E0F91237
:103B63001339750A00750B00780A1208ACEEFCEFE6
:103B7300FD7ACF7B0312132774021208F4E508A21F
:103B8300E092AFEEFAEFFB80031208F47F04020623
:103B9300801247B5F922F8EB3400F9E822123CEE23
:103BA300851882851983AA82AB832274F01203A934
:103BB30074FC120954EAFEEBFF120D57E960057914
:103BC30011023CCCEE2402123CD11247EF6006EE08
:103BD3002412123CDEEE241312520B7003741EF0F7
:103BE300EE2411F8EF1247DC7019900DB9E0600D67
:103BF300900356E0700D8E828F83E07006E4888216
:103C03008983F0EE2414080808EF12500A700C9010
:103C1300034B123CF490034BE004F0EE240FF50A3F
:103C2300EF3400F50B8E828F83E06401701712313D
:103C330079123CFF6402700D850A82850B83E04490
:103C430040F0A3E0F0851882851983AC82AD83EE42
:103C5300FAEFFB120DBD8A0C8B0D85088285098353
:103C6300123CEAEA7001EB605C8E828F83E0C0E075
:103C73007401120B1FD0E0F07402120B1F124E924C
:103C83007401120B1F85820885830978081208AC1A
:103C9300850A82850B83120730EE240E12520BF530
:103CA3000878081208B07405120B1FE0F9120DB75B
:103CB30074051208F4E9FE74106E700BAA0CAB0DB8
:103CC30012137B80027E10EEF974040247BDF508DF
:103CD300EF3400F509850882F58322F582EF12504F
:103CE3003DE4F02212503A123CEE22E0FCA3E0FD48
:103CF30022E088828983F0228A828B83123D06E048
:103D030022F583E0F8A3E0F583888222C082C08392
:103D130074DE1209548A828B83A3A3A3A3123A7776
:103D2300740E120B1FE8F0A3E9123DC3740C120BBF
:103D33001F123DBC240DF582EB12520EC0E0741A23
:103D4300120B1FD0E0F0EA124FF7EB123A74742013
:103D5300120B1F123DBC2415F582EB12520EC0E06C
:103D63007408120B1FD0E0F0EA241CF582EB123A20
:103D7300747412120B1F1243FA74FF85188285198B
:103D830083F07401120B1F74FFF07402120B1F7483
:103D9300FFF090817412072C7404120B1FAC82ADD8
:103DA300837407120B1FAA82AB83120C25740412AF
:103DB30008F479007422023B20E8F0A3E9F0EA2238
:103DC300123817123DCA22E0F8A3E0F92274EF1269
:103DD30003A974F01209548A0C8B0DECFEEDFF89D4
:103DE300107421120B1FE0F50F7422120B1F124DDA
:103DF300027424120B1F123074750E107A1E7B008E
:103E03001213757402120B1F1246497402120B1F10
:103E1300E07002A3E07003023ED485188285198303
:103E2300AA82AB8379501244C11244D17402120B9B
:103E33001F123EEBA31246497402120B1FE0240B20
:103E4300123EE07402F0120B1F123EEB7402F012EA
:103E53000B1F124661124E927402120B1F1249E29B
:103E6300E510F07402120B1FE0240C123EE0E50F84
:103E7300F07402120B1FE0241C123EE0124D397441
:103E830008120B1FE50AF0A3E50BF0740A120B1FCF
:103E9300E50FF0850882850983C082C083740D1203
:103EA3000B1FAC82AD83D083D0827403120828F930
:103EB3007402120B1FAA82AB83120D5DE9640170B9
:103EC30005750E00800B7402120B1F1244D11213DE
:103ED3007BA90E74101208F47F09020680123EE4D7
:103EE30022F8A3E01252EA22123EF1A3A322E0F841
:103EF300A3E0F58388820242A874EA1203A9EAFECA
:103F0300EBFF8C088D098E828F83A385820A8583BC
:103F13000B7408F0EE2416F50CEF12406060097480
:103F230010850A82850B83F0EE2417F510EF340019
:103F3300F511851082F583E0600A850A82850B837B
:103F4300E02408F0EE2411F8EF12500A6005750E14
:103F53000E8003750E00EE240DF514EF3400F515F5
:103F6300850A82850B83E0851482851583FAE02A0E
:103F7300250E8C828D831252036013900357E0F950
:103F8300121C57E9FA850882850983E02AF085081F
:103F930082850983E0FAC3947540097508007509A1
:103FA3000002404B7B00124F407001EB7003024054
:103FB3004BEEFAEFFB120DC3EA85088285098312E3
:103FC300464AEE2402F81247A1124075F0EE24048B
:103FD30008081247A1A3A3124075A3A3F0EE24136C
:103FE30012406BF0EE241412406BA3F07A08850C98
:103FF30082850D83E0600FEE2418123CE7E5082468
:1040030008124CF87A10851082851183E0600FEE58
:10401300241A123CE78A0CE508250C124CF81252BC
:1040230008F510A3E0F51175120078101208A885A1
:104033001482851583E0FC7D001243E3E50E28FA24
:10404300E4391240591208F4AA08AB097F0E02069C
:10405300807D00EEFAEFFB1212D97403223400F5CF
:104063000D850C82F583E02212503A12407FA3A300
:10407300A322A3A3124FDBA312407F22E085088271
:10408300850983A3A3A32274F61203A98A828B83CF
:10409300E0FC90035C12411374027808120A55E5A0
:1040A300084CFCAD09EA241212410D74067808127B
:1040B3000A55E5084CFCE5094DFDEA241112410DB2
:1040C30074097808120A55E5094DFDEA24161241D0
:1040D3000D740B7808120A55E5094DFDEA241712F1
:1040E300410D740C7808120A55E5094DFD8A828B3F
:1040F30083A3A3A3A3A3A3124113740A7808120AE8
:1041030055ECFAE5094DFB024658F582EB12503D9A
:10411300E0F50875090022E0FAA3E022E0F985083A
:10412300828509832274F21203A98A088B09ECFEA3
:10413300EDFFE98E828F83F0124435C0E0EE241147
:1041430012317CD0E012442FC0E0EE241212317CF5
:10415300D0E0124202A882A9831244006010E5084D
:104163002408FAE5093400FBEE24131242208E8260
:104173008F83A3A3A3A3A3A3A3A3E060158882892A
:1041830083E0FAE5082AFAE5093400FBEE24151268
:104193004220EE2419123CDEEE241B123CDE1252A6
:1041A30002F50AF50CE508250CF8E5093400F9EEEB
:1041B300241DFAEF3400FBEAFCEBFD8C828D8312A5
:1041C30042192417FAEF3400FB8A088B098E828F79
:1041D30083E0C3950A8A828B8312420DA3A3E06016
:1041E3001B8A828B83E024F2F0E8240EF8E9124460
:1041F30008FA850882850983E0C39AF00223CB126B
:10420300420622F08E828F83A32212421122F08E65
:10421300828F830242AAE8F0A3E9F0EE2212503A19
:10422300EAF0A3EB124FDBE02408F02274F412034C
:10423300A98A088B09EA1242AFF0EA1313543F121A
:1042430042B8A3A3A3F0EAC413131242AFA3A3F08B
:10425300E48C828D83A3A3A3A3A3F08A0A8B0B749C
:1042630009780A120ADAE50A12429FF0EC2418F5DB
:1042730082ED123CE18A0A8B0B740B780A120ADA7C
:10428300E50A12429AF0740C7808120ADAE5081269
:10429300429AA3F0023B8F12429FA32254018C82C5
:1042A3008D838001A3A3A3A3A3A3A32254038C827E
:1042B3008D83A3A322540F8C828D8322C082C0835B
:1042C3007900900356124B30A3A3A3E0600FEC7068
:1042D300268A828B83A3A3E0701D09801AEC6017E2
:1042E3008A828B83A3A3A3A3A3A3A3A3A31242FDA5
:1042F3007003A3E06B70E3023B23123AB390035FB6
:10430300E06A2274EE1203A98A088B09890CECFE79
:10431300EDFF124435C0E0EE241112317CD0E012DF
:10432300442FC0E0EE241212317CD0E01242028509
:10433300820A85830B1244006010E5082408F8E51F
:10434300093400F9EE241312441E8E828F83A3A333
:10435300A3A3A3A3A3A3E060091243E3EE241512CE
:10436300441EEEFAEFFB120DD5E9F50D706B850ACD
:1043730082850B83E0F50EF510E5082510FAE509B3
:104383003400FBEE2417F8EF3400F988088909EEAE
:10439300241DF8EF123B9BFCE9FD8E828F83A3A3C0
:1043A300A3A3A3A3E07012EAF8EBF98C828D831226
:1043B30043FAE50CC3950E8019EA240EF8EB124478
:1043C30008FB850A82850B83E0FAE50CC39A24F285
:1043D300C39B850882850983F0A90D7F0A020680A5
:1043E300850A82850B83E0F8E50828F8E50934009F
:1043F300F92212502AA3A3E8F0A3E9F022740812C9
:1044030042110230983400F98C828D83E8F0A3E9DD
:10441300F0900357E0F9121C57E92212503AE8F0E2
:10442300A3E9F0850A82850B8302422A1247C5025B
:1044330030988A828B83123AB3120DCF8508828516
:104443000983A3A3124474E0F9EA8E828F83A3A3A2
:10445300A3A3A3A3A3A3A3124479124474A3A3E025
:10446300F9EAF8EE240B12503AE8124479A3A3E0D8
:1044730022E0FA024080F0A3E91247C922C082C0B9
:10448300837AD47B0379E2121BF17AD47B03023B58
:1044930023C082C08390035F1244D1023B23C082B6
:1044A300C08374FE120954851882851983AA82ABCE
:1044B30083794B1244C11244D17402023B20121B74
:1044C300F185188285198322850C82850D83123A22
:1044D300B322C082C083794A121BF1023B2374F6D4
:1044E3001203A99003DCE0FE04F0EEF9120D87EA53
:1044F3007001EB70EEEE60EBF902465874EE1203B6
:10450300A9EAFEEBFF8C088D09890A7412120B1FAE
:10451300E0F50B7413120B1FE0F50C750D00750E0F
:1045230000120EA18A108B11AC10AD11EC7001EDCD
:104533007014E50C704DA90AAC08AD09EEFAEFFB57
:10454300120EA70245E5EC2402F8ED3400F9E50A62
:10455300601988828983E0FA850A08E5082AFAE463
:10456300340013EA13F070037401F0E50C6020E5E6
:104573000B70108C828D83E0600914F06402700369
:10458300750E017401650C7035E50B7016802A9069
:10459300157FE0C0E088828983E0FAD0E0C39A50B7
:1045A3004180DD9003E3E004F0C0E0901569E0FA98
:1045B300D0E0C39A4008750D01E49003E3F0E50EE3
:1045C3007004E50D601CE50D6018900362E06E70E9
:1045D30003A3E06F700CEEFAEFFB7901120C4312A8
:1045E30045E80243DE7A017B009003BAE0F9121436
:1045F3001D22C082C08374016A7001EB70077A01C7
:104603001246218014901560124649EA7001EB604E
:104613000512259680031245E8023B237A207B008E
:104623009003BAE0F912133322C082C0839015625B
:10463300124649023B23C082C08390156480F1F582
:1046430082EF3400F583EAF0A3EBF022A90880059A
:1046530074091208F47F020206808E828F83123D52
:104663000622A2F0E492E01246737952121BF7225B
:10467300851882851983F0023BA912467379421289
:104683001BF722AA82AB83120D397ABD7B037945CE
:10469300121BF72274F71203A974ED120954E9FEF1
:1046A3009003B91249E91246CE7412120B1FEE128F
:1046B30046C38518828519831246867413023A69A4
:1046C300F09014FCE0F97CBD7D03229014FCE0F92A
:1046D3007ABD7B03120D3F22AA08AB099003BAE00F
:1046E300F9121309223400F5837401221246E8F00B
:1046F30022A3A3A3A3A3A3A3A3A374FEF0A374FF62
:10470300F02274F41203A9EAFEEBFF7A007B041291
:1047130045EC1247971243FA740990036EF0120D99
:10472300E18A088B09AC08AD09EE241312317C121F
:1047330044D1124D4B6401704D7A0F12478C7001B6
:10474300EB604374028A828B83F0EE241DF8EF1230
:1047530052E61244D18A828B83A3124B35E0FBECE1
:10476300850882850983A3A3F0A3EB125203123DAC
:1047730007A3A3A31247A51247A9FAA3E0FB794A0B
:10478300121BF71246DB023B8F7B001212FD8A08D5
:104793008B09EA2290033F123DCA90156422EF125F
:1047A30052EAE0024121A3F0EE24151247B222F5AA
:1047B30082EF3400F583E02274081208F47F0802C4
:1047C30006801247C922F08508828509830242AA1E
:1047D300F50CE5093400F50D2212500E6401228E0A
:1047E300828F83A3A3A3A3A3A3A3A3A31247F32209
:1047F30012411AFB120E47E922124AC1120E3B2242
:1048030074F41203A974F3120954EAFEEBFF7C0D4E
:104813007D007900851882851983AA82AB831212E1
:10482300E5EE241D12317C124661A3E0F8542060AA
:1048330008740C120B1F7401F0E854806008740BA9
:10484300120B1F7401F0E85440600A740A120B1F24
:104853007401F0800A740A120B1FE064017005EE04
:1048630024138003EE2415123CE77402120B1FAAD3
:1048730082AB83121B31EE240BF8EF3400F9880866
:1048830089098882F5831248DF1243FA740A120BEE
:104893001FE0640170341247E2703C120DED8A0A86
:1048A3008B0BA80AA90B850882850983E06870032E
:1048B300A3E0697022120DE1EAFCEBFD7402120B16
:1048C3001FAA82AB83124D4B600D85188285198315
:1048D300AA82AB83120C3D740D023B8C123DCA02BB
:1048E30044C474F61203A974F31209548A088B0999
:1048F300ECFEEDFF7C0D7D00790085188285198320
:10490300AA82AB8312517EA3A3A3A3A3A3A3A3A3AE
:104913001248DFE8F0A3E912496FFAA2E5500874E0
:104923000B120B1F7401F0EAA2E75008740A120B72
:104933001F7401F0EAA2E6EE50042413800224154A
:10494300123CE77402120B1F124965A3A3E0C0E0F7
:10495300740C120B1FD0E0124AB9120C37740D02FB
:104963004655AA82AB83121B31024121F0EE241D6E
:10497300F582EF3400123D04A3E02274F71203A979
:1049830074E1120954EAFEEBFF1226CFEA2406F87B
:10499300EB12500AA2E0504454FEF0A3E01249E99E
:1049A3008A828B831249E2E0F98A828B83E0241C9A
:1049B300FAA3E0122BE31244D1120DDBE9701D744C
:1049C3001D120B1F123CFF64047011851882851998
:1049D30083AC82AD83EEFAEFFB120E29023A67E055
:1049E300241B123EE4221249F1AC82AD8322F00271
:1049F30044C4E9FA790074046A600A740A6A6005B7
:104A030074036A70010902061174F61203A9742073
:104A13008A828B83F07401A3A3F0120BEFEA700177
:104A2300EB600774018A828B83F0024658C082C010
:104A33008374019003D1F0E9A2E350037403F0E916
:104A4300A2E15004E0D2E2F0023B2374F61203A980
:104A530079007C008A088B0978081205B9F8FF07EA
:104A6300814A7F4A7F4A7F4A7F4A784A7C4A814A01
:104A7300754A0C80097C0480050C80F67C08900341
:104A8300D1E05C6003098003EC60010902465874BD
:104A9300F61203A98A828B83E0700EA31239547035
:104AA30001EB6005121D0B80047A007B000246585F
:104AB3007F03020680E4124ABD22124AC122124930
:104AC300F1023BA9123CEE8E828F83A3A30242A77D
:104AD30074F21203A974FD1209548A088B09ECFEBF
:104AE300EDFF890A750B017401120B1F7404124F39
:104AF300FC7001EB6032EA124FF7EB123A74740365
:104B030088828983F0A3E50AF0EE88828983A3A3D0
:104B1300F0EF88828983A3A3123812E508F0A3E596
:104B230009F0120BE9E9F50BA90B0223C6124B3569
:104B3300A322E0FC8A828B83A3A32274EC1203A931
:104B430074F51209548A0C8B0D89108C0A8D0B7421
:104B53001F120B1FE0F5117420120B1FE0F50EA3BB
:104B6300E0F50F7E01EE120B1F740AF0E97007E502
:104B730011C333240AF0851882851983AA82AB8373
:104B8300120E3B8A088B09EA7001EB7003024C3466
:104B93001250427409124D2A4511124D44AC0AAD0C
:104BA3000B124D12E510702D7C008023ECC333F8FB
:104BB300E433F9E50E28F8E50F39F9888289831281
:104BC3004D418882898312327DF0A30EAF830CECB2
:104BD300C3951140D7E5082417F582E509124C4027
:104BE300E508241AF582E5091246457403120B1FE2
:104BF300AC82AD83AA0CAB0D120B29E96021E50849
:104C0300124C3BE5091246EF7403120B1FA882A94D
:104C130083E5082418F582E50912317F1243FA85EA
:104C23000882850983124D37AA08AB09120BE9E9FB
:104C3300FEEEF9740B024D0A2416F582221246E8A1
:104C4300F0120DE122FEA3E03400FF8E828F83E099
:104C53002274EC1203A98A0C8B0D89118C0E8D0F13
:104C63007414120B1FE0F5107415120B1F124D0272
:104C7300900D29E07002A3E06078E510C333F508D6
:104C8300E433F509740E2508FAE43509FB1212FD25
:104C93008A128B13AE12AF13EE7001EF605474D40B
:104CA3008E828F83F0124D378E828F83A3A3A3A3AB
:104CB300E511F0AC0EAD0FEE2405FAEF124CFBEE4E
:104CC300240D12317CE510F0850A0C850B0D750E51
:104CD30000780C1208A8AC08AD09EE240EFAEF1206
:104CE300334D1208F4EEFAEFFB900D2912466112D0
:104CF3001DA3024D0DFAE5093400FB121B3122E01E
:104D0300F50AA3E0F50B221208F47F0C020680EEED
:104D1300FAEFFB124D1A22121B31124D2122EE24FF
:104D230008FEEF3400FF228E828F83F0A3E510C4C8
:104D33003354E022A3A3E50CF0A3E50DF0221232D5
:104D43007EF0A3AE82AF8322121B2BE922124D54B5
:104D5300223400FB8A828B83E02274F61203A9E9D2
:104D6300FE7C007D0078007900800BEC2508FCEDCB
:104D73003509FD12515212521F5041E8FAE9FBEA7C
:104D830075F012A4FAAFF075F012EBA42FFBEA242E
:104D930009FAEB3411FB8A828B83A3A3A3A3E064F8
:104DA300FF60D0EA2410124E1F7002E50960C4EEC2
:104DB30060B98A828B83E4F0A3F080B7780079002E
:104DC300800BEC2508FCED3509FD125152125212ED
:104DD3005043E8FAE9FBEA75F017A4FAAFF075F06F
:104DE30017EBA42FFBEA2483FAEB3412FB8A828BA2
:104DF30083E064FE7004A3E064FF60CEEA2415122E
:104E03004E1F7002E50960C2EE60B78A828B83E4AD
:104E1300F0A3F080B5ECFAEDFB024658FAEB124D25
:104E230054F508A3E0F509E5082274F61203A9EA8C
:104E3300FEEBFF9003D2801388828983E06E7003B8
:104E4300A3E06F603B88828983A3A3123989700131
:104E5300E970E57A047B001213758A088B09A808A8
:104E6300A909E87001E9601888828983124E92903B
:104E730003D2124E86A3A31246499003D21243FAD9
:104E8300024658123AB302501B851882851983EEE5
:104E9300F0A3EFF02274F41203A97E009003D280F2
:104EA300070E88828983A3A31239897001E970F1FF
:104EB300EEC333FAE433FB124F407001EB60787FAB
:104EC300009003D2802488828983123CEAEFC333A3
:104ED300FAE433FBE5082AF582E5093BF583ECF0B8
:104EE300A3EDF00F88828983A3A31239897001E9A6
:104EF30070D49003B51242FD7003A3E06B78087081
:104F0300161208ACEEF50A780A1208B07C807D030D
:104F13007900120E5F80141208ACEEF50A780A12BB
:104F230008B07C807D037900120E5974031208F4D3
:104F3300AA08AB0912137B120C01023B8F121375E3
:104F4300024791C082C08380128A828B83A3A312FB
:104F53003A779003D21243FA12137B9003D2123999
:104F6300547001EB70E3023B2374F61203A9900320
:104F73006C12504B9003DD122DA91243FA7ADD7B9C
:104F8300037950121BF79003DD125013120EAD90EC
:104F930003DD12504B900D2BE07002A3E060307ADA
:104FA300067B001212FDEA7001EB602374D58A823E
:104FB3008B83F0E4A3A3F074018A828B83A3A3A35E
:104FC300124FD5124E92900D2B124661121DA30261
:104FD3004658123817A3A322F002501B123DCA747D
:104FE300FF6822124FEA22A3A3F088828983A3A336
:104FF300A322E508240BF582221247FCEA2208E9E2
:105003003400F922F8E50912500E221252EAE02286
:10501300123CEEEEFAEFFB228882898322850C8212
:10502300850D8312502A22E0F8A3E0F902327FF0C3
:10503300EE240F12503A22F582EF3400F58322EA70
:10504300240BF582EB12503DE0FEA3E0FF2274F740
:105053001203A97E008008EE1251C2120E950E9023
:1050630021A9E493FAEEC39A40ED023A6C74F71265
:1050730003A97800790080031251529021A9E49387
:10508300FEC3E89EE99400504CE8FEE9FFEE75F09C
:1050930017A4FE85F00875F017EFA42508FFEE248A
:1050A30083FEEF1252F06A7003A3E06B70CA8E8224
:1050B3008F83A3A3A3A3A3A3A3A3A3A3E06C7003BE
:1050C300A3E06D600A74FF6C700374FF6D70A9EE4A
:1050D300FAEFFB80047A007B00023A6C74F6120349
:1050E300A97CFF7DFF7AFE7BFF120E89EA7001EB3C
:1050F300705A7508007509008042E50875F017A419
:10510300F8ACF075F017E509A42CF9E82483FEE95F
:105113003412FFEE240F12520B6008EE240E1252CB
:105123000B700E8A828B831244D1120CCDEEFAEFF0
:10513300FBE5082401F508E5091251FD9021A9E4D6
:1051430093F8C3E50898E509940040AE024658E891
:10515300240102500174F71203A9EAFEEBFFEE707B
:1051630001EF600E1251781246FD8E828F83A312D7
:1051730046F4023A6C7C177D0079001212E5023284
:105183007F74F71203A9EAFEEBFF7508008021E59F
:10519300081251C28A828B83A3A3A3A3A3A3A3A3AD
:1051A300A3A3E06E7003A3E06F6003120E950508DE
:1051B3009021A9E493FAE508C39A40D3023A6C75A7
:1051C300F017A42483FAE5F03412FB2274F61203D9
:1051D300A9120E898A088B09A808A909E87001E9B0
:1051E300600AE8240DFAE93400FB80047A007B00AE
:1051F300024658FB024D4BF508EF3400F50922A394
:10520300124FDBE022EE240BF582EF1247B522901A
:1052130021A9E493FAC3E89AE99400229021A7E430
:1052230093FA740193FBC3E89AE99B2274F0120387
:10523300A98A088B098C0A8D0B890C125270700194
:10524300EF602712517812527DA3A3A3A3A3A3A3B4
:10525300A3E50AF0A3E50B125032E50C70027401CA
:10526300F0EE240E12317C1252880247C0120E8FC8
:105273008A0E8B0FAE0EAF0FEE22E508F0A3E50901
:10528300124206A3227401F0EE240D12503A740266
:10529300F02274F51203A98A088B09ECFEEDFF7561
:1052A3000A00800DEE6C7002EF6D6003120E95051F
:1052B3000A9021A9E493FAE50AC39A5021E50A1258
:1052C30051C2EA240A1252E4123CEAE5086C700364
:1052D300E5096D70CF88828983124E9280D1024A8C
:1052E300B3F8EB1252EA223400F902501B341202D3
:1052F3004C4DC082C08374F81209548518828519F5
:1053030083AC82AD8375838175822B740812082860
:10531300851882851983AC82AD83124D4B6401706D
:10532300047900800279017408023B20F582EB12B4
:105333006C82A2E22274091208F47F04020680E060
:10534300F508750900750A00750B002234FFF58313
:1053530022126DAEE822EE2412FAEF3400FB121093
:1053630027E9227905121033740222125C9712087E
:10537300F47F08020680F09003EDE02212111D90E5
:105383000457126DAE7A147B002279031A1AEFFBCD
:1053930012102D7402221253A2E8F0A3E9F0222482
:1053A300FFF8A3E034FFF98A828B8322E0F50CA394
:1053B300E0F50D22E0026C258E828F83A3A3A3A3C5
:1053C30022A3E08E828F831253CE22F0EE24FF1E9F
:1053D300EF34FFFF227F0A020680E50824FBF582F3
:1053E300E50902534FF582EF126C82227F06020613
:1053F30080126C6CE0227AE47B031213277402227E
:10540300E0FEA3E0FF2212540D22EE126C1DEF12F8
:105413005416223400F583E022A2AFE492E0FAC2EC
:10542300AF9003EBE004F0EAA2E092AF22EE240E89
:10543300F582EF3400F58322E0FEA3E0FFEE22EED7
:10544300240D126C7F640122A3A30253BF7F0702C2
:105453000680F0EEFAEFFB22C082C08374FE1209CD
:105463005480077AE47B031254A09003E4E07002B3
:10547300A3E070EF9003E6E07002A3E060097AE630
:105483007B031254A080ED9003E4E4F0A3F09003B7
:10549300EAF09003EBF09003ECF0025C7512132139
:1054A300851882851983EAF0A3EB1254B412101500
:1054B30022125701AA82AB832274F41203A98982B0
:1054C300AE82EE245CF582E43421F583E493F5089F
:1054D300FA7B001212FDEA7001EB6012EA25081252
:1054E3006217E48A828B83A3A3A3A3F080287A02A2
:1054F3007B001212FDEA7001EB6017EE2467F58260
:10550300E43421F583E4938A828B83F0741AA31223
:1055130058607A007B0002533DC008740629FBEAF9
:10552300A2E0501EEB75F00A84AAF0EA6014740A34
:105533002BC39AFBEAC394054004740A2BFB740B38
:105543002BFBE9C394134004781480027806E82BFC
:10555300FB8B0874092508F8E43400F97A0A7B0008
:10556300120258E8F9D008020611C082C0839004E1
:105573000AE05402600A121C33E9600479018002D4
:105583007900025C16C082C08390040AE054026072
:105593001F9003EAE070159003EDE07002A3E06052
:1055A3000F9003EDE0241012595B5004790180023F
:1055B3007900025C16C082C0839003ECE0C0E090E7
:1055C300814CE0FCD0E0C39C50051212FD80047AAC
:1055D300007B00025C16C082C083121015790002A2
:1055E3005C16C082C08374FE120954851882851923
:1055F300831257181206F60003C65606565556C6AA
:10560300567956900437E0640F6012120FEBE9707D
:105613000C126C31901521125AD7121DA390045FFE
:10562300E0C0E01256DDA3D0E012570974141256FD
:10563300F8FCA3E0FD7AE67B0312131BA2AFE4920E
:10564300E0FAC2AF9003EC1254277920120FD9026B
:105653005C75120FE5E98518828519836011125A6A
:10566300D7740D1256F8FAA3E0FB121C2D80E0123A
:105673005AD7741580B8851882851983E0240412DB
:1056830056F1603F141257091256D6C0E01256DD88
:10569300D0E01256F824021256F112594588828935
:1056A30083125718FA601CC3940A5017740A2AC04D
:1056B300E0851882851983125711D0E012571C0414
:1056C300025631851882851983AA82AB831210157D
:1056D300025652A3A3125ADBE0228518828519834E
:1056E3001256E7221278C9A3A3A322E0240FF8A33A
:1056F300E0125964221256FC22125701E022F0856F
:1057030018828519832212570D221256FCF8A3E042
:10571300F583888222EAF0A3EB12570DA3A3A3A378
:10572300A3E022C082C0839003EFE07002A3E06095
:105733000B9003EF125AD7121DA380027900025C6B
:105743001674F71203A9EAFEEBFFEE240D1254338D
:105753007401F0EE242F1253E8C0E0125430D0E06D
:10576300F0EE24301253E8C0E0EE2412125433D08A
:10577300E0126C77C0E0EE2413125433D0E0F0EE65
:10578300242B125433120730EE2422FCEF3400FD95
:10579300EE242D1253E8F91253931208F4E970071B
:1057A300EEFAEFFB120F1F025F68C082C083120F75
:1057B300EBE96004792080027901025C16C082C0A3
:1057C30083EA126C1DEB1253EBD2E08003F0A3E0EB
:1057D300F0025C16C082C083EA240DF582EB1253FB
:1057E300EBFCEA240FF582EB12543674016C701152
:1057F300E0A2E3400C8A828B83A3E0F9120FDF80DF
:1058030059E0A2E650128A828B83A3E0F990152314
:10581300125AD7121DA3804274016C7009E0A2E3EF
:1058230050047430802D8A828B83A3E0FD741B6D3A
:1058330070047422801D8C82A882ED700AE82472A1
:10584300F582E434218008E82467F582E43421F505
:1058530083E4938A828B83125860025C16F090046F
:1058630005E0F912130922C082C0839003EDE070B2
:1058730002A3E0604B9003EDE0125945E97003E4A5
:105883008016741B69703C9003EDE0240DFCA3E0CB
:1058930012695D640570E8E98A828B83125379FA91
:1058A300A3E0FB120F0D9003EDE0240E12595B50A1
:1058B300031270619003EDE4F0A3F07910120FD995
:1058C300025C1674E969705C9003EDE024111256D2
:1058D300F1604C9003EDE0240EFAA3E0125DBAA24E
:1058E300E2400C88828983E014F0121ADD80D190A3
:1058F30003EDE0240F18181256F2C2E7125379246D
:105903000D1256F16403700F9003EDE024100808A4
:10591300081256F2D2E2F012594E121DA380877478
:10592300E902589B741C69600302589A1AE0FB90C1
:105933001529125AD7121DA39003EDE4F0A3F00228
:1059430058C32401FAA3E03400FB229003ED126C48
:105953003B90151F125ADB22125961A2E722F8A3CA
:10596300E0126C22E02274F21203A9750C00750D8B
:1059730000A2AFE492E0F50AC2AF9003EDE070023B
:10598300A3E06009E50AA2E092AF025A43125AD497
:10599300121DA3E94410FA9003E4800985080C85DD
:1059A300090D1253DD125A4B7002E50960D6E50862
:1059B3002410F8E5093400F9E8FEE9FF8E828F83AD
:1059C300E05A6A70D7780C1208ACAC08AD091253D0
:1059D300F91208F49003EDE508F0A3E509125A5C07
:1059E30040619003EBE014F0E50AA2E092AF90036C
:1059F300EDE0240EA3E034001E1EFF8E828F83E0B1
:105A0300FA9003ED125A51E0F9120ED1E99003E82E
:105A1300F0A3E4125A5C50189003EDE02412125ADA
:105A2300571219E19003EDE02413125A571219D5B6
:105A33009003ED1256EEA2E1B3E492E0F9121AC517
:105A43000253EF9003EA809D12773AE50822127819
:105A5300C5A3A322125961F922F08E828F83E0A29B
:105A6300E72274F71203A9EAFEEBFF12100FEE24EC
:105A73000F1253E8A2E3400A125442700590814A80
:105A8300800390814BE0F9EEFCEFFD7AE47B031297
:105A9300132DE9602FEEFAEFFB901525125AD7125A
:105AA3001DA3EE240EF582EF125332400812541C4C
:105AB300120F198019EEFAEFFB90151D125AD71227
:105AC3001DA3800A74F18E828F83A3125AE0025FB2
:105AD30068901527125ADB22E0F802571112545529
:105AE300120F0D22C082C083120F19025C1674F7C5
:105AF3001203A9790090040AE0FCEA242FF582EB53
:105B0300125436EC54027007E0A2E2500279E8EC3A
:105B130054607007E0A2E1500279E88A828B83A384
