:020000040000FA
:06000000020A9202020355
:03002B00021D743F
:0300330002086957
:030043000208EFC1
:03004B000207A702
:0300530002015552
:03005B000207B6E3
:030063000207C2CF
:03006B0002084F39
:1000830002019F01010503010F03000300030003A5
:10009300000300030003000300030005000A00142B
:1000A3000028004F009E00000019101910191019A4
:1000B30010D50ECF0E19102F1F000000006B1E006D
:1000C3000000000C0000000C000100008111000082
:1000D300000000001D120000000000006311AB04CB
:1000E300FF01010100F00C000000630DE803640050
:1000F3006400B8010202000800000501071E0205A2
:100103001E0A03B80B01FFFF0202020612FF0600DC
:10011300140515000000A11BA71BAD1B0000000068
:1001230000000000000000000000000000000000CC
:10013300000000001020202020202020202020204C
:100143002020202020010C040100000001858101F2
:100153008781C0E074F212040FE5A7FAE5A1FBEA78
:100163005B541060081218CB53A1EF802AEAA2E077
:10017300C0D0EBA2E092F01209BE158182F05017B5
:10018300906198E0FA9010FDE0C39AA2D265D03353
:100193005002EAF053A1FE7F0102051DC0E074F294
:1001A30012040F9061A4E0FA759B00E5915A54087C
:1001B30060087591F712190D802AE5915A54106061
:1001C300087591EF121913801BEAA2E0C0D0E591E4
:1001D300A2E092F01209BE158182F05007E0C2E05E
:1001E300F0121A399061A3E0FAE5E95A5404600E5B
:1001F300121A0F75E9FB906193E0A2E640F2809733
:10020300C0E074F212040F9061A5E0FAE5BF5A54FE
:1002130004600653BFFB121A5102019AC3E498F813
:10022300E499F91202608026C3E49AFAE49BFBE99D
:1002330020E7E9120260E498F8E499F922C3E4980C
:10024300F8E499F9120260E498F8E499F9C3E49A9E
:10025300FAE49BFB22EB20E7CFE920E7E0B90010AB
:10026300BB0008E88AF084F8AAF022E4FBC8FA226B
:10027300EB70227B10C833C8C933C9335007C39A04
:10028300C3DBF280069A50012ADBEAC833F4C8C9FB
:1002930033F4C9FA2275F008E4C833C8C933C93343
:1002A300C99AC99B5004C92AC93BD5F0ECFBC83392
:1002B300F4C8E4C9FA22080808EAC0E0EBC0E08603
:1002C300F0E7A4FA180986F0E7A42AFA180986F0D9
:1002D300E7A42AFA180986F0E7A42AFA1986F0E7B0
:1002E300A4FBE5F02AFA190886F0E7A42BFBE5F056
:1002F3003AFA190886F0E7A42BFBE5F03AFA181846
:100303000986F0E7A4C5F02BFBE43AFA1908E7C520
:10031300F0C6A426F6E5F03BFBE43AFA1886F0E7CC
:10032300A4F6E5F00826F6E43B08F6E43A08F6D02E
:10033300E0FBD0E0FA22E4CFC0E0E4CEC0E0E4CDBD
:10034300C0E0E4CCC0E075F020C3E633F608E63342
:10035300F608E633F608E633F6181818EC33FCED26
:1003630033FDEE33FEEF33FFC3EC9709ED9709EE50
:100373009709EF97191919400FFFEC97FC09ED97AF
:10038300FD09EE97FE191906D5F0BEECF709EDF756
:1003930009EEF709EFF7191919D0E0FCD0E0FDD009
:1003A300E0FED0E0FF222518C582C0E0E51934FF46
:1003B300C583C0E0E518C3958224F8F8E4C5A88591
:1003C3008319858218C5A8E8CEF0A3E520F0A378A9
:1003D30008E608F0A3DEFAEFF0A3E58124FAF8E6D5
:1003E30008F0A3E608F0A3E608F0A30808E608F07F
:1003F300A3E608F0A315811581D0E0FED0E0F8153F
:100403008115811581E8C0E0EEC0E022C0D0251837
:10041300C582C0E0E51934FFC583C0E0E518C39584
:100423008224F310AF088583198582188008858399
:1004330019858218D2AFC8F0A3E9F0A3EAF0A3EBC1
:10044300F0A37908E709F0A3D8FAECF0A3EDF0A341
:10045300EEF0A3EFF0A3D0E0F0A3D0E0F0A3D0E060
:10046300F0A3E520F0A3E5F0F0A322120ADCB90023
:10047300030204B0E4900301781379138002F0A31C
:10048300D8FCD9FA901513AA82AB8390008678D052
:1004930079018015E493A3AC82AD838A828B83F0C8
:1004A300A3AA82AB838C828D83D8E9D9E775827244
:1004B3007583F274021205FF75826F75831D7400D4
:1004C3001205FF120A30181818120339120A4119BB
:1004D300191922120A41191919080808E6181818D7
:1004E30020E7E0120339120A301818182209090903
:1004F300E719191920E7DC080808E618181820E797
:1005030003020339120A30181818120339120A3079
:10051300181818120A411919192285198385188286
:10052300E0C0E0A3E0F9A3E0FAA3E0FBA37808E0CE
:10053300F608A3DFFAE0FCA3E0FDA3E0FEA3E0FFDF
:10054300A3E0C0E0A3E0C0E0A3E0F5D0A3E0F52082
:10055300A3E0A3F5F0E4C5A8858319858218C5A88F
:10056300D082D083D0E0F8D0E032D083D082ECC008
:10057300E0EDC0E0E493A3FCE493A3FDED4C600D38
:10058300120641EC24FFFCED34FFFD80EFE493A35E
:10059300FCE493A3FDED4C600D120752EC24FFFC29
:1005A300ED34FFFD80EFD0E0FDD0E0FCE493A3C089
:1005B300E0E493C0E022D083D082E9C0E0E493A3D7
:1005C300C386F0C5F095F0F908E493A386F0C5F06F
:1005D30095F0700BE493A3C3994005E9048002A34B
:1005E300E475F002A42582F582E5F03583F583D026
:1005F300E0F9E493A3C0E0E493C0E022F5F0E59FC3
:100603005407C0E0E59F54F845F0F59FE473859FD8
:10061300F053F0F8D0E045F0F59F22D083D082E587
:100623009F5407C0E0E493C0E0740193C0E07402F8
:10063300935407F5F0E59F54F845F0F59F22C0E089
:10064300C3E49396087401939618400FE49366707D
:100653000808740193661870007019A3A3C3E49388
:1006630096087401939618A3A3400DD0E0D0E0D070
:10067300E00205A9A3A3A3A3A3A3D0E02285198322
:10068300851882E0A3FEE0A3F5207808E0A3F6082E
:10069300DFFAE0A3FFE0A3C0E0E0A3C0E0E0A3C073
:1006A300E0E0A3C0E0E0A3C0E0E4C5A8858218852C
:1006B3008319C5A8D083D082020611D083D082C506
:1006C300F0E493A3C5F0C395F0F5F0E493A3C395C9
:1006D300F04005E5F0048001E475F002A42582F5FD
:1006E30082E5F03583F583E493A3C0E0E493C0E0AF
:1006F300227404800474028000CCC0E0EDC0E0E505
:1007030018C39CCCAD1950011D10AF068C188D1960
:1007130080068C188D19D2AF1207F0D0E0FDD0E01F
:10072300FC2274028000CCC0E0EDC0E0E518C39C5D
:10073300CCAD1950011D10AF068C188D1980068C95
:10074300188D19D2AF1207CED0E0FDD0E0FC22C045
:10075300E0C0F088F0E493667008087401936618AB
:100763007000A8F0A3A3700BD0F0D0E0D0E0D0E0ED
:100773000205A9A3A3D0F0D0E022D083D082CCC0BD
:10078300E0E493A360061208301470FAE493A360C4
:100793000612091C1470FAD0E0FCE493A3C0E0E451
:1007A30093C0E022C0E074F212040F1217FF7F011E
:1007B30002051DC0E074F212040F12180580EFC089
:1007C300E074F212040F12180B80E3CAC0E0E49342
:1007D300A3C582CCC582C583CDC583F0A3C582CC16
:1007E300C582C583CDC583DAE5D0E0CA22CAC0E09D
:1007F300E0A3C582CCC582C583CDC583F0A3C582E2
:10080300CCC582C583CDC583DAE6D0E0CA227009A0
:10081300080808226016181818C6C333C608C6335A
:10082300C608C633C608C633C6D5E0EA22C0E0E42C
:1008330093A3D39C5010E493A3C39C400AD0E0D06D
:10084300E0D0E002079AA3A3A3D0E022C0E074F2B1
:1008530012040FE589A2E1500312172D758900C216
:10086300C57F0102051DC2E8322518F58210AF08C5
:10087300F518400215198008F51840021519D2AF72
:10088300851983227404800A74038006740280022B
:100893007401C0E0F40412086CD0E0120ACF22BB4A
:1008A3000102E722C082C08389828A83BB0003E0FE
:1008B3008002E493D083D08222C0D0251810AF08E1
:1008C300F518500205198008F51850020519D2AF22
:1008D300D0D0226016080808C6C313C618C613C6AC
:1008E30018C613C618C613C6D5E0EA22C0E074F2D0
:1008F30012040FC2C0E5D1A2E450031218417F01D4
:1009030002051D251810AF08F518400215198008B7
:10091300F51840021519D2AF22C0E0E493A36C701E
:1009230009D0E0D0E0D0E002079AA3A3D0E022C32D
:10093300E09608A3E09608A3E09608A3E096A2D267
:1009430065D03322C3E7960809E7960809E79608B6
:1009530009E796A2D265D03322E066701008A3E0BF
:1009630066700A08A3E066700408A3E06622C3E089
:1009730096F008A3E096F008A3E096F008A3E096AB
:10098300F022E026F008A3E036F008A3E036F008F2
:10099300A3E036F022E627F60809E637F60809E66B
:1009A30037F60809E637F622E026F608A3E036F61E
:1009B30008A3E036F608A3E036F622C0E0E8C0E07C
:1009C300E58124FCF8E6A2E7D0E0F8D0E022700449
:1009D30022600D18C6C333C608C633C6D5E0F41863
:1009E30022E647F60809E647F60809E647F6080946
:1009F300E647F622E657F60809E657F60809E657EA
:100A0300F60809E657F622E056F608A3E056F6087C
:100A1300A3E056F608A3E056F622E056F008A3E05A
:100A230056F008A3E056F008A3E056F022E4C3967C
:100A3300F608E496F608E496F608E496F622E4C38C
:100A430097F709E497F709E497F709E497F722C3BF
:100A5300E7960809E7960809E7960809E79622C684
:100A6300F4C608C6F4C608C6F4C608C6F4C62260AF
:100A73000D08C6A2E713C618C613C6D5E0F322C3F2
:100A8300E09608A3E09608A3E09608A3E0962275F3
:100A9300D0007581407518017519030002046E605A
:100AA3000C08C6C313C618C613C6D5E0F422E6F075
:100AB30008A3E6F008A3E6F008A3E6F022E0F608B0
:100AC300A3E0F608A3E0F608A3E0F622CAC0E0E636
:100AD300F0A308DAFAD0E0FA2274F855C74401F516
:100AE300C77901222518F582E43519F58322120608
:100AF3001E17840112061E3B840112061E76840112
:100B030012061EB3840112061EFF840112061ED7AD
:100B1300850112061E7A860112061E0A8701120635
:100B23001E2E880112061E40880112061E2E890100
:100B330012061EA5890112061EE2890112061E4134
:100B43008A0112061E918B0112061EAD8B0112063D
:100B53001E0F8C0112061EA98C0112061EF08C01B9
:100B630012061E8B8D0112061E388E0112061E768A
:100B73008E0112061EE68E0112061E318F01120629
:100B83001E6A8F0112061E98900112061EC991015A
:100B930012061E28920112061E71920112061E9958
:100BA300920112061E1C930112061E9E9301120649
:100BB3001E13940112061E24940112061E9A940118
:100BC30012061E4C950112061E8E950112061E1466
:100BD300960112061E5B960112061EA496011206CA
:100BE3001E2D980112061EE7990112061E319A0165
:100BF30012061E159B0112061E0F9D0112061E19D9
:100C03009D0112061E239D0112061E2D9D01120633
:100C13001E379D0112061E419D0112061E4B9D01AA
:100C230012061E6C9D0112061E909D0112061EB433
:100C33009D0112061E139E0112061E629E011206DC
:100C43001E809E0112061EF09E0112061E2D9F019C
:100C530012061E7B9F0112061EDE9F0112061E8CCA
:100C6300A10112061EFEA10112061E1EA4011206F8
:100C73001E43A40112061E83A50112061EC2A5016E
:100C830012061E08A60112061EE6A60112061E4D36
:100C9300A70112061E7EA70112061E81A7011206D6
:100CA3001E87210012061ED3210012061EAE23004A
:100CB30012061EEC230012061E38240012061EDD47
:100CC300240012061E43250012061E8E250012065E
:100CD3001EAF260012061E46270012061E522A00C9
:100CE30012061ED22A0012061EC92B0012061E6E01
:100CF3002C0012061E842D0012061EA430001206BC
:100D03001E57310012061E81310012061E67320083
:100D130012061E38330012061ECF330012061E19A8
:100D2300340012061E46340012061E6834001206F2
:100D33001E6B360012061E40370012061E8D37004A
:100D430012061EFC370012061EAA380012061EDF0A
:100D5300380012061E2D390012061E6239001206D3
:100D63001EBA390012061E143A0012061E943A00E7
:100D730012061EFE3A0012061E823B0012061EE3F6
:100D83003C0012061EA43D0012061ED03E001206B1
:100D93001E5E400012061EFC400012061E034200A7
:100DA30012061E93420012061EDA420012061E5459
:100DB300440012061E68440012061E754400120603
:100DC3001EA9440012061EB5440012061ED3440099
:100DD30012061EC9450012061E00460012061E0D0D
:100DE300460012061E6B460012061ED94600120666
:100DF3001ED7470012061EB9480012061E524900AC
:100E030012061EC9490012061EE0490012061E04FE
:100E13004A0012061E224A0012061E664A001206E5
:100E23001EA74A0012061E124B0012061E284C0073
:100E330012061E314D0012061E014E0012061E6CD4
:100E43004E0012061E1A4F0012061E404F001206D5
:100E53001E25500012061E44500012061EB35000F9
:100E630012061E2C510012061E58510012061EA314
:100E7300510012061E03520012061E69520012068A
:100E83001EC9520012061E9AFF0212061EE5FF0239
:100E930012061E2F540012061E90540012061EF056
:100EA300540012061E41550012061E5C5500120620
:100EB3001E8C550012061EAD550012061EB95500B4
:100EC30012061EFA560012061E18570012061E813D
:100ED300570012061E94570012061EAB5700120647
:100EE3001E3E580012061E3D590012061E395A00B6
:100EF30012061EBB5A0012061EC55A0012061E28F1
:100F03005B0012061E395B0012061E7C5B00120694
:100F13001EC35B0012061EF95B0012061E2F5C0047
:100F230012061E4D5C0012061E715C0012061EB2F4
:100F33005C0012061EA55D0012061EEB5D00120684
:100F43001E265E0012061E835E0012061EAB5E00A6
:100F530012061EE45E0012061EF25E0012061E5307
:100F63005F0012061E905F0012061ED25F0012067B
:100F73001E03600012061E37600012061E42600048
:100F830012061E60600012061E28610012061E3241
:100F9300610012061E71610012061E8761001206AF
:100FA3001E90610012061EFA610012061E0E6200F8
:100FB30012061E06630012061E19630012061E2E79
:100FC300630012061ECE630012061E326400120670
:100FD3001EF5640012061E00650012061E1F660041
:100FE30012061E3B660012061E93660012061ECAF8
:100FF300660012061EE4660012061E236700120630
:101003001E3E690012061EA8690012061E136A001E
:1010130012061E6A6C0012061E7A6C0012061E7DF2
:101023006C0012061E896C0012061E9D6C001206CF
:101033001EA56C0012061EDA6C0012061E886D00D7
:1010430012061EF86D0012061E5C6E0012061EF5D7
:101053006E0012061E8F6F0012061EB66F00120678
:101063001E46700012061E52700012061E8170008A
:1010730012061EA3700012061ECA700012061E304E
:10108300710012061E9A720012061E9D720012064D
:101093001E14730012061E00740012061ED874007C
:1010A30012061E62750012061E97760012061E496E
:1010B300770012061E82770012061EB3770012060F
:1010C3001EBC770012061EA8780012061E247900A3
:1010D30012061EB1790012061E7B7A0012061EFF4D
:1010E3007A0012061E357B0012061E7E7B00120656
:1010F3001EA29E0212061EB49E0212061E279F0205
:1011030012061E5D9F0212061EB49F0212061E6E79
:10111300A10212061E4FA30212061E4DA6021206BC
:101123001E8AA60212061EA4A60212061E06A70205
:1011330012061E42A70212061E7EA70212061EB840
:10114300A70212061E288D0312061E478D031206E0
:101153001E928D0312061EDC8D0312061E7F8E0364
:1011630012061E938E0312061EBF8E0312061EBBAB
:101173008F0312061EF2890312061E308B0312061A
:101183001EC4C50212061E4BC60212061E55C60217
:1011930012061E7CC60212061E90C60212061EE826
:1011A300C60212061E18C70212061E0DC802120638
:1011B3001ED2C80212061E24C90212061E6EC902DE
:1011C30012061EABC90212061E0ECA0212061E51D9
:1011D300CA0212061EC8CA0212061E22CB02120639
:1011E3001E6F860312061E88860312061E238703BC
:1011F30012061ED2870312061EFF870312061E2C39
:10120300FD0112061EB4FD0112061EBFFD011206EA
:101213001EE4FD0112061E8F8B0212061E928B0224
:1012230012061E558C0212061E838C0212061EC560
:101233008C0212061EEA8C0212061E0A8D02120688
:101243001E408D0212061E8A8D0212061EA28E02F7
:1012530012061ED18E0212061EF28E0212061E4ABC
:101263008F0212061E01900212061E4590021206FC
:101273001E87910212061E1D920212061E31930250
:1012830012061E80930212061EA9930212061E70F6
:10129300940212061E9B940212061ECD940212069D
:1012A3001E19950212061E23950212061E6F950241
:1012B30012061EDF950212061EFC950212061EBEC2
:1012C300960212061E73990212061E7C99021206DA
:1012D3001ED2990212061EFD990212061E629A027E
:1012E30012061EFE9A0212061E3B9B0212061E8C5B
:1012F3009B0212061EF39B0212061E759C02120627
:101303001EC29C0212061EF49C0212061E299D0296
:1013130012061E399D0212061E499D0212061E6800
:101323009D0212061E359E0212061E6E9E021206B4
:101333001E09960312061E67840312061ECB84033E
:1013430012061EF2840312061EF8850312061E659A
:10135300EC0112061E4AED0112061E85ED0112066E
:101363001E34EF0112061E78EF0112061E30F10142
:1013730012061E77F10112061E50F20112061EDD3F
:10138300F20112061E69F30112061E8D8101120677
:101393001E04F40112061E99F50112061E0BF70135
:1013A30012061E33F90112061E3DF90112061E9A9A
:1013B300F90112061EEEF90112061EE3FC011206E4
:1013C3001EE37F0012061E93E40212061EABE40224
:1013D30012061E53E50212061E94E50212061EB102
:1013E300E50212061EFC830112061E1EE602120609
:1013F3001E57E60212061E8BE60212061E1DE802A7
:1014030012061E469A0312061E8D8B0312061EFA3F
:101413008B0312061E118C0312061E568C03120632
:101423001E6D8C0312061E048D0312061E0E8D0301
:1014330012061E00800212061E4E800212061EFFB6
:10144300800212061E8C810212061EDB8102120626
:101453001E38820212061E4C820212061E1C8402D1
:1014630012061E9B840212061EC5840212061E75F6
:10147300860212061E90860212061ED186021206EC
:101483001E04870212061E5D870212061E7987025A
:1014930012061EDD870212061E66890212061E96BA
:1014A300890212061EBF890212061E1F8A02120635
:1014B3001E398A0212061E3C8A0212061E3F8A0247
:1014C30012061EB18A0212061ED38A0212061EE6F5
:1014D3008A0212061E4D8B0212061E808B02120612
:1014E3001E4E990312061E5A990312061EA499034F
:1014F30012061E16B80212061E67B80212061E2A2C
:10150300BA0212061EF8BB0212061E42BC021206E3
:101513001E7BBD0212061ECABE0212061EE8BE02D2
:1015230012061E3CBF0212061EC4BF0212061EAEE6
:10153300C80112061ED9C80112061E92C90112065D
:101543001E20CA0112061E86CA0112061ED2CA0135
:1015530012061E3FCB0112061ED4CB0112061E58E3
:10156300CC0112061E94CC0112061E78D00112067D
:101573001E23D20112061E4CD20112061E0AD301EB
:1015830012061EC9D30112061EF3D40112061E55FC
:10159300D60112061ED0D60112061EFBD701120673
:1015A3001E5AD80112061EA1D90112061E16DA010F
:1015B30012061EBDDA0112061E79DB0112061EF3A6
:1015C300DB0112061E0BDC0112061EA7DC0112064C
:1015D3001EEADC0112061EE6DD0112061E12DE0102
:1015E30012061E7DDE0112061ECFDE0112061E2C20
:1015F300DF0112061E63E00112061EFDE001120662
:101603001E79E10112061EF0E20112061E98E301A3
:1016130012061E3FE40112061E9BE40112061E1170
:10162300E50112061E2FE60112061EF0E70112065F
:101633001E06E90112061EA3E90112061E1CEA0199
:1016430012061E21EB0112061E4CD50212061EC203
:10165300D50212061E1BD60212061E79D6021206E8
:101663001EB5D60212061E3ED70212061E81D702EF
:1016730012061EC5D70212061E4ED80212061E53AC
:10168300D80212061EC9D80212061E0080031206D3
:101693001E4D800312061EFC800312061E62810388
:1016A30012061ED3810312061EF3F20212061E5007
:1016B300F30212061EC1F40212061E2F9103120634
:1016C3001E69910312061E2F920312061E719203C6
:1016D30012061E7F920312061EE9FF0112061E0A5E
:1016E300980312061E1A980312061E3E980312064A
:1016F3001EA6980312061ED9940312061E00950314
:1017030012061E89950312061EF0950312061EDDAE
:101713009E0312061EA5930312061EC1930312060F
:101723001E26940312061E56940312061EBA940331
:1017330012061EBDFA0212061EDDFA0212061EFE74
:10174300FA0212061E1DFB0212061E25FB021206DA
:101753001E4BFB0212061E88FB0212061EB1FB0281
:1017630012061EFEFB0212061E46FC0212061EF89D
:10177300BF0212061E12C00212061E1BC10212066F
:101783001E5CC10212061E76C10212061EFAC102B7
:1017930012061EF5C20212061E5FC30212061E6B5C
:1017A300C30212061E92C30212061EBEC302120613
:1017B3001EE6C30212061EFEC30212061E4FC40219
:1017C30012061E0DC50212061E6BD90212061E79E1
:1017D300D90212061EF7D90212061ECBDA0212062E
:1017E3001EFFDC0212061E0CF80212061EE6F802A9
:1017F30012061E0DF90212061E45F90212061E6993
:10180300F90212061EC7F90212061E29FA0212066F
:101813001E68FA0212061E96FA0212061E39CB023F
:1018230012061EB8CB0212061E68CC0212061ED97F
:10183300CC0212061EDFCD0212061E84CF02120650
:101843001EE4CF0212061E36D00212061E3FD0023D
:1018530012061E55D00212061E67D00212061E790A
:10186300D00212061E82D00212061E94D002120665
:101873001EE7D00212061EFBD20212061E33D3024B
:1018830012061E58D30212061E71D30212061E8AB6
:10189300D30212061E7FD40212061E0DD5021206B3
:1018A3001E5B820312061E9E820312061EAF820374
:1018B30012061EE2820312061E1A830312061E522A
:1018C300830312061EBA830312061EED8303120658
:1018D3001E60F50212061E8BF50212061ED2F502D9
:1018E30012061EE4F50212061E00F60212061E6818
:1018F300F60212061E71F60212061ED2F602120636
:101903001EF6F60212061EC0F70212061ECDF702DD
:1019130012061EDEF70212061EDA990312061E27AE
:101923009A0312061E44DD0212061E57DD0212063A
:101933001EB5DE0212061EC2DE0212061EDBDE0228
:1019430012061EEEDE0212061E08DF0212061E2714
:10195300DF0212061EA6DF0212061E72E002120644
:101963001ECFE00212061EDFE00212061EB398032A
:1019730012061ED8980312061E01990312061E2989
:10198300990312061E36FD0212061E4FFD021206B1
:101993001E5BFD0212061E64FD0212061E88FD0276
:1019A30012061E94FD0212061EA3FD0212061EC19C
:1019B300FD0212061E13FE0212061E4DFE02120641
:1019C3001E82FE0212061ED1FE0212061E1DFF0219
:1019D30012061E35FF0212061E3FFF0212061E509C
:1019E300FF0212061E94FF0212061E969A031206A7
:1019F3001EF6A70212061E22A80212061E3EA80207
:101A030012061E51A80212061E67A80212061ED352
:101A1300A80212061E0DA90212061E7BAC021206B4
:101A23001E9AAD0212061ECBAD0212061E2DAE0289
:101A330012061E08AF0212061E30AF0212061E4522
:101A4300AF0212061E55AF0212061E96AF02120611
:101A53001EEBAF0212061EFBAF0212061EEC8F0333
:101A630012061E07900312061E31900312061E4E25
:101A7300900312061E76900312061E989003120618
:101A83001EB1900312061EE0900312061EFB900384
:101A930012061E259B0312061ECDEB0212061ED450
:101AA300EB0212061EE1EC0212061E13ED021206F1
:101AB3001E39ED0212061E6CED0212061E7EED02A9
:101AC30012061EB9ED0212061E29EE0212061E664A
:101AD300EE0212061EB3EE0212061EE1EE0212061B
:101AE3001E01EF0212061E3C880312061E4E8803D7
:101AF30012061E52890312061E0A970312061E6857
:101B0300970312061EA7970312061EE897031206F1
:101B13001E24B00212061E43B00212061EA9B00212
:101B230012061E31B10212061EB9B10212061ED4EC
:101B3300B10212061E4AB20212061E6DB40212064A
:101B43001EFDB40212061E89B50212061E4BB60212
:101B530012061ECCB60212061EF1B60212061E743F
:101B6300B70212061E91B70212061EEEE00212061B
:101B73001EAFE10212061E1CE20212061E41E20221
:101B830012061E0AE30212061EDE9A0312061EC482
:101B93007B0012061E2D7C0012061E627E001206BA
:101BA3001EA87E0012061EAB7E0012061EC87E0013
:101BB30012061ECB7E0012061E027F0012061E5F57
:101BC300EF0212061E8BEF0212061ED4EF0212065C
:101BD3001EEEEF0212061E16F00212061E3DF00262
:101BE30012061E2AF10212061E34F10212061E41CB
:101BF300F10212061E52F20212061E5BF2021206D6
:101C03001E64F20212061E35E80212061EC8EB021B
:101C130012061E9B9B0312061E659B0312061ECA19
:101C23009B0312061EF29B0312061E7EC8011206B8
:101C33001E60C80112061EFFC70112061E37C70128
:101C430012061EA5C60112061E4BC50112061EFE74
:101C5300C20112061E97C20112061E5CBF011206C4
:101C63001E34BF0112061EE8BE0112061EC5BE01C8
:101C730012061EDCBD0112061E84BD0112061EE003
:101C8300BB0112061EDDBB0112061ED5BA011206E8
:101C93001EB5BA0112061E0EBA0112061E91B80134
:101CA30012061E58B80112061E29B80112061E8C10
:101CB300830112061EBA820112061E2F820112062A
:101CC3001E26B80112061E18B80112061EFAB70125
:101CD30012061EE9B70112061EBE810112061E0579
:101CE300B70112061E9BB60112061E68B601120644
:101CF3001E10B60112061ED7E50212061E9F8101B1
:101D030012061EDFB50112061E06B30112061E13CC
:101D1300B20112061EA9B10112061E69B101120613
:101D23001E5DB10112061ED0B00112061E1EB001C7
:101D330012061E4CAE0112061EBEAB0112061E8811
:101D4300AB0112061E29AA0112061ED5A90112060D
:101D53001E02A90112061E69A80112061E42A8014D
:101D630012061E08A80112061EC1F301000000801E
:101D7300FBC2C732E47300013636010100010201E0
:101D8300000103010001040106060502000007012A
:101D930000340801000F090401010D0100FF0E08C2
:101DA300000017020000190100FF1A0100011B01C6
:101DB30000FE1C0100081D0200001F01000120019C
:101DC3000001210200002301000F2402000026016C
:101DD300000127010008280200FF2A0100072B0148
:101DE30002402C0100002D0100012E0100012F01F2
:101DF30000FF30010B1C310800003A0100083B01D1
:101E0300000F2F0100000101710101010101110106
:101E130001013101010101018001100161013B0058
:101E23001400630173017201620143010001130194
:101E330006013D013500040112010001000100010A
:101E4300000104010401330133013C014401320167
:101E53003600000100016501000135008101000128
:101E630005018201830100010103710301030103E1
:101E7300010301030103220302030103100300030F
:101E830000030003000300030003000342030003F5
:101E9300240306030003000304031203250323039F
:101EA3002503230304030403000300030003440383
:101EB30000030003230300036503210035038103AB
:101EC3000003050300030003000303027102300152
:101ED3006002110270020102020202028002100279
:101EE30061023A004100630273027202620243021A
:101EF3000002130238000002000204021202000270
:101F030000020002000204020402370037003C0210
:101F13004402000239000002000265020002350299
:101F230081020002050282028302000203007100A3
:101F33003001600011007000310220035004800062
:101F4300100061000000140063007300720062005F
:101F5300430000001300060000000000040012000C
:101F630000000000000000000400040037003700F8
:101F73003C02440000000000000000006500000077
:101F83003500810000000500000083000000000010
:101F9300030020018C810000000020018B810000E0
:101FA3000400420156800000050042013480000015
:101FB3000600420123800000070020018981000000
:101FC30010004203C4150000110020030715000090
:101FD30012002003D5150300000021030815060095
:101FE300000020010A1536000100060000000F0062
:101FF30000000000000000000000000003FFFF00DD
:10200300000403FFFF0000FFFF0FF4010005C404F9
:102013000320000100000B0000000000000000038B
:10202300010F0000EF15130089150100EF150200E1
:10203300471503004D1504005315050059150600F7
:10204300651511007D151400831515007715FFFF25
:102053000000030003000400080010001F003E00FE
:102063007B00F600EC01D703AF075D0FB91E713D8E
:10207300000003EAF5E5D5D5C5B5A5959585857524
:1020830075656555554545353525251515052F0FB9
:102093005F0F350F3B0F590F4D0F470F650F6B0F39
:1020A300710F7D0F410F290F230F0A190D02E30C46
:1020B30005F50C07E90C0CCB0C0DD70CFF00009CAD
:1020C30036063A703DD9404344AD47174B814EEA3B
:1020D3005100160F00000B150B020002220F3200F5
:1020E3000006000102030405060708090A0B0C0D8C
:1020F3000E0F19102B103110F90E3710F30EFF0EBF
:102103009110AF10B5109710A3109D100001191670
:10211300181616152303000C0E020B040B0A0708EE
:10212300000F00034948424D181725050200383CAB
:102133003E363B3B352B432C303017181921301BCF
:102143001D1F30303016181920231A1C1E30530F50
:10215300770FA910830F890F85103D1043104F107F
:1021630049100005150D09100804000000000000C7
:1021730000BE040A0E00040015000428090C04051F
:102183000A080F08C082C083E99003BAF0E4900301
:102193006EF0121AE79003CDE4F0A3F09003BBF0C6
:1021A300A3F0120E51121AED90033DE4F0A3F09048
:1021B30003DFE07002A3E060099003DF12463512EB
:1021C3001D77902185E493FA7902121BF5023AF701
:1021D30074F21203A9EAFEEBFF74805FF9E4700165
:1021E300E960619003BAE0F91212DD8A088B09EA0B
:1021F3007001EB60467B0080010BEB75F003A424B8
:10220300ADF8E5F03420F988828983E493FA74FF0A
:102213006A6021850882850983E06A70DCAA08ABBD
:102223000988828983A3E493C0E0740193F583D082
:1022330082121D77AA08AB091212D1EEFA74806FCD
:10224300FB02239874105FF9E47001E9601D120D1D
:10225300738A088B09EA7001EB600A120CD7AA088B
:10226300AB091212D1EEFA741080D4EEA2E0501A28
:10227300900373E0640F700B7900120CADE96003F7
:102283001223A474016EFAEF80B654207003022364
:1022930064750C0012365D7001EB70107C027D00DA
:1022A3007A207B009003BAE0F9121CF77C007904D2
:1022B3007A007B00120D4F8A088B09800D74018808
:1022C300828983F0850A08850B09E5087002E50910
:1022D300606D7C007904AA08AB09120D4F8A0A8B42
:1022E3000B750C01E5082404124FDB24FFF0A3E077
:1022F30034FF1251D77002A3E070C9E5082409F82E
:10230300E5093400F9850882850983A3A3A3A3A360
:10231300A3A3A3A3A3E0640170A385088285098313
:10232300A3A3A3A3A3A3E054047092740688828991
:1023330083F07AB78508828509831224D1808512B8
:102343000D1F7C0079017A007B00120D4FEA7001AA
:10235300EB7009E50C70057A201245BE7420022249
:102363008874025FF9E47001E9600A120E4BEEFA19
:10237300740202224274045FF9E47001E9601212EC
:10238300476B1243CE7901122BBFEEFA740402227B
:10239300427A007B00800574031208BC7F060206A4
:1023A3008090157C123A87120CC522C082C08374B8
:1023B300EA120906851882851983AA82AB83794BB1
:1023C300121BCB7408120AE77402F07409120AE7AD
:1023D300AA82AB837950121BCB7413120AE7124AF9
:1023E3008C121BE97416023AF474F71203A974E110
:1023F300120906EAFEEBFFEE7001EF6033851882E7
:10240300851983AC82AD83120D977406120AE7E037
:10241300601E7417120AE7E0FD7401120AE7E0FC7C
:10242300EEFAEFFB7900121C31E9600479A4800213
:102433007900023A3B74F61203A9EAFEEBFF8E829F
:102443008F83A3A3A3A3A3A3E05440601B1246312D
:102453001247C360067AFF7BFF801A8E828F831236
:102463003CD3FAA3E0FB8003120DBB74FE6A700336
:1024730074FF6B604112463112461D120E15E98E30
:10248300828F8360061224CAE480051224CA740171
:10249300F07CB37D0C8E828F831244A5121BEFE96F
:1024A300F5087015EE7001EF60097901EEFAEFFBA4
:1024B300120D2B0246237508CDAA088E828F831234
:1024C30024D1E960DF80ECE0240D123EB822E02441
:1024D3000C123EB8E0F9120CBF2274F61203A9E9FC
:1024E300FEEAFF7A0F7B001212CBEA7001EB601950
:1024F300740C8A828B83F0EEA3A3F0EF8A828B8322
:10250300A3F01246B379008034EEF9120D558A0810
:102513008B09A808A909E87001E9601F740688827D
:102523008983A3A3A3A3A3A3A3124FBAA3A3A3A380
:10253300A3E0F9120C77EEF9120D31791002462C53
:10254300C082C083900373E0640F7018EA7001EBDC
:10255300601290036EE0FC74086C600574046C7088
:102563000312256A023AF7EAFCEBFD7A017B00903D
:1025730003BAE0F91213DF22124786640222EE2423
:1025830009F8EF3400F9880A890B2274F21203A9BF
:1025930074FD1209068A088B09EA2402F50CEB1272
:1025A3004034F9120D558A0A8B0BAE0AAF0BEE704D
:1025B30001EF7003022697850882850983A385822C
:1025C3000A85830BE064F16014E064CD600FE0647E
:1025D3001A600AE064E96005E064E1701C790012A6
:1025E3000D2BE960148E828F83A3A3A3A3A3A3E07F
:1025F3004420F0A3E0F0022681850A82850B83E064
:10260300C0E07402120AE7D0E0F0124E601251DC0F
:10261300851882851983AA82AB837005120BED801E
:1026230003120DFD850A82850B83E064F1604FE0A0
:1026330064CD604AE0641A6045E064E16040E064B0
:10264300F0603B7402120AE7E0FC74B76C602F126F
:1026530026A3750A01780A120893ECF50A780A1280
:102663000893E508240CF582E50912315312306012
:10267300FCA3E0FD8A828B8312307A1208BCEE241D
:102683000912257B70037406F0850C82850D83E0A7
:10269300F9120D31120D1F9015801223A702239AF0
:1026A3008E828F83123D9EE8FAE9FB2274F51203B2
:1026B300A98A088B09750A00EA2409123B6DFEE911
:1026C300FF8E828F831227407003750A018E828FDB
:1026D300831242D17003A3E06B7006E50AD2E1F5E1
:1026E3000AE5082402FEE5093400FFE50A60138EBB
:1026F300828F83E07006E50AD2E58004E50AD2E61C
:10270300F50A120E15E964017006E50AD2E0F50A2E
:102713008E828F83E06017E508241DF582E5093476
:102723000012273664016006E50AC2E0F50AA90A29
:10273300024A87123CD8E0F9120E03E9221247C776
:1027430064022274E81203A974DE120906EAFEEB9E
:10275300FFEE2404123CA5E0601090157EE07002A9
:10276300A3E0600690157E1223A7EE2402F50CEF7A
:102773001247AB7403120AE7AC82AD8385088285E6
:102783000983123056FAA3E0FB120D97EE241B12B5
:102793003A457410120AE71243CE7409120AE7E0AD
:1027A300601C741A120AE7E0FD7404120AE7E0FCE5
:1027B30012449F7901121C31E96003022A2D74032C
:1027C300120AE7AA82AB83120CD1E9F50A74091243
:1027D3000AE7E0700E900356E06008E9A2E14003C7
:1027E300022A2DEE2412F514EF3400F515EE242AF7
:1027F3001251CEEE242EF516EF3400F517EE242CED
:10280300123150122D7DE0687003A3E069701E75CC
:102813000B00780B120893780B12089385168285A8
:102823001783E0F9122A4212307A1208BC74061296
:102833000AE7E0FA90035CE06A6003022A2D740958
:10284300120AE7E07003022905122A421244A51274
:102853000E6F8A088B09A808A909E87001E97003BB
:102863000229A67404120AE7122A37FAA3E03400F5
:10287300FB740D2AF582E43BF583E0FAE82404F5C2
:1028830008E91251D1E82403F582E91251E26A60A2
:102893001FEAF09081707810120AC08508828509BA
:1028A30083E510F0A3E511F0A3E512F0A3E513F01F
:1028B3007904E9120AE7122A37FCA3E034008C8278
:1028C300F583A3AA82AB831212B98A0C8B0D8C0EEB
:1028D3008D0F8508828509837810120AC0781079D4
:1028E3000C120A525003022A2D908168780C1209A7
:1028F300AB850882850983124D0DA3E50EF0A3E590
:102903000FF090036EE0FA74046A600874096A6059
:1029130003022A2DE50AA2E540030229E88516826F
:10292300851783E0851882851983F0EE242F1251D1
:10293300DFC0E07401120AE7D0E0F0EE2430125158
:10294300DFC0E07402120AE7D0E0F07414120AE761
:10295300E064017028740E120AE7123A4B85148260
:10296300851583E0687003A3E0697011740C120A83
:10297300E712274070077414120AE7E4F0EE2424E8
:102983001231501206F47404120AE7AC82AD837458
:1029930007120AE7AA82AB83120BF374041208BC72
:1029A300022A2D9003B3E064016003022905742019
:1029B300120AE7123CD364067009E50AA2E6500343
:1029C3000229057410120AE7E064FF7004A3E064AF
:1029D300FF6057EEFCEFFD7403120AE7AA82AB8394
:1029E300120CDD8045A2E650417420120AE7123C26
:1029F300D3FA74046A7018741A120AE7E064027056
:102A0300297403120AE7AA82AB83120DF1801B74A7
:102A1300076A7016741A120AE7E06404700C7403F0
:102A2300120AE7AA82AB83120DEB74221208BC7F51
:102A330010020680E0FA850C82850D83E02A228548
:102A43000882850983123CC285148285158322740A
:102A5300F21203A9EAFEEBFF8C088D091225817996
:102A6300008882F5831244A5120C838A828B83E546
:102A7300827002E583603DA3A3A3A3A3A3E054183C
:102A83006032E508241BF582E5091231531206F87A
:102A9300E5082412F582E5091231531206F8EE24F3
:102AA30018F582EF123B68122AC2120C95740412B5
:102AB30008BC80087900122AC2120C5F02239F858A
:102AC3000A82850B83123CC2EE240B123A802274D5
:102AD300F61203A974F71209068A088B0990036E8C
:102AE300E0FA74036A600D74016A600874096A602D
:102AF30003022BB18508828B83A3AE82AF83E06090
:102B030003022B967C007D007A027B00121AF3E508
:102B1300082402122BB4123A4B90035F1243CE796E
:102B230053121BD17900122BBF90036EE06409602E
:102B33000990036C1244A5120E6974011246517474
:102B43000490036EF07401120AE7AA82AB83794AF8
:102B5300121BCB7401120AE7AC82AD837A647B0348
:102B6300121B0B90035F123CBE7A037B00121AF315
:102B7300900362123CBE7A047B00121AF39003594D
:102B8300E0A2E35004D2F08002C2F01246391223CD
:102B9300A48018FC7D007A037B10121AF38E828FB7
:102BA30083E0F9122BBFE490036EF0120D0102468D
:102BB30027FAE5093400FB8A828B832290036C1287
:102BC3003A87120BFF22C082C08390033DE070025C
:102BD300A3E0704190036EE012077D000301EB2B2D
:102BE30005FA2B06092C182C900345E07002A3E08C
:102BF3006076900345806B900341E07002A3E06030
:102C030067900341805C900343E07002A3E0605847
:102C1300900343804D90033DE07002A3E0600912EE
:102C230033C7FC74016C702379009003BB800909DE
:102C3300EA124C0FEB1231531239287001EB70EF8B
:102C43009003BB1244A5120BF9801D74026C70052E
:102C5300120E3F80139003E1E07002A3E06009903D
:102C630003E1124635121D77023AF774F41203A9F1
:102C730074FB1209068A088B097A0F7B001212CBA8
:102C83008A0A8B0BAE0AAF0BEE7001EF7003022DB5
:102C93007874028E828F83124A8D7950121BCB85F2
:102CA3000882850983A3858208858309E06003027E
:102CB3002D6190036C124FB3700374FF69602F741E
:102CC300FE68700374FF696025851882851983E0A7
:102CD300687003A3E069601674EA85088285098336
:102CE30012308C7A6C7B037950121BD1807085185B
:102CF30082851983122D7D1243CE7A5F7B0379532C
:102D0300121BCB90035F1243C97A627B03794B1288
:102D13001BCB7A617B0379E1121BCB900373E0C376
:102D2300940F5022900361E0C0E07402120AE7D0CE
:102D3300E0F07404120AE77401F07402120AE7AABD
:102D430082AB83121BE3750A00780A120893780A90
:102D530012089390159BE0F91230711208BC850894
:102D630082850983123041F0740390036EF0EEFA0A
:102D7300EFFB1246B37405023B60123D9E90036C59
:102D83002274EC1203A974ED1209068A828B83A3C1
:102D9300123046EA2408123B6DFEE9FF851882854E
:102DA3001983AC82AD838E828F83123060FAA3E0E5
:102DB300FB120D0D851882851983E070708E828F4A
:102DC30083E0C3940B4066850882850983A3A3A38C
:102DD300A3A3A3A3A3E06402705390036EE0FAE5F8
:102DE300082410F510E5093400F511E5082409124B
:102DF30047A774026A603B74066A603690033DE03D
:102E03007002A3E060071233C76401605574086A57
:102E1300600574046A70167402120AE7E0F9740715
:102E2300120AE7AC82AD8312449F120D137413028E
:102E33004CDE90033DE07002A3E07026750A007833
:102E43000A120893780A1208938510828511831257
:102E53003056FCA3E0FD85088285098312307A127F
:102E630008BC9003BB12501F9003BB124CD6E5085D
:102E7300240DF50EE5093400F50F80308E828F8323
:102E8300E0F8A3123056687003A3E06970128E82D3
:102E93008F83A3A3E0FA850E82850F83E06A606BBC
:102EA3008E0A8F0BEE124C0FEF12501CEE7001EFD7
:102EB30070CA7A187B001213438A128B13AE12AFB7
:102EC30013EE7001EF7003022E307C1812514E1274
:102ED30046C8EE240C12315074FFF0E508240B129F
:102EE3004FDB1230381251D6C4123038A3A3F090FE
:102EF30003BBE07002A3E070059003BB800AE50A00
:102F0300124C0FE50B123153124E667401120AE78D
:102F1300123050A3F07402120AE7123050F0850EFB
:102F230082850F83123041A3F0124FF41241ED2436
:102F33000DFAEF3400FB7402120AE7E06401600E3D
:102F43007407120AE7AC82AD83121B0B80097C085D
:102F53007D0079FF1212B37412120AE7E0C0E0EEAB
:102F63002415123150D0E0123083FC90159BE0C33E
:102F73009C4003022E30124FC9E509123153A3E0DE
:102F83005480F9E47001E97009900CE7E0700302E2
:102F93002E307D00EE240CF8EF3400F9EE240BFA0A
:102FA300EF3400FB9003ABE06402701D8A828B83D5
:102FB300E0F50AC39C500D7405120AE7E0C39405BB
:102FC300401B801AE50A6C70157405120AE7E0C00D
:102FD300E088828983E0FCD0E0C39C50010D740635
:102FE300120AE7E06035ED602585088285098312C2
:102FF3004A9BECF0A3ED1230838A828B83F0740535
:10300300120AE7123CC87406120AE7E0600D740165
:103013008E828F83A3A3A3A3A3A3F07404120AE74E
:10302300E07003022E3074018E828F83A3A3A3A3C7
:10303300A3F0022E30540F8E828F83A3A322123269
:1030430052A322A3A3E0F508A3E0F509221232520A
:1030530002427BE0F9850C82850D83E022E0F98A48
:10306300828B83A3A3A3A3A3A3A3A3A3E02290037D
:103073006C123CC2900362123A87120DCD74022285
:10308300F0851082851183E022F07A5F7B03795308
:1030930012309722121BD17A627B03794B121BD118
:1030A3002274F01203A974F81209068A0C8B0D8C92
:1030B3000A8D0B890E851882851983AC82AD8375C1
:1030C300838175823B74081207F0F50FAC0CAD0DCC
:1030D300851882851983AA82AB83124D1F700375ED
:1030E3000F019003BB8030AC0CAD0DEE240DFAEF55
:1030F30034001251CA601A850882850983E0650E7F
:10310300700F8E828F83E0650A7004A3E0650B6005
:1031130032EE24161231501239B37001EF6024EEEF
:1031230024021251CEE50F70BE8E828F83E0650AB2
:103133007004A3E0650B70D9850882850983E06577
:103143000E70CEEEFAEFFB02478FEE240BF582EF03
:103153001250112274F71203A99003BB1240EE80A0
:103163000CEA2416125019121349EEFAEFFBEA7017
:1031730001EB70ED9003BBE4F0A3F0023A4074F16D
:103183001203A98A088B09ECFEEDFF890A8A828B58
:1031930083124D158A828B83123251F0EEF8EFF9C8
:1031A300A30EAF838A828B83A3A3E0C454F0FA886F
:1031B300828983E04A12325D123252123258E0336E
:1031C3003354FCFA8E828F83E04A123258A3E033E1
:1031D300333354F8FA8E828F83E04AF008EFF9A371
:1031E3000EAF838508828B83A3A3A3A3A3A3E0A22B
:1031F300E0E492E013135480FA88828983E04AF072
:10320300E5082407F50CEB1247AB750E00780C129A
:10321300088B7C081240281208BC124CF5E50824E0
:103223000F1247A7780C12088B7C03124028120850
:10323300BCE50AC3940F4011E5082412F582E509A1
:10324300123153123041A3A3F07F07020680A3E09B
:103253008E828F832212325DA322F08508828B83B4
:10326300A3A3A32274F11203A9EAFEEBFF890A8C3C
:10327300088D098E828F83E08C828D831241D6AEB6
:1032830082AF83E012428C123333C412428C123366
:1032930027E054038C828D83123331A2E2E492E05F
:1032A3008C828D83123330131313541F12428CA359
:1032B300123330A2E7E492E08C828D83A3A3A3A30D
:1032C3001233278E0C8F0D750E00780C12088B7C31
:1032D300087D00E508240712331E1208BC124CF5C2
:1032E3008E0C8F0D780C12088B7C037D00E508246F
:1032F3000F12331E1208BCE5082412F8E509340046
:10330300F9E50AC3940F400A8E828F83A3A3A3E037
:103313008001E488828983F002324CFAE5093400A3
:1033230012402D22A3A31241DA0EAF8322A3A3A33B
:10333300A3F0024C2274F41203A974F9120906EAE9
:10334300FEEBFF90033DE07002A3E060101233C771
:1033530064027009EEFAEFFB120E39806290036C7F
:10336300E06E7003A3E06F705674016960097A80A0
:103373007B03124D1F70487A007B02123661700185
:10338300EB703C90036F7808120AC0851882851988
:10339300837808120AB1900375E0C0E07404120A3E
:1033A300E7D0E0F07405120AE77401F07406120A1C
:1033B300E77402124A8D120BC9E96098120BCF749D
:1033C30007023B6090033D123EC5E02274F71203EF
:1033D300A98A828B83A3AE82AF83E0F9120C178E86
:1033E300828F83E0FA74EB6A600574E16A7002E429
:1033F300F01223A475080178081208938E828F8334
:10340300E0F508780812089379001230711208BCAD
:10341300120D1F023A4074F61203A99003CCE07018
:103423001F7C0079017A007B00120D4FEA7001EBDB
:10343300600E8A828B83E07002A3E06003120CB9F2
:1034430002462CC082C083123893401079FF120DBC
:1034530049E9FA902180E493C39A500479018002E8
:103463007900023AF774EE1203A98A088B09890DD1
:10347300750E00EA2408F50AEB3400F50B850A8281
:10348300F583E0F9120D558A108B11AE10AF11754B
:103493000C01EE7001EF600302352B85088285096C
:1034A30083A3A3A3A3A3A3123CBE850A82850B8394
:1034B3001240F31244A5120D3D8A0A8B0BAE0AAFDC
:1034C3000BEE7001EF70030236558E828F83A3A338
:1034D300A3A3E4F0A3F0E508240BFAE509124D24B5
:1034E300C0E012314DD0E0F0120E1BEE240C124658
:1034F30016750E01EE2406F8EF1238A2E0547FF0A1
:10350300A3E054FC12373B540460030235BD90150D
:10351300841240E7740778081209D18A828B83E00A
:103523004508F0A3E04509F0EE2406F8EF123B6FDF
:10353300FCE9FD8C828D831244A574805AF50874CE
:10354300035BF50974077808120AA2E508F510EE83
:103553002404F50AEF3400F50BEE24091251CEE5ED
:103563000D60607402850882850983123334240D4B
:10357300123EB4E0A2E2500F90035A123A4B850A6E
:1035830082850B831243CEE510700302361C747FD1
:103593005AFA74FC5BFB74FF2510F51074FF3400BA
:1035A300F511740778101209D1E5104AF8E5114BAB
:1035B300F98C828D831243CE805FE04480F0A3E0D8
:1035C30002352AE5107005750C00804DEA54206021
:1035D300151212C58A10747F5510F8745F28850A76
:1035E30082850B83801BEA5410600E1212C58A1069
:1035F300740F5510F8740F80E4850A82850B837469
:1036030001F0A3E4F07404850882850983F012367F
:103613005D7001EB70031245F37401650E7036851E
:103623000A82850B83123CBE850882850983E0F9F3
:10363300EEFAEFFB120D43E9601BEE240C1231503E
:103643001239287001EB6003121349EEFAEFFB12F3
:103653001349750C00A90C0243B27A207B00900336
:10366300BAE0F91213F1EA2274F61203A974F712FD
:1036730009067E00120D55EA7001EB70030237361E
:103683008A828B83A3A3A3A3A3A3A3A3A3E0640618
:1036930060030237368A828B83A3A3A3A3A3A3A3C6
:1036A300E0FF8A828B83123EBFE0C0E07408120AF7
:1036B300E7D0E012373B123CDB1248B31243CE1281
:1036C3000D6774085FF9E47001E960658518828508
:1036D3001983123CBE7A007B00120D37EA7001EBAE
:1036E300704F90036C123B74121BFB7C007D007ABD
:1036F300007B0080268E828F83E0123A4F7004A3F2
:10370300E064FF602C90036C123CBE121871E964F4
:103713001A601E7C007D00EEFAEFFB120D378A085B
:103723008B09AE08AF09EE7001EF70C97900121C66
:10373300017E01EEF90246271237F1E02274F712F7
:1037430003A9EA7001EB70059003CD80068A828B92
:1037530083A3A31239287001EB60288A828B83A389
:10376300A3A3A3A3A3A3E05408F9E47001E960DDD4
:10377300EC7001ED6011123CCF6C7003A3E06D702F
:10378300CC80047A007B00023A4074F21203A9EA67
:10379300FEEBFF890A8C088D097A0E7B0012134316
:1037A300EA7001EB603AE48A828B83A3A3A3A3A309
:1037B300A3A3A31237F5E50A123A5BE508F0A3E5E4
:1037C30009124FA9E4F01237F5A3A31237F1124EF1
:1037D30066EA240CF582EB123CB51237E6F0A3F04F
:1037E30002239FA31237EB221237F1A3A322F00285
:1037F3002BBAA3123A5FA3A32274F51203A9EAFE1C
:10380300EBFF890A8C088D09EE7001EF6056740195
:10381300650A70147901120D49E9FA902186E4933F
:10382300C39A500F791180657404650A7030123899
:103833009340F18E828F83A3A3A3A3A3A3A3A3A3E4
:10384300E50A1241E1125251E4F0A3F09003CDE0F6
:103853007002A3E09003CD6024123A4B800A7402F5
:10386300650A60CF79C18025E824020808E9123887
:10387300A212395D7001E970EF8A828B83124E6662
:1038830012365D7001EB70031245F37900024A872B
:103893007904120D49E9FA902182E493C39A221222
:1038A3003B6FFAE9022BB9C082C083E9FC7900902F
:1038B30003CD801D8A828B83A3A3A3A3A3A3A3A366
:1038C300A3E06C600574FF6C7001098A828B83A38B
:1038D300A31239287001EB70DB023AF774F7120375
:1038E300A9EA7001EB70059003CD80068A828B8371
:1038F300A3A31239287001EB60248A828B83A3A3CC
:10390300A3A3A3A3A3A3A3E06970E1EC60148A8239
:103913008B83E0240D124C1CA2E240D080047A0079
:103923007B00023A40123A87EA22C082C0839003A6
:10393300CD80068A828B83A3A31239287001EB60A2
:10394300128A828B83A3A3A3A3A3A3A3A3E0697077
:10395300E280047A007B00023AF7123D9EE822746B
:10396300F11203A98A0A8B0B8C0C8D0D7508007557
:103973000900EA7001EB60319003CD80068E828FDF
:1039830083A3A31239B37001EF601EAC0CAD0DEE2F
:10399300FAEFFB850A82850B83121D77E9640170B8
:1039A300DCEEF8EFF988088909AA08AB0902324C62
:1039B300E0FEA3E0FFEE2274F71203A99003CD12F9
:1039C3003A4B7C007D008007E8FCE9FD123A4BE8A6
:1039D3007001E9603AE82402F582E9123153EA689A
:1039E3007002EB6970E21244A59003CD12501FE8F8
:1039F3006E7002E96F70099003CDEAF0A3EB800EBD
:103A0300EAF8EBF98C828D83A3A3E8F0A3E9F080B5
:103A13002C74F71203A9EAFEEBFFEE7001EF6016B8
:103A2300120D61123A65EA7001EB6003121349EE5D
:103A3300FAEFFB1213498005741F1208BC7F0102C1
:103A43000680F582EF125011123D9E22FAA3E0FB8D
:103A53008A828B83E064FF22123A5F221237F102DB
:103A6300427C8E828F83E0241C123EB8123A8C8EE5
:103A7300828F83123A8CEE240C123A8022F582EF65
:103A83003400F5831240EEFB221240EEFB12134981
:103A930022C082C083EAFCEBFDEC7001ED70047977
:103AA30005804CEC24FBF582ED34FFF583E07002D6
:103AB300A3E07011EC24FFF8ED34FFF988828983C9
:103AC300E064FF60051212D180D59003BA123CC89E
:103AD300902183E493F97ACF7B031212FBE964010B
:103AE300700B7A007B101245F7790080027904800D
:103AF300031208BCD083D08202061174F41203A906
:103B0300A2AFE492E0F508C2AF9003CF1239B370CD
:103B130001EF603DEE24FBF582EF34FFF583E070A7
:103B230002A3E07A007B109003BA60051245FA8085
:103B330005E0F9121307750A00750B00780A1208DD
:103B43008FEEFCEFFD7ACF7B031212F5740212089D
:103B5300BCE508A2E092AFEEFAEFFB80031208BCCB
:103B63007F04020680124789F922F8EB3400F9E852
:103B730022123CC2851882851983AA82AB832274E0
:103B8300F01203A974FC120906EAFEEBFF120D25DD
:103B9300E960057911023CA0EE2402123CA512470C
:103BA300C36006EE2412123CB2EE24131251DF70EE
:103BB30003741EF0EE2411F8EF1247B07019900D44
:103BC300B7E0600D900356E0700D8E828F83E07036
:103BD30006E488828983F0EE2414080808EF124F64
:103BE300DE700C90034B123CC890034BE004F0EEE4
:103BF300240FF50AEF3400F50B8E828F83E0640106
:103C0300701712314D123CD36402700D850A828500
:103C13000B83E04440F0A3E0F0851882851983AC60
:103C230082AD83EEFAEFFB120D8B8A0C8B0D8508A8
:103C330082850983123CBEEA7001EB605C8E828F41
:103C430083E0C0E07401120AE7D0E0F07402120AC4
:103C5300E7124E667401120AE785820885830978A4
:103C63000812088F850A82850B831206F8EE240E4C
:103C73001251DFF50878081208937405120AE7E079
:103C8300F9120D8574051208BCE9FE74106E700BF1
:103C9300AA0CAB0D12134980027E10EEF9740402D4
:103CA3004791F508EF3400F509850882F58322F57D
:103CB30082EF125011E4F02212500E123CC222E0A5
:103CC300FCA3E0FD22E088828983F0228A828B8331
:103CD300123CDAE022F583E0F8A3E0F58388822240
:103CE300C082C08374DE1209068A828B83A3A3A3D6
:103CF300A3123A4B740E120AE7E8F0A3E9123D97B8
:103D0300740C120AE7123D90240DF582EB1251E276
:103D1300C0E0741A120AE7D0E0F0EA124FCBEB12BC
:103D23003A487420120AE7123D902415F582EB12EB
:103D330051E2C0E07408120AE7D0E0F0EA241CF56F
:103D430082EB123A487412120AE71243CE74FF85CB
:103D53001882851983F07401120AE774FFF0740264
:103D6300120AE774FFF09081701206F47404120AC9
:103D7300E7AC82AD837407120AE7AA82AB83120B06
:103D8300F374041208BC79007422023AF4E8F0A335
:103D9300E9F0EA221237EB123D9E22E0F8A3E0F9A4
:103DA3002274EF1203A974F01209068A0C8B0DEC2E
:103DB300FEEDFF89107421120AE7E0F50F74221259
:103DC3000AE7124CD67424120AE7123048750E1013
:103DD3007A1E7B001213437402120AE712461D7403
:103DE30002120AE7E07002A3E07003023EA88518FE
:103DF30082851983AA82AB8379501244951244A514
:103E03007402120AE7123EBFA312461D7402120A7D
:103E1300E7E0240B123EB47402F0120AE7123EBF2D
:103E23007402F0120AE7124635124E667402120A41
:103E3300E71249B6E510F07402120AE7E0240C1207
:103E43003EB4E50FF07402120AE7E0241C123EB4FC
:103E5300124D0D7408120AE7E50AF0A3E50BF0749E
:103E63000A120AE7E50FF0850882850983C082C03C
:103E730083740D120AE7AC82AD83D083D0827403BE
:103E83001207F0F97402120AE7AA82AB83120D2B10
:103E9300E964017005750E00800B7402120AE712C3
:103EA30044A5121349A90E74101208BC7F09020617
:103EB30080123EB822F8A3E01252BE22123EC5A3DE
:103EC300A322E0F8A3E0F583888202427C74EA121D
:103ED30003A9EAFEEBFF8C088D098E828F83A385ED
:103EE300820A85830B7408F0EE2416F50CEF12405A
:103EF3003460097410850A82850B83F0EE2417F56C
:103F030010EF3400F511851082F583E0600A850A0D
:103F130082850B83E02408F0EE2411F8EF124FDEC4
:103F23006005750E0E8003750E00EE240DF514EF7B
:103F33003400F515850A82850B83E0851482851587
:103F430083FAE02A250E8C828D831251D760139059
:103F53000357E0F9121C2BE9FA850882850983E0EF
:103F63002AF0850882850983E0FAC39475400975B0
:103F7300080075090002401F7B00124F147001EB0B
:103F8300700302401FEEFAEFFB120D91EA850882DF
:103F930085098312461EEE2402F812477512404922
:103FA300F0EE24040808124775A3A3124049A3A303
:103FB300F0EE241312403FF0EE241412403FA3F01E
:103FC3007A08850C82850D83E0600FEE2418123C7D
:103FD300BBE5082408124CCC7A1085108285118326
:103FE300E0600FEE241A123CBB8A0CE508250C1284
:103FF3004CCC1251DCF510A3E0F5117512007810CA
:1040030012088B851482851583E0FC7D001243B76B
:10401300E50E28FAE43912402D1208BCAA08AB09B0
:104023007F0E0206807D00EEFAEFFB1212A77403E7
:10403300223400F50D850C82F583E02212500E1216
:104043004053A3A3A322A3A3124FAFA3124053220F
:10405300E0850882850983A3A3A32274F61203A92A
:104063008A828B83E0FC90035C1240E77402780839
:104073001209D1E5084CFCAD09EA24121240E1749F
:104083000678081209D1E5084CFCE5094DFDEA2440
:10409300111240E1740978081209D1E5094DFDEACE
:1040A30024161240E1740B78081209D1E5094DFD7D
:1040B300EA24171240E1740C78081209D1E5094D7E
:1040C300FD8A828B83A3A3A3A3A3A31240E7740A4D
:1040D30078081209D1ECFAE5094DFB02462CF5826A
:1040E300EB125011E0F50875090022E0FAA3E02273
:1040F300E0F98508828509832274F21203A98A08EC
:104103008B09ECFEEDFFE98E828F83F0124409C028
:10411300E0EE2411123150D0E0124403C0E0EE244B
:1041230012123150D0E01241D6A882A9831243D48F
:104133006010E5082408FAE5093400FBEE241312A5
:1041430041F48E828F83A3A3A3A3A3A3A3A3E060BD
:104153001588828983E0FAE5082AFAE5093400FB29
:10416300EE24151241F4EE2419123CB2EE241B1274
:104173003CB21251D6F50AF50CE508250CF8E50911
:104183003400F9EE241DFAEF3400FBEAFCEBFD8C5E
:10419300828D831241ED2417FAEF3400FB8A088BDA
:1041A300098E828F83E0C3950A8A828B831241E151
:1041B300A3A3E0601B8A828B83E024F2F0E8240E41
:1041C300F8E91243DCFA850882850983E0C39AF093
:1041D30002239F1241DA22F08E828F83A32212419F
:1041E300E522F08E828F8302427EE8F0A3E9F0EEAF
:1041F3002212500EEAF0A3EB124FAFE02408F02294
:1042030074F41203A98A088B09EA124283F0EA13B1
:1042130013543F12428CA3A3A3F0EAC41313124214
:1042230083A3A3F0E48C828D83A3A3A3A3A3F08A27
:104233000A8B0B7409780A120AA2E50A124273F078
:10424300EC2418F582ED123CB58A0A8B0B740B78BB
:104253000A120AA2E50A12426EF0740C7808120AD6
:10426300A2E50812426EA3F0023B63124273A3223B
:1042730054018C828D838001A3A3A3A3A3A3A322B0
:1042830054038C828D83A3A322540F8C828D8322AB
:10429300C082C0837900900356124B04A3A3A3E00A
:1042A300600FEC70268A828B83A3A3E0701D0980C4
:1042B3001AEC60178A828B83A3A3A3A3A3A3A3A34C
:1042C300A31242D17003A3E06B70E3023AF7123AF0
:1042D3008790035FE06A2274EE1203A98A088B09B0
:1042E300890CECFEEDFF124409C0E0EE24111231FB
:1042F30050D0E0124403C0E0EE2412123150D0E05B
:104303001241D685820A85830B1243D46010E508D7
:104313002408F8E5093400F9EE24131243F28E82DF
:104323008F83A3A3A3A3A3A3A3A3E060091243B70B
:10433300EE24151243F2EEFAEFFB120DA3E9F50D8D
:10434300706B850A82850B83E0F50EF510E5082571
:1043530010FAE5093400FBEE2417F8EF3400F9886E
:10436300088909EE241DF8EF123B6FFCE9FD8E82EC
:104373008F83A3A3A3A3A3A3E07012EAF8EBF98CA2
:10438300828D831243CEE50CC3950E8019EA240E69
:10439300F8EB1243DCFB850A82850B83E0FAE50C1C
:1043A300C39A24F2C39B850882850983F0A90D7FF4
:1043B3000A020680850A82850B83E0F8E50828F85F
:1043C300E5093400F922124FFEA3A3E8F0A3E9F0B4
:1043D3002274081241E502306C3400F98C828D831B
:1043E300E8F0A3E9F0900357E0F9121C2BE922123D
:1043F300500EE8F0A3E9F0850A82850B830241FEA3
:1044030012479902306C8A828B83123A87120D9D70
:10441300850882850983A3A3124448E0F9EA8E82C2
:104423008F83A3A3A3A3A3A3A3A3A312444D1244C3
:1044330048A3A3E0F9EAF8EE240B12500EE8124465
:104443004DA3A3E022E0FA024054F0A3E912479DF2
:1044530022C082C0837AD47B0379E2121BCB7AD445
:104463007B03023AF7C082C08390035F1244A50224
:104473003AF7C082C08374FE120906851882851933
:1044830083AA82AB83794B1244951244A57402022A
:104493003AF4121BCB85188285198322850C8285F9
:1044A3000D83123A8722C082C083794A121BCB0242
:1044B3003AF774F61203A99003DCE0FE04F0EEF978
:1044C300120D55EA7001EB70EEEE60EBF902462C2B
:1044D30074EE1203A9EAFEEBFF8C088D09890A74B6
:1044E30012120AE7E0F50B7413120AE7E0F50C75F4
:1044F3000D00750E00120E6F8A108B11AC10AD11EA
:10450300EC7001ED7014E50C704DA90AAC08AD090F
:10451300EEFAEFFB120E750245B9EC2402F8ED3406
:1045230000F9E50A601988828983E0FA850A08E5BB
:10453300082AFAE4340013EA13F070037401F0E577
:104543000C6020E50B70108C828D83E0600914F001
:1045530064027003750E017401650C7035E50B7010
:1045630016802A90159BE0C0E088828983E0FAD008
:10457300E0C39A504180DD9003E3E004F0C0E09093
:104583001585E0FAD0E0C39A4008750D01E4900365
:10459300E3F0E50E7004E50D601CE50D6018900373
:1045A30062E06E7003A3E06F700CEEFAEFFB79012B
:1045B300120C111245BC0243B27A017B009003BA7C
:1045C300E0F91213EB22C082C08374016A7001EB1D
:1045D30070077A011245F5801490157C12461DEA86
:1045E3007001EB600512256A80031245BC023AF79D
:1045F3007A207B009003BAE0F912130122C082C033
:104603008390157E12461D023AF7C082C08390152F
:104613008080F1F582EF3400F583EAF0A3EBF0221A
:10462300A908800574091208BC7F020206808E82E5
:104633008F83123CDA22A2F0E492E01246477952C9
:10464300121BD122851882851983F0023B7D124605
:10465300477942121BD122AA82AB83120D077ABD7E
:104663007B037945121BD12274F71203A974ED124F
:104673000906E9FE9003B91249BD1246A27412124B
:104683000AE7EE12469785188285198312465A74F3
:1046930013023A3DF0901518E0F97CBD7D0322909A
:1046A3001518E0F97ABD7B03120D0D22AA08AB0998
:1046B3009003BAE0F91212D7223400F58374012271
:1046C3001246BCF022A3A3A3A3A3A3A3A3A374FE94
:1046D300F0A374FFF02274F41203A9EAFEEBFF7A4D
:1046E300007B041245C012476B1243CE740990033A
:1046F3006EF0120DAF8A088B09AC08AD09EE2413D6
:104703001231501244A5124D1F6401704D7A0F12DD
:1047130047607001EB604374028A828B83F0EE245E
:104723001DF8EF1252BA1244A58A828B83A3124B4F
:1047330009E0FBEC850882850983A3A3F0A3EB12B0
:1047430051D7123CDBA3A3A312477912477DFAA3E7
:10475300E0FB794A121BD11246AF023B637B001286
:1047630012CB8A088B09EA2290033F123D9E9015D3
:104773008022EF1252BEE00240F5A3F0EE241512A0
:10478300478622F582EF3400F583E022740812088D
:10479300BC7F0802068012479D22F08508828509A6
:1047A3008302427EF50CE5093400F50D22124FE237
:1047B3006401228E828F83A3A3A3A3A3A3A3A3A392
:1047C3001247C7221240EEFB120E15E922124A9538
:1047D300120E092274F41203A974F3120906EAFEF5
:1047E300EBFF7C0D7D007900851882851983AA82F1
:1047F300AB831212B3EE241D123150124635A3E0DF
:10480300F854206008740C120AE77401F0E854802D
:104813006008740B120AE77401F0E85440600A74EC
:104823000A120AE77401F0800A740A120AE7E064C4
:10483300017005EE24138003EE2415123CBB7402B1
:10484300120AE7AA82AB83121B0BEE240BF8EF3498
:1048530000F9880889098882F5831248B31243CE88
:10486300740A120AE7E0640170341247B6703C120E
:104873000DBB8A0A8B0BA80AA90B850882850983BD
:10488300E0687003A3E0697022120DAFEAFCEBFD50
:104893007402120AE7AA82AB83124D1F600D8518BA
:1048A30082851983AA82AB83120C0B740D023B60C1
:1048B300123D9E02449874F61203A974F31209067A
:1048C3008A088B09ECFEEDFF7C0D7D0079008518CD
:1048D30082851983AA82AB83125152A3A3A3A3A3F4
:1048E300A3A3A3A31248B3E8F0A3E9124943FAA28E
:1048F300E55008740B120AE77401F0EAA2E75008C6
:10490300740A120AE77401F0EAA2E6EE50042413D3
:1049130080022415123CBB7402120AE7124939A320
:10492300A3E0C0E0740C120AE7D0E0124A8D120C27
:1049330005740D024629AA82AB83121B0B0240F5B4
:10494300F0EE241DF582EF3400123CD8A3E022746C
:10495300F71203A974E1120906EAFEEBFF1226A37C
:10496300EA2406F8EB124FDEA2E0504454FEF0A313
:10497300E01249BD8A828B831249B6E0F98A828BA1
:1049830083E0241CFAA3E0122BB71244A5120DA94D
:10499300E9701D741D120AE7123CD364047011857B
:1049A3001882851983AC82AD83EEFAEFFB120DF703
:1049B300023A3BE0241B123EB8221249C5AC82AD39
:1049C3008322F0024498E9FA790074046A600A7455
:1049D3000A6A600574036A70010902061174F6120B
:1049E30003A974208A828B83F07401A3A3F0120BB2
:1049F300BDEA7001EB600774018A828B83F0024683
:104A03002CC082C08374019003D1F0E9A2E3500368
:104A13007403F0E9A2E15004E0D2E2F0023AF77441
:104A2300F61203A979007C008A088B09780812051D
:104A3300B9F8FF07554A534A534A534A534A4C4A13
:104A4300504A554A494A0C80097C0480050C80F67B
:104A53007C089003D1E05C6003098003EC600109EA
:104A630002462C74F61203A98A828B83E0700EA38C
:104A73001239287001EB6005121CDF80047A007B79
:104A83000002462C7F03020680E4124A9122124A56
:104A930095221249C5023B7D123CC28E828F83A3AD
:104AA300A302427B74F21203A974FD1209068A0859
:104AB3008B09ECFEEDFF890A750B017401120AE7FD
:104AC3007404124FD07001EB6032EA124FCBEB1239
:104AD3003A48740388828983F0A3E50AF0EE88825A
:104AE3008983A3A3F0EF88828983A3A31237E6E522
:104AF30008F0A3E509F0120BB7E9F50BA90B0223A4
:104B03009A124B09A322E0FC8A828B83A3A322740B
:104B1300EC1203A974F51209068A0C8B0D89108C0B
:104B23000A8D0B741F120AE7E0F5117420120AE7CD
:104B3300E0F50EA3E0F50F7E01EE120AE7740AF02A
:104B4300E97007E511C333240AF0851882851983B8
:104B5300AA82AB83120E098A088B09EA7001EB70F3
:104B630003024C081250167409124CFE4511124DE3
:104B730018AC0AAD0B124CE6E510702D7C008023B7
:104B8300ECC333F8E433F9E50E28F8E50F39F98877
:104B9300828983124D1588828983123251F0A30EC4
:104BA300AF830CECC3951140D7E5082417F582E5D4
:104BB30009124C14E508241AF582E5091246197402
:104BC30003120AE7AC82AD83AA0CAB0D120AF7E914
:104BD3006021E508124C0FE5091246C37403120A5B
:104BE300E7A882A983E5082418F582E50912315361
:104BF3001243CE850882850983124D0BAA08AB099F
:104C0300120BB7E9FEEEF9740B024CDE2416F582A3
:104C1300221246BCF0120DAF22FEA3E03400FF8E39
:104C2300828F83E02274EC1203A98A0C8B0D891105
:104C33008C0E8D0F7414120AE7E0F5107415120A26
:104C4300E7124CD6900D27E07002A3E06078E510E0
:104C5300C333F508E433F509740E2508FAE435097E
:104C6300FB1212CB8A128B13AE12AF13EE7001EF4D
:104C7300605474D48E828F83F0124D0B8E828F8397
:104C8300A3A3A3A3E511F0AC0EAD0FEE2405FAEF39
:104C9300124CCFEE240D123150E510F0850A0C852D
:104CA3000B0D750E00780C12088BAC08AD09EE24C1
:104CB3000EFAEF1233211208BCEEFAEFFB900D2728
:104CC300124635121D77024CE1FAE5093400FB1256
:104CD3001B0B22E0F50AA3E0F50B221208BC7F0CA4
:104CE300020680EEFAEFFB124CEE22121B0B124C63
:104CF300F522EE2408FEEF3400FF228E828F83F02C
:104D0300A3E510C43354E022A3A3E50CF0A3E50DFF
:104D1300F022123252F0A3AE82AF8322121B05E9B6
:104D230022124D28223400FB8A828B83E02274F600
:104D33001203A9E9FE7C007D0078007900800BEC6A
:104D43002508FCED3509FD1251261251F35041E8B7
:104D5300FAE9FBEA75F012A4FAAFF075F012EBA4CE
:104D63002FFBEA2425FAEB3411FB8A828B83A3A35E
:104D7300A3A3E064FF60D0EA2410124DF37002E5B0
:104D83000960C4EE60B98A828B83E4F0A3F080B734
:104D930078007900800BEC2508FCED3509FD1251F4
:104DA300261251E65043E8FAE9FBEA75F017A4FA34
:104DB300AFF075F017EBA42FFBEA249FFAEB341244
:104DC300FB8A828B83E064FE7004A3E064FF60CE01
:104DD300EA2415124DF37002E50960C2EE60B78A4A
:104DE300828B83E4F0A3F080B5ECFAEDFB02462C52
:104DF300FAEB124D28F508A3E0F509E5082274F64D
:104E03001203A9EAFEEBFF9003D280138882898301
:104E1300E06E7003A3E06F603B88828983A3A312D3
:104E2300395D7001E970E57A047B001213438A0847
:104E33008B09A808A909E87001E9601888828983A9
:104E4300124E669003D2124E5AA3A312461D90032C
:104E5300D21243CE02462C123A87024FEF851882B4
:104E6300851983EEF0A3EFF02274F41203A97E00F8
:104E73009003D280070E88828983A3A312395D70C1
:104E830001E970F1EEC333FAE433FB124F147001FE
:104E9300EB60787F009003D2802488828983123C60
:104EA300BEEFC333FAE433FBE5082AF582E5093B99
:104EB300F583ECF0A3EDF00F88828983A3A3123965
:104EC3005D7001E970D49003B51242D17003A3E081
:104ED3006B7808701612088FEEF50A780A12089399
:104EE3007C807D037900120E2D801412088FEEF55D
:104EF3000A780A1208937C807D037900120E2774C6
:104F0300031208BCAA08AB09121349120BCF023BC8
:104F130063121343024765C082C08380128A828B67
:104F230083A3A3123A4B9003D21243CE1213499098
:104F330003D21239287001EB70E3023AF774F612C8
:104F430003A990036C12501F9003DD122D7D1243B1
:104F5300CE7ADD7B037950121BD19003DD124FE72C
:104F6300120E7B9003DD12501F900D29E07002A3F7
:104F7300E060307A067B001212CBEA7001EB60230B
:104F830074D58A828B83F0E4A3A3F074018A828BA5
:104F930083A3A3A3124FA9124E66900D291246357F
:104FA300121D7702462C1237EBA3A322F0024FEF18
:104FB300123D9E74FF6822124FBE22A3A3F0888283
:104FC3008983A3A3A322E508240BF582221247D0E9
:104FD300EA2208E93400F922F8E509124FE2221225
:104FE30052BEE022123CC2EEFAEFFB228882898392
:104FF30022850C82850D83124FFE22E0F8A3E0F98F
:10500300023253F0EE240F12500E22F582EF3400D9
:10501300F58322EA240BF582EB125011E0FEA3E0A4
:10502300FF2274F71203A97E008008EE1251961234
:105033000E630E90217DE493FAEEC39A40ED023A9B
:105043004074F71203A97800790080031251269067
:10505300217DE493FEC3E89EE99400504CE8FEE909
:10506300FFEE75F017A4FE85F00875F017EFA42581
:1050730008FFEE249FFEEF1252C46A7003A3E06B95
:1050830070CA8E828F83A3A3A3A3A3A3A3A3A3A363
:10509300E06C7003A3E06D600A74FF6C700374FF2F
:1050A3006D70A9EEFAEFFB80047A007B00023A40B0
:1050B30074F61203A97CFF7DFF7AFE7BFF120E5765
:1050C300EA7001EB705A7508007509008042E50823
:1050D30075F017A4F8ACF075F017E509A42CF9E8FE
:1050E300249FFEE93412FFEE240F1251DF6008EE15
:1050F300240E1251DF700E8A828B831244A5120C88
:105103009BEEFAEFFBE5082401F508E5091251D1FE
:1051130090217DE493F8C3E50898E509940040AE37
:1051230002462CE82401024FD574F71203A9EAFEC4
:10513300EBFFEE7001EF600E12514C1246D18E82DE
:105143008F83A31246C8023A407C177D0079001270
:1051530012B302325374F71203A9EAFEEBFF750888
:10516300008021E5081251968A828B83A3A3A3A30F
:10517300A3A3A3A3A3A3E06E7003A3E06F60031232
:105183000E63050890217DE493FAE508C39A40D3A2
:10519300023A4075F017A4249FFAE5F03412FB227B
:1051A30074F61203A9120E578A088B09A808A909D5
:1051B300E87001E9600AE8240DFAE93400FB800491
:1051C3007A007B0002462CFB024D1FF508EF3400EA
:1051D300F50922A3124FAFE022EE240BF582EF1262
:1051E30047892290217DE493FAC3E89AE994002247
:1051F30090217BE493FA740193FBC3E89AE99B2221
:1052030074F01203A98A088B098C0A8D0B890C127E
:1052130052447001EF602712514C125251A3A3A3C1
:10522300A3A3A3A3A3E50AF0A3E50B125006E50C81
:1052330070027401F0EE240E12315012525C0247D8
:1052430094120E5D8A0E8B0FAE0EAF0FEE22E508A1
:10525300F0A3E5091241DAA3227401F0EE240D1242
:10526300500E7402F02274F51203A98A088B09EC1C
:10527300FEEDFF750A00800DEE6C7002EF6D6003AA
:10528300120E63050A90217DE493FAE50AC39A504E
:1052930021E50A125196EA240A1252B8123CBEE5DD
:1052A300086C7003E5096D70CF88828983124E669E
:1052B30080D1024A87F8EB1252BE223400F9024F22
:1052C300EF3412024C21C082C08374F812090685A0
:1052D3001882851983AC82AD8375838175822B74A3
:1052E300081207F0851882851983AC82AD83124DAD
:1052F3001F640170047900800279017408023AF492
:10530300F582EB126C56A2E22274091208BC7F04E8
:10531300020680E0F508750900750A00750B002286
:1053230034FFF58322126D82E822EE2412FAEF3461
:1053330000FB120FF5E92279051210017402221203
:105343005C6B1208BC7F08020680F09003EDE0223C
:105353001210EB900457126D827A147B00227903AA
:105363001A1AEFFB120FFB740222125376E8F0A312
:10537300E9F02224FFF8A3E034FFF98A828B832229
:10538300E0F50CA3E0F50D22E0026BF98E828F832A
:10539300A3A3A3A322A3E08E828F831253A222F09E
:1053A300EE24FF1EEF34FFFF227F0A020680E5088A
:1053B30024FBF582E509025323F582EF126C562292
:1053C3007F06020680126C40E0227AE47B0312120D
:1053D300F5740222E0FEA3E0FF221253E122EE1253
:1053E3006BF1EF1253EA223400F583E022A2AFE41B
:1053F30092E0FAC2AF9003EBE004F0EAA2E092AFCE
:1054030022EE240EF582EF3400F58322E0FEA3E0C2
:10541300FFEE22EE240D126C53640122A3A3025368
:10542300937F07020680F0EEFAEFFB22C082C0836F
:1054330074FE12090680077AE47B03125474900306
:10544300E4E07002A3E070EF9003E6E07002A3E0F3
:1054530060097AE67B0312547480ED9003E4E4F070
:10546300A3F09003EAF09003EBF09003ECF0025CFE
:10547300491212EF851882851983EAF0A3EB1254BF
:1054830088120FE3221256D5AA82AB832274F41238
:1054930003A98982AE82EE2430F582E43421F583B8
:1054A300E493F508FA7B001212CBEA7001EB601269
:1054B300EA25081261EBE48A828B83A3A3A3A3F0FA
:1054C30080287A027B001212CBEA7001EB6017EEA0
:1054D300243BF582E43421F583E4938A828B83F0C1
:1054E300741AA31258347A007B00025311C0087453
:1054F3000629FBEAA2E0501EEB75F00A84AAF0EA43
:105503006014740A2BC39AFBEAC394054004740A1B
:105513002BFB740B2BFBE9C3941340047814800218
:105523007806E82BFB8B0874092508F8E43400F9A6
:105533007A0A7B00120258E8F9D008020611C082E9
:10554300C08390040AE05402600A121C0DE960044F
:10555300790180027900025BEAC082C08390040A69
:10556300E05402601F9003EAE070159003EDE070D1
:1055730002A3E0600F9003EDE0241012592F5004B2
:10558300790180027900025BEAC082C0839003EC58
:10559300E0C0E0908151E0FCD0E0C39C50051212C2
:1055A300CB80047A007B00025BEAC082C083120FC7
:1055B300E37900025BEAC082C08374FE12090685A8
:1055C30018828519831256EC1206BE00039A56DA26
:1055D3005529569A564D56900437E0640F601212BF
:1055E3000FB9E9700C126C0590153D125AAB121DE0
:1055F3007790045FE0C0E01256B1A3D0E01256DD0D
:1056030074141256CCFCA3E0FD7AE67B031212E974
:10561300A2AFE492E0FAC2AF9003EC1253FB7920FD
:10562300120FA7025C49120FB3E98518828519830B
:105633006011125AAB740D1256CCFAA3E0FB121C84
:105643000780E0125AAB741580B8851882851983D8
:10565300E024041256C5603F141256DD1256AAC048
:10566300E01256B1D0E01256CC24021256C512599C
:1056730019888289831256ECFA601CC3940A501766
:10568300740A2AC0E08518828519831256E5D0E092
:105693001256F004025605851882851983AA82AB37
:1056A30083120FE3025626A3A3125AAFE0228518F2
:1056B300828519831256BB2212789DA3A3A322E0ED
:1056C300240FF8A3E0125938221256D0221256D5CD
:1056D300E022F0851882851983221256E1221256A0
:1056E300D0F8A3E0F583888222EAF0A3EB1256E117
:1056F300A3A3A3A3A3E022C082C0839003EFE0701F
:1057030002A3E0600B9003EF125AAB121D778002E5
:105713007900025BEA74F71203A9EAFEEBFFEE24B9
:105723000D1254077401F0EE242F1253BCC0E01283
:105733005404D0E0F0EE24301253BCC0E0EE241247
:10574300125407D0E0126C4BC0E0EE24131254073E
:10575300D0E0F0EE242B1254071206F8EE2422FCBC
:10576300EF3400FDEE242D1253BCF91253671208D7
:10577300BCE97007EEFAEFFB120EED025F3CC0824C
:10578300C083120FB9E96004792080027901025BBA
:10579300EAC082C083EA126BF1EB1253BFD2E080FE
:1057A30003F0A3E0F0025BEAC082C083EA240DF5B4
:1057B30082EB1253BFFCEA240FF582EB12540A74F6
:1057C300016C7011E0A2E3400C8A828B83A3E0F9A1
:1057D300120FAD8059E0A2E650128A828B83A3E0B8
:1057E300F990153F125AAB121D77804274016C7009
:1057F30009E0A2E350047430802D8A828B83A3E0F6
:10580300FD741B6D70047422801D8C82A882ED7060
:105813000AE82446F582E434218008E8243BF58233
:10582300E43421F583E4938A828B83125834025B38
:10583300EAF0900405E0F91212D722C082C08390E7
:1058430003EDE07002A3E0604B9003EDE012591901
:10585300E97003E48016741B69703C9003EDE02447
:105863000DFCA3E0126931640570E8E98A828B8339
:1058730012534DFAA3E0FB120EDB9003EDE0240E6E
:1058830012592F50031270359003EDE4F0A3F07911
:1058930010120FA7025BEA74E969705C9003EDE0F4
:1058A30024111256C5604C9003EDE0240EFAA3E0D8
:1058B300125D8EA2E2400C88828983E014F0121AF2
:1058C300B780D19003EDE0240F18181256C6C2E733
:1058D30012534D240D1256C56403700F9003EDE06F
:1058E30024100808081256C6D2E2F0125922121DDB
:1058F30077808774E902586F741C69600302586EDD
:105903001AE0FB901545125AAB121D779003EDE494
:10591300F0A3F00258972401FAA3E03400FB22908D
:1059230003ED126C0F90153B125AAF22125935A298
:10593300E722F8A3E0126BF6E02274F21203A975D2
:105943000C00750D00A2AFE492E0F50AC2AF90031C
:10595300EDE07002A3E06009E50AA2E092AF025A0B
:1059630017125AA8121D77E94410FA9003E480092C
:1059730085080C85090D1253B1125A1F7002E509EF
:1059830060D6E5082410F8E5093400F9E8FEE9FFDC
:105993008E828F83E05A6A70D7780C12088FAC0816
:1059A300AD091253CD1208BC9003EDE508F0A3E551
:1059B30009125A3040619003EBE014F0E50AA2E0CB
:1059C30092AF9003EDE0240EA3E034001E1EFF8E81
:1059D300828F83E0FA9003ED125A25E0F9120E9FAD
:1059E300E99003E8F0A3E4125A3050189003EDE075
:1059F3002412125A2B1219BB9003EDE02413125AEE
:105A03002B1219AF9003ED1256C2A2E1B3E492E058
:105A1300F9121A9F0253C39003EA809D12770EE591
:105A23000822127899A3A322125935F922F08E8203
:105A33008F83E0A2E72274F71203A9EAFEEBFF12B9
:105A43000FDDEE240F1253BCA2E3400A125416706A
:105A53000590814F8003908150E0F9EEFCEFFD7AD1
:105A6300E47B031212FBE9602FEEFAEFFB90154182
:105A7300125AAB121D77EE240EF582EF1253064035
:105A8300081253F0120EE78019EEFAEFFB90153966
:105A9300125AAB121D77800A74F18E828F83A31280
:105AA3005AB4025F3C901543125AAF22E0F80256F3
:105AB300E5125429120EDB22C082C083120EE702C4
:105AC3005BEA74F71203A9790090040AE0FCEA2464
:105AD3002FF582EB12540AEC54027007E0A2E25055
:105AE3000279E8EC54607007E0A2E1500279E88A99
:105AF300828B83A3A3A3A3E0C39475400279E8EA4E
:105B0300242DF582EB1253BF7013EA242AF582EB9E
:105B13001253BF700879F5120FAD025F3CE970F7BD
