:020000040000FA
:060000000212540207FA8F
:03002B0002259813
:0300330002100FA9
:0300430002109513
:03004B00020F4D54
:0300530002074C55
:03005B00020F5C35
:03006300020F6821
:03006B00020FF58C
:1000830002079601010503010F03000300030003A8
:10009300000300030003000300030005000A00142B
:1000A3000028004F009E000000BF17BF17BF17BFF7
:1000B300177B167516BF17532D000000002D2C005B
:1000C3000000000C0000000C0001000045190000B6
:1000D30000000000E1190000000000002719AF0430
:1000E300FF01010100F40C000000670DE803640048
:1000F3006400B8010202000800000501071E0205A2
:100103001E0A03B80B01FFFF0202020612FF0600DC
:1001130014DE140000005F2365236B23000000003E
:1001230000000000000000000000000000000000CC
:10013300000000001020202020202020202020204C
:100143002020202020010C0401000000016783010E
:100153006983303132333435363738394142434499
:10016300454600286E756C6C20706F696E746572FD
:1001730029003031323334353637383961626364BC
:100183006566003F3F3F000000803FF9021550B70E
:1001930043BA510000204100E7DB2E0000A04010CD
:1001A3000000000800000012127360461212A060E3
:1001B3003DE9687008F618F618F618F62274806799
:1001C300F71201DE090909748067F7221212A06091
:1001D3001D1212737005191919801A121117701F45
:1001E300121102C37003E66733191919400718186F
:1001F300182208080874FFF618F618F618F62212E3
:10020300110260171212C7702192F01212D17019E5
:10021300501720F014080808090909E7F61819E728
:10022300F61819E7F61819E7F6221212D160E6E874
:1002330069701F0808E62480F608E436F618547F30
:10024300B47F0CE654806007F6E418F618F622181B
:100253001822E9C6CC08C6CD08C6CE08C6CFC0E072
:10026300E8C0E0EAC0E0EBC0E009E9F809E7FA0911
:10027300E7FBE6F918E6F8C3EC98ED99EE9AEBC2C2
:10028300E7F5F0EFC2E795F0500E600CEBCFFBEA19
:10029300CEFAE9CDF9E8CCF8EAA2E7D2E7FAEB33F4
:1002A300FB13F5F0EEA2E7D2E7FEEF33FFC5F01341
:1002B300A2E730E601B313C5F0C3C0E0C0F07F008E
:1002C300C39BFB605B9418600C401AD0E023F9D009
:1002D300E0F80203AD8AF0E9486003D2F0E4AFF03E
:1002E300FAF9F8803BEB30E40D89F0EA6003D2F0D1
:1002F300E4AFF0F9CAF8EB30E30D88F0EF6002D217
:10030300F0AFF0E4CAC9F8EB54076014FBC3EA1377
:10031300FAE913F9E813F8EF135002D2E0FFDBED2B
:10032300D0E0C0E030E739C3E49FFFF5F0EC98FC80
:1003330042F0ED99FD42F0EE9AFE42F0D0E0F9D0A2
:10034300E0F8E5F0607AE923F9EE20E742D802808D
:1003530067C3EF33FFEC33FCED33FDEE33FE80EA8E
:10036300EC28FCED39FDEE3AFED0E023F9D0E0F8BD
:100373004002801BC3EE13FEED13FDEC13FCEF13E1
:100383005002D2E0FF08B800067F7F74FF802EEF93
:100393003350178CF020F00260100CBC000C0DBD24
:1003A30000080EBE000408E860DFE933E813FFEE3F
:1003B3002313FE4F4D4C8008E95480FFE4FEFDFCFF
:1003C300EE33EF33F47004FCFD7E80D0E0FBD0E02D
:1003D300FAD0E0F8D0E0CFC618CEC618CDC618CCF8
:1003E300C6F9221212A07004181818221212737080
:1003F3000D74FFF61819F61819F61819F622E754B2
:100403008066F61212D1700F1212C770F014F6083C
:10041300F608F608F680D11212C7700CF608F60833
:10042300768008E6447F80EC121105700C12111AD5
:1004330060BFE65480F6E480BB12111A70051919E7
:100443001980A5E869700C763F18768018F618F6BF
:10045300E8F922E6CDC0E018ECC0E0E633CD33CDB9
:10046300D313F6E719FCE7191933CC33C3947F4050
:100473000ECD9D502408E65480F6E418F6800FF460
:10048300043D14501408E6447FF6187680E418F609
:1004930018F6D0E0FCD0E0FD22CCD313CCFD18E459
:1004A300C6CBC0E018E4C6CAC0E00808ED08C633EE
:1004B300E613F618E433C675F003C3CA97CA09CB2B
:1004C30097CB199C40047D08802EBD000302058F45
:1004D30016B6FF050606081618C3CA33CACB33CBB4
:1004E30033CA27CA09CB37CB193CC37D08803E18D2
:1004F3007D0820E75CC633C6CA33CACB33CB33DDB2
:10050300F1D5F0EB30E77BCA97CA09CB974ACB19F1
:100513009C406F4B7025E620E0218066187D08C360
:10052300CA97CA09CB97CB199CD3C633C6CA33CA59
:10053300CB33CB3350C9DDE7D5F0E1D3E4C636C6C0
:1005430008C636C608C636C608C636C61818188082
:1005530031C3CA97CA09CB97CB199CB34097C6330B
:10056300C6CA33CACB33CB33DD34D5F02EC6A2E0B3
:10057300C640C8CA27CA09CB37194A70BECB3CB498
:1005830080B90808E63308E633601F181818D0E06E
:10059300FAD0E0FBD0E0FCD0E0FD22187D08CA27AA
:1005A300CA09CB37CB193CD3808013F618E4B67F46
:1005B30011F618B6FF0EF618C60470D20808768036
:1005C30080CAF618F618F680C5001212A0604F1202
:1005D30012736012E7548066F6121117701112122B
:1005E300C7703B090909F4F618F618F618F6221233
:1005F300110270151212D108080860EAE6447FF66A
:1006030018768018E4F618F6221212D16016121228
:10061300C77012E4F608F608F608E65480F60909EE
:100623000918181822EAC0E0EBC0E0ECC0E0EDC006
:10063300E0E687F0A4FBACF008E687F0A42CFCE42A
:1006430035F0FA1809E687F0A42C4B60027401CA4E
:1006530035F0FCE433FB09E687F0D2F7A42CCB3565
:10066300F0FC1908E687F0A42BCC35F0FBE433FD4E
:100673000819E687F0D2E7A42C4ACB35F0CD340035
:10068300FC09E687F0D2E7A42DCC35F0FDE433FA7C
:100693000918E687F0D2F7A42CCD35F0CA3400FC54
:1006A30008E687F0D2E7D2F7A42ACC35F07A7E2089
:1006B300E70B0ACB33CBCD33CDCC33CC33CB335059
:1006C300147004ED30E00ED2F1E4CD3DCDCC3CCC42
:1006D3003B5005DA05C2F1EB547FC63308E633928B
:1006E300F0FBE73309E733C39A502D2B70190C0D38
:1006F3004C4D70151806E608C333700D20F10AA29D
:10070300F013F6E418800B4024E4F630F002768010
:1007130018F618F618F68024D33B14501074FFA271
:10072300F013F6187680E418F618F6800FA2F0138B
:10073300F618E63303F618ECF618EDF6D0E0FDD024
:10074300E0FCD0E0FBD0E0FA22C0E074F2120B0D23
:10075300E5A7FAE5A1FBEA5B541060081220895370
:10076300A1EF802AEAA2E0C0D0EBA2E092F012113E
:1007730069158182F05017906198E0FA9010D6E0E5
:10078300C39AA2D265D0335002EAF053A1FE7F018F
:10079300020BC4C0E074F2120B0D9061A4E0FA7571
:1007A3009B00E5915A540860087591F71220CB809D
:1007B3002AE5915A541060087591EF1220D1801BDD
:1007C300EAA2E0C0D0E591A2E092F012116915818E
:1007D30082F05007E0C2E0F01221F79061A3E0FA43
:1007E300E5E95A5404600E1221CD75E9FB9061933B
:1007F300E0A2E640F28097C0E074F2120B0D906124
:10080300A5E0FAE5BF5A5404600653BFFB12220F5A
:10081300020791C3E498F8E499F91208578026C3B4
:10082300E49AFAE49BFBE920E7E9120857E498F815
:10083300E499F922C3E498F8E499F9120857E49883
:10084300F8E499F9C3E49AFAE49BFB22EB20E7CF9F
:10085300E920E7E0B90010BB0008E88AF084F8AAB1
:10086300F022E4FBC8FA22EB70227B10C833C8C91C
:1008730033C9335007C39AC3DBF280069A50012A67
:10088300DBEAC833F4C8C933F4C9FA2275F008E4C3
:10089300C833C8C933C933C99AC99B5004C92AC9C3
:1008A3003BD5F0ECFBC833F4C8E4C9FA221208F0D4
:1008B30020F01430E72B74FFFCFBFA747F8022E4F2
:1008C300FCFBFA7480801AB48008BC00F2BB00EF12
:1008D300800F50EBF9E4C39AFAE49BFBE49CFCE43D
:1008E30099C6CC18C6CB18C6CA18C6F922E4C9C61D
:1008F30008CAC608CBC6D3330308CCC63392F0C3A9
:10090300947F402E94184019C9B90704CACBCC224E
:100913005025C309CA33CACB33CBCC33CC33D9F438
:1009230022F4600DC9CCC313CB13CBCA13CAD9F6B7
:10093300CC22E4FCFBFA2214FCFBFA22080808EAA6
:10094300C0E0EBC0E086F0E7A4FA180986F0E7A45C
:100953002AFA180986F0E7A42AFA180986F0E7A408
:100963002AFA1986F0E7A4FBE5F02AFA190886F0BB
:10097300E7A42BFBE5F03AFA190886F0E7A42BFB72
:10098300E5F03AFA18180986F0E7A4C5F02BFBE462
:100993003AFA1908E7C5F0C6A426F6E5F03BFBE4EE
:1009A3003AFA1886F0E7A4F6E5F00826F6E43B08E1
:1009B300F6E43A08F6D0E0FBD0E0FA22080808E6AD
:1009C30030E7111211411209D7080808C64480C63E
:1009D30018181822181818E9799EC608CAC608CB31
:1009E300C608CCC6C370207996CACBCC7019798E51
:1009F300CBCC70137986CC700EF9802ACA33CACB5C
:100A030033CBCC33CC331930E7F2CCCBCA335014CD
:100A13007004EA30E00DE4CA3ACACB3BCBCC3CCC01
:100A2300500209C3E913C6CC182313C6CB18C6CA90
:100A330018C6F922E4CFC0E0E4CEC0E0E4CDC0E0C4
:100A4300E4CCC0E075F020C3E633F608E633F608DD
:100A5300E633F608E633F6181818EC33FCED33FDED
:100A6300EE33FEEF33FFC3EC9709ED9709EE9709D9
:100A7300EF97191919400FFFEC97FC09ED97FD0942
:100A8300EE97FE191906D5F0BEECF709EDF709EE5E
:100A9300F709EFF7191919D0E0FCD0E0FDD0E0FE1B
:100AA300D0E0FF222518C582C0E0E51934FFC583D5
:100AB300C0E0E518C3958224F8F8E4C5A885831936
:100AC300858218C5A8E8CEF0A3E520F0A37808E650
:100AD30008F0A3DEFAEFF0A3E58124FAF8E608F0C4
:100AE300A3E608F0A3E608F0A30808E608F0A3E6E7
:100AF30008F0A315811581D0E0FED0E0F81581152B
:100B0300811581E8C0E0EEC0E022C0D02518C5827F
:100B1300C0E0E51934FFC583C0E0E518C39582241E
:100B2300F310AF088583198582188008858319859A
:100B33008218D2AFC8F0A3E9F0A3EAF0A3EBF0A3C5
:100B43007908E709F0A3D8FAECF0A3EDF0A3EEF0EF
:100B5300A3EFF0A3D0E0F0A3D0E0F0A3D0E0F0A3A4
:100B6300E520F0A3E5F0F0A3221212BCB9000302C2
:100B73000BAEE490030178EC79128002F0A3D8FC69
:100B8300D9FA9014ECAA82AB839000867825790277
:100B93008015E493A3AC82AD838A828B83F0A3AAEE
:100BA30082AB838C828D83D8E9D9E775821B7583E9
:100BB300927403120D417582937583257400120D8F
:100BC30041851983851882E0C0E0A3E0F9A3E0FA28
:100BD300A3E0FBA37808E0F608A3DFFAE0FCA3E0B8
:100BE300FDA3E0FEA3E0FFA3E0C0E0A3E0C0E0A319
:100BF300E0F5D0A3E0F520A3E0A3F5F0E4C5A885D4
:100C03008319858218C5A8D082D083D0E0F8D0E0BC
:100C1300321212A0601C12127360171212D17007E5
:100C23001212C77001D322C0D01212C77006D0D0DF
:100C3300B322C32233D0D0501430E0F6C3E7960872
:100C430009E7960809E7960809E796B32220E0D555
:100C5300E6970809E6970809E6970809E697B32295
:100C6300D083D082ECC0E0EDC0E0E493A3FCE49336
:100C7300A3FDED4C600D120D83EC24FFFCED34FF5E
:100C8300FD80EFE493A3FCE493A3FDED4C600D1210
:100C93000EF8EC24FFFCED34FFFD80EFD0E0FDD037
:100CA300E0FCE493A3C0E0E493C0E0221212A0604E
:100CB3001B12127360161212D170071212C7600C46
:100CC300B322C0D01212C77005D0D022C32233D0B2
:100CD300D0501330E0EBC3E7960809E7960809E71D
:100CE300960809E7962220E0E4E6970809E69708C4
:100CF30009E6970809E69722D083D082E9C0E0E4A9
:100D030093A3C386F0C5F095F0F908E493A386F0A6
:100D1300C5F095F0700BE493A3C3994005E90480F3
:100D230002A3E475F002A42582F582E5F03583F58C
:100D330083D0E0F9E493A3C0E0E493C0E022F5F0AC
:100D4300E59F5407C0E0E59F54F845F0F59FE47331
:100D5300859FF053F0F8D0E045F0F59F22D083D083
:100D630082E59F5407C0E0E493C0E0740193C0E0C0
:100D73007402935407F5F0E59F54F845F0F59F226C
:100D8300C0E0C3E49396087401939618400FE4936C
:100D930066700808740193661870007019A3A3C3E2
:100DA300E49396087401939618A3A3400DD0E0D062
:100DB300E0D0E0020C9FA3A3A3A3A3A3D0E02285CA
:100DC3001983851882E0A3FEE0A3F5207808E0A349
:100DD300F608DFFAE0A3FFE0A3C0E0E0A3C0E0E091
:100DE300A3C0E0E0A3C0E0E0A3C0E0E4C5A885821F
:100DF30018858319C5A8D083D082020D53C0E0C0E3
:100E0300D0EAC0E0C082C083900492E004F0C394AF
:100E1300644002E4F0E0C0E0900493E0FAD0E0C361
:100E23009A4004D2808002C280D083D082D0E0FA7C
:100E3300D0D0D0E032D083D082C5F0E493A3C5F004
:100E4300C395F0F5F0E493A3C395F04005E5F004F2
:100E53008001E475F002A42582F582E5F03583F57F
:100E630083E493A3C0E0E493C0E022740480047499
:100E7300028000CCC0E0EDC0E0E518C39CCCAD1906
:100E830050011D10AF068C188D1980068C188D1912
:100E9300D2AF120F96D0E0FDD0E0FC2274028000A6
:100EA300CCC0E0EDC0E0E518C39CCCAD1950011DEA
:100EB30010AF068C188D1980068C188D19D2AF12BD
:100EC3000F74D0E0FDD0E0FC221212A060251212B4
:100ED3007360201212D170030212C7080808E76674
:100EE30070101819E766700A1819E7667004181964
:100EF300E76622F422C0E0C0F088F0E4936670084D
:100F03000874019366187000A8F0A3A3700BD0F0C7
:100F1300D0E0D0E0D0E0020C9FA3A3D0F0D0E02239
:100F2300D083D082CCC0E0E493A36006120FD61422
:100F330070FAE493A360061210C21470FAD0E0FCB6
:100F4300E493A3C0E0E493C0E022C0E074F2120B88
:100F53000D121FB77F01020BC4C0E074F2120B0D18
:100F6300121FBD80EFC0E074F2120B0D121FC3807D
:100F7300E3CAC0E0E493A3C582CCC582C583CDC5D3
:100F830083F0A3C582CCC582C583CDC583DAE5D002
:100F9300E0CA22CAC0E0E0A3C582CCC582C583CD26
:100FA300C583F0A3C582CCC582C583CDC583DAE6EC
:100FB300D0E0CA227009080808226016181818C65B
:100FC300C333C608C633C608C633C608C633C6D538
:100FD300E0EA22C0E0E493A3D39C5010E493A3C3BC
:100FE3009C400AD0E0D0E0D0E0020F40A3A3A3D0FE
:100FF300E022C0E074F2120B0DE589A2E150031266
:101003001EF1758900C2C57F01020BC4C2E83274A8
:1010130004800A74038006740280027401C0E0F441
:101023000412102DD0E01212AF222518F58210AF52
:1010330008F518400215198008F51840021519D251
:10104300AF85198322BB0102E722C082C083898254
:101053008A83BB0003E08002E493D083D08222C062
:10106300D0251810AF08F518500205198008F51897
:1010730050020519D2AFD0D0226016080808C6C3A3
:1010830013C618C613C618C613C618C613C6D5E0AA
:10109300EA22C0E074F2120B0DC2C0E5D1A2E45003
:1010A30003121FF97F01020BC4251810AF08F518AE
:1010B300400215198008F51840021519D2AF22C055
:1010C300E0E493A36C7009D0E0D0E0D0E0020F40DD
:1010D300A3A3D0E022C3E09608A3E09608A3E0967A
:1010E30008A3E096A2D265D03322C3E7960809E7A6
:1010F300960809E7960809E796A2D265D033221924
:101103001919E7094709700AE709C3337005E7337B
:10111300F4220922181818E6084608700AE608C3DC
:10112300337005E633F4220822E066701008A3E06A
:1011330066700A08A3E066700408A3E06622181824
:1011430018E4C396F608E496F608E496F608E496DF
:10115300F622C3E096F008A3E096F008A3E096F029
:1011630008A3E096F022C0E0E8C0E0E58124FCF8A3
:10117300E6A2E7D0E0F8D0E022E647F60809E64722
:10118300F60809E647F60809E647F622E627F608D1
:1011930009E637F60809E637F60809E637F622E0E6
:1011A30026F608A3E036F608A3E036F608A3E036F1
:1011B300F622E026F008A3E036F008A3E036F008B4
:1011C300A3E036F022700422600D18C6C333C608AC
:1011D300C633C6D5E0F41822E657F60809E657F6F3
:1011E3000809E657F60809E657F622E056F608A37B
:1011F300E056F608A3E056F608A3E056F622E056BA
:10120300F008A3E056F008A3E056F008A3E056F078
:1012130022C3E09608A3E09608A3E09608A3E0960D
:1012230022C6F4C608C6F4C608C6F4C608C6F4C681
:1012330022600D08C6A2E713C618C613C6D5E0F38D
:1012430022C3E7960809E7960809E7960809E7968F
:101253002275D00075814075180175190300020BC2
:101263006C600C08C6C313C618C613C6D5E0F422B7
:10127300E7094709C3134709336002E733F422E65A
:10128300F008A3E6F008A3E6F008A3E6F022E0F6F0
:1012930008A3E0F608A3E0F608A3E0F622E6084672
:1012A30008C3134608336002E633F422CAC0E0E6FB
:1012B300F0A308DAFAD0E0FA2274F855C74401F52E
:1012C300C7790122E7C33319471947194722E6C3F0
:1012D30033184618461846222518F582E43519F5C1
:1012E3008322120D60E4B401120D6034B601120DB5
:1012F3006050B601120D60B2B601120D604CB70119
:10130300120D6093B701120D602EB801120D60DB50
:10131300B801120D6019B901120D6089B901120DDE
:1013230060D4B901120D600DBA01120D603BBB010F
:10133300120D606CBC01120D60CBBC01120D601468
:10134300BD01120D603CBD01120D60BFBD01120D48
:101353006041BE01120D60B6BE01120D60C7BE0131
:10136300120D603DBF01120D60EFBF01120D603120
:10137300C001120D60B7C001120D60FEC001120D55
:101383006047C101120D60D0C201120D608AC40111
:10139300120D60D4C401120D60B8C501120D60B204
:1013A300C701120D60BCC701120D60C6C701120D43
:1013B30060D0C701120D60DAC701120D60E4C701E6
:1013C300120D60EEC701120D600FC801120D6033DC
:1013D300C801120D6057C801120D60B6C801120D85
:1013E3006005C901120D6023C901120D6093C90183
:1013F300120D60D0C901120D601ECA01120D608169
:10140300CA01120D602FCC01120D60A1CC01120D87
:1014130060C1CE01120D60E6CE01120D6026D0012F
:10142300120D6065D001120D60ABD001120D608901
:10143300D101120D60F0D101120D6021D201120D04
:101443006024D201120D60AB2F00120D60F72F0044
:10145300120D60D23100120D60103200120D605C6B
:101463003200120D60013300120D60673300120D5C
:1014730060B23300120D60D33400120D606A350080
:10148300120D60763800120D60F63800120D60ED13
:101493003900120D60923A00120D60A83B00120D44
:1014A30060C83E00120D607B3F00120D60A53F0037
:1014B300120D608B4000120D605C4100120D60F351
:1014C3004100120D603D4200120D606A4200120D90
:1014D300608C4200120D608F4400120D6064450061
:1014E300120D60B14500120D60204600120D60CE52
:1014F3004600120D60034700120D60514700120DA4
:1015030060864700120D60DE4700120D6038480008
:10151300120D60B84800120D60224900120D60A63A
:101523004900120D60074B00120D60C84B00120DED
:1015330060F44C00120D60824E00120D60204F00CB
:10154300120D60275000120D60B75000120D60FE9F
:101553005000120D60785200120D608C5200120D73
:1015630060995200120D60CD5200120D60D95200E5
:10157300120D60F75200120D60ED5300120D60243E
:101583005400120D60315400120D608F5400120D7F
:1015930060FD5400120D60FB5500120D60DD560016
:1015A300120D60765700120D60ED5700120D6004A6
:1015B3005800120D60285800120D60465800120D95
:1015C300608A5800120D60CB5800120D6036590026
:1015D300120D604C5A00120D60555B00120D602510
:1015E3005C00120D60905C00120D603E5D00120DF8
:1015F30060645D00120D60495E00120D60685E005C
:10160300120D60D75E00120D60505F00120D607CFA
:101613005F00120D60C75F00120D60276000120D9E
:10162300608D6000120D60ED6000120D6024BC033C
:10163300120D606FBC03120D609B8401120D60FCE0
:101643008401120D605C8501120D60AD8501120DE0
:1016530060C88501120D60F88501120D60198601BD
:10166300120D60258601120D60668701120D6084DC
:101673008701120D60ED8701120D60008801120DC4
:1016830060178801120D60AA8801120D60A98901F3
:10169300120D60A58A01120D60278B01120D6031B6
:1016A3008B01120D60948B01120D60A58B01120D3D
:1016B30060E88B01120D602F8C01120D60658C01A7
:1016C300120D609B8C01120D60B98C01120D60DD4F
:1016D3008C01120D601E8D01120D60118E01120D11
:1016E30060578E01120D60928E01120D60EF8E0114
:1016F300120D60178F01120D60508F01120D605E85
:101703008F01120D60BF8F01120D60FC8F01120D4E
:10171300603E9001120D606F9001120D60A3900165
:10172300120D60AE9001120D60CC9001120D609409
:101733009101120D609E9101120D60DD9101120D58
:1017430060F39101120D60FC9101120D606692012C
:10175300120D607A9201120D60729301120D608571
:101763009301120D609A9301120D603A9401120DC8
:10177300609E9401120D60619501120D606C9501DC
:10178300120D608B9601120D60A79601120D60FF7A
:101793009601120D60369701120D60509701120DDC
:1017A300608F9701120D60AA9901120D60149A01BE
:1017B300120D607F9A01120D60D69C01120D60E636
:1017C3009C01120D60E99C01120D60F59C01120D44
:1017D30060099D01120D60119D01120D60469D016E
:1017E300120D60F49D01120D60649E01120D60C81C
:1017F3009E01120D60619F01120D60FB9F01120D8E
:101803006022A001120D60B2A001120D60BEA00102
:10181300120D60EDA001120D600FA101120D6036D3
:10182300A101120D609CA101120D6006A301120D0E
:101833006009A301120D6080A301120D606CA40165
:10184300120D6044A501120D60CEA501120D6003B7
:10185300A701120D60B5A701120D60EEA701120DCD
:10186300601FA801120D6028A801120D6014A901C0
:10187300120D6090A901120D601DAA01120D60E7FF
:10188300AA01120D606BAB01120D60A1AB01120D29
:1018930060EAAB01120D600CBC02120D601EBC02AB
:1018A300120D6091BC02120D60C7BC02120D601EC6
:1018B300BD02120D60D8BE02120D60B9C002120D36
:1018C30060B7C302120D60F4C302120D600EC402AE
:1018D300120D6070C402120D60ACC402120D60E8F8
:1018E300C402120D6022C502120D6097B803120DD7
:1018F30060C1B803120D60DAB803120D600EB903AC
:10190300120D602FB903120D6066FE02120D608581
:10191300FE02120D60D0FE02120D601AFF02120DBC
:1019230060BDFF02120D604E9D03120D607A9D0390
:10193300120D60769E03120D6062AD03120D60A05E
:10194300AE03120D6032E302120D60B9E302120D11
:1019530060C3E302120D60EAE302120D60FEE302CC
:10196300120D6056E402120D6086E402120D607BD4
:10197300E502120D6040E602120D6092E602120DBE
:1019830060DCE602120D6019E702120D607CE702CB
:10199300120D60BFE702120D6036E802120D60906F
:1019A300E802120D60E0A903120D60F9A903120DFC
:1019B3006094AA03120D6043AB03120D6070AB0376
:1019C300120D60739503120D60FB9503120D6006F3
:1019D3009603120D602B9603120D6051F301120D45
:1019E3006054F301120D6017F401120D6045F40108
:1019F300120D6087F401120D60ACF401120D60CC7E
:101A0300F401120D6002F501120D604CF501120D87
:101A13006064F601120D6093F601120D60B4F601D5
:101A2300120D600CF701120D60C3F701120D600770
:101A3300F801120D6049F901120D60DFF901120D71
:101A430060F3FA01120D6042FB01120D606BFB01A2
:101A5300120D6032FC01120D605DFC01120D608FEE
:101A6300FC01120D6083B202120D608DB202120DE1
:101A730060D9B202120D6049B302120D6066B3025F
:101A8300120D6028B402120D60DDB602120D60E67D
:101A9300B602120D603CB702120D6067B702120D59
:101AA30060CCB702120D6068B802120D60A5B802CF
:101AB300120D60F6B802120D605DB902120D60DFFF
:101AC300B902120D602CBA02120D605EBA02120D39
:101AD3006093BA02120D60A3BA02120D60B3BA0288
:101AE300120D60D2BA02120D609FBB02120D60D8B4
:101AF300BB02120D6096B603120D60D8A703120D38
:101B0300603CA803120D6063A803120D6069A9036A
:101B1300120D60A89102120D608D9202120D60C821
:101B23009202120D60779402120D60BB9402120DA3
:101B330060739602120D60BA9602120D60939702BB
:101B4300120D60209802120D60AC9802120D600411
:101B53009902120D60479902120D60DC9A02120D70
:101B6300604E9C02120D60769E02120D6019AF0149
:101B7300120D60DD9E02120D60319F02120D602670
:101B8300A202120D60DEBD03120D604F8703120D1A
:101B930060678703120D600F8803120D605088037E
:101BA300120D606D8803120D60938803120D60DAC5
:101BB3008803120D60138903120D60478903120D08
:101BC30060D98A03120D6079BC03120D60FDAE0368
:101BD300120D606AAF03120D6081AF03120D6085B1
:101BE300B401120D60DDAF03120D6074B003120D6A
:101BF300607EB003120D60367300120D60847300B3
:101C0300120D60357400120D60C27400120D601164
:101C13007500120D606E7500120D60827500120D55
:101C230060527700120D60D17700120D60FB7700D0
:101C3300120D60AB7900120D60C67900120D6007BA
:101C43007A00120D603A7A00120D60937A00120D39
:101C530060AF7A00120D60137B00120D609C7C0054
:101C6300120D60CC7C00120D60F57C00120D6055E6
:101C73007D00120D606F7D00120D60727D00120DEC
:101C830060757D00120D60E77D00120D60097E0016
:101C9300120D601C7E00120D60837E00120D60B673
:101CA3007E00120D602CBB03120D6038BB03120DB6
:101CB3006082BB03120D608ED502120D60DFD50268
:101CC300120D60A2D702120D6070D902120D60BA14
:101CD300D902120D60F3DA02120D6042DC02120D1A
:101CE3006060DC02120D60B4DC02120D603CDD02A8
:101CF300120D60276100120D60526100120D600B1E
:101D03006200120D60996200120D60FF6200120DF5
:101D1300604B6300120D60B86300120D604D6400E8
:101D2300120D60D16400120D600D6500120D60F19B
:101D33006800120D609C6A00120D60C56A00120DE6
:101D430060836B00120D60426C00120D606C6D00BD
:101D5300120D60CE6E00120D60496F00120D60749B
:101D63007000120D60D37000120D601A7200120D14
:101D7300608F7200120D60008002120D60BC800241
:101D8300120D60368102120D604E8102120D60EA5F
:101D93008102120D602D8202120D60298302120D41
:101DA30060558302120D60C08302120D601284021B
:101DB300120D606F8402120D60A68502120D604041
:101DC3008602120D60BC8602120D60338802120D6A
:101DD30060DB8802120D60828902120D60DE8902C7
:101DE300120D60548A02120D60728B02120D603361
:101DF3008D02120D60498E02120D60E68E02120DE5
:101E0300605F8F02120D60649002120D6094F20203
:101E1300120D600AF302120D6063F302120D60C12A
:101E2300F302120D60FDF302120D6086F402120D2F
:101E330060C9F402120D600DF502120D6096F502F1
:101E4300120D609BF502120D6011F602120D606413
:101E5300A103120D60B1A103120D6060A203120D64
:101E630060C6A203120D6037A303120D600C930327
:101E7300120D60699303120D60DA9403120D60DB97
:101E8300B103120D6015B203120D60DBB203120D24
:101E930060C57E00120D60D37E00120D60F4BD0399
:101EA300120D604EB903120D605EB903120D607F0F
:101EB300B903120D60E7B903120D601DB303120DD0
:101EC3006044B303120D60CDB303120D6034B40349
:101ED300120D60DD9E03120D607BB503120D609140
:101EE300B503120D60E3B503120D6013B603120DB3
:101EF3006077B603120D60E29A03120D60029B0332
:101F0300120D60239B03120D60429B03120D604A66
:101F13009B03120D60709B03120D60AD9B03120DAA
:101F230060D69B03120D60239C03120D606B9C0310
:101F3300120D60A7E802120D60BCE802120D60C525
:101F4300E902120D6006EA02120D6020EA02120D88
:101F530060A4EA02120D609FEB02120D6001EC0215
:101F6300120D6038EC02120D6066EC02120D6099DE
:101F7300EC02120D60C9EC02120D6071ED02120D3C
:101F830060C2ED02120D6093FA02120D60A1FA0213
:101F9300120D602CFB02120D6000FC02120D603466
:101FA300FE02120D604DB403120D60B2AB03120DAD
:101FB30060EAAB03120D600EAC03120D606CAC0350
:101FC300120D60CEAC03120D600DAD03120D603B1C
:101FD300AD03120D6070DD02120D60EFDD02120D14
:101FE300609FDE02120D6010DF02120D6016E00228
:101FF300120D60BBE102120D601BE202120D606D57
:10200300E202120D6076E202120D608CE202120D02
:10201300609EE202120D60B0E202120D6015E3024F
:10202300120D601FE302120D60DCED02120D602F32
:10203300EE02120D6043F002120D607BF002120DEE
:1020430060A0F002120D60B9F002120D60D2F0022E
:10205300120D60C7F102120D6055F202120D60CC31
:10206300A503120D600FA603120D6020A603120D27
:102073006053A603120D608BA603120D60C3A60363
:10208300120D602BA703120D605EA703120D6036BD
:102093009803120D60619803120D60A89803120D46
:1020A30060BA9803120D60D69803120D603E99032F
:1020B300120D60479903120D60A89903120D60CCAD
:1020C3009903120D60969A03120D60A39A03120DE1
:1020D30060B49A03120D60B8BB03120D6005BC0314
:1020E300120D60008003120D60138003120D6071E6
:1020F3008103120D607E8103120D60978103120D1F
:1021030060AA8103120D60C48103120D60E3810391
:10211300120D60628203120D602E8303120D608B19
:102123008303120D609B8303120D6091BA03120D9A
:1021330060B6BA03120D60DFBA03120D6007BB036A
:10214300120D60009F03120D60199F03120D60258D
:102153009F03120D602E9F03120D60529F03120DF9
:10216300605E9F03120D606D9F03120D608B9F03D2
:10217300120D60DD9F03120D6017A003120D604C5A
:10218300A003120D609BA003120D60E7A003120DC4
:1021930060FFA003120D6009A103120D601AA103D1
:1021A300120D605EA103120D60C9BC03120D6060C5
:1021B300C502120D608CC502120D60A8C502120D76
:1021C30060BBC502120D60D1C502120D603DC6028F
:1021D300120D6077C602120D60E5C902120D60048C
:1021E300CB02120D6035CB02120D6097CB02120D9C
:1021F3006072CC02120D609ACC02120D60AFCC0259
:10220300120D60BFCC02120D6000CD02120D60559D
:10221300CD02120D6065CD02120D6098B003120D50
:1022230060B3B003120D60DDB003120D60FAB003AA
:10223300120D6022B103120D6044B103120D605DF3
:10224300B103120D608CB103120D60A7B103120D1F
:102253006058BD03120D60898E03120D60908E03CA
:10226300120D609D8F03120D60CF8F03120D60F569
:102273008F03120D60289003120D603A9003120D24
:1022830060759003120D60E59003120D60229103B7
:10229300120D606F9103120D609D9103120D60BDCD
:1022A3009103120D60BFA303120D60D1A303120D9E
:1022B30060D5A403120D6097B703120D60F5B70341
:1022C300120D6034B803120D6075B803120D608EE1
:1022D300CD02120D60ADCD02120D6013CE02120DB0
:1022E300609BCE02120D6023CF02120D603ECF021F
:1022F300120D60B4CF02120D60D7D102120D606DC2
:10230300D202120D60FBD202120D60BDD302120D78
:10231300603ED402120D6063D402120D60E6D40253
:10232300120D6003D502120D60AA8303120D606BB8
:102333008403120D60D88403120D60FD8403120D13
:1023430060C68503120D6011BD03120D60B3F60262
:10235300120D6018F702120D6050F902120D60950C
:10236300F902120D6098F902120D60B9F902120D0B
:1023730060BCF902120D60F3F902120D60DBFC017F
:10238300120D6007FD01120D6050FD01120D606A10
:10239300FD01120D6092FD01120D60B9FD01120DD8
:1023A30060A6FE01120D60B0FE01120D60BDFE01BC
:1023B300120D60CEFF01120D60D7FF01120D60E018
:1023C300FF01120D60F18A03120D60848E03120D5A
:1023D30060D1FF02120D60F1B903120D601BBA0345
:1023E300120D60A79E03120D6098BD03120D60C00D
:1023F300BD03120D606FA202120D603CA702120D05
:1024030060DEAE01120D60BAAE01120D609FAE0127
:10241300120D602FAE01120D605DAD01120D60D281
:10242300AC01120D6061AC01120D6042AC01120DE2
:102433006048B401120D60D1B301120D6030AC01DC
:10244300120D6021F301120D60E3B201120D60D190
:10245300B201120D6003F301120D60A2F201120D1D
:1024630060DAF101120D6048F101120D60EEEF0127
:10247300120D60A1ED01120D603AED01120D60FF26
:10248300E901120D60D7E901120D608BE901120D0C
:102493006068E901120D607FE801120D6027E80111
:1024A300120D6083E601120D6080E601120D607863
:1024B300E501120D6058E501120D60B1E401120D42
:1024C3006034E301120D60FBE201120D60ADB10156
:1024D300120D601DB101120D607AB001120D60CCB6
:1024E300E201120D60C9E201120D60BBE201120D9F
:1024F300609DE201120D60A2AF01120D608CE2013A
:10250300120D60A8E101120D603EE101120D600B96
:10251300E101120D60C6AF03120D6056AF01120D3B
:1025230060B3E001120D6082E001120D60A9DD01CC
:10253300120D60B6DC01120D604CDC01120D600C53
:10254300DC01120D6000DC01120D6073DB01120D62
:1025530060C1DA01120D60EFD801120D6061D6017E
:10256300120D602BD601120D60CCD401120D6078D0
:10257300D401120D60A5D301120D600CD301120D0D
:1025830060ABD201120D60E5D201120D60809E0294
:1025930000000080FBC2C732E473000000000000AB
:1025A30000000000000000000000000070F8F87058
:1025B30000000000000D0D000000001C3C000000A6
:1025C3003C1C00000000000000000020F8F820F888
:1025D300F82000020F0F020F0F020070F8888E8E92
:1025E300983000060C0838380F0700606000008040
:1025F300C06000080C0603010C0C0000B0F8C8789A
:10260300B08000070F0809070F0800203C1C0000DA
:10261300000000000000000000000000E0F01808C7
:102623000000000003070C0800000000000818F079
:10263300E000000000080C07030080A0E0C0C0E039
:10264300A0800002030101030200808080F0F0807B
:102653008080000000070700000000000000000069
:1026630000000000101E0E0000008080808080802B
:1026730080000000000000000000000000000000D7
:1026830000000000000C0C00000000000080C0608F
:102693003018000603010000000000F0F888C86845
:1026A300F8F000070F0908080F0700002030F8F8BA
:1026B3000000000008080F0F08080010180888C859
:1026C3007830000C0E0B09080C0C00101888888851
:1026D300F87000040C0808080F070080C06030F889
:1026E300F80000010101090F0F0900F8F888888834
:1026F300880800040C0808080F0700E0F098888891
:10270300800000070F0808080F070018180888C87A
:1027130078380000000F0F0000000070F8888888E8
:10272300F87000070F0808080F070070F8888888FA
:10273300F8F000000808080C070300000030300020
:10274300000000000006060000000000003030001A
:1027530000000000080E060000000080C060301872
:10276300080000000103060C080000404040404000
:10277300400000020202020202000008183060C09A
:10278300800000080C06030100000030380888C8E8
:102793007830000000000D0D000000F0F808C8C8F4
:1027A300F8F000070F080B0B0B0100C0E0301830E6
:1027B300E0C0000F0F0101010F0F0008F8F888882F
:1027C300F87000080F0F08080F0700E0F01808085A
:1027D30018300003070C08080C060008F8F808185E
:1027E300F0E000080F0F080C07030008F8F888C88A
:1027F300183800080F0F08090C0E0008F8F888C8ED
:10280300183800080F0F0801000000E0F01808084E
:1028130018300003070C0909070F00F8F8808080BF
:10282300F8F8000F0F0000000F0F000008F8F80879
:1028330000000000080F0F0800000000000008F867
:10284300F80800060E08080F07000008F8F880E0F3
:10285300781800080F0F00030F0C0008F8F80800A1
:10286300000000080F0F08080C0E00F8F830603065
:10287300F8F8000F0F0000000F0F00F8F870E0C029
:10288300F8F8000F0F0000010F0F00E0F018081810
:10289300F0E00003070C080C07030008F8F8888829
:1028A300F87000080F0F0800000000F0F80808088F
:1028B300F8F000030704071E1F130008F8F88888C0
:1028C300F87000080F0F00010F0E003078C88888D9
:1028D300383000060E0808090F06180808F8F8082B
:1028E30008180000080F0F08000000F8F8000000A7
:1028F300F8F800070F0808080F0700F8F8000000B1
:10290300F8F8000103060C06030100F8F8000000C4
:10291300F8F8000F0F0603060F0F003878C080C0C9
:102923007838000E0F0100010F0E003878C080C008
:1029330078380000080F0F0F080000381888C8689F
:102943003818000E0F0908080C0E0000F8F80808E4
:10295300000000000F0F08080000003870E0C0807E
:102963000000000000000103070E00000808F8F84B
:102973000000000008080F0F00000010180C060CE0
:10298300181000000000000000000000000000001C
:1029930000000020202020202000000000060E0858
:1029A300000000000000000000000000404040C0A4
:1029B300800000060F0909070F080008F8F840C057
:1029C300800000080F0708080F070080C040404040
:1029D300C08000070F0808080C04000080C048F8F6
:1029E300F80000070F0808070F080080C0404040A8
:1029F300C08000070F0909090D050080F0F88898C9
:102A0300300000080F0F080000000080C040408025
:102A1300C04000133724243F1F000008F8F880400B
:102A2300C08000080F0F00000F0F00000040D8D82F
:102A33000000000000080F0F08000000000040D84D
:102A4300D80000183820203F1F000008F8F8008045
:102A5300C04000080F0F01030E0C00000008F8F837
:102A63000000000000080F0F08000080C080808075
:102A7300C080000F0F000F000F0F0040C0804040C8
:102A8300C08000000F0F00000F0F0080C0404040C7
:102A9300C08000070F0808080F070040C0804040AF
:102AA300C08000203F3F240407030080C0404080D3
:102AB300C04000030704243F3F200040C080C040C3
:102AC300C08000080F0F080001010080C040404093
:102AD300C08000040D090B0A0E04004040F0F840CA
:102AE3004000000000070F080C0400C0C00000C035
:102AF300C00000070F0808070F0800C0C00000004F
:102B0300C0C0000103060C06030100C0C0000000A2
:102B1300C0C000070F0C060C0F070040C0800080E8
:102B2300C04000080C0703070C0800C0C0000000E9
:102B3300C0C00003272424341F0F00C0C04040C07E
:102B4300C04000080C0E0B090C0C008080F07808C4
:102B53000800000000070F08080000000078780054
:102B630000000000000F0F00000000080878F0804C
:102B730080000008080F0700000000101808181054
:102B8300180800000000000000000000000E0A0EFC
:102B930000000000000000000000000136360101C3
:102BA3000001020100010301000104010606050200
:102BB3000000070100340801000F090401010D01A1
:102BC30000FF0E08000017020000190100FF1A01A0
:102BD30000011B0100FE1C0100081D0200001F0173
:102BE300000120010001210200002301000F240243
:102BF30000002601000127010008280200FF2A0126
:102C030000072B0102402C0100002D0100012E01C1
:102C130000012F0100FF30010B1C310800003A01B5
:102C230000083B01000F2F010000010371030103A2
:102C33000103010301030103220302030103100340
:102C43000003000300030003000300030003420327
:102C530000032403060300030003040312032503F4
:102C630023032503230304030403000300030003D6
:102C7300440300030003230300036503210035031A
:102C83008103000305030003000300030101710135
:102C93000101010111010101310101010101800162
:102CA300100161013B0014006301730172016201B1
:102CB30043010001130106013D0135000401120126
:102CC300000100010001000104010401330133018B
:102CD3003C0144013201360000010001650100019D
:102CE3003500810100010501820183010001030216
:102CF300710230016002110270020102020202023B
:102D03008002100261023A00410063027302720200
:102D130062024302000213023800000200020402AE
:102D23001202000200020002000204020402370041
:102D330037003C024402000239000002000265022F
:102D430000023502810200020502820283020002B0
:102D53000300710030016000110070003102200394
:102D63005004800010006100000014006300730031
:102D73007200620043000000130006000000000020
:102D83000400120000000000000000000400040022
:102D9300370037003C024400000000000000000040
:102DA300650000003500810000000500000083007D
:102DB30000000000030020016E83000000002001DA
:102DC3006D83000004004201B1810000050042014F
:102DD3005C81000006004201A08100000700200181
:102DE3006B830000100042039D15000011002003B7
:102DF300E014000012002003AE15030000002103BD
:102E0300E114060000002001E3143600010006006F
:102E130000000F00000000000000000000000000A0
:102E230003FFFF00000403FFFF0000FFFF0FF40197
:102E33000005C4040320000100000B000000000093
:102E430000000003010F0000B31D13004D1D01001E
:102E5300B31D02000B1D0300111D0400171D050007
:102E63001D1D0600291D1100411D1400471D1500DD
:102E73003B1DFFFF000003000300040008001000D7
:102E83001F003E007B00F600EC01D703AF075D0F88
:102E9300B91E713D0000D5160517DB16E116FF16A6
:102EA300F316ED160B17111717172317E716CF167F
:102EB300C91603EAF5E5D5D5C5B5A59595858575F7
:102EC30075656555554545353525251515050ABFE0
:102ED30014028914059B14078F140C71140D7D14AF
:102EE300FF00009C36063A703DD9404344AD471776
:102EF3004B814EEA5100160F00000B150B02000226
:102F0300220F320000060001020304050607080928
:102F13000A0B0C0D0E0FBF17D117D7179F16DD170E
:102F23009916A516371855185B183D1849184318F4
:102F33000001191618161615230300000349484209
:102F43004D181725050200383C3E363B3B352B43D5
:102F53002C303016181920231A1C1E303030171845
:102F63001921301B1D1F300C0E020B040B0A07081E
:102F7300000F2B18E317E917F517EF17F9161D17AD
:102F83004F1829172F170005150D09100804000005
:102F93000000000000BE040A150004000E00280A09
:102FA300090C0404080F0508C082C083E99003BA22
:102FB300F0E490036EF01222A59003CDE4F0A3F0A9
:102FC3009003BBF0A3F01215F71222AB90033DE47C
:102FD300F0A3F09003DFE07002A3E060099003DF49
:102FE30012545912259B902FA8E493FA79021223C5
:102FF300B302491B74F2120AA7EAFEEBFF74805F67
:10300300F9E47001E960619003BAE0F9121AA18A48
:10301300088B09EA7001EB60467B0080010BEB75BE
:10302300F003A424D1F8E5F0342EF988828983E4EF
:1030330093FA74FF6A6021850882850983E06A70C8
:10304300DCAA08AB0988828983A3E493C0E07401F6
:1030530093F583D08212259BAA08AB09121A95EE29
:10306300FA74806FFB0231BC74105FF9E47001E9FC
:10307300601D1215198A088B09EA7001EB600A12A8
:10308300147DAA08AB09121A95EEFA741080D4EED7
:10309300A2E0501A900373E0640F700B79001214CE
:1030A30053E960031231C874016EFAEF80B65420FD
:1030B3007003023188750C001244817001EB7010AB
:1030C3007C027D007A207B009003BAE0F9121BA9F1
:1030D3007C0079047A007B001214F58A088B09803E
:1030E3000D740188828983F0850A08850B09E50838
:1030F3007002E509606D7C007904AA08AB0912141B
:10310300F58A0A8B0B750C01E5082404125DFF2474
:10311300FFF0A3E034FF125FFB7002A3E070C9E588
:10312300082409F8E5093400F9850882850983A391
:10313300A3A3A3A3A3A3A3A3A3E0640170A38508EC
:1031430082850983A3A3A3A3A3A3E0540470927469
:103153000688828983F07AB78508828509831232CB
:10316300F580851214C57C0079017A007B00121466
:10317300F5EA7001EB7009E50C70057A201253E251
:1031830074200230AC74025FF9E47001E9600A1242
:1031930015F1EEFA740202306674045FF9E470010B
:1031A300E9601212558F1251F279011239E3EEFAE6
:1031B30074040230667A007B008005740312106287
:1031C3007F06020DC29015551248AB12146B22C034
:1031D30082C08374EA1210AC851882851983AA828F
:1031E300AB83794B12238974081212DB7402F074D7
:1031F300091212DBAA82AB8379501223897413124A
:1032030012DB1258B01223A7741602491874F7126E
:103213000AA774E11210ACEAFEEBFFEE7001EF6057
:1032230033851882851983AC82AD8312153D7406EC
:103233001212DBE0601E74171212DBE0FD74011240
:1032430012DBE0FCEEFAEFFB7900122455E960048F
:1032530079A48002790002485F74F6120AA7EAFE95
:10326300EBFF8E828F83A3A3A3A3A3A3E0544060A9
:103273001B1254551255E760067AFF7BFF801A8EA6
:10328300828F83124AF7FAA3E0FB8003121561745D
:10329300FE6A700374FF6B6041125455125441125D
:1032A30015BBE98E828F8360061232EEE48005122D
:1032B30032EE7401F07C597D148E828F831252C9D1
:1032C3001223ADE9F5087015EE7001EF600979017D
:1032D300EEFAEFFB1214D10254477508CDAA088EFB
:1032E300828F831232F5E960DF80ECE0240D124C0B
:1032F300DC22E0240C124CDCE0F91214652274F693
:10330300120AA7E9FEEAFF7A0F7B00121A8FEA700E
:1033130001EB6019740C8A828B83F0EEA3A3F0EFA8
:103323008A828B83A3F01254D779008034EEF9128A
:1033330014FB8A088B09A808A909E87001E9601F32
:10334300740688828983A3A3A3A3A3A3A3125DDE28
:10335300A3A3A3A3A3E0F912141DEEF91214D779C2
:1033630010025450C082C083900373E0640F70183E
:10337300EA7001EB601290036EE0FC74086C600568
:1033830074046C700312338E02491BEAFCEBFD7A62
:10339300017B009003BAE0F9121BA3221255AA6421
:1033A3000222EE2409F8EF3400F9880A890B22740B
:1033B300F2120AA774FD1210AC8A088B09EA2402E0
:1033C300F50CEB124E58F91214FB8A0A8B0BAE0A5A
:1033D300AF0BEE7001EF70030234BB8508828509E1
:1033E30083A385820A85830BE064F16014E064CDD6
:1033F300600FE0641A600AE064E96005E064E1706C
:103403001C79001214D1E960148E828F83A3A3A3C5
:10341300A3A3A3E04420F0A3E0F00234A5850A822D
:10342300850B83E0C0E074021212DBD0E0F0125C83
:1034330084126000851882851983AA82AB83700584
:1034430012139380031215A3850A82850B83E0640C
:10345300F1604FE064CD604AE0641A6045E064E1E6
:103463006040E064F0603B74021212DBE0FC74B76E
:103473006C602F1234C7750A01780A12101EECF51E
:103483000A780A12101EE508240CF582E509123F9A
:1034930077123E84FCA3E0FD8A828B83123E9E1248
:1034A3001062EE240912339F70037406F0850C82B8
:1034B300850D83E0F91214D71214C59015591231F2
:1034C300CB0231BE8E828F83124BC2E8FAE9FB2214
:1034D30074F5120AA78A088B09750A00EA240912EF
:1034E3004991FEE9FF8E828F831235647003750A5A
:1034F300018E828F831250F57003A3E06B7006E593
:103503000AD2E1F50AE5082402FEE5093400FFE5E5
:103513000A60138E828F83E07006E50AD2E5800489
:10352300E50AD2E6F50A1215BBE964017006E50A5D
:10353300D2E0F50A8E828F83E06017E508241DF53B
:1035430082E509340012355A64016006E50AC2E0D7
:10355300F50AA90A0258AB124AFCE0F91215A9E9C7
:10356300221255EB64022274E8120AA774DE1210C9
:10357300ACEAFEEBFFEE2404124AC9E0601090159A
:1035830057E07002A3E060069015571231CBEE248A
:1035930002F50CEF1255CF74031212DBAC82AD832C
:1035A300850882850983123E7AFAA3E0FB12153D52
:1035B300EE241B12486974101212DB1251F27409C3
:1035C3001212DBE0601C741A1212DBE0FD740412A9
:1035D30012DBE0FC1252C37901122455E9600302A5
:1035E300385174031212DBAA82AB83121477E9F504
:1035F3000A74091212DBE0700E900356E06008E9CA
:10360300A2E14003023851EE2412F514EF3400F521
:1036130015EE242A125FF2EE242EF516EF3400F590
:1036230017EE242C123F74123BA1E0687003A3E051
:1036330069701E750B00780B12101E780B12101E8A
:10364300851682851783E0F9123866123E9E1210A2
:103653006274061212DBE0FA90035CE06A60030214
:10366300385174091212DBE07003023729123866ED
:103673001252C91216158A088B09A808A909E870FD
:1036830001E970030237CA74041212DB12385BFAC1
:10369300A3E03400FB740D2AF582E43BF583E0FAE2
:1036A300E82404F508E9125FF5E82403F582E9123A
:1036B30060066A601FEAF0908356781012129185B3
:1036C3000882850983E510F0A3E511F0A3E512F064
:1036D300A3E513F07904E91212DB12385BFCA3E0D3
:1036E30034008C82F583A3AA82AB83121A7D8A0CE1
:1036F3008B0D8C0E8D0F850882850983781012122D
:10370300917810790C121244500302385190834A75
:10371300780C1211A2850882850983125B31A3E517
:103723000EF0A3E50FF090036EE0FA74046A6008EC
:1037330074096A6003023851E50AA2E540030238BE
:103743000C851682851783E0851882851983F0EE30
:10375300242F126003C0E074011212DBD0E0F0EEFC
:103763002430126003C0E074021212DBD0E0F07464
:10377300141212DBE064017028740E1212DB12487B
:103783006F851482851583E0687003A3E069701167
:10379300740C1212DB123564700774141212DBE41A
:1037A300F0EE2424123F74120E6E74041212DBAC7A
:1037B30082AD8374071212DBAA82AB83121399744E
:1037C300041210620238519003B3E06401600302F3
:1037D300372974201212DB124AF764067009E50ACE
:1037E300A2E6500302372974101212DBE064FF7063
:1037F30004A3E064FF6057EEFCEFFD74031212DBD9
:10380300AA82AB831214838045A2E650417420122E
:1038130012DB124AF7FA74046A7018741A1212DB74
:10382300E06402702974031212DBAA82AB831215BF
:1038330097801B74076A7016741A1212DBE0640413
:10384300700C74031212DBAA82AB831215917422DB
:103853001210627F10020DC2E0FA850C82850D837F
:10386300E02A22850882850983124AE68514828527
:1038730015832274F2120AA7EAFEEBFF8C088D0966
:103883001233A579008882F5831252C91214298A4A
:10389300828B83E5827002E583603DA3A3A3A3A388
:1038A300A3E054186032E508241BF582E509123FB2
:1038B30077120E72E5082412F582E509123F77129A
:1038C3000E72EE2418F582EF12498C1238E61214A8
:1038D3003B7404121062800879001238E612140552
:1038E3000231C3850A82850B83124AE6EE240B124A
:1038F30048A42274F6120AA774F71210AC8A088B34
:103903000990036EE0FA74036A600D74016A60083B
:1039130074096A60030239D58508828B83A3AE825A
:10392300AF83E060030239BA7C007D007A027B003A
:103933001222B1E50824021239D812486F90035FAE
:103943001251F2795312238F79001239E390036EE7
:10395300E06409600990036C1252C912160F7401D6
:10396300125475740490036EF074011212DBAA8270
:10397300AB83794A12238974011212DBAC82AD83C3
:103983007A647B031222C990035F124AE27A037BB3
:10399300001222B1900362124AE27A047B001222DF
:1039A300B1900359E0A2E35004D2F08002C2F012B6
:1039B300545D1231C88018FC7D007A037B101222FB
:1039C300B18E828F83E0F91239E3E490036EF01233
:1039D30014A702544BFAE5093400FB8A828B832235
:1039E30090036C1248AB1213A522C082C0839003CC
:1039F3003DE07002A3E0704190036EE0120F2300DC
:103A030003010F3A051E3A062D3A3C3A900345E06E
:103A13007002A3E06076900345806B900341E070F1
:103A230002A3E06067900341805C900343E070026F
:103A3300A3E06058900343804D90033DE07002A3E0
:103A4300E060091241EBFC74016C70237900900370
:103A5300BB800909EA125A33EB123F7712474C70C5
:103A630001EB70EF9003BB1252C912139F801D74B8
:103A7300026C70051215E580139003E1E07002A358
:103A8300E060099003E112545912259B02491B740B
:103A9300F4120AA774FB1210AC8A088B097A0F7B05
:103AA30000121A8F8A0A8B0BAE0AAF0BEE7001EF6E
:103AB3007003023B9C74028E828F831258B179503B
:103AC300122389850882850983A385820885830952
:103AD300E06003023B8590036C125DD7700374FFB3
:103AE30069602F74FE68700374FF6960258518820E
:103AF300851983E0687003A3E069601674EA85089A
:103B030082850983123EB07A6C7B03795012238F2E
:103B13008070851882851983123BA11251F27A5F56
:103B23007B03795312238990035F1251ED7A627BF1
:103B330003794B1223897A617B0379E112238990FC
:103B43000373E0C3940F5022900361E0C0E074025A
:103B53001212DBD0E0F074041212DB7401F0740271
:103B63001212DBAA82AB831223A1750A00780A1210
:103B7300101E780A12101E901574E0F9123E951269
:103B83001062850882850983123E65F074039003F1
:103B93006EF0EEFAEFFB1254D77405024984124B10
:103BA300C290036C2274EC120AA774ED1210AC8A53
:103BB300828B83A3123E6AEA2408124991FEE9FF2D
:103BC300851882851983AC82AD838E828F83123EE2
:103BD30084FAA3E0FB1214B3851882851983E0707D
:103BE300708E828F83E0C3940B40668508828509BB
:103BF30083A3A3A3A3A3A3A3A3E06402705390038B
:103C03006EE0FAE5082410F510E5093400F511E536
:103C13000824091255CB74026A603B74066A603645
:103C230090033DE07002A3E060071241EB64016082
:103C33005574086A600574046A701674021212DB04
:103C4300E0F974071212DBAC82AD831252C3121473
:103C5300B97413025B0290033DE07002A3E0702687
:103C6300750A00780A12101E780A12101E85108237
:103C7300851183123E7AFCA3E0FD850882850983C2
:103C8300123E9E1210629003BB125E439003BB125E
:103C93005AFAE508240DF50EE5093400F50F8030D6
:103CA3008E828F83E0F8A3123E7A687003A3E069E3
:103CB30070128E828F83A3A3E0FA850E82850F8311
:103CC300E06A606B8E0A8F0BEE125A33EF125E407E
:103CD300EE7001EF70CA7A187B00121B078A128BF1
:103CE30013AE12AF13EE7001EF7003023C547C1855
:103CF300125F721254ECEE240C123F7474FFF0E561
:103D030008240B125DFF123E5C125FFAC4123E5C84
:103D1300A3A3F09003BBE07002A3E070059003BB84
:103D2300800AE50A125A33E50B123F77125C8A7454
:103D3300011212DB123E74A3F074021212DB123E64
:103D430074F0850E82850F83123E65A3F0125E1810
:103D5300125011240DFAEF3400FB74021212DBE04F
:103D63006401600E74071212DBAC82AD831222C9A8
:103D730080097C087D0079FF121A7774121212DB16
:103D8300E0C0E0EE2415123F74D0E0123EA7FC9091
:103D93001574E0C39C4003023C54125DEDE5091227
:103DA3003F77A3E05480F9E47001E97009900CEBCC
:103DB300E07003023C547D00EE240CF8EF3400F96C
:103DC300EE240BFAEF3400FB9003ABE06402701DAA
:103DD3008A828B83E0F50AC39C500D74051212DBB3
:103DE300E0C39405401B801AE50A6C701574051234
:103DF30012DBE0C0E088828983E0FCD0E0C39C5002
:103E0300010D74061212DBE06035ED602585088232
:103E13008509831258BFECF0A3ED123EA78A828B6B
:103E230083F074051212DB124AEC74061212DBE003
:103E3300600D74018E828F83A3A3A3A3A3A3F07445
:103E4300041212DBE07003023C5474018E828F83F0
:103E5300A3A3A3A3A3F0023C54540F8E828F83A386
:103E6300A322124076A322A3A3E0F508A3E0F50959
:103E73002212407602509FE0F9850C82850D83E083
:103E830022E0F98A828B83A3A3A3A3A3A3A3A3A35F
:103E9300E02290036C124AE69003621248AB1215BB
:103EA30073740222F0851082851183E022F07A5F19
:103EB3007B037953123EBB2212238F7A627B0379F1
:103EC3004B12238F2274F0120AA774F81210AC8AD3
:103ED3000C8B0D8C0A8D0B890E851882851983AC8A
:103EE30082AD837583837582027408120F96F50F72
:103EF300AC0CAD0D851882851983AA82AB83125B46
:103F0300437003750F019003BB8030AC0CAD0DEE15
:103F1300240DFAEF3400125FEE601A8508828509DA
:103F230083E0650E700F8E828F83E0650A7004A3B1
:103F3300E0650B6032EE2416123F741247D770010E
:103F4300EF6024EE2402125FF2E50F70BE8E828FC3
:103F530083E0650A7004A3E0650B70D98508828548
:103F63000983E0650E70CEEEFAEFFB0255B3EE2443
:103F73000BF582EF125E352274F7120AA79003BB8A
:103F8300124F12800CEA2416125E3D121B0DEEFA3C
:103F9300EFFBEA7001EB70ED9003BBE4F0A3F002DA
:103FA300486474F1120AA78A088B09ECFEEDFF89B5
:103FB3000A8A828B83125B398A828B83124075F063
:103FC300EEF8EFF9A30EAF838A828B83A3A3E0C439
:103FD30054F0FA88828983E04A12408112407612B3
:103FE300407CE0333354FCFA8E828F83E04A1240E4
:103FF3007CA3E033333354F8FA8E828F83E04AF0A4
:1040030008EFF9A30EAF838508828B83A3A3A3A331
:10401300A3A3E0A2E0E492E013135480FA88828918
:1040230083E04AF0E5082407F50CEB1255CF750E33
:1040330000780C1210167C08124E4C121062125BA0
:1040430019E508240F1255CB780C1210167C0312B5
:104053004E4C121062E50AC3940F4011E508241276
:10406300F582E509123F77123E65A3A3F07F0702AD
:104073000DC2A3E08E828F8322124081A322F0859A
:1040830008828B83A3A3A32274F1120AA7EAFEEB8F
:10409300FF890A8C088D098E828F83E08C828D8341
:1040A300124FFAAE82AF83E01250B0124157C412DE
:1040B30050B012414BE054038C828D83124155A2C0
:1040C300E2E492E08C828D83124154131313541F44
:1040D3001250B0A3124154A2E7E492E08C828D8384
:1040E300A3A3A3A312414B8E0C8F0D750E00780C66
:1040F3001210167C087D00E50824071241421210B5
:1041030062125B198E0C8F0D780C1210167C037DD6
:1041130000E508240F124142121062E5082412F848
:10412300E5093400F9E50AC3940F400A8E828F83B0
:10413300A3A3A3E08001E488828983F0024070FA9C
:10414300E5093400124E5122A3A3124FFE0EAF8392
:1041530022A3A3A3A3F0025A4674F4120AA774F984
:104163001210ACEAFEEBFF90033DE07002A3E060A7
:10417300101241EB64027009EEFAEFFB1215DF80B7
:104183006290036CE06E7003A3E06F705674016974
:1041930060097A807B03125B4370487A007B0212CA
:1041A30044857001EB703C90036F7808121291857F
:1041B30018828519837808121282900375E0C0E093
:1041C30074041212DBD0E0F074051212DB7401F0F8
:1041D30074061212DB74021258B112136FE960985D
:1041E300121375740702498490033D124CE9E022CF
:1041F30074F7120AA78A828B83A3AE82AF83E0F996
:104203001213BD8E828F83E0FA74EB6A600574E14A
:104213006A7002E4F01231C8750801780812101EA2
:104223008E828F83E0F508780812101E7900123E03
:10423300951210621214C502486474F6120AA7900C
:1042430003CCE0701F7C0079017A007B001214F527
:10425300EA7001EB600E8A828B83E07002A3E06058
:104263000312145F025450C082C0831246B7401039
:1042730079FF1214EFE9FA902FA4E493C39A500440
:1042830079018002790002491B74EE120AA78A0899
:104293008B09890D750E00EA2408F50AEB3400F545
:1042A3000B850A82F583E0F91214FB8A108B11AE99
:1042B30010AF11750C01EE7001EF600302434F85DF
:1042C3000882850983A3A3A3A3A3A3124AE2850AB1
:1042D30082850B83124F171252C91214E38A0A8B79
:1042E3000BAE0AAF0BEE7001EF70030244798E82BE
:1042F3008F83A3A3A3A3E4F0A3F0E508240BFAE5BB
:1043030009125B48C0E0123F71D0E0F01215C1EE14
:10431300240C12543A750E01EE2406F8EF1246C629
:10432300E0547FF0A3E054FC12455F5404600302A1
:1043330043E190155D124F0B740778081211C88A78
:10434300828B83E04508F0A3E04509F0EE2406F8EC
:10435300EF124993FCE9FD8C828D831252C974805C
:104363005AF50874035BF50974077808121264E5BB
:1043730008F510EE2404F50AEF3400F50BEE2409DA
:10438300125FF2E50D60607402850882850983126D
:104393004158240D124CD8E0A2E2500F90035A1258
:1043A300486F850A82850B831251F2E51070030270
:1043B3004440747F5AFA74FC5BFB74FF2510F510BC
:1043C30074FF3400F511740778101211C8E5104A10
:1043D300F8E5114BF98C828D831251F2805FE04432
:1043E30080F0A3E002434EE5107005750C00804D8C
:1043F300EA54206015121A898A10747F5510F874D4
:104403005F28850A82850B83801BEA5410600E1295
:104413001A898A10740F5510F8740F80E4850A8284
:10442300850B837401F0A3E4F07404850882850985
:1044330083F01244817001EB700312541774016509
:104443000E7036850A82850B83124AE285088285BF
:104453000983E0F9EEFAEFFB1214E9E9601BEE249D
:104463000C123F7412474C7001EB6003121B0DEEEC
:10447300FAEFFB121B0D750C00A90C0251D67A2022
:104483007B009003BAE0F9121BB5EA2274F6120A14
:10449300A774F71210AC7E001214FBEA7001EB70E4
:1044A3000302455A8A828B83A3A3A3A3A3A3A3A333
:1044B300A3E06406600302455A8A828B83A3A3A305
:1044C300A3A3A3A3E0FF8A828B83124CE3E0C0E0A3
:1044D30074081212DBD0E012455F124AFF1256D75E
:1044E3001251F212150D74085FF9E47001E9606569
:1044F300851882851983124AE27A007B001214DD43
:10450300EA7001EB704F90036C1249981223B97C47
:10451300007D007A007B0080268E828F83E0124824
:10452300737004A3E064FF602C90036C124AE212E0
:10453300202FE9641A601E7C007D00EEFAEFFB1267
:1045430014DD8A088B09AE08AF09EE7001EF70C95C
:1045530079001223BF7E01EEF902544B124615E097
:104563002274F7120AA7EA7001EB70059003CD805D
:10457300068A828B83A3A312474C7001EB60288ABF
:10458300828B83A3A3A3A3A3A3A3E05408F9E4709A
:1045930001E960DDEC7001ED6011124AF36C700308
:1045A300A3E06D70CC80047A007B0002486474F24F
:1045B300120AA7EAFEEBFF890A8C088D097A0E7BA3
:1045C30000121B07EA7001EB603AE48A828B83A333
:1045D300A3A3A3A3A3A3A3124619E50A12487FE545
:1045E30008F0A3E509125DCDE4F0124619A3A31266
:1045F3004615125C8AEA240CF582EB124AD912465C
:104603000AF0A3F00231C3A312460F22124615A3E8
:10461300A322F00239DEA3124883A3A32274F51266
:104623000AA7EAFEEBFF890A8C088D09EE7001EFF9
:1046330060567401650A701479011214EFE9FA9057
:104643002FAAE493C39A500F791180657404650A05
:1046530070301246B740F18E828F83A3A3A3A3A326
:10466300A3A3A3A3E50A125005126075E4F0A3F017
:104673009003CDE07002A3E09003CD602412486F55
:10468300800A7402650A60CF79C18025E824020894
:1046930008E91246C61247817001E970EF8A828BDE
:1046A30083125C8A1244817001EB700312541779F0
:1046B300000258AB79041214EFE9FA902FA9E4939E
:1046C300C39A22124993FAE90239DDC082C083E911
:1046D300FC79009003CD801D8A828B83A3A3A3A3BF
:1046E300A3A3A3A3A3E06C600574FF6C7001098A04
:1046F300828B83A3A312474C7001EB70DB02491B2F
:1047030074F7120AA7EA7001EB70059003CD8006D7
:104713008A828B83A3A312474C7001EB60248A82A5
:104723008B83A3A3A3A3A3A3A3A3A3E06970E1EC37
:1047330060148A828B83E0240D125A40A2E240D097
:1047430080047A007B000248641248ABEA22C082EC
:10475300C0839003CD80068A828B83A3A312474C28
:104763007001EB60128A828B83A3A3A3A3A3A3A3E9
:10477300A3E06970E280047A007B0002491B124BBC
:10478300C2E82274F1120AA78A0A8B0B8C0C8D0DD6
:10479300750800750900EA7001EB60319003CD8064
:1047A300068E828F83A3A31247D77001EF601EACDE
:1047B3000CAD0DEEFAEFFB850A82850B8312259B68
:1047C300E9640170DCEEF8EFF988088909AA08ABFF
:1047D30009024070E0FEA3E0FFEE2274F7120AA77D
:1047E3009003CD12486F7C007D008007E8FCE9FD53
:1047F30012486FE87001E9603AE82402F582E91291
:104803003F77EA687002EB6970E21252C99003CDF8
:10481300125E43E86E7002E96F70099003CDEAF00F
:10482300A3EB800EEAF8EBF98C828D83A3A3E8F067
:10483300A3E9F0802C74F7120AA7EAFEEBFFEE70EF
:1048430001EF6016121507124889EA7001EB600345
:10485300121B0DEEFAEFFB121B0D8005741F1210D5
:10486300627F01020DC2F582EF125E35124BC22246
:10487300FAA3E0FB8A828B83E064FF22124883223F
:104883001246150250A08E828F83E0241C124CDC4A
:104893001248B08E828F831248B0EE240C1248A4C3
:1048A30022F582EF3400F583124F12FB22124F12CE
:1048B300FB121B0D22C082C083EAFCEBFDEC7001EE
:1048C300ED70047905804CEC24FBF582ED34FFF5A3
:1048D30083E07002A3E07011EC24FFF8ED34FFF9DC
:1048E30088828983E064FF6005121A9580D590035E
:1048F300BA124AEC902FA2E493F97ACF7B03121AEF
:10490300BFE96401700B7A007B1012541B7900809D
:104913000279048003121062D083D082020D537493
:10492300F4120AA7A2AFE492E0F508C2AF9003CF56
:104933001247D77001EF603DEE24FBF582EF34FFA1
:10494300F583E07002A3E07A007B109003BA600560
:1049530012541E8005E0F9121ACB750A00750B007C
:10496300780A12101AEEFCEFFD7ACF7B03121AB904
:104973007402121062E508A2E092AFEEFAEFFB8038
:10498300031210627F04020DC21255ADF922F8EB37
:104993003400F9E822124AE6851882851983AA822F
:1049A300AB832274F0120AA774FC1210ACEAFEEB7C
:1049B300FF1214CBE960057911024AC4EE240212F6
:1049C3004AC91255E76006EE2412124AD6EE2413A2
:1049D3001260037003741EF0EE2411F8EF1255D425
:1049E3007019900DBBE0600D900356E0700D8E8240
:1049F3008F83E07006E488828983F0EE241408082C
:104A030008EF125E02700C90034B124AEC90034BBA
:104A1300E004F0EE240FF50AEF3400F50B8E828FDD
:104A230083E064017017123F71124AF76402700D3C
:104A3300850A82850B83E04440F0A3E0F085188269
:104A4300851983AC82AD83EEFAEFFB1215318A0C24
:104A53008B0D850882850983124AE2EA7001EB60B7
:104A63005C8E828F83E0C0E074011212DBD0E0F031
:104A730074021212DB125C8A74011212DB85820843
:104A8300858309780812101A850A82850B83120E12
:104A930072EE240E126003F508780812101E7405D6
:104AA3001212DBE0F912152B7405121062E9FE7481
:104AB300106E700BAA0CAB0D121B0D80027E10EE54
:104AC300F974040255B5F508EF3400F50985088239
:104AD300F58322F582EF125E35E4F022125E321284
:104AE3004AE622E0FCA3E0FD22E088828983F022EB
:104AF3008A828B83124AFEE022F583E0F8A3E0F575
:104B030083888222C082C08374DE1210AC8A828BB7
:104B130083A3A3A3A312486F740E1212DBE8F0A3BE
:104B2300E9124BBB740C1212DB124BB4240DF58249
:104B3300EB126006C0E0741A1212DBD0E0F0EA1246
:104B43005DEFEB12486C74201212DB124BB4241588
:104B5300F582EB126006C0E074081212DBD0E0F0BD
:104B6300EA241CF582EB12486C74121212DB125108
:104B7300F274FF851882851983F074011212DB74B5
:104B8300FFF074021212DB74FFF0908356120E6E64
:104B930074041212DBAC82AD8374071212DBAA8297
:104BA300AB831213997404121062790074220249C0
:104BB30018E8F0A3E9F0EA2212460F124BC222E0F2
:104BC300F8A3E0F92274EF120AA774F01210AC8A6A
:104BD3000C8B0DECFEEDFF891074211212DBE0F556
:104BE3000F74221212DB125AFA74241212DB123ED1
:104BF3006C750E107A1E7B00121B0774021212DBF7
:104C030012544174021212DBE07002A3E07003023B
:104C13004CCC851882851983AA82AB8379501252B2
:104C2300B91252C974021212DB124CE3A31254419B
:104C330074021212DBE0240B124CD87402F012122D
:104C4300DB124CE37402F01212DB125459125C8A29
:104C530074021212DB1257DAE510F074021212DB3F
:104C6300E0240C124CD8E50FF074021212DBE0249E
:104C73001C124CD8125B3174081212DBE50AF0A344
:104C8300E50BF0740A1212DBE50FF0850882850943
:104C930083C082C083740D1212DBAC82AD83D083D8
:104CA300D0827403120F96F974021212DBAA82AB3C
:104CB300831214D1E964017005750E00800B740230
:104CC3001212DB1252C9121B0DA90E7410121062BC
:104CD3007F09020DC2124CDC22F8A3E01260E2222B
:104CE300124CE9A3A322E0F8A3E0F58388820250E3
:104CF300A074EA120AA7EAFEEBFF8C088D098E82E4
:104D03008F83A385820A85830B7408F0EE2416F53E
:104D13000CEF124E5860097410850A82850B83F0DC
:104D2300EE2417F510EF3400F511851082F583E0BA
:104D3300600A850A82850B83E02408F0EE2411F8CB
:104D4300EF125E026005750E0E8003750E00EE24F1
:104D53000DF514EF3400F515850A82850B83E08584
:104D63001482851583FAE02A250E8C828D83125FC7
:104D7300FB6013900357E0F9122443E9FA85088294
:104D8300850983E02AF0850882850983E0FAC394C4
:104D9300754009750800750900024E437B00125DDA
:104DA300387001EB7003024E43EEFAEFFB12153736
:104DB300EA850882850983125442EE2402F81255CB
:104DC30099124E6DF0EE24040808125599A3A3120C
:104DD3004E6DA3A3F0EE2413124E63F0EE241412CF
:104DE3004E63A3F07A08850C82850D83E0600FEE95
:104DF3002418124ADFE5082408125AF07A108510A5
:104E030082851183E0600FEE241A124ADF8A0CE5D3
:104E130008250C125AF0126000F510A3E0F5117585
:104E230012007810121016851482851583E0FC7D1C
:104E3300001251DBE50E28FAE439124E51121062CA
:104E4300AA08AB097F0E020DC27D00EEFAEFFB123A
:104E53001A6B7403223400F50D850C82F583E0226E
:104E6300125E32124E77A3A3A322A3A3125DD3A390
:104E7300124E7722E0850882850983A3A3A32274B7
:104E8300F6120AA78A828B83E0FC90035C124F0B15
:104E9300740278081211C8E5084CFCAD09EA241223
:104EA300124F05740678081211C8E5084CFCE50991
:104EB3004DFDEA2411124F05740978081211C8E553
:104EC300094DFDEA2416124F05740B78081211C818
:104ED300E5094DFDEA2417124F05740C78081211E9
:104EE300C8E5094DFD8A828B83A3A3A3A3A3A312C1
:104EF3004F0B740A78081211C8ECFAE5094DFB024E
:104F03005450F582EB125E35E0F50875090022E096
:104F1300FAA3E022E0F98508828509832274F2125C
:104F23000AA78A088B09ECFEEDFFE98E828F83F0D6
:104F330012522DC0E0EE2411123F74D0E01252271A
:104F4300C0E0EE2412123F74D0E0124FFAA882A9F7
:104F5300831251F86010E5082408FAE5093400FBD0
:104F6300EE24131250188E828F83A3A3A3A3A3A3AB
:104F7300A3A3E0601588828983E0FAE5082AFAE5AD
:104F8300093400FBEE2415125018EE2419124AD6E8
:104F9300EE241B124AD6125FFAF50AF50CE5082532
:104FA3000CF8E5093400F9EE241DFAEF3400FBEAAE
:104FB300FCEBFD8C828D831250112417FAEF340021
:104FC300FB8A088B098E828F83E0C3950A8A828BC2
:104FD30083125005A3A3E0601B8A828B83E024F233
:104FE300F0E8240EF8E9125200FA85088285098355
:104FF300E0C39AF00231C3124FFE22F08E828F83F8
:10500300A32212500922F08E828F830250A2E8F06D
:10501300A3E9F0EE22125E32EAF0A3EB125DD3E0D5
:105023002408F02274F4120AA78A088B09EA1250A2
:10503300A7F0EA1313543F1250B0A3A3A3F0EAC49A
:1050430013131250A7A3A3F0E48C828D83A3A3A30D
:10505300A3A3F08A0A8B0B7409780A121264E50A77
:10506300125097F0EC2418F582ED124AD98A0A8B74
:105073000B740B780A121264E50A125092F0740C46
:105083007808121264E508125092A3F002498712BD
:105093005097A32254018C828D838001A3A3A3A3E1
:1050A300A3A3A32254038C828D83A3A322540F8C26
:1050B300828D8322C082C0837900900356125928BF
:1050C300A3A3A3E0600FEC70268A828B83A3A3E0E3
:1050D300701D09801AEC60178A828B83A3A3A3A394
:1050E300A3A3A3A3A31250F57003A3E06B70E30281
:1050F300491B1248AB90035FE06A2274EE120AA7C1
:105103008A088B09890CECFEEDFF12522DC0E0EEEC
:105113002411123F74D0E0125227C0E0EE24121281
:105123003F74D0E0124FFA85820A85830B1251F83F
:105133006010E5082408F8E5093400F9EE24131299
:1051430052168E828F83A3A3A3A3A3A3A3A3E0607A
:10515300091251DBEE2415125216EEFAEFFB12156B
:1051630049E9F50D706B850A82850B83E0F50EF531
:1051730010E5082510FAE5093400FBEE2417F8EFD3
:105183003400F988088909EE241DF8EF124993FCCD
:10519300E9FD8E828F83A3A3A3A3A3A3E07012EAE6
:1051A300F8EBF98C828D831251F2E50CC3950E80D6
:1051B30019EA240EF8EB125200FB850A82850B8351
:1051C300E0FAE50CC39A24F2C39B85088285098320
:1051D300F0A90D7F0A020DC2850A82850B83E0F8D0
:1051E300E50828F8E5093400F922125E22A3A3E8B2
:1051F300F0A3E9F0227408125009023E903400F93A
:105203008C828D83E8F0A3E9F0900357E0F9122430
:1052130043E922125E32E8F0A3E9F0850A82850BA6
:10522300830250221255BD023E908A828B8312481C
:10523300AB121543850882850983A3A312526CE040
:10524300F9EA8E828F83A3A3A3A3A3A3A3A3A31289
:10525300527112526CA3A3E0F9EAF8EE240B125E2A
:1052630032E8125271A3A3E022E0FA024E78F0A3CF
:10527300E91255C122C082C0837AD47B0379E2123A
:1052830023897AD47B0302491BC082C08390035FC6
:105293001252C902491BC082C08374FE1210AC852E
:1052A3001882851983AA82AB83794B1252B91252A1
:1052B300C974020249181223898518828519832229
:1052C300850C82850D831248AB22C082C083794A44
:1052D30012238902491B74F6120AA79003DCE0FE2D
:1052E30004F0EEF91214FBEA7001EB70EEEE60EBE2
:1052F300F902545074EE120AA7EAFEEBFF8C088DF4
:1053030009890A74121212DBE0F50B74131212DB13
:10531300E0F50C750D00750E001216158A108B1131
:10532300AC10AD11EC7001ED7014E50C704DA90AD1
:10533300AC08AD09EEFAEFFB12161B0253DDEC24A9
:1053430002F8ED3400F9E50A601988828983E0FAEE
:10535300850A08E5082AFAE4340013EA13F0700317
:105363007401F0E50C6020E50B70108C828D83E0F6
:10537300600914F064027003750E017401650C700A
:1053830035E50B7016802A901574E0C0E088828999
:1053930083E0FAD0E0C39A504180DD9003E3E00458
:1053A300F0C0E090155EE0FAD0E0C39A4008750DB6
:1053B30001E49003E3F0E50E7004E50D601CE50DD8
:1053C3006018900362E06E7003A3E06F700CEEFA56
:1053D300EFFB79011213B71253E00251D67A017B26
:1053E300009003BAE0F9121BAF22C082C08374019C
:1053F3006A7001EB70077A011254198014901555E5
:10540300125441EA7001EB600512338E800312538C
:10541300E002491B7A207B009003BAE0F9121AC517
:1054230022C082C08390155712544102491BC08287
:10543300C08390155980F1F582EF3400F583EAF0CB
:10544300A3EBF022A908800574091210627F0202FF
:105453000DC28E828F83124AFE22A2F0E492E012E2
:10546300546B795212238F22851882851983F00297
:1054730049A112546B794212238F22AA82AB831261
:1054830014AD7ABD7B03794512238F2274F7120A78
:10549300A774ED1210ACE9FE9003B91257E1125450
:1054A300C674121212DBEE1254BB8518828519835F
:1054B30012547E7413024861F09014F1E0F97CBD3C
:1054C3007D03229014F1E0F97ABD7B031214B32219
:1054D300AA08AB099003BAE0F9121A9B223400F52B
:1054E300837401221254E0F022A3A3A3A3A3A3A3D2
:1054F300A3A374FEF0A374FFF02274F4120AA7EAC4
:10550300FEEBFF7A007B041253E412558F1251F223
:10551300740990036EF01215558A088B09AC08AD17
:1055230009EE2413123F741252C9125B43640170D3
:105533004D7A0F1255847001EB604374028A828B9B
:1055430083F0EE241DF8EF1260DE1252C98A828BBB
:1055530083A312592DE0FBEC850882850983A3A35D
:10556300F0A3EB125FFB124AFFA3A3A312559D12F4
:1055730055A1FAA3E0FB794A12238F1254D30249AF
:10558300877B00121A8F8A088B09EA2290033F1245
:105593004BC290155922EF1260E2E0024F19A3F0BB
:1055A300EE24151255AA22F582EF3400F583E0228A
:1055B30074081210627F08020DC21255C122F085D1
:1055C30008828509830250A2F50CE5093400F50D24
:1055D30022125E066401228E828F83A3A3A3A3A358
:1055E300A3A3A3A31255EB22124F12FB1215BBE97F
:1055F300221258B91215AF2274F4120AA774F312C7
:1056030010ACEAFEEBFF7C0D7D00790085188285E6
:105613001983AA82AB83121A77EE241D123F7412E8
:105623005459A3E0F854206008740C1212DB74017F
:10563300F0E854806008740B1212DB7401F0E85434
:1056430040600A740A1212DB7401F0800A740A12B1
:1056530012DBE064017005EE24138003EE241512BF
:105663004ADF74021212DBAA82AB831222C9EE2430
:105673000BF8EF3400F9880889098882F5831256FC
:10568300D71251F2740A1212DBE06401703412551E
:10569300DA703C1215618A0A8B0BA80AA90B8508DC
:1056A30082850983E0687003A3E0697022121555AF
:1056B300EAFCEBFD74021212DBAA82AB83125B439A
:1056C300600D851882851983AA82AB831213B17486
:1056D3000D024984124BC20252BC74F6120AA7741B
:1056E300F31210AC8A088B09ECFEEDFF7C0D7D00F4
:1056F3007900851882851983AA82AB83125F76A30A
:10570300A3A3A3A3A3A3A3A31256D7E8F0A3E912C9
:105713005767FAA2E55008740B1212DB7401F0EA22
:10572300A2E75008740A1212DB7401F0EAA2E6EE53
:105733005004241380022415124ADF74021212DB70
:1057430012575DA3A3E0C0E0740C1212DBD0E01289
:1057530058B11213AB740D02544DAA82AB831222BB
:10576300C9024F19F0EE241DF582EF3400124AFCF2
:10577300A3E02274F7120AA774E11210ACEAFEEB5D
:10578300FF1234C7EA2406F8EB125E02A2E050448B
:1057930054FEF0A3E01257E18A828B831257DAE0BA
:1057A300F98A828B83E0241CFAA3E01239DB1252BC
:1057B300C912154FE9701D741D1212DB124AF764EA
:1057C300047011851882851983AC82AD83EEFAEFDC
:1057D300FB12159D02485FE0241B124CDC2212577A
:1057E300E9AC82AD8322F00252BCE9FA7900740479
:1057F3006A600A740A6A600574036A700109020D1B
:105803005374F6120AA774208A828B83F07401A35F
:10581300A3F0121363EA7001EB600774018A828BB1
:1058230083F0025450C082C08374019003D1F0E925
:10583300A2E350037403F0E9A2E15004E0D2E2F0E2
:1058430002491B74F6120AA779007C008A088B09A7
:105853007808120CFBF8FF07795877587758775870
:1058630077587058745879586D580C80097C0480A7
:10587300050C80F67C089003D1E05C60030980038B
:10588300EC60010902545074F6120AA78A828B83D2
:10589300E0700EA312474C7001EB600512250380E4
:1058A300047A007B000254507F03020DC2E41258B5
:1058B300B5221258B9221257E90249A1124AE68EBB
:1058C300828F83A3A302509F74F2120AA774FD125E
:1058D30010AC8A088B09ECFEEDFF890A750B017485
:1058E300011212DB7404125DF47001EB6032EA12F0
:1058F3005DEFEB12486C740388828983F0A3E50A99
:10590300F0EE88828983A3A3F0EF88828983A3A31F
:1059130012460AE508F0A3E509F012135DE9F50B59
:10592300A90B0231BE12592DA322E0FC8A828B837C
:10593300A3A32274EC120AA774F51210AC8A0C8B81
:105943000D89108C0A8D0B741F1212DBE0F5117494
:10595300201212DBE0F50EA3E0F50F7E01EE12122A
:10596300DB740AF0E97007E511C333240AF08518E4
:1059730082851983AA82AB831215AF8A088B09EA41
:105983007001EB7003025A2C125E3A7409125B2207
:105993004511125B3CAC0AAD0B125B0AE510702D8E
:1059A3007C008023ECC333F8E433F9E50E28F8E5F3
:1059B3000F39F988828983125B398882898312407F
:1059C30075F0A30EAF830CECC3951140D7E5082403
:1059D30017F582E509125A38E508241AF582E50914
:1059E30012543D74031212DBAC82AD83AA0CAB0DCF
:1059F300122401E96021E508125A33E5091254E73C
:105A030074031212DBA882A983E5082418F582E542
:105A130009123F771251F2850882850983125B2FA1
:105A2300AA08AB0912135DE9FEEEF9740B025B02DF
:105A33002416F582221254E0F012155522FEA3E03B
:105A43003400FF8E828F83E02274EC120AA78A0C43
:105A53008B0D89118C0E8D0F74141212DBE0F5106F
:105A630074151212DB125AFA900D2BE07002A3E0A8
:105A73006078E510C333F508E433F509740E25089F
:105A8300FAE43509FB121A8F8A128B13AE12AF1385
:105A9300EE7001EF605474D48E828F83F0125B2F0B
:105AA3008E828F83A3A3A3A3E511F0AC0EAD0FEEFB
:105AB3002405FAEF125AF3EE240D123F74E510F0A9
:105AC300850A0C850B0D750E00780C121016AC08A8
:105AD300AD09EE240EFAEF124145121062EEFAEF11
:105AE300FB900D2B12545912259B025B05FAE50915
:105AF3003400FB1222C922E0F50AA3E0F50B2212BF
:105B030010627F0C020DC2EEFAEFFB125B1222123F
:105B130022C9125B1922EE2408FEEF3400FF228E05
